:020000040800F2
:1000000000000220E9450008810C0008830C00086C
:10001000850C0008870C0008890C0008000000000F
:100020000000000000000000000000008B0C000831
:100030008D0C0008000000008F0C0008910C0008D7
:100040003D4600083D4600083D4600083D46000884
:100050003D4600083D4600083D4600083D46000874
:100060003D4600083D4600083D4600083D46000864
:100070003D4600083D4600083D4600083D46000854
:100080003D4600083D4600083D4600083D46000844
:100090003D4600083D4600083D4600083D46000834
:1000A0003D4600083D4600083D4600083D46000824
:1000B0003D4600083D4600083D4600083D46000814
:1000C0003D4600083D4600083D4600083D46000804
:1000D0003D4600083D4600083D4600083D460008F4
:1000E0003D4600083D4600083D4600083D460008E4
:1000F0003D4600083D4600083D4600083D460008D4
:100100003D4600083D4600083D4600083D460008C3
:100110003D4600083D4600083D4600083D460008B3
:100120003D4600083D4600083D4600083D460008A3
:100130003D46000800000000000000003D460008A9
:100140003D4600083D4600083D460008990C000861
:100150003D4600083D4600083D4600083D46000873
:100160003D4600083D4600083D4600083D46000863
:100170003D4600083D460008000000000000000069
:080180003D4600083D46000861
:1001900010B5054C237833B9044B13B10448AFF3C1
:1001A00000800123237010BD7C02002000000000AD
:1001B0000C57000808B5034B1BB103490348AFF3C4
:1001C000008008BD00000000800200200C570008DD
:1001D00001F0FF01102A2BDB10F0070F08D010F8F8
:1001E000013B013A8B422DD010F0070F42B3F6D1FC
:1001F000F0B441EA012141EA014122F007047FF015
:1002000000070023F0E80256083C85EA010586EA6B
:10021000010685FA47F5A3FA87F586FA47F6A5FAA7
:1002200087F68EB9EED1F0BC01F0FF0102F00702B3
:1002300032B110F8013B013A83EA010313B1F8D15E
:100240000020704701387047002D06BF354603383F
:10025000073815F0010F07D1013015F4807F02BF78
:10026000013015F4C03F0130F0BC0138704700BFC9
:1002700053B94AB9002908BF00281CBF4FF0FF310D
:100280004FF0FF3000F074B9ADF1080C6DE904CE09
:1002900000F006F8DDF804E0DDE9022304B0704761
:1002A0002DE9F047089D04468E46002B4DD18A4229
:1002B000944669D9B2FA82F252B101FA02F3C2F15C
:1002C000200120FA01F10CFA02FC41EA030E9440ED
:1002D0004FEA1C48210CBEFBF8F61FFA8CF708FB0E
:1002E00016E341EA034306FB07F199420AD91CEBE6
:1002F000030306F1FF3080F01F81994240F21C8118
:10030000023E63445B1AA4B2B3FBF8F008FB10335F
:1003100044EA034400FB07F7A7420AD91CEB040494
:1003200000F1FF3380F00A81A74240F20781644464
:10033000023840EA0640E41B00261DB1D4400023E9
:10034000C5E900433146BDE8F0878B4209D9002D4D
:1003500000F0EF800026C5E9000130463146BDE8D7
:10036000F087B3FA83F6002E4AD18B4202D3824241
:1003700000F2F980841A61EB030301209E46002DF0
:10038000E0D0C5E9004EDDE702B9FFDEB2FA82F245
:10039000002A40F09280A1EB0C014FEA1C471FFAA3
:1003A0008CFE0126200CB1FBF7F307FB131140EA8A
:1003B00001410EFB03F0884208D91CEB010103F157
:1003C000FF3802D2884200F2CB804346091AA4B219
:1003D000B1FBF7F007FB101144EA01440EFB00FEED
:1003E000A64508D91CEB040400F1FF3102D2A64552
:1003F00000F2BB800846A4EB0E0440EA03409CE7F1
:10040000C6F12007B34022FA07FC4CEA030C20FA9D
:1004100007F401FA06F31C43F9404FEA1C4900FABD
:1004200006F3B1FBF9F8200C1FFA8CFE09FB18113A
:1004300040EA014108FB0EF0884202FA06F20BD9AD
:100440001CEB010108F1FF3A80F08880884240F2FD
:100450008580A8F102086144091AA4B2B1FBF9F041
:1004600009FB101144EA014100FB0EFE8E4508D93C
:100470001CEB010100F1FF346CD28E456AD90238C1
:10048000614440EA0840A0FB0294A1EB0E01A142A6
:10049000C846A64656D353D05DB1B3EB080261EB14
:1004A0000E0101FA07F722FA06F3F1401F43C5E9EE
:1004B000007100263146BDE8F087C2F12003D84024
:1004C0000CFA02FC21FA03F3914001434FEA1C4766
:1004D0001FFA8CFEB3FBF7F007FB10360B0C43EA58
:1004E000064300FB0EF69E4204FA02F408D91CEB08
:1004F000030300F1FF382FD29E422DD90238634406
:100500009B1B89B2B3FBF7F607FB163341EA0341A5
:1005100006FB0EF38B4208D91CEB010106F1FF38F4
:1005200016D28B4214D9023E6144C91A46EA0046EB
:1005300038E72E46284605E70646E3E61846F8E67D
:100540004B45A9D2B9EB020864EB0C0E0138A3E7C6
:100550004646EAE7204694E74046D1E7D0467BE7A7
:10056000023B614432E7304609E76444023842E71F
:10057000704700BF10B514464FF6FF7392B20248A1
:1005800003F0C5FF204610BD002D002008B5084B24
:100590001A68084B9A4200D008BD074B83F30888BD
:1005A000064804F0FFF8064B5B689847F4E700BF85
:1005B000582D0020996655AA0000022024570008F3
:1005C0000060000872B6FEE700B595B03022002149
:1005D00008A804F059F800230393049305930693A5
:1005E00007930193204A116C41F080511164126C01
:1005F00002F080520192019A02931C4B1A6842F455
:1006000080421A601B6803F480430293029B01231B
:1006100008934FF48033099302230E934FF4800222
:100620000F9204221092A82211921293072313937F
:1006300008A802F013F898B90F2303930223049338
:10064000002305934FF4A05306934FF48053079370
:10065000052103A802F068FA20B915B05DF804FB83
:10066000FFF7B0FFFFF7AEFF003802400070004018
:1006700010B502F0B3FCFFF7A7FF00F01FF800F081
:1006800039F803F0F9FD0A4804F08CF802F0CCFCCC
:10069000044602F0C9FC031BB3F57A7FF9D3054881
:1006A00004F080F80B21044800F0C4FAEEE700BF24
:1006B000345700084C5700086057000882B00021EA
:1006C00000910B4B1A6B42F080021A631A6B02F016
:1006D00080020092009A01911A6B42F001021A63A3
:1006E0001B6B03F001030193019B02B0704700BF35
:1006F0000038024008B500220F49104802F0B8FC4B
:1007000070B90F490D4802F0CAFC60B90D490B4899
:1007100003F044FD50B9094802F0DBFC48B908BDBC
:10072000FFF750FFEDE7FFF74DFFEFE7FFF74AFF59
:10073000F1E7FFF747FFF2E70000002098020020F2
:10074000840000206400002030B589B000230393AA
:1007500004930593069307930368B3F1A04F01D068
:1007600009B030BD00250195164C236B43F0010301
:100770002363236B03F001030193019B4FF4C053E8
:10078000039302230493032306930A23079303A9E5
:100790000D4802F09FFA636B43F080036363029598
:1007A000636C43F480436364636C03F4804302939B
:1007B000029B2A462946432002F090FB432002F088
:1007C000C5FBCDE7003802400000024008B500F24A
:1007D000C441D0F8080502F092FC08BD08B501EB51
:1007E000C10300EB8303D3F88C22D0F8080502F094
:1007F00053FD08BD08B501EBC10300EB8303DA6CC0
:10080000D0F8080502F0ABFD08BD08B5D0F8080522
:1008100002F0EDFC08BD10B50446C3683BB1022BE5
:1008200001D1012104E0FFF7CDFE012100E000210C
:10083000D4F8080502F0C1FCD4F8080502F08BFCDE
:1008400010BD000010B50446D0F8080502F0B8FC51
:100850002268D2F8003E43F00103C2F8003E236A4A
:1008600023B1034A136943F00603136110BD00BFAF
:1008700000ED00E008B5D0F8080502F0ABFC08BDBB
:1008800008B5D0F8080502F0DAFC08BD08B5D0F8C4
:10089000080502F0BDFC08BD08B5D0F8080502F057
:1008A000E5FC08BD08B5D0F8080502F0E1FC08BD7C
:1008B00002780AB10020704710B503461548C0F809
:1008C0000835C3F8C8024FF0A04303600423436017
:1008D0000222C260002303618261C361036243623A
:1008E000C362036300F064FA80B90A4C8021204699
:1008F00001F05AF840220021204601F02FF8802212
:100900000121204601F02AF8002010BDFFF75AFE11
:10091000EBE700BF74050020D0F8C83211F0800F5B
:1009200008D101F07F0101EBC10103EB810191F8D6
:100930007E02704701F07F0101EBC10103EB8101F1
:1009400091F83E00704708B5D0F8C80200F053FC9B
:1009500008BD000000487047800A00207047032847
:1009600005D8DFE800F005040205012070470320E8
:10097000704708B5D0F8C80200F0B1FAFFF7EFFFF2
:1009800008BD08B594461A466346D0F8C80200F080
:1009900085FBFFF7E4FF08BD08B5D0F8C80200F0FA
:1009A000C2FBFFF7DCFF08BD08B5D0F8C80200F0B5
:1009B0005AFCFFF7D4FF08BD08B5D0F8C80200F014
:1009C00096FCFFF7CCFF08BD08B5D0F8C80200F0D0
:1009D00051FBFFF7C4FF08BD08B5D0F8C80200F00E
:1009E00013FCFFF7BCFF08BD08B5D0F8C80200F043
:1009F000D3FBFFF7B4FF08BD12230B8000487047FC
:100A00001C00002004230B800048704730000020A9
:100A1000002393421ED200B510E00CF1370C01F810
:100A200013C000014FEA430C0CF1010C4FF0000E13
:100A300001F80CE00133DBB2934209D24FEA107C9B
:100A4000B0F1204FE9D20CF1300C01F813C0E8E707
:100A50005DF804FB7047000038B50B4BD3F8100A63
:100A6000D3F8144AD3F8183AC01800D138BD074D4E
:100A70000822A91CFFF7CCFF042205F11201204631
:100A8000FFF7C6FFF2E700BF0070FF1F480000201D
:100A900008B51A230B80FFF7DFFF014808BD00BF30
:100AA0004800002008B50A4628B90549054803F062
:100AB00072F8034808BD0249024803F06CF8F8E7F1
:100AC000F80A00206C57000810B50A46034C21466E
:100AD000034803F060F8204610BD00BFF80A00206C
:100AE0008857000808B50A4628B90549054803F0A3
:100AF00052F8034808BD0249024803F04CF8F8E7F1
:100B0000F80A00209C57000808B50A4628B905498C
:100B1000054803F040F8034808BD0249024803F0C5
:100B20003AF8F8E7F80A0020785700080023138005
:100B3000EE2903D0062905D0002070471223138028
:100B40000448704710B5044C2146044803F023F8CC
:100B5000204610BD34000020F80A0020A8570008E5
:100B600000207047212801D00020704700230B701F
:100B7000C2224A7001228A70CB700B714B7108231C
:100B80008B71F1E710B514460968044803F084FD41
:100B90002146034803F080FD002010BDC85700081F
:100BA000D4570008F8B505460E461746002404E061
:100BB000295D0B4803F070FD01343368A342F7D878
:100BC000084803F0EFFD084C3A462946204603F05A
:100BD00001FB3946204603F02FFB0020F8BD00BF83
:100BE000E0570008E85700089802002010B50C4CA8
:100BF000012300220B49204603F0DBFA01220A49B7
:100C0000204603F0E7FA032300220849204603F0B8
:100C1000D0FA03220649204603F0DCFA002010BD7A
:100C200098020020F8140020F80C0020F82400207E
:100C3000F81C002038B514460E4BD3F8BC32012AFC
:100C400007D0032A14D15C330B481B7A23B101204F
:100C500038BD44330948F8E7064D23460A460146A5
:100C6000284603F0A6FA2146284603F0C1FAEFE72A
:100C70000320EDE798020020F8240020F81400205B
:100C8000FEE7FEE7FEE7FEE7FEE7704770477047C6
:100C900008B502F0BDF908BD08B5024800F07CFBBC
:100CA00008BD00BF7405002082B0002100910B4BED
:100CB0005A6C42F480425A645A6C02F480420092A8
:100CC000009A01911A6C42F080521A641B6C03F076
:100CD00080530193019B02B0704700BF003802406F
:100CE0002DE9F04383B0D0F8008001EBC10300EBA5
:100CF0008303DA6D5B6D9A4254D807460C469B1A03
:100D000001EBC10200EB8202926C9A4200D31A46B8
:100D100002F103094FEA990915E006F103094FEAC8
:100D2000990904EBC40507EB8505E96C3B7C00934E
:100D3000B3B2E2B2404601F008FAEB6C3344EB6424
:100D4000EB6D3344EB6508EB441303F510639B69CB
:100D50009BB24B4512D304EBC40207EB8202D16D68
:100D6000536D99420AD24BB15B1A04EBC40207EBF4
:100D70008202966C9E42D0D31E46CEE704EBC4009E
:100D800007EB80077A6DFB6D9A420FD804F00F04D1
:100D90000123A340D8F8344824EA0304C8F83448AF
:100DA000002000E0012003B0BDE8F0830020FAE756
:100DB00070B58AB0002800F090800546046890F86D
:100DC000BD343BB3032385F8BD34E36B13F4807F5C
:100DD00001D100232B61286800F0D2FE2C4654F884
:100DE000106BEC460FCCACE80F000FCCACE80F005A
:100DF00094E803008CE803002B1D0ECB304600F076
:100E000001FE044658B1022385F8BD340124204672
:100E10000AB070BD80F8BC34FFF796FCD2E7002121
:100E2000286801F0A9FB234616E003EBC30205EB9B
:100E30008202012182F83D1082F83C30A2F8443051
:100E4000002182F840109164D16403EBC30205EBEA
:100E5000820251650133DBB269688B42E5D316E04B
:100E600004EBC40305EB8303002283F87D2283F89F
:100E70007C4283F88022C3F88822C3F88C2204EBDA
:100E8000C40305EB8303C3F894220134E4B2A14206
:100E9000E6D82C4654F8106BEC460FCCACE80F00AB
:100EA0000FCCACE80F0094E803008CE803002B1D86
:100EB0000ECB304600F0C0FE044620B1022385F878
:100EC000BD340124A3E7002385F83830012385F8D9
:100ED000BD34286801F00DFB99E7012497E702680B
:100EE00090F8BC34012B19D010B50446012380F8CA
:100EF000BC34836A012B09D0206800F03BFE2068D7
:100F000001F0E9FA002084F8BC0410BD8369012BCC
:100F1000F2D0936B43F480339363EDE70220704784
:100F200070B504460D460068066C00EB411303F5EE
:100F300030639A682169012911D038498E4256D010
:100F40003DB905EBC50304EB8303D3F89432002BC2
:100F50005ED0E9B22046FFF741FC002070BD12F0E0
:100F6000080F09D02E498E42F7D912F4004FF4D061
:100F70004FF400429A60F0E712F0200F02D02022D6
:100F80009A60EAE712F0280FE7D125498E4206D988
:100F900012F4004F03D04FF400429A60DDE705EBF6
:100FA000C50204EB8202D2F898121B69C3F3120344
:100FB000CB1AC2F89C327DB905EBC50204EB820264
:100FC000D2F894226AB105EBC50204EB8202D2F892
:100FD0008C120B44C2F88C32E9B22046FFF7FEFBBC
:100FE000BBE704F2C442012101F008FBF4E712F46C
:100FF000004F03D04FF400429A60AEE712F0200F8A
:1010000001D020229A60E9B22046FFF7E7FBA4E76F
:1010100004F2C442002101F0F1FA9AE70A31544F78
:101020000A30544F38B5044603681D6C03EB411376
:10103000D3F8081B0E4A954207D903F5306311F423
:10104000004F02D04FF400429A602046FFF7BEFBEB
:10105000074B9D4202D92369012B01D0002038BDE6
:1010600004F2C4420121206801F0C8FAF6E700BF8B
:101070000A30544F90F8BC34012B0DD010B5044603
:10108000012380F8BC3480F83810006801F013FAAE
:10109000002084F8BC0410BD0220704738B5054616
:1010A0008C4611F0800F29D101F00F0E0EEBCE040B
:1010B000A40004F51E740444211D0EEBCE0E00EBBB
:1010C0008E0E00208EF87D020CF00F0C81F800C00F
:1010D000CA600B714A780AB1A1F808C0022B1DD072
:1010E00095F8BC34012B1CD0012385F8BC3428684A
:1010F00000F07BFE002085F8BC0438BD01F00F0035
:1011000000EBC001890038312944043100EBC000F4
:1011100005EB8000012480F83D40D5E700234B71AA
:10112000DEE70220E9E710B504460A4611F0800F19
:1011300020D101F00F0000EBC0039B0003F51E73EC
:101140002344191D00EBC00004EB8000002380F84D
:101150007D3202F00F020A7094F8BC34012B19D0D2
:10116000012384F8BC34206800F08EFE002084F84F
:10117000BC0410BD01F00F0000EBC0039B0038332E
:101180002344191D00EBC00004EB8000012380F80C
:101190003D30DEE70220ECE710B501F00F0404EB70
:1011A000C401890001F51E710144043104EBC40C33
:1011B00000EB8C0CCCF88C22CCF894320023CCF8C9
:1011C0009C328CF87D328CF87C420369012B06D06E
:1011D00064B9DAB2006800F0C7FE002010BD04EB6D
:1011E000C40C00EB8C0CCCF89022F1E7DAB200686A
:1011F00000F0C2FFF1E701F00F0101EBC10100EBCC
:101200008101D1F89C02704710B501F00F0404EB86
:10121000C401890038310144043104EBC40C00EBF3
:101220008C0CCCF84C20CCF854300023CCF85C303B
:1012300001238CF83D308CF83C400369012B06D02B
:1012400064B9DAB2006800F08FFE002010BD04EB34
:10125000C40C00EB8C0CCCF85020F1E7DAB200683B
:1012600000F08AFFF1E738B501F00F0542689542BA
:1012700039D804460B4611F0800F1FD101EBC10194
:10128000890001F51E710144043103EBC30300EB37
:101290008303002283F87D2201238B700D7094F864
:1012A000BC34012B21D0012384F8BC34206801F028
:1012B000A7F88DB1002084F8BC0438BD05EBC5014A
:1012C000890038310144043105EBC50300EB830389
:1012D000012283F83D20DFE704F2C442217C20682C
:1012E00001F08CF9E6E70120E7E70220E5E701F0ED
:1012F0000F034268934231D810B5044611F0800FB5
:101300001ED103EBC301890001F51E7101440431B4
:1013100003EBC30200EB8202002082F87D02002270
:101320008A700B7094F8BC34012B19D0012384F817
:10133000BC34206801F091F8002084F8BC0410BD92
:1013400003EBC301890038310144043103EBC302CC
:1013500000EB8202012082F83D00E0E701207047A7
:101360000220ECE708B511F0800F0CD101F00F015D
:1013700001EBC101890001F51E71014404310068CF
:1013800000F084FE08BD01F00F0101EBC1018900EE
:10139000383101440431F2E72DE9F04F83B00446BF
:1013A0000568284601F0E4F810B103B0BDE8F08FFD
:1013B0000646206801F0ABF80028F6D005F5006776
:1013C000BB68C3F30D23C4F8FC34206801F09FF818
:1013D00010F0020F04D02268536903F00203536136
:1013E000206801F094F810F0100F13D02268936970
:1013F00023F010039361D5F8208008F00F09C8F39B
:101400004343022B4BD0062B6FD02268936943F0E5
:1014100010039361206801F07AF810F4002F76D160
:10142000206801F074F810F4802F40F0E08020680C
:1014300001F06DF80028C0F26381206801F067F8C0
:1014400010F4006F09D0BB6813F0010F40F07081F9
:101450002268536903F400635361206801F057F870
:1014600010F4805F40F06881206801F050F810F4BB
:10147000005F40F0B581206801F049F810F0080FD6
:1014800040F0C681206801F042F810F0800F00F0B3
:10149000D981AB6923F08003AB610126C2E147F635
:1014A000F07318EA030FB0D04FEA181B4FEAC903D4
:1014B000019309EBC90A04EB8A0AC8F30A12DAF8A5
:1014C0008C12284600F072FFCBF30A0BDAF88C324C
:1014D0005B44CAF88C32019B4B4404EB8303D3F882
:1014E0009C325B44CAF89C328FE7082204F2C44164
:1014F000284600F05BFFC8F30A1809EBC90204EBA9
:101500008202D2F89C324344C2F89C327DE72068C4
:1015100001F001F88046B14635E005EB49130122A0
:10152000C3F8082B49462046FFF7FAFC3CE005EBE0
:1015300049130822C3F8082B49462046FFF772FDDD
:1015400035E009EBC90304EB830393F87F32012BE9
:1015500041D005EB49130222C3F8082B1AF0200FE3
:1015600004D005EB49132022C3F8082B1AF4005FBE
:1015700005D005EB49134FF40052C3F8082B09F1CD
:1015800001094FEA5808B8F1000F3FF449AF18F0CD
:10159000010FF4D05FFA89FB5946206800F0CBFFB9
:1015A000824610F0010FB8D11AF0080FBFD11AF01F
:1015B000100F04D005EB49131022C3F8082B1AF0C2
:1015C000020FCBD06B6913F0800FBAD07B6843F465
:1015D00080637B60B5E709EBC90304EB830300225A
:1015E00083F87F2259462046FFF74AF9B1E7206881
:1015F00000F099FF8046B14625E059462046FFF7A6
:10160000F9F81AF0080F04D005EB49130822C3F8C3
:1016100008291AF0100F04D005EB49131022C3F863
:1016200008291AF0400F04D005EB49134022C3F8F3
:1016300008291AF0020F40D11AF0800F5BD109F18E
:1016400001094FEA5808B8F1000F3FF4F0AE18F066
:10165000010FF4D05FFA89FB5946206800F074FF4F
:10166000824610F0010FCCD009F00F03012101FADE
:1016700003F27B6B23EA02037B6305EB4913C3F898
:10168000081923698B42B8D109EBC90304EB830322
:10169000996CDA6C0A44DA64B9F1000FADD109EB48
:1016A000C90304EB83035B6D002BA6D104F2C44293
:1016B0000121206800F0A2FF9FE74946284600F07C
:1016C00065FA09EBC90304EB830393F83F30012B60
:1016D00005D005EB49130222C3F80829ACE709EB52
:1016E000C90304EB8303002283F83F2059462046B8
:1016F000FFF7CCF8EDE749462046FFF7F1FA9EE701
:101700007B6823F001037B6094F8F434012B08D04C
:101710002046FFF7AFF82268536903F00043536196
:101720008BE6002184F8F414204600F041F9F2E73A
:101730002046FFF787F88BE67B6823F001037B6088
:101740001021206800F022FA1AE005EB46134FF64C
:101750007F31C3F80819D3F8002922F40012C3F826
:101760000029C3F8081BD3F8002B22F40012C3F899
:10177000002BD3F8002B42F00062C3F8002B013697
:101780006368B342E1D8FB6943F00113FB61236B4B
:10179000DBB1D7F8843043F00B03C7F884307B6C9F
:1017A00043F00B037B64D5F8003823F4FE63C5F8DF
:1017B000003804F2C442217C206800F01FFF226838
:1017C000536903F4805353614EE67B6943F400533D
:1017D00043F02B037B613B6943F00B033B61E2E782
:1017E000206800F0FAFE206800F0EEFAE06026685B
:1017F00001F04AFA0146227B304600F049F92046C2
:10180000FFF709F82268536903F40053536132E685
:101810002046FEF7FAFF2268536903F0080353617C
:1018200030E601366368B3420CD906EBC60304EB1D
:10183000830393F87F32012BF3D1F1B22046FFF7F7
:1018400091FDEEE7206800F062FE10F4801F27D1C2
:10185000206800F05CFE10F4001F5BD0012328E03C
:1018600001366368B3421DD905EB4613D3F800294E
:1018700006EBC60304EB830393F84030012BEFD152
:10188000002AEDDA06EBC60304EB8303012283F89A
:101890003F2066F07F01C9B22046FFF763FDDFE716
:1018A0000126DEE72268536903F480135361CFE712
:1018B000013362689A4228D905EB4312D2F8001B23
:1018C00003EBC30204EB820292F88022012AEFD1DB
:1018D0000029EDDA01F48031D4F8FC2402F0010291
:1018E0009142E5D103EBC30204EB8202012182F8AD
:1018F0007F12AA6942F08002AA616A6912F0800F21
:10190000D6D17B6843F400737B602268536903F48B
:1019100000135361206800F0FAFD10F0804F10D1E1
:10192000206800F0F4FD10F0040F3FF43EAD236892
:101930005D6815F0040F0DD1226853682B43536086
:1019400033E52046FEF7A8FF2268536903F0804381
:101950005361E5E72046FEF7A5FFEDE710B4046804
:10196000606A31B940EA0240A06200205DF8044B91
:1019700070478C46A36A00EB1340002308E003F194
:10198000400104EB8101496800EB11400133DBB2F7
:101990000CF1FF318B42F2D340EA02400CF13F01DF
:1019A00004EB81014860E0E703685962002070475A
:1019B0007047000082B000230193019B0133019323
:1019C000019A0F4B9A4215D80369002BF5DA0023D0
:1019D0000193036943F001030361019B0133019308
:1019E000019A074B9A4208D8036913F0010FF4D10A
:1019F000002000E0032002B070470320FBE700BF97
:101A0000400D030084B010B5044603A880E80E0022
:101A1000089B012B1FD1A36B23F48033A363E368DE
:101A200023F4840323F04003E360E36823F44013CA
:101A3000E3600F9B012B09D02046FFF7BBFF069BFD
:101A4000012B1BD0BDE8104004B07047E36843F49D
:101A50008013E360F0E7E36843F04003E36020466F
:101A6000FFF7A8FF0C9B23B9A36B43F48033A36358
:101A7000E5E7A36B23F48033A363E0E7A36843F0B7
:101A80000603A360A36843F02003A360DAE7000025
:101A9000022A0AD00921C26822F47052C260C368C7
:101AA00043EA8123C36000207047234B0B44234A41
:101AB00093422FD9224B0B44224A93422CD9A1F5B1
:101AC0007403A3F51053204A934227D9A1F18373DD
:101AD000A3F5E7431D4A934222D31D4B0B441D4AF5
:101AE00093421FD91C4B0B441C4A93421CD31C4BE2
:101AF0000B441C4A934219D3A1F1B773A3F5585371
:101B0000194A934214D3194B0B44194A934211D2E8
:101B10000721C0E70F21BEE70E21BCE70D21BAE780
:101B20000C21B8E70B21B6E70A21B4E70921B2E797
:101B30000821B0E70621AEE7405327FFFF340C0031
:101B4000401E1BFF3F420F007F4F120020D61300A4
:101B500060B6E5FE5FE3160000D3CEFE40771B00C3
:101B6000C05BB3FEC091210020753800E05459FEDF
:101B7000E09C4100836843F00103836000207047CC
:101B8000836823F0010383600020704782B0002344
:101B90000193019B01330193019A0F4B9A4215D88F
:101BA0000369002BF5DA00230193890141F020013C
:101BB0000161019B01330193019A074B9A4208D8B6
:101BC000036913F0200FF4D1002000E0032002B0DD
:101BD00070470320FBE700BF400D030082B00023E5
:101BE0000193019B01330193019A0E4B9A4213D842
:101BF0000369002BF5DA0023019310230361019B95
:101C000001330193019A074B9A4208D8036913F0F4
:101C1000100FF4D1002000E0032002B07047032031
:101C2000FBE700BF400D0300D0F800381943C0F8AF
:101C3000001800207047000084B02DE9F0410446F0
:101C400007A880E80E00002306E003F1400204EB41
:101C500082020021516001330E2BF6D9119F27BB60
:101C6000D4F8043843F00203C4F80438A36B43F4F7
:101C70000013A363A36B23F40023A363A36B23F4D8
:101C80008023A3630023C4F8003E04F50065D4F864
:101C90000038C4F800380C9B012B14D1099B6BB998
:101CA00000212046FFF7C0FF11E0A36B23F40013CF
:101CB000A363A36B43F40023A363E3E7012120465E
:101CC000FFF7B2FF03E003212046FFF7ADFF10212D
:101CD0002046FFF75BFF804608B14FF00108204621
:101CE000FFF77CFF08B14FF0010800232B616B6107
:101CF000EB610AE0C3B94FF00060C2F800090022AE
:101D00000A614FF67F328A6001330799994210D9F0
:101D100004EB431202F51061D2F800090028E9DB58
:101D20000020C2F80009EAE74FF09040C2F800092D
:101D3000E5E700230AE0C3B14FF0904CC2F800CBB6
:101D4000002202614FF67F3282600133994211D93D
:101D500004EB431202F53060D2F8006B002EEADB90
:101D60004FF0000CC2F800CBEAE74FF0006CC2F86D
:101D700000CBE5E72B6923F480732B610023A3617B
:101D80006FF0804363610A9B1BB9A36943F01003A2
:101D9000A361A2690B4B1343A3610D9B1BB1A36904
:101DA00043F00803A361012F04D04046BDE8F04191
:101DB00004B07047A36943F0804343F00403A36178
:101DC000F3E700BF00383C80D0F8083813F0060372
:101DD00007D0022B07D0062B01D00F20704702201E
:101DE0007047002070470220704710B591F800C07E
:101DF0004B78012B23D000F5006ED0F81C380CF086
:101E00000F040122A24043EA0243C0F81C3800EB51
:101E10004C10D0F8003B13F4004F0ED1D0F8003B2B
:101E2000CA68C2F30A02097942EA8142134343F0C5
:101E3000805343F40043C0F8003B002010BDD0F8AD
:101E40001C280CF00F0E03FA0EF39BB21343C0F8DC
:101E50001C3800EB4C10D0F8003913F4004FECD1D3
:101E6000D0F80039CA68C2F30A02097942EA81420D
:101E700042EA8C5C43EA0C0343F0805343F4004392
:101E8000C0F80039D9E7000030B40B784A78012A4D
:101E900026D000EB4313D3F8002B002A52DBD0F8F6
:101EA0003C480A7802F00F024FF0010C0CFA02F2E3
:101EB00024EA0242C0F83C28D0F81C28097801F036
:101EC0000F010CFA01FC22EA0C42C0F81C28D3F8DE
:101ED000001B234A0A40C3F8002B002030BC704787
:101EE00000EB4313D3F80029002A1EDBD0F83C583E
:101EF0000A7802F00F02012404FA02F292B225EAF3
:101F00000202C0F83C28D0F81C28097801F00F0123
:101F10008C40A4B222EA0404C0F81C48D3F800198B
:101F2000104A0A40C3F80029D7E7D3F8002942F045
:101F30000062C3F80029D3F8002942F08042C3F8B8
:101F40000029D3E7D3F8002B42F00062C3F8002B3E
:101F5000D3F8002B42F08042C3F8002B9FE700BF6C
:101F60000078F3EF007833EC70B40B784C78012CE8
:101F700029D000EB431000F530631C69E40CE40445
:101F80001C611C6924F0FF5424F4C0141C618C698A
:101F90000CB1CC688C61CC68CC611C6944F4002421
:101FA0001C611C69CD69C5F3120C44EA0C041C6168
:101FB000012A66D0D0F8003B43F00443C0F8003B50
:101FC000002070BC70478C696CBB00EB4314D4F8E4
:101FD000105925F0FF5525F4C015C4F81059D4F850
:101FE000105945F40025C4F81059D4F81059ED0CD7
:101FF000ED04C4F81059012A34D000EB4313D3F890
:10200000002942F00442C3F800298B69002BD7D085
:10201000D0F834380A7802F00F0101228A401343C5
:10202000C0F83438CCE700EB431404F5106425699C
:10203000ED0CED042561256925F0FF5525F4C0154B
:102040002561CD688E69AE4200D98D61256945F460
:102050000025256125698E69C6F3120C45EA0C0539
:102060002561C8E74A691AB100EB4311C1F8142988
:1020700000EB4310D0F8002942F00442C0F80029D8
:102080009EE70A69002A95D05A6193E710B483B09D
:10209000024600230193487801280BD00B7802EB0D
:1020A0004313D3F8000B00282DDB002003B05DF8AC
:1020B000044B70470B7802EB4313D3F80049002C14
:1020C00001DB0020F2E7D3F8004944F00064C3F8D4
:1020D00000490B7802EB4313D3F8004944F08044E5
:1020E000C3F80049019B01330193019C42F2107334
:1020F0009C42DBD80B7802EB4313D3F80039002B5A
:10210000F0DB0020D2E7D3F8000B40F00060C3F80A
:10211000000B0B7802EB4313D3F8000B40F0804028
:10212000C3F8000B019B01330193019842F2107335
:10213000984208D80B7802EB4313D3F8003B002BEE
:10214000F0DB0020B2E70120B0E710B59DF80840B1
:1021500084B903334FEA930E4FF0000C08E000EB14
:10216000023303F5805351F8044B1C600CF1010C51
:10217000F445F4D3002010BDF0B583B00B784C7853
:10218000012C33D000EB431303F5306CDCF8104026
:10219000E40CE404CCF81040DCF8104024F0FF54C8
:1021A00024F4C014CCF810408C69002C40F0C78097
:1021B000DCF81040CD68C5F312052C43CCF8104074
:1021C000DCF8104044F40024CCF81040012A00F060
:1021D000D0800A79012A00F0D380D3F8002B42F096
:1021E0000442C3F8002B002003B0F0BD8C6984BB0F
:1021F00000EB4314D4F8105925F0FF5525F4C01511
:10220000C4F81059D4F8105945F40025C4F81059F1
:10221000D4F81059ED0CED04C4F81059012A4CD033
:1022200000EB4313D3F8004944F00444C3F80049D9
:102230000C79012C6AD08B69002BD4D0D0F83438BB
:102240000A7802F00F0101228A401343C0F83438A3
:10225000C9E700EB4314D4F81059ED0CED04C4F8B1
:102260001059D4F8105925F0FF5525F4C015C4F8BD
:102270001059D4F810698D69CF683D44013DB5FB14
:10228000F7F5494F07EAC5453543C4F81059D4F866
:1022900010598E69C6F312063543C4F8105904F577
:1022A00010640D79012DB9D1256925F0C04525614E
:1022B000256945F000552561B0E74A691AB100EB80
:1022C0004314C4F814290A79012A08D000EB4313F7
:1022D000D3F8002942F00442C3F8002983E7D0F87C
:1022E000082812F4807F08D100EB4311D1F80029AF
:1022F00042F00052C1F80029E8E700EB4311D1F8A1
:10230000002942F08052C1F80029DFE7D0F80848E0
:1023100014F4807F0CD1D3F8004944F00054C3F882
:10232000004900920B8B0A780969FFF70EFF5AE704
:10233000D3F8004944F08054C3F80049F1E7CD6870
:102340002C44013CB4FBF5F4A4B204FB05F5CD61CB
:10235000DCF81050144E06EAC4442C43CCF810406C
:10236000DCF81040CD69C5F312052C43CCF81040C1
:102370002CE70A69002A3FF42CAFCCF8142028E798
:10238000D0F8082812F4807F06D1D3F8002B42F051
:102390000052C3F8002B20E7D3F8002B42F0805204
:1023A000C3F8002B19E700BF0000F81F00B583B089
:1023B000844608464FEA920E02F00302002305E02D
:1023C0000CF58051096840F8041B01337345F7D3BD
:1023D0009AB10CF5805CDCF8003001934FF0000CF2
:1023E0005FFA8CF3D900019BCB4000F8013B0CF164
:1023F000010C013A92B2002AF2D103B05DF804FB5D
:102400000B784A78012A14D000EB4310D0F8002B47
:10241000002A06DB2BB1D0F8003B23F08043C0F844
:10242000003BD0F8003B43F40013C0F8003B002011
:10243000704700EB4310D0F80029002A06DB2BB1CF
:10244000D0F8003923F08043C0F80039D0F80039C3
:1024500043F40013C0F80039E9E70B784A78012A01
:102460000ED000EB4310D0F8003B23F40013C0F86B
:10247000003B0B79023BDBB2012B15D900207047E2
:1024800000EB4310D0F8003923F40013C0F80039F2
:102490000B79023BDBB2012BF0D8D0F8003943F0C6
:1024A0008053C0F80039E9E7D0F8003B43F080538F
:1024B000C0F8003BE2E7D0F8003823F4FE63C0F830
:1024C0000038D0F80038090101F4FE611943C0F862
:1024D000001800207047D0F8003E23F00303C0F836
:1024E000003ED0F8043823F00203C0F8043800207E
:1024F0007047D0F8003E23F00303C0F8003ED0F848
:10250000043843F00203C0F80438002070474269E1
:10251000806910407047D0F8183800F50060C06935
:102520001840000C7047D0F8183800F50060C069FA
:10253000184080B2704700EB4111D1F8082B00F52C
:10254000006040691040704710B4D0F81048D0F8CF
:10255000343801F00F02D340DB01DBB2234300EB40
:10256000411000F51060806818405DF8044B70471A
:10257000406900F00100704738B50546C36823F094
:10258000C043C360012913D019BBC36843F0804323
:10259000C3600024012000F04DFD01342846FFF700
:1025A000E7FF08B1312CF5D9322C14D0002038BD0A
:1025B000C36843F00053C3600024012000F03AFDDB
:1025C00001342846FFF7D4FF0128EDD0312CF4D98F
:1025D000EAE70120EBE70120E9E7D0F8003923F42E
:1025E000FF6323F00703C0F80039D0F8043843F440
:1025F0008073C0F8043800207047000010B4046CE9
:10260000154B9C4203D9D0F8003B002B16DB00246D
:10261000C0F8104BD0F8104B44F40024C0F8104B15
:10262000D0F8104B44F01804C0F8104BD0F8104B01
:1026300044F0C044C0F8104B012903D000205DF8DD
:10264000044B7047C0F8142BD0F8003B43F08023B4
:10265000C0F8003BF2E700BF0A30544F002800F0FA
:10266000E08170B582B00446036813F0010F3BD0DF
:102670009F4B9B6803F00C03042B2CD09C4B9B6856
:1026800003F00C03082B21D06368B3F5803F4FD0D3
:10269000B3F5A02F52D0964B1A6822F480321A60FC
:1026A0001A6822F480221A606368002B50D000F070
:1026B000BBFC05468E4B1B6813F4003F14D100F0A1
:1026C000B3FC401B6428F5D90320B1E1884B5B685B
:1026D00013F4800FD8D0864B1B6813F4003F03D04F
:1026E0006368002B00F09F81236813F0020F54D021
:1026F0007F4B9B6813F00C0F3ED07D4B9B6803F023
:102700000C03082B33D0E368002B68D0794B0122EF
:102710001A6000F089FC0546754B1B6813F0020F28
:1027200054D100F081FC401B0228F5D903207FE141
:102730006F4A136843F480331360B5E76C4B1A6833
:1027400042F480221A601A6842F480321A60ABE7C1
:1027500000F06AFC0546664B1B6813F4003FC3D0CB
:1027600000F062FC401B6428F5D9032060E1604B57
:102770005B6813F4800FC6D15D4B1B6813F0020F2A
:1027800003D0E368012B40F05081594A136823F0CD
:10279000F803216943EAC1031360236813F0080FAB
:1027A00042D063696BB3534B0122C3F8802E00F013
:1027B0003BFC05464E4B5B6F13F0020F34D100F02B
:1027C00033FC401B0228F5D9032031E1484A136845
:1027D00023F0F803216943EAC1031360DDE7454BA9
:1027E00000221A6000F020FC0546414B1B6813F0E4
:1027F000020FD2D000F018FC401B0228F5D90320AC
:1028000016E13C4B0022C3F8802E00F00DFC05467B
:10281000374B5B6F13F0020F06D000F005FC401B36
:102820000228F5D9032003E1236813F0040F77D0C1
:102830002F4B1B6C13F0805F33D1002301932C4B83
:102840001A6C42F080521A641B6C03F0805301939F
:10285000019B0125284B1B6813F4807F23D0A368BC
:10286000012B34D0052B38D0214B1A6F22F00102F6
:102870001A671A6F22F004021A67A368002B3DD072
:1028800000F0D2FB06461A4B1B6F13F0020F46D125
:1028900000F0CAFB801B41F288339842F3D9032031
:1028A000C6E00025D6E7144A136843F4807313602A
:1028B00000F0BAFB0646104B1B6813F4807FCED1A4
:1028C00000F0B2FB801B0228F5D90320B0E0084AD3
:1028D000136F43F001031367CFE7054B1A6F42F004
:1028E00004021A671A6F42F001021A67C5E700BFB7
:1028F00000380240000047420070004000F094FBA6
:102900000646524B1B6F13F0020F08D000F08CFBF1
:10291000801B41F288339842F3D9032088E0EDB957
:10292000A369002B00F08380484A926802F00C02F1
:10293000082A51D0022B17D0454B00221A6600F00E
:1029400073FB0446414B1B6813F0007F42D000F03C
:102950006BFB001B0228F5D9032069E03B4A136C8E
:1029600023F080531364DBE7394B00221A6600F032
:102970005BFB0546354B1B6813F0007F06D000F06B
:1029800053FB401B0228F5D9032051E0E369226A7A
:102990001343626A43EA8213A26A5208013A43EA85
:1029A0000243E26A43EA0263284A5360284B012249
:1029B0001A6600F039FB0446244B1B6813F0007FB5
:1029C00006D100F031FB001B0228F5D903202FE0CF
:1029D00000202DE000202BE0012B2BD01B4B5B684F
:1029E00003F48001E269914226D103F03F02216A9B
:1029F0008A4223D1616A47F6C0721A40B2EB811F46
:102A00001ED103F44031A26A5208013AB1EB024FE1
:102A100018D103F07063E26AB3EB026F14D10020A7
:102A200006E001207047012002E0012000E00020C4
:102A300002B070BD0120FBE70120F9E70120F7E7B4
:102A40000120F5E70120F3E70120F1E7003802401B
:102A50000000474208B5314B9B6803F00C03042B80
:102A600057D0082B57D12D4B5A6802F03F025B68B4
:102A700013F4800F2AD0294B5968C1F3881C4FEA00
:102A80004C11B1EB0C006EEB0E0E4FEA8E1343EAC5
:102A900090638101091A63EB0E03DB0043EA517373
:102AA000C90011EB0C0C43F10003590200234FEA5B
:102AB0004C2041EADC51FDF7DBFB184B5B68C3F3AC
:102AC000014301335B00B0FBF3F025E0134B596881
:102AD000C1F3881C4FEA4C11B1EB0C006EEB0E0EEB
:102AE0004FEA8E1343EA90638101091A63EB0E03E8
:102AF000DB0043EA5173C90011EB0C0C43F10003F6
:102B0000990200234FEA8C2041EA9C51FDF7B0FB6B
:102B1000D3E7034800E0034808BD00BF0038024087
:102B200000127A000024F400002800F09B8070B5A9
:102B30000D4604464F4B1B6803F007038B4208D237
:102B4000CBB24C4A1370136803F007038B4240F07A
:102B50008B80236813F0020F17D013F0040F04D0FA
:102B6000454A936843F4E0539360236813F0080FD9
:102B700004D0414A936843F4604393603E4A9368AB
:102B800023F0F003A1680B439360236813F0010F57
:102B900032D06368012B21D09A1E012A25D9364AEA
:102BA000126812F0020F61D033498A6822F00302E2
:102BB00013438B6000F038FA06462F4B9B6803F0F6
:102BC0000C036268B3EB820F16D000F02DFA801B65
:102BD00041F288339842F0D9032042E0264A126835
:102BE00012F4003FE0D101203BE0234A126812F0CA
:102BF000007FD9D1012034E01E4B1B6803F007038E
:102C0000AB4207D9EAB21B4B1A701B6803F00703EB
:102C1000AB422DD1236813F0040F06D0164A9368F7
:102C200023F4E053E1680B439360236813F0080F2B
:102C300007D0114A936823F46043216943EAC10332
:102C40009360FFF707FF0C4B9B68C3F303130B4A1A
:102C5000D35CD8400A4B18600A4B186800F098F90A
:102C6000002070BD012070470120FAE70120F8E73D
:102C70000120F6E7003C024000380240EC57000813
:102C8000800000207C000020014B1868704700BFC6
:102C90008000002008B5FFF7F7FF044B9B68C3F3E3
:102CA0008223034AD35CD84008BD00BF00380240ED
:102CB000FC57000808B5FFF7E7FF044B9B68C3F318
:102CC0004233034AD35CD84008BD00BF00380240FD
:102CD000FC57000800230F2B00F2E48070B582B08F
:102CE00060E085685E000324B44025EA0405CC68F2
:102CF000B4402C438460456825EA02054C68C4F35F
:102D000000129A402A4342605AE0DC08083450F826
:102D1000246003F0070295000F22AA4026EA020E63
:102D20000A69AA4042EA0E0240F824205CE0072229
:102D300000E0002202FA0EF22A4302345A4D45F80E
:102D400024205A4A94686FEA0C0224EA0C054E6863
:102D500016F4801F01D04CEA0405544CA560E468C9
:102D600002EA04054E6816F4001F01D04CEA04057F
:102D70004E4CE560646802EA04054E6816F4003FB4
:102D800001D04CEA0405494C6560246822404D6836
:102D900015F4803F01D04CEA0402444C2260013318
:102DA0000F2B7DD801229A400C6804EA020C32EA0B
:102DB0000404F4D14C6804F00304013C012C90D9C4
:102DC0004A6802F00302032A09D0C4685D000322A6
:102DD000AA4024EA02048A68AA402243C2604A68E0
:102DE00002F00302022A90D004684FEA430E032245
:102DF00002FA0EF224EA02044A6802F0030202FA1E
:102E00000EF2224302604A6812F4403FC7D000220B
:102E10000192274A546C44F480445464526C02F486
:102E200080420192019A9C08A51C1F4A52F8255025
:102E300003F003024FEA820E0F2202FA0EF225EA95
:102E400002051C4A90423FF474AF02F58062904242
:102E50001AD002F58062904218D002F5806290424A
:102E600016D002F58062904214D002F58062904242
:102E700012D002F58062904210D002F5806290423A
:102E80003FF455AF082255E7012253E7022251E7EC
:102E900003224FE704224DE705224BE7062249E7CC
:102EA00002B070BD704700BF00380140003C0140D7
:102EB0000038024000000240074AD36823F4E06370
:102EC0001B041B0C000200F4E060034343F0BF63EB
:102ED00043F40033D360704700ED00E000B5194BB8
:102EE000DB68C3F30223C3F1070CBCF1040F28BF56
:102EF0004FF0040C03F1040EBEF1060F18D9033B8A
:102F00004FF0FF3E0EFA0CFC21EA0C0199400EFA3C
:102F100003F322EA0303194300280BDB0901C9B2BA
:102F200000F1604000F5614080F800135DF804FB9B
:102F30000023E5E700F00F000901C9B2024B195464
:102F4000F4E700BF00ED00E014ED00E0002807DB2F
:102F500000F01F02400901239340024A42F820304A
:102F6000704700BF00E100E00138B0F1807F0BD274
:102F70004FF0E0235861054AF02182F82310002029
:102F8000986107221A6170470120704700ED00E048
:102F900010B504460E4B18784FF47A73B3FBF0F378
:102FA0000C4A1068B0FBF3F0FFF7DEFF68B90F2C96
:102FB00001D901200AE0002221464FF0FF30FFF73F
:102FC0008DFF054B1C60002000E0012010BD00BFFC
:102FD00078000020800000207C00002008B50B4B0A
:102FE0001A6842F400721A601A6842F480621A6029
:102FF0001A6842F480721A600320FFF75DFF0F2009
:10300000FFF7C6FFFDF750FE002008BD003C024060
:10301000034A1168034B1B780B441360704700BFD1
:10302000F82C002078000020014B1868704700BF82
:10303000F82C002038B50446FFF7F6FF0546B4F13A
:10304000FF3F02D0044B1B781C44FFF7EDFF401BF1
:10305000A042FAD338BD00BF78000020034AD2F85E
:10306000883043F47003C2F88830704700ED00E008
:1030700098B108B503460020C3F8B802C3F8C402EB
:10308000C3F8D00209B1C3F8B412012183F89C122D
:103090001A701846FDF70CFC08BD0320704710B5E8
:1030A00082B00023ADF8063089B10446C0F8B812EA
:1030B000CB6A23B10DF106009847C4F8D002D4F8CA
:1030C000D8320133C4F8D832002002B010BD03203A
:1030D000FBE708B5FDF74DFC08BD08B5D0F8B832E0
:1030E00013B11B68984708BD0020FCE708B5D0F86D
:1030F000B8325B68984700B908BD0320FCE738B5D3
:10310000044600F2AA25284600F0C4F90123C4F8B9
:103110009432B4F8B032C4F8983294F8AA1201F09C
:103120001F03012B0DD0022B10D02BB101F0800119
:103130002046FDF739FC03E02946204600F096FBC7
:1031400038BD2946204600F0CCFBF9E72946204649
:1031500000F009FCF4E7F8B50446012380F89C323E
:103160000023C0F894324360C0F8A43280F8A03243
:10317000D0F8B832DBB15B68DBB100219847074675
:10318000C8B94023002211462046FDF7FAFB01266C
:10319000A4F864614025C4F860512B4600228021C8
:1031A0002046FDF7EEFBA68425623846F8BD0027D1
:1031B000E7E70027E5E70327E3E70174002070470E
:1031C00090F89C32DBB280F89D32042380F89C3268
:1031D0000020704790F89C32DBB2042B01D0002015
:1031E000704790F89D32DBB280F89C32F7E708B563
:1031F00090F89C32DBB2032B01D0002008BDD0F840
:10320000B832002BF9D0DB69002BF6D09847F4E7F1
:1032100008B5D0F8D432AE3350F823205AB190F824
:103220009C32DBB2032B01D0002008BD136A23B10E
:1032300098470020F9E70320F7E70020F5E708B5F5
:10324000D0F8D432AE3350F823205AB190F89C32E3
:10325000DBB2032B01D0002008BD536A23B198478D
:103260000020F9E70320F7E70020F5E7002070478A
:1032700008B5012380F89C32D0F8B83223B15B68DE
:103280000179984710B908BD0020FCE70320FAE750
:10329000002070470020704738B504460D460029CD
:1032A00043D11346D0F89422032A01D0084638BDF2
:1032B000D0F85C11D0F86021914212D890F8AA326F
:1032C00003F01F03012B17D0022B1CD0284694F8C3
:1032D0009C32DBB2032B1BD0204600F0A5FC284615
:1032E000E5E7891AC0F85C118A4228BF0A461946E8
:1032F00000F092FC2846DAE790F8AE12FFF7C8FF1C
:103300000028E9D1E3E790F8AE12FFF7C3FFF7E733
:1033100000F1AE0354F823301A69002ADCD0C4F857
:10332000D4021B6920469847D6E701F07F01FFF7DA
:10333000B1FF90B994F89C32DBB2032BB7D100F106
:10334000AE0354F823309A69002AB0D0C4F8D402EE
:103350009B69294620469847A9E70020A7E738B58A
:1033600004460D4600294BD11346D0F89422022A78
:1033700007D094F8A00218B1002384F8A0322846A0
:1033800038BDC269016A8A420ED88A4218D094F8C0
:103390009C32DBB2032B27D080212046FDF704FBB3
:1033A000204600F04CFCE4E7521AC261194600F0D6
:1033B0001CFC00231A4619462046FDF715FBD8E7EA
:1033C00083699942E3D8D0F898229342DFD2002251
:1033D000114600F00AFC0021C4F898120B460A4678
:1033E0002046FDF701FBC4E7D4F8B832DA68002ABA
:1033F000D2D00022C4F8D422DB6820469847CBE71D
:1034000041F08001FFF746FF90B994F89C32DBB29F
:10341000032BB5D100F1AE0354F823305A69002ACA
:10342000AED0C4F8D4025B69294620469847A7E786
:103430000020A5E703780A8813440B80037818441A
:103440007047428803789A4218D930B583B0044651
:103450000D46ADF806306288BDF806309A420AD9AA
:103460000DF10601FFF7E6FF4378052BF3D18378D2
:10347000AB42F0D100E0002003B030BD0020704727
:103480000346002002E00130C0B201331A78002A5E
:10349000F9D170470B7803704B7843708B78CA78FA
:1034A00043EA022343800B794A7943EA022383806B
:1034B0008B79CA7943EA0223C380704710B504466A
:1034C0008021FDF771FA00212046FDF76DFA10BD4D
:1034D00070B582B004460D460023ADF806304A8828
:1034E000130A013B062B00F2C180DFE803F0041F42
:1034F00033BFBFA3B000D0F8B4321B680DF1060192
:10350000007C9847EA88002A00F0B980BDF80630B0
:10351000002B00F0AF809A4228BF1A46ADF8062073
:103520000146204600F054FB02B070BD037C43B955
:10353000D0F8B8329B6A0DF1060098470223437019
:10354000E0E7D0F8B832DB6A0DF1060098470223B5
:103550004370D7E7D2B2052A69D8DFE802F003103A
:103560001D2A3744D0F8B4325B6823B10DF106014F
:10357000007C9847C6E72946FFF7A0FFD4E7D0F8BC
:10358000B4329B6823B10DF10601007C9847B9E77E
:103590002946FFF793FFC7E7D0F8B432DB6823B1C1
:1035A0000DF10601007C9847ACE72946FFF786FF3E
:1035B000BAE7D0F8B4321B6923B10DF10601007CE3
:1035C00098479FE72946FFF779FFADE7D0F8B43277
:1035D0005B6923B10DF10601007C984792E729460B
:1035E000FFF76CFFA0E7D0F8B4329B6923B10DF16F
:1035F0000601007C984785E72946FFF75FFF93E7C0
:1036000006F1AE0354F823309A6B52B1C4F8D46279
:103610009B6B0DF10602A9782046984700287FF49D
:1036200071AF0136D4F8D832B342E9D86AE7002640
:103630003046F7E7037C33B9D0F8B8325B6B0DF155
:10364000060098475EE72946FFF738FF6CE7037CE2
:1036500043B9D0F8B8321B6B0DF106009847072329
:1036600043704FE72946FFF729FF5DE72946FFF73B
:1036700025FF59E729462046FFF720FF54E720465B
:1036800000F0D2FA50E738B504468B88FBB9CB88F6
:10369000EBB94B887F2B1AD803F07F0590F89C324A
:1036A000DBB2032B0CD080F89E522946FDF78CF933
:1036B000204600F0B9FA35B1022384F89C3209E0C3
:1036C000FFF7FCFE06E0012384F89C3202E020466E
:1036D000FFF7F4FE38BD000070B504460E468D7845
:1036E0002F4B1D70012D10D890F89C32DBB2022BAD
:1036F0000FD0032B26D0FFF7E1FE294B1978204687
:10370000FFF7F4FC0325284670BDFFF7D7FE03251D
:10371000F9E7A5B145602946FFF7DFFC054638B15A
:1037200031462046FFF7CAFE022384F89C32EAE7BE
:10373000204600F079FA032384F89C32E3E700F096
:1037400073FAE0E7CDB141688D4225D0C9B2FFF7E9
:10375000CDFC134B197861602046FFF7BEFC05468F
:10376000B0B131462046FFF7A9FE21792046FFF788
:10377000BDFC022384F89C32C5E7022380F89C320A
:1037800045602946FFF7B2FC204600F04DFABAE743
:10379000204600F049FAB6E700F046FA0025B2E705
:1037A000FC2C002008B5CB88012B0BD190F89C3263
:1037B000DBB2022B09D9032B09D10122011D00F034
:1037C00007FA01E0FFF77AFE08BD5BB213B9FFF715
:1037D00075FEF9E70146002341F8083F012200F099
:1037E000F7F9F1E708B590F89C32013B022B12D8AB
:1037F000CB88022B0CD10123C360D0F8A4320BB1CB
:103800000323C360022200F10C0100F0E1F908BDBE
:10381000FFF754FEFBE7FFF751FEF8E708B54B88CA
:10382000012B04D0022B07D0FFF748FE08BDC0F8DB
:10383000A43200F0F9F9F9E78B881B0A80F8A0326E
:1038400000F0F2F9F2E708B590F89C32013B022B48
:1038500009D84B88012B00D008BD0023C0F8A43242
:1038600000F0E2F9F8E7FFF729FEF5E738B50C7844
:1038700004F06004202C06D0402C04D06CB1FFF77B
:103880001DFE002407E0D0F8D432AE3350F82330C8
:103890009B6898470446204638BD4D78092D1DD8B1
:1038A000DFE805F012191C161C08051C0F0BFFF7AA
:1038B0000FFEF0E7FFF7E7FEEDE7FFF70DFF044629
:1038C000E9E7FFF76FFFE6E7FFF78CFF2C46E2E73B
:1038D000FFF7A4FFDFE7FFF7B6FFDCE7FFF7EEFD3A
:1038E000D9E770B505460C460B7803F06003202B32
:1038F00007D0402B05D023B1FFF7E0FD002630466E
:1039000070BD95F89C32013B022B26D82179012904
:1039100005D921462846FFF7D1FD0026EFE72846C6
:10392000FFF7B6FC68B900F1AE0255F822209168A5
:1039300089B1C5F8D40293682146284698470646BF
:1039400000E00326E388002BD9D1002ED7D12846EA
:1039500000F06AF9D3E70326F4E721462846FFF78B
:10396000ADFD0026CBE72DE9F04106460D468B88DC
:10397000DFB20C7804F06004202C08D0402C06D074
:10398000DCB1FFF79BFD00242046BDE8F0813946FD
:103990003046FFF77FFC0446002840F0F880C6F868
:1039A000D40200F1AE0356F823309B68002BEBD015
:1039B0002946304698470446E6E791F80180B8F179
:1039C000010F31D0B8F1030F05D0B8F1000F67D067
:1039D000FFF774FDD8E790F89C32DBB2022B04D0DD
:1039E000032B12D0FFF76AFDCEE70FB1802F04D171
:1039F00029463046FFF762FDC6E73946FCF7D4FF9B
:103A000080213046FCF7D0FFBEE74B8823B91FB1B9
:103A1000802F01D0CB881BB1304600F005F9B3E709
:103A20003946FCF7C1FFF7E790F89C32DBB2022B76
:103A300004D0032B12D0FFF741FDA5E70FB1802F73
:103A400004D129463046FFF739FD9DE73946FCF79A
:103A5000ABFF80213046FCF7A7FF95E74B88002B92
:103A600092D117F07F0F17D1304600F0DDF83946BC
:103A70003046FFF70FFC002886D1C6F8D40200F1CB
:103A8000AE0256F822209268002A00F08280294671
:103A900030469047044677E73946FCF78DFFE3E769
:103AA00090F89C22D2B2022A05D0032A27D0FFF731
:103AB00005FD444668E70FB1802F13D113F0800F46
:103AC00014D107F07F0707EB8707B90001F5A8714C
:103AD0003144043100230B600222304600F078F8B4
:103AE000444651E7FFF7EAFC44464DE707F07F07FD
:103AF00007EB8707B900103131440431EAE75BB2C4
:103B0000002B1FDB07F00F0202EB820200EB8202A8
:103B1000B2F864211AB3002B25DB07F07F0303EB17
:103B200083039C0004F5A874344404340FB1802F3F
:103B300022D10023236002222146304600F048F8BB
:103B4000444621E707F00F0202EB820200EB8202FB
:103B5000928C002ADFD1FFF7B1FC444614E7FFF74F
:103B6000ADFC444610E707F07F0303EB83039C00A2
:103B7000103434440434D9E739463046FCF7CCFEDF
:103B800010B101232360D6E700232360D3E700248C
:103B9000FAE60446F8E6D0B170B50D46164604467E
:103BA000FFF76EFC431C5B009BB233802B7003233A
:103BB0006B70022307E0EA5401345A1CD2B2002190
:103BC000A9540233DBB22278002AF4D170BD7047C9
:103BD00008B513460222C0F894228361C3610A46E5
:103BE0000021FCF7F9FE002008BD08B513460A467F
:103BF0000021FCF7F1FE002008BD08B513460322A2
:103C0000C0F89422C0F85831C0F85C310A4600214F
:103C1000FCF7EAFE002008BD08B513460A4600215D
:103C2000FCF7E2FE002008BD08B50422C0F894228B
:103C300000231A461946FCF7CFFE002008BD08B540
:103C40000522C0F8942200231A461946FCF7CCFE40
:103C5000002008BD10B5D0F8D43203F1B00250F8FE
:103C600022408CB100EB820043687BB194F84000A5
:103C7000FF280DD09B6894F8412021469847FF23E8
:103C800084F84030002010BD0320FCE70020FAE754
:103C90000020F8E70A230380004870472C01002029
:103CA000F8B506460F4F82213846FFF7CAFB054696
:103CB00001213846FFF7C5FB044681213846FFF74E
:103CC000C0FB0DB11022AA711CB14022227100224A
:103CD000627118B140220271002242716A2333805E
:103CE0000048F8BDC0000020F8B506460F4F8221FD
:103CF0003846FFF7A6FB054601213846FFF7A1FB32
:103D0000044681213846FFF79CFB0DB11022AA71B1
:103D10001CB1402222710022627118B1402202714E
:103D2000002242716A2333800048F8BDC0000020A1
:103D3000F8B506460F4F82213846FFF782FB05464D
:103D400001213846FFF77DFB044681213846FFF705
:103D500078FB0DB11022AA711CB140222271002201
:103D6000627118B140220271002242716A233380CD
:103D70000048F8BDC000002070B5D0F8D432B03390
:103D800050F82360DEB104460D46012915D0032901
:103D900017D1683629462046FCF7D5FD7060D4F867
:103DA000D432B03304EB83046368DB68314651F8E6
:103DB000040B2A469847002070BD5036EAE70320DE
:103DC000FAE70320F8E738B50C46D0F8C812D0F867
:103DD000D432B03350F82350002D3AD004F00F0302
:103DE00003EB830200EB820292694AB103EBC30C3E
:103DF00001EB8C01896CB2FBF1FC01FB1C222AB1A6
:103E0000012C10D0032C20D0002038BD03EB8303FD
:103E100000EB830300259D612B462A462146FCF7D3
:103E2000DBFD2846F1E7002385F84C30D0F8D4328A
:103E3000B03300EB830043681B69002BE2D02246BD
:103E400005F14801686C9847DCE7002085F86400BC
:103E5000DBE70320D9E7000008B58B88042B03D0EB
:103E6000FFF72CFB032008BDCA880249FFF7B0FE0C
:103E70000020F8E73801002008B5FFF71FFB0320FA
:103E800008BD000010B58C788B88052B06D14CB985
:103E9000CA880649FFF79CFE204610BDFFF70EFBBF
:103EA0000324F9E7FFF70AFB0324F5E7600100208C
:103EB00008B5FFF703FB032008BD08B50B7813F026
:103EC000030305D0012B0CD0FFF7F8FA032008BD3F
:103ED0004B78502B02D0FFF7CFFFF8E7FFF7BCFF7E
:103EE000F5E74B78502B02D0FFF7E2FFEFE7FFF743
:103EF000C9FFECE7F0B583B00E46D0F8D41201F15B
:103F0000B00350F8237000238DF80730ADF804306B
:103F1000002F00F083800446337803F06005202DE5
:103F200008D0402D73D0002D37D03146FFF7C6FAA8
:103F3000032570E0F2882AB313F0800F07D173785D
:103F400087F84030F2883F2A13D8D2B212E0B0315D
:103F500000EB81014B689B68394670789847F2887E
:103F6000072A28BF072239462046FFF731FE0025E1
:103F700051E0402287F8412039462046FFF73DFEB8
:103F8000002548E0B03100EB810463689B680022A3
:103F900031467078984700253DE077780B2F31D86F
:103FA000DFE807F006393030303030303030162658
:103FB00090F89C32DBB2032B04D03146FFF77EFA37
:103FC000032528E0022201A9FFF702FE3D4622E078
:103FD00090F89C32DBB2032B04D03146FFF76EFA27
:103FE000032518E001220DF10701FFF7F1FD12E0B2
:103FF00090F89C32DBB2032B0DD03146FFF75EFA0E
:10400000032508E03146FFF759FA032503E031465E
:10401000FFF753FF0025284603B0F0BD0325FAE75C
:1040200038B504468121FCF7B7FC0025258701211E
:104030002046FCF7B1FCA4F8785182212046FCF719
:10404000ABFC83212046FCF7A7FC03212046FCF7AC
:10405000A3FCA4F84C50A4F84E50D4F8D43203F189
:10406000B00254F822209AB1B03304EB83035B68AA
:104070005B689847D4F8D432B03354F82300FCF787
:104080006DFCD4F8D432B03344F82350C4F8BC5299
:10409000002038BD70B504467420FCF75BFC002896
:1040A00059D005467422002100F0EEFAD4F8D4323B
:1040B000B03344F82350C4F8BC52237C002B52D1B7
:1040C0004023022281212046FCF75BFC0126268743
:1040D0004023022231462046FCF753FCA4F87861C5
:1040E0001023A4F84E304023022283212046FCF7FF
:1040F00048FC4023022203212046FCF742FC08230F
:10410000032282212046FCF73CFC0123A4F84C301A
:1041100000262E65AE66D4F8D432B03304EB8303A8
:104120005B681B68984785F84C6085F8586085F88F
:10413000646085F87060237C4BBB40232A6D0121AD
:104140002046FCF751FC4023AA6E03212046FCF7D1
:104150004BFC002070BDD4F8D432B033002244F8B8
:1041600023200220F6E74023022281212046FCF78B
:1041700008FC012626874023022231462046FCF710
:1041800000FCA4F878611023A4F84E30ABE740237C
:104190002A6D01212046FCF727FCD4E739B1D0F87D
:1041A000D432B03300EB830041600020704703201D
:1041B0007047D0F8BC02012B07D0032B08D100F1C7
:1041C0005C0319605A600020704700F14403F8E76F
:1041D00003207047D0F8BC32012A05D0032A05D14C
:1041E00068331960002070475033FAE703207047A6
:1041F00010B5D0F8D432B03350F82320C2B1012921
:104200000AD0032916D15C328321137A03F0FF040C
:104210002BB10124204610BD44328121F5E7012352
:1042200013725368C36253681268FCF7D5FBF1E759
:104230000324EFE70324EDE710B5D0F8D432B03310
:1042400050F82320A2B101290AD0032912D16832E3
:10425000047C3CB940231268FCF7C6FB204610BD25
:104260005032F5E740231268FCF7BEFB0024F5E767
:104270000324F3E70324F1E708B50A480A4B036077
:104280004FF4E133436000238360C36003610C2279
:1042900042618361C36100F00BF900B908BDFCF70E
:1042A00091F9FBE7002D0020004C004000B589B0DB
:1042B0000023039304930593069307930268144B1A
:1042C0009A4202D009B05DF804FB0021019103F588
:1042D000F6331A6C42F400221A641A6C02F40022BB
:1042E0000192019A02911A6B42F001021A631B6B50
:1042F00003F001030293029B03230393022204921F
:1043000006930823079303A90248FEF7E3FCD9E7C5
:10431000004C00400000024038B5044602681369B2
:1043200023F44053C1680B4313618368026913434C
:1043300042691343C2691A430168CB6823F41643E8
:1043400023F00C031343CB600268536923F44073DA
:1043500081690B4353610368314A934206D002F5E9
:104360008062934202D0FEF795FC01E0FEF7A2FCCA
:10437000E369B3F5004F29D00021031849411B1808
:1043800041F10001C90041EA5371DB00181863686C
:104390004FEA83024FEA937341F10001FBF768FF94
:1043A000204DA5FB00325109642303FB11031B01BF
:1043B0003233A5FB03235B0903F0F00202EB011289
:1043C00003F00F03216813448B6038BD00230218EB
:1043D00043EB0301121841F10001C90041EA527197
:1043E000D200101841F10001626892185B41FBF79E
:1043F0003FFF0C4DA5FB00325109642303FB110361
:10440000DB003233A5FB03235B095A0002F4F87288
:1044100002EB011203F00703216813448B60D4E719
:10442000001001401F85EB512DE9F84305460F466A
:1044300016469946DDF820802C68246837EA040384
:104440000CBF4FF0010C4FF0000CB4452DD1B8F16A
:10445000FF3FF1D0B8F1000F05D0FEF7E5FDA0EB6E
:1044600009004045E8D92A6802F10C0353E8003FEF
:1044700023F4D0730C3242E800310029F3D12A68CA
:1044800002F1140353E8003F23F00103143242E821
:1044900000310029F3D1202385F83D3085F83E30E6
:1044A000002385F83C30032000E00020BDE8F883BD
:1044B00058B310B5044690F83D300BB3242384F86C
:1044C0003D302268D36823F40053D3602046FFF7C1
:1044D00023FF2268136923F4904313612268536910
:1044E00023F02A0353612268D36843F40053D36056
:1044F00000202064202384F83D3084F83E3010BD35
:1045000080F83C30FFF7D2FED8E7012070472DE954
:10451000F04182B01E4690F83D30DBB2202B54D1E2
:1045200004460D469046002953D0002A53D090F8F7
:104530003C30012B51D0012380F83C300023036430
:10454000212380F83D30FEF76FFD0746A4F8248054
:10455000A4F82680A368B3F5805F05D04FF000086B
:10456000002384F83C3012E0236913B14FF00008B7
:10457000F6E7A8460025F3E738F8023B2268C3F3C4
:1045800008035360E28C92B2013A92B2E284E38C67
:104590009BB273B100963B46002280212046FFF774
:1045A00043FFE0B9002DE7D015F8012B23685A60CE
:1045B000E8E700963B46002240212046FFF734FF03
:1045C00078B9202384F83D3000E0022002B0BDE835
:1045D000F0810120FAE70120F8E70220F6E7032046
:1045E000F4E70320F2E70000DFF838D00E480F4967
:1045F0000F4A002302E0D458C4500433C4188C423C
:10460000F9D30C4A0C4C002301E013600432A2429F
:10461000FBD3FEF723FDFBF7B9FF00F011F8FCF721
:1046200027F8704700000220000000207C020020D4
:10463000AC5800087C020020582D0020FEE7000046
:1046400070B50D4D0D4C641BA4100026A64209D177
:104650000B4D0C4C01F05AF8641BA4100026A64226
:1046600005D170BD55F8043B98470136EEE755F883
:10467000043B98470136F2E7A4580008A458000804
:10468000A4580008A858000802440346934200D1E9
:10469000704703F8011BF9E70FB40A4B13B51C6808
:1046A00024B1A36913B9204600F05EFA05AB049A61
:1046B000A1680193204600F067FC02B0BDE81040FD
:1046C00004B070471802002070B50E46054618B1B8
:1046D00083690BB900F048FAAB69AC6813B9284696
:1046E00000F042FA2C4B9C4220D16C68636EDB07D1
:1046F00005D4A389980502D4A06D00F0D3FAA3894C
:1047000019071DD52369DBB1013EA36816F8011F07
:10471000013BA36039BB002B38DA22460A21284628
:1047200000F048F8013011D00A2511E01B4B9C42E3
:1047300001D1AC68DAE71A4B9C4208BFEC68D5E7B8
:104740002146284600F088F80028DDD04FF0FF35DC
:10475000636EDA0705D4A3899B0502D4A06D00F02F
:10476000A2FA284670BD002B04DAA2699A4206DC40
:104770000A2904D023685A1C22601970C5E7224612
:10478000284600F017F80130BFD1DFE723680A257B
:104790005A1C22601D70DBE72858000848580008A2
:1047A00008580008024B01461868FFF78DBF00BF8C
:1047B00018020020F8B50E461446054618B1836964
:1047C0000BB900F0D1F9214B9C422BD16C68A36945
:1047D000A360A3891A072FD523696BB323692068C7
:1047E000C01A6369F6B28342374604DC2146284684
:1047F00000F026F930BBA368013BA36023685A1C74
:1048000022601E7063690130834204D0A389DB07F4
:1048100006D50A2E04D12146284600F011F988B9A0
:104820003846F8BD0A4B9C4201D1AC68CFE7094B32
:104830009C4208BFEC68CAE72146284600F00CF805
:104840000028CBD04FF0FF37EAE700BF2858000818
:104850004858000808580008324B70B51D680646D5
:104860000C4625B1AB6913B9284600F07DF92E4BF3
:104870009C420FD16C68A389B4F90C2019072CD481
:10488000DD0611D40923336042F04003A3814FF0C9
:10489000FF303EE0254B9C4201D1AC68EBE7244B56
:1048A0009C4208BFEC68E6E7580712D5616B41B13E
:1048B00004F14403994202D0304600F05BFA002331
:1048C0006363A38923F02403A38100236360236926
:1048D0002360A38943F00803A38123694BB9A3890B
:1048E00003F42073B3F5007F03D02146304600F077
:1048F00001FAA089B4F90C2010F001030AD00023BA
:10490000A36063695B42A361236943B910F080002F
:10491000BAD170BD810758BF6369A360F4E7002076
:10492000F7E700BF18020020285800084858000880
:10493000085800088A892DE9F041054610070C4601
:1049400058D44B68002B05DC0B6C002B02DC0020DC
:10495000BDE8F081E66A002EF9D0002312F48052FF
:104960002F682B6032D0606DA3895A0705D5636824
:10497000C01A636B0BB1236CC01A00230246E66AAF
:10498000216A2846B047431CA38906D129681D29FE
:104990002CD82A4ACA40D60728D500226260D904FA
:1049A0002269226004D5421C01D12B6803B96065DD
:1049B000616B2F600029CAD004F14403994202D0F0
:1049C000284600F0D7F900206063C1E7216A01237F
:1049D0002846B047411CC7D12B68002BC4D01D2BE3
:1049E00001D0162B01D12F60B1E7A38943F040031A
:1049F000A381ADE70F69002FA9D093070E6808BF08
:104A00004B690F6018BF0023A6EB07088B60B8F155
:104A1000000F9CDD216AA66A43463A462846B04705
:104A2000002806DCA38943F04003A3814FF0FF3048
:104A30008EE70744A8EB0008E9E700BF010040202B
:104A400038B50B6905460C4613B90025284638BD14
:104A500018B183690BB900F087F8144B9C421BD145
:104A60006C68B4F90C30002BEFD0626ED00704D420
:104A7000990502D4A06D00F015F928462146FFF7EC
:104A800059FF636EDA070546E0D4A3899B05DDD4A0
:104A9000A06D00F008F9D9E7054B9C4201D1AC6844
:104AA000DFE7044B9C4208BFEC68DAE728580008AF
:104AB0004858000808580008002310B50446C0E90B
:104AC0000033C0E90433836081814366C28183611E
:104AD000194608225C30FFF7D7FD054B6362054B92
:104AE000A362054BE362054B2462236310BD00BF44
:104AF00031550008535500088B550008AF55000884
:104B0000014900F0AFB800BF414A000870B5682203
:104B10004D1E55430E4605F1740100F097F9044609
:104B200040B10021C0E900160C30A06005F1680218
:104B3000FFF7AAFD204670BD014800F0B3B800BFE2
:104B4000452D0020014800F0AEB800BF452D0020E3
:104B5000014800F0A7B800BF462D0020014800F032
:104B6000A2B800BF462D002010B50446FFF7F0FFA5
:104B7000A3691BB1BDE81040FFF7F0BFC4E91233D1
:104B80002365134B134A1B68A262A34204BF01238F
:104B9000A361204600F020F86060204600F01CF879
:104BA000A060204600F018F80022E0600421606850
:104BB000FFF782FFA06801220921FFF77DFFE0686F
:104BC00002221221FFF778FF0123A361D2E700BF81
:104BD00004580008014B0008F8B50746FFF7ACFF82
:104BE0001E4B1E68B36913B93046FFF7BDFF483648
:104BF000D6E90134013B03D533680BB33668F7E7D8
:104C0000B4F90C50D5B9164BE36004F15800656651
:104C100000F047F8FFF796FFC4E90155C4E90455D1
:104C20002560A5610822294604F15C00FFF72CFDF0
:104C3000C4E90D55C4E912552046F8BD6834D9E7DA
:104C400004213846FFF762FF044630600028D5D1C2
:104C5000FFF778FF0C233B60EEE700BF0458000825
:104C60000100FFFF2DE9F8430646884600F148049D
:104C70000027D4E90195B9F1010905D52468002C74
:104C8000F7D13846BDE8F883AB89012B07D9B5F9D0
:104C90000E30013303D029463046C04707436835FC
:104CA000E9E770477047704770B50E46B1F90E10CE
:104CB000002996B014461D4608DAB6F90C300022D9
:104CC0002A601A0610D44FF480630EE06A4600F0A2
:104CD00095FC0028F1DB019A02F47042A2F5005322
:104CE0005A425A412A60EEE740230020236016B062
:104CF00070BD00008B8973B59D0706460C4607D52D
:104D000004F14703236023610123636102B070BD96
:104D100001AB6A46FFF7C8FF00990546304600F030
:104D200095F848B9B4F90C309A05EFD423F0030391
:104D300043F00203A381E3E70D4BB362A389206034
:104D400043F08003A381009B6361019B20615BB101
:104D5000B4F90E10304600F063FC28B1A38923F0AB
:104D6000030343F00103A381A0890543A581CDE797
:104D7000014B000837B5002944D051F8043C01909C
:104D8000002BA1F10404B8BFE41800F06BFC1E4A2C
:104D90000198136833B96360146003B0BDE8304014
:104DA00000F066BCA34208D9256861198B4201BF97
:104DB00019685B6849192160EDE71A465B680BB119
:104DC000A342FAD911685518A5420BD12468214491
:104DD0005418A3421160E0D11C685B685360214401
:104DE0001160DAE702D90C230360D6E72568611960
:104DF0008B4204BF19685B68636004BF4919216076
:104E00005460CAE703B030BD482D002070B50E4E87
:104E10000C463168054611B900F07AFB3060214636
:104E2000284600F075FB431C0AD0C41C24F0030480
:104E3000A04207D0211A284600F06AFB013001D1B8
:104E40004FF0FF34204670BD4C2D00202DE9F0417D
:104E5000CD1C25F0030508350C2D38BF0C25002D81
:104E6000074601DBA94205D90C233B6000263046EA
:104E7000BDE8F0812E4E00F0F5FB33681C4634BBD4
:104E800029463846FFF7C2FF431C04464DD134681B
:104E90002646002E40D123683146384604EB0308ED
:104EA00000F036FB80453AD1216803356D1A25F0B4
:104EB000030508350C2D38BF0C2529463846FFF769
:104EC000A5FF01302BD023682B4423600EE022681D
:104ED000521B1ED40B2A16D96119A342256018BF94
:104EE0005960636808BF316062514B60384604F115
:104EF0000B0600F0BDFB26F00706231DF21AB6D004
:104F00009B1BA350B3E76268A3420CBF32605A6098
:104F1000ECE723466468B2E734467668B9E70C23C9
:104F20003B60384600F0A4FBA1E72560DEE700BF48
:104F3000482D00209368013B002B10B4936008DAE1
:104F40009469A34201DB0A2903D15DF8044BFFF702
:104F500031BC1368581C1060197008465DF8044B8A
:104F60007047F8B506460F461446D518AC4201D135
:104F7000002007E014F8011B3A463046FFF7DAFF3D
:104F8000431CF3D1F8BD00002DE9F04F0D469DB054
:104F900014469846064618B183690BB9FFF7E4FD3D
:104FA000894B9D421BD175686B6ED90705D4AB89BF
:104FB0009A0502D4A86DFFF775FEAB891B0701D5D2
:104FC0002B69EBB929463046FFF746FCC0B16B6E42
:104FD000DC070ED54FF0FF301DB0BDE8F08F7B4BE6
:104FE0009D4201D1B568DFE7794B9D4208BFF56866
:104FF000DAE7AB899805EDD4A86DFFF754FEE9E731
:105000000023099320238DF82930CDF80C8030231C
:10501000DFF8C0818DF82A304FF0010923469A4607
:1050200013F8012B0AB1252AF9D1BAEB040B0BD0E6
:105030005B46224629463046FFF793FF013000F0D9
:10504000AA80099A5A4409929AF80030002B00F07D
:10505000A28000234FF0FF32CDE905230AF1010AB7
:10506000049307938DF853301A935446052214F88D
:10507000011B5848FBF7ACF8049AD8B9D10644BFD5
:1050800020238DF85330130744BF2B238DF8533062
:105090009AF800302A2B15D0079A544600204FF07A
:1050A0000A0C214611F8013B303B092B4ED9B0B117
:1050B000079214E0A0EB080309FA03F313430493E7
:1050C000A246D2E7039B191D1B680391002BBBBFAF
:1050D0005B4242F0020207930793B8BF0492237821
:1050E0002E2B0CD163782A2B35D1039B1A1D1B68FC
:1050F0000392002BB8BF4FF0FF3302340593DFF863
:10510000E4A0217803225046FBF762F840B1402327
:10511000A0EB0A0003FA00F0049B0343013404935C
:1051200014F8011B2C488DF828100622FBF750F8C4
:1051300000283FD0294B1BBB039B073323F00703F9
:1051400008330393099B3B44099367E70CFB023246
:105150000C460120A5E700230134059319464FF0C2
:105160000A0C204610F8012B303A092A03D9002BEB
:10517000C5D00591C3E70CFB012104460123F0E7EC
:1051800003AB00932A46164B04A93046AFF30080C8
:105190000746781CD6D16B6ED90705D4AB899A0522
:1051A00002D4A86DFFF77FFDAB895B063FF512AF18
:1051B000099811E703AB00932A46094B04A930462E
:1051C00000F080F8E4E700BF2858000848580008BD
:1051D00008580008685800087258000800000000CD
:1051E000634F00086E5800082DE9F04716469946AF
:1051F0008A680B69DDF820809342B8BF134633609C
:1052000091F8432007460C460AB101333360236806
:10521000990642BF336802333360256815F00605EE
:1052200006D104F1190AE36832689B1AAB4226DC06
:1052300094F84320131E226818BF012392062BD432
:1052400004F1430249463846C04701301ED0236866
:10525000E568326803F00603042B08BFAD1AA368A3
:1052600022690CBF25EAE57500259342C4BF9B1A4D
:10527000ED1800261A34B5421AD1002008E00123A7
:10528000524649463846C047013003D14FF0FF30FF
:10529000BDE8F0870135C6E7E1185A1C302081F8D7
:1052A0004300224494F8451082F843100233C7E7C4
:1052B0000123224649463846C0470130E6D0013630
:1052C000D9E700002DE9FF470F7E0C9D782F91460E
:1052D00080460C469A4601F1430207D8622F0AD84D
:1052E000002F00F0D880582F00F0A38004F1420571
:1052F00084F842703AE0A7F16303152BF6D801A1B8
:1053000051F823F05D53000871530008ED52000876
:10531000ED520008ED520008ED52000871530008EC
:10532000ED520008ED520008ED520008ED52000861
:105330007D540008A15300085F540008ED52000896
:10534000ED5200089F540008ED520008A1530008D8
:10535000ED520008ED520008675400082B681A1D32
:105360001B682A6004F1420584F842300123A3E05F
:1053700020682968060601F104030AD50E682B602F
:10538000002E03DA2D23764284F843305E480A2348
:1053900019E00E682B6010F0400F18BF36B2EFE72F
:1053A0002B682068191D2960010601D51E6802E0DE
:1053B0004606FBD51E8854486F2F0CBF08230A23CE
:1053C000002184F843106568A560002DA2BF216804
:1053D00021F0040121600EB9002D4DD01546B6FB19
:1053E000F3F103FB1167C75D05F8017D3746BB424A
:1053F0000E46F4D9082B0BD12368DE0708D52369A4
:1054000061689942DEBF302305F8013C05F1FF35A4
:10541000521B2261CDF800A04B4603AA214640460C
:10542000FFF7E2FE01304CD14FF0FF3004B0BDE891
:10543000F087354881F845702968236851F8046B76
:1054400029601D0614D5DF0744BF43F02003236005
:105450001EB9236823F0200323601023B0E72368DC
:1054600043F0200323607823284884F84530E3E79D
:10547000590648BFB6B2E6E71546BBE72B68266873
:105480006169181D286035061B6801D5196002E0A6
:105490007006FBD51980002323611546BAE72B68F7
:1054A0001A1D2A601D68626800212846FAF790FEDE
:1054B00008B1401B606063682361002384F84330B7
:1054C000A8E723692A4649464046D0470130ABD079
:1054D00023689B0713D4E068039B9842B8BF184623
:1054E000A4E70123324649464046D04701309BD0CD
:1054F0000135E36803995B1AAB42F2DCEBE7002568
:1055000004F11906F5E700BF795800088A58000829
:1055100038B5064D0023044608462B6000F0E8F835
:10552000431C02D12B6803B1236038BD502D0020ED
:1055300010B50C46B1F90E1000F0A0F80028ABBF72
:10554000636DA3891B1823F48053ACBF6365A381EB
:1055500010BD2DE9F0411F468B89DB0505460C4641
:10556000164605D5B1F90E100223002200F068F8A6
:10557000A389B4F90E1023F48053A38132463B462D
:105580002846BDE8F04100F017B810B50C46B1F957
:105590000E1000F055F8431CA38915BF606523F475
:1055A000805343F48053A38118BFA38110BDB1F988
:1055B0000E1000F013B8000038B5074D0446084639
:1055C000114600222A601A46FAF7D4FF431C02D182
:1055D0002B6803B1236038BD502D002038B5064D2F
:1055E0000023044608462B6000F05AF8431C02D101
:1055F0002B6803B1236038BD502D002038B5074D0E
:1056000000230446084611462B6000F051F8431C65
:1056100002D12B6803B1236038BD00BF502D00209C
:1056200038B5064D0023044608462B6000F048F8C4
:10563000431C02D12B6803B1236038BD502D0020DC
:1056400038B5074D04460846114600222A601A461E
:1056500000F03EF8431C02D12B6803B1236038BD33
:10566000502D00200148FFF71DBB00BF442D002036
:105670000148FFF718BB00BF442D002038B5074D87
:1056800004460846114600222A601A4600F028F80F
:10569000431C02D12B6803B1236038BD502D00207C
:1056A000024B58221A604FF0FF307047502D0020F7
:1056B000024B58221A604FF0FF307047502D0020E7
:1056C000024B58221A600020704700BF502D002066
:1056D000024B58221A604FF0FF307047502D0020C7
:1056E000024B58221A604FF0FF307047502D0020B7
:1056F000044A05491368002B08BF0B461844106084
:1057000018467047542D0020602D0020F8B500BFCA
:10571000F8BC08BC9E467047F8B500BFF8BC08BC92
:045720009E467047EA
:105724007474747420626567696E2E2E2E0D0000E9
:10573400626F6F744C6F6164657220626567696E35
:105744002E2E2E0D00000000626F6F744C6F61648A
:1057540065722072756E2E2E2E0D000068656C6CBD
:105764006F2077656E797A00456C656374726F6E2D
:10577400626F742043444320496E746572666163AA
:105784006500000053544D6963726F656C65637402
:10579400726F6E696373000043444320436F6E6607
:1057A40069670000456C656374726F6E626F742084
:1057B4004E617469766520496E74657266616365CD
:1057C400000000004C656E3D25640D0A00000000D9
:1057D40065706E756D3D25640D0A0000252E3278C6
:1057E400200000000D000000000000000000000088
:1057F4000102030406070809000000000102030473
:105804001C02002000000000000000000000000056
:105814000000000000000000000000000000000084
:105824000000000000000000000000000000000074
:105834000000000000000000000000000000000064
:105844000000000000000000000000000000000054
:105854000000000000000000000000000000000044
:1058640000000000232D302B2000686C4C0065667E
:10587400674546470030313233343536373839419D
:1058840042434445460030313233343536373839B3
:085894006162636465660000B7
:08589C0004AAFF7F01000000D7
:0458A400B501000842
:0458A8009101000862
:1058AC00F9090008050A0008C90A0008A50A000839
:1058BC00910A0008E50A0008090B00081201000211
:1058CC00EF0201400912320D000301020301000036
:1058DC000403090412034D00530046005400310028
:1058EC0030003000500000001A03000000000000DF
:1058FC00000000000000000000000000000000009C
:10590C0000000000ED0B0008610B0008650B00089F
:10591C00A50B0008850B000801000000100000001A
:10592C000024F4009540000821400008F53E0008D2
:10593C0000000000553C0008C73D0008793D0008F8
:10594C00000000000000000000000000313D0008D5
:10595C00E93C0008A13C0008953C00082D0B000810
:10596C0009026A00030100C032080B0002020201A6
:10597C0000090400000102020100052400100105C9
:10598C0024010001042402020524060001070582FB
:10599C000308001009040100020A000000070501B9
:1059AC000240000007058102400000080B020100C4
:1059BC0000000609040200020001000007050302B2
:1059CC004000000705830240000000000A060002A8
:1059DC00000000400100000028000000000104004D
:1059EC000100000000000000020057494E555342D0
:1059FC00000000000000000000000000000000009B
:105A0C00B600000000010500020084000000010047
:105A1C000000280044006500760069006300650002
:105A2C0049006E007400650072006600610063003E
:105A3C006500470055004900440000004E0000007E
:105A4C007B0045004100300042004400350043001B
:105A5C0033002D0035003000460033002D0034009B
:105A6C003800380038002D00380034004200340073
:105A7C002D00370034004500350030004500310062
:105A8C00360034003900440042007D0000003E0026
:105A9C000000010000000C004C0061006200650079
:105AAC006C000000240000004F00440072006900EC
:105ABC0076006500000000001C02002000000000C1
