:020000040800F2
:1000000000100020015B0008812000088320000808
:1000100000000000000000000000000000000000E0
:100020000000000000000000000000008520000823
:100030000000000000000000872000088920000860
:10004000515B000800000000515B0008515B000894
:10005000515B0008515B0008515B0008515B0008D0
:100060000000000091200008515B0008515B00086F
:10007000515B0008515B0008515B00080000000064
:10008000515B00080000000000000000A1200008F3
:1000900000000000515B0008515B0008B12000081F
:1000A00000000000515B000800000000515B0008E8
:1000B0000000000000000000000000000000000040
:1000C00010B5064C2378002B07D1054B002B02D02E
:1000D000044800E000BF0123237010BD7000002021
:1000E000000000006C5C0008044B10B5002B03D02E
:1000F0000349044800E000BF10BDC04600000000F6
:10010000740000206C5C0008002243088B4274D30A
:1001100003098B425FD3030A8B4244D3030B8B4208
:1001200028D3030C8B420DD3FF22090212BA030C11
:100130008B4202D31212090265D0030B8B4219D3F2
:1001400000E0090AC30B8B4201D3CB03C01A524112
:10015000830B8B4201D38B03C01A5241430B8B425A
:1001600001D34B03C01A5241030B8B4201D30B0343
:10017000C01A5241C30A8B4201D3CB02C01A52416A
:10018000830A8B4201D38B02C01A5241430A8B422D
:1001900001D34B02C01A5241030A8B4201D30B0216
:1001A000C01A5241CDD2C3098B4201D3CB01C01A30
:1001B000524183098B4201D38B01C01A524143093A
:1001C0008B4201D34B01C01A524103098B4201D328
:1001D0000B01C01A5241C3088B4201D3CB00C01A95
:1001E000524183088B4201D38B00C01A524143080D
:1001F0008B4201D34B00C01A5241411A00D2014632
:10020000524110467047FFE701B5002000F006F8A4
:1002100002BDC0460029F7D076E770477047C04658
:10022000844608006146FFE71FB500F055FB002833
:1002300001D40021C8421FBD10B500F0E1FA4042D0
:10024000013010BD10B500F047FB002801DB002095
:1002500010BD012010BDC04610B500F03DFB0028C8
:1002600001DD002010BD012010BDC04610B500F01A
:10027000EDFA002801DC002010BD012010BDC046B1
:1002800010B500F0E3FA002801DA002010BD0120CB
:1002900010BDC046F0B5C64643025B0A4E0245009B
:1002A0004F00DA00C40F9C46700A904600B52D0E30
:1002B0003F0EC90FB6098C424BD0EA1B002A36DD2F
:1002C000002F61D0FF2D00D1ADE08023DB041E4361
:1002D0001B2A00DCD3E001204346181A430100D456
:1002E0008CE080018709380001F0F0FD0538874077
:1002F000854200DCB6E02D1AB3483840430704D0ED
:100300000F230340042B00D00430430100D478E0D5
:100310006A1CFE2D65D08001430A9C46D2B263461A
:10032000D0051843E407204380BCB846F0BD002A3E
:1003300035D07A1B002D00D0AFE04346002B00D112
:10034000A7E0531E012A00D12FE1FF2A69D01A002D
:10035000AAE0E91B002970DD002F37D0FF2D62D005
:100360008023DB041E431B2900DCB0E00120404455
:10037000430143D50135FF2D33D00123934A034078
:10038000400810401843B9E7002E00D183E0511E09
:10039000012A00D1D8E0FF2A45D00A0098E7FE27BD
:1003A0006A1C174200D086E0002D00D0B7E043461B
:1003B000002B00D1F3E00022002EB0D0981B4301A7
:1003C00000D4FAE043460C00F01A97E7002E00D163
:1003D000C8E04A1E012900D1AEE0FF2923D0110058
:1003E000C1E70023FF229C4699E7FE216A1C1142C7
:1003F00077D0FF2AF5D0150046447008430700D097
:100400007EE7C308FF2D0ED05B025B0A9C46EAB272
:1004100085E7002E07D08022D203134203D010427A
:1004200001D10C000300002BDBD08020C003184357
:100430004002430A9C46FF2271E70029D5D07A1B6F
:10044000002D60D14346002B24D0531E012A73D0C7
:10045000FF2AE7D01A001B2A00DC85E001203D00BE
:10046000801985E720233A00451B38000135EA4012
:100470005D1BA840431E9841002510433EE7202302
:1004800030009B1A31009840D140431E98410843E8
:1004900022E70C0003001500B4E7FF2FC1D0802332
:1004A0004046DB04184380461B2A51DD01200C0026
:1004B0003D00301A12E743469F1B7B012BD4002FCF
:1004C00000D010E70023002400229C4627E72023C9
:1004D00032003000CA40591A8840431E98411043E8
:1004E00045E7002D4AD14346002B63D00022002E61
:1004F00000D114E730004044430100D47EE7324B82
:10050000013518407AE7FF2F8CD080234146DB0469
:10051000194388469FE743460C00F71AE3E6424634
:10052000002A00D075E7002E00D07AE78023DB0395
:1005300000249C46FF22F2E630004044012543019E
:1005400000D45BE7022518E743460125981BC5E662
:10055000202344464046D4409A1A9040431E984176
:100560002043A4E70D004DE7202341464046D140FB
:100570009A1A9040431E9841084370E74246002A69
:1005800000D14FE7002E00D14DE78022D203134265
:1005900000D148E7104200D045E7030043E7002EB2
:1005A00090D00C0084460022B9E643460C00F01AB5
:1005B000013593E684460022B1E6002800D01DE70D
:1005C000002300249C46AAE6FFFFFFFBFFFFFF7D00
:1005D000F0B54F464646D6464502C0B547000C1C0E
:1005E0006D0A3F0EC60F002F00D170E0FF2F00D123
:1005F00075E0EB008025ED041D43002399469A46E3
:100600007F3F6002430A984663001B0EE40F002BF5
:100610004ED0FF2B46D04246D0008022D204024367
:10062000904600227F3B3100FF1A4B466140C9B221
:1006300013430F2B00D9B5E06E489B00C3589F466B
:10064000002398462600454692465346022B00D189
:1006500089E0032B00D19EE0012B18D03B007F33B3
:10066000002B69DD6A0704D00F222A40042A00D03B
:1006700004352A0103D5604B1D403B008033FE2B1F
:1006800000DD70E0AD016D0AD8B202E00E0000207E
:100690000025C0052843F6073043E0BCBA46B14602
:1006A000A846F0BD4346002B3FD10222FF3F03E0A6
:1006B0004346002B2DD1012231004B466140C9B287
:1006C00013430F2B34D84D489B00C3589F46002D31
:1006D00013D104239946033B00279A4691E7002D46
:1006E00005D108239946063BFF279A4689E70C2344
:1006F0009946093BFF279A4683E7280001F0E6FB6D
:100700007627431F9D4000237F4299469A463F1A11
:1007100077E7404601F0DAFB4246431F9A407623D2
:100720005B4290461B1A00227DE7FF2303227AE7F3
:100730000E00FF200025ACE70120C01A1B28A6DC14
:100740009E372A00BD40C2406B1E9D4115436B077A
:1007500004D00F232B40042B00D004356B0144D56B
:100760000120002595E7FF20002592E7802500263F
:10077000FF20ED038DE7002398468020C00305424B
:1007800009D04346034206D1454605436D02260083
:10079000FF206D0A7DE78020C00305436D02FF2026
:1007A0006D0A76E742466B015001834219D21B2243
:1007B0000025013F01261C006D005B00002C01DBC1
:1007C000984201D81B1A3543013A002AF3D15A1E28
:1007D00093411D433B007F330E00002B00DD41E7BA
:1007E000AAE71A2201251B1AE4E7AD0100206D0AD1
:1007F0004FE7C046B45C0008FFFFFFF7F45C000859
:1008000070B5420045024E024C00C30F6D0A012034
:10081000120E760A240EC90FFF2A06D0FF2C03D031
:10082000A24201D1B54206D070BD002DFCD1FF2CF3
:10083000FAD1002EF8D18B4206D00120002AF3D144
:100840002800431E9841EFE70020EDE770B5420015
:1008500045024E024C00C30F6D0A120E760A240E9A
:10086000C80FFF2A1BD0FF2C0ED0002A1BD1002C52
:1008700001D1002E1CD0002D0CD083421CD00221AF
:10088000581E0840013870BD002E22D1002AF4D134
:10089000002DF2D10028F6D101204042F3E7002DCF
:1008A00017D1FF2CF0D0002CE7D1002EE5D1E6E7E0
:1008B0000020002DE7D0E2E7A24205DCEADBB542EA
:1008C00002D8E7D30020DEE7434258414000013818
:1008D000D9E702204042D6E770B5420045024E02F9
:1008E0004C00C30F6D0A120E760A240EC80FFF2AA1
:1008F0000BD0FF2C0DD0002A1FD1002C16D1002EBA
:1009000014D10020002D10D009E0002D0CD1FF2CB7
:1009100013D1002E08D1002A08D0834212D0022120
:10092000581E0840013800E0022070BD002DF4D1AF
:100930000028FAD101204042F7E7002CEDD1002E2B
:10094000EBD1ECE7A24205DCF2DBB54202D8EFD3F3
:100950000020EAE74342584140000138E5E7C0463D
:10096000F0B54F464646D64644024500C0B5640A37
:100970000F1C2D0EC60F002D00D18DE0FF2D00D1D4
:1009800092E00023802099469A46E400C004044384
:100990007F3D7802430A98467B001B0EFF0F002B19
:1009A00000D170E0FF2B00D186E04246D0008022CB
:1009B0007F3BED180023D204024390469C46310051
:1009C0004B467940681C0F2B1CD8764A9B00D358A5
:1009D0009F4639004446E2465346022B0FD0032B74
:1009E00000D1D7E0012B37D100200024C0052043DF
:1009F000C9070843E0BCBA46B146A846F0BDFF208F
:100A00000024F3E7260C2404220C44462404240C7E
:100A1000434627001B0C574374435A435E43121945
:100A20003B0C9B189C4203D9802252029446664498
:100A30003F041A043F0CD2199401671EBC411B0CE1
:100A4000920E9B1914439B011C431B0100D49BE095
:100A5000012362081C40144302007F32002A64DD37
:100A6000630704D00F232340042B00D00434230158
:100A700003D502004C4B80321C40FE2ABFDCA4018F
:100A8000640AD0B2B2E74346002B3DD14A46013357
:100A90001A4391469C4692E7002C29D1042399469B
:100AA000033B00259A4674E7002C1BD10823994686
:100AB000063BFF259A466CE74346FF35002B0BD1DA
:100AC00002234A461A4391469C4678E75346310032
:100AD000022B00D083E792E703234A461A4391464C
:100AE0009C466CE70C239946093BFF259A4650E744
:100AF000200001F0EBF97625431F9C4000236D4256
:100B000099469A462D1A44E7404601F0DFF94246DD
:100B1000431F9A4000232D1A90469C46763D4EE78F
:100B200080240021FF20E40360E701239B1A1B2B94
:100B300000DD59E722009E30DA4084401300621E37
:100B400094411C43630704D00F232340042B00D09F
:100B5000043463011AD50120002447E78020C00334
:100B6000044209D04346034206D14446044364028A
:100B70003900FF20640A39E78020C003044364027F
:100B80003100FF20640A31E7280065E7A401002056
:100B9000640A2BE78020C00304436402FF20640A38
:100BA00024E7C046345D0008FFFFFFF7F8B5CE46E6
:100BB000474643025B0A4E02DA009446720A9146A7
:100BC00045004A0080B52D0E1F00C40F120EC90F3C
:100BD000B609FF2A5BD0012041408C4239D0A81AC7
:100BE00000285ADD002A6AD0FF2D00D1D9E08022EA
:100BF000D20416431B2800DCE9E001206346181AE2
:100C0000430100D4B4E080018709380001F05EF9A7
:100C100005388740854200DCCCE02D1AB5483840C5
:100C2000430704D00F230340042B00D004304301BA
:100C300000D4A0E06A1CFE2D00D18DE08001470A9F
:100C4000D2B2D0053843E4072043C0BCB946B04611
:100C5000F8BDA81A8046002845DD002A70D0FF2D77
:100C600000D19EE08023DB041E4343461B2B00DCA7
:100C7000D2E00120604443017AD50135FF2D6BD0CD
:100C800001239D4A0340400810401843C8E7002E46
:100C900020D08C4223D02800FF38002839D0571BA1
:100CA000002D00D09DE06346002B00D1DBE07B1ED1
:100CB000012F00D10DE1FF2F71D01F0098E0002E11
:100CC00000D1A7E0421E012800D1E6E0FF2868D04D
:100CD00010008FE701204140A14200D07FE7FF20B4
:100CE00040428046A8444046002838D0511B002D81
:100CF00000D1AEE0FF2A00D1DFE080236046DB04B4
:100D0000184384461B2900DCD9E001201500801916
:100D1000B1E7FE206A1C104271D1002D00D0A6E080
:100D20006346002B00D1D9E00022002E00D188E7D5
:100D3000981B430100D4E1E063460C00F01A6FE712
:100D4000002E00D1B7E00200013A012800D19CE05A
:100D5000FF2826D0904688E7FF22002771E7FE2073
:100D60006A1C104264D0FF2AF6D015006644700851
:100D7000430700D056E7C308FF2D12D05B025F0A7D
:100D8000EAB25EE76246002A00D196E0002E08D063
:100D90008022D203134204D04846104201D10C00F5
:100DA0004B46002BD8D08027FF031F437F02FF2232
:100DB0007F0A46E720233A00451B38000135EA4008
:100DC0005D1BA840431E98410025104328E72023BF
:100DD0001B1A32009E40C2403000431E984110430F
:100DE0000CE7FF2ADBD080236046DB0418438446EF
:100DF0001B2F56DD01200C001500301A00E763465A
:100E00009F1B7B013DD4002F00D0FEE60024002272
:100E1000002716E70500AFE7320043464146DA40B7
:100E200020235B1A9E403000431E9841104321E767
:100E3000002DA7D16346002B59D00022002E00D1EF
:100E4000FFE630006044430192D52A4B013518403B
:100E50008EE76346002B47D04B1E012915D0FF2992
:100E60002BD019004EE70C004B463D0084E762464C
:100E7000002A8BD1002E92D180270024FF22FF036D
:100E8000DFE663460C00F71ABFE630006044012538
:100E9000430100D46CE70225F2E663460125981B66
:100EA000AEE6202364466046FC40DF1BB840431E8C
:100EB000984120439FE705005EE74B4671E72023FA
:100EC00065466046CD40591A8840431E98412843E4
:100ED0001CE763460C000125F01A91E6002E95D020
:100EE0000C004F460022ACE64B460D0044E74F464F
:100EF0000022A6E6FFFFFFFBFFFFFF7D002800D0DA
:100F000036E7002400279CE641024200C30F490A4D
:100F10000020120E7E2A03DD9D2A02DD094A981860
:100F20007047802000040143952A07DC9620821A2E
:100F3000D1404842002BF3D10800F1E7963A9140A6
:100F4000F7E7C046FFFFFF7F70B5051E0ED000F02B
:100F5000BDFF9E2304001B1A962B0CDC082801DD24
:100F6000083CA5406D026D0AD8B201E000200025C2
:100F7000C005284370BD992B09DD020029001B32F2
:100F800091404A1E91410522121AD5400D43052C6D
:100F900012DC29000C4E31406A0709D00F2028408E
:100FA000042805D004314A0102D59F2331401B1B80
:100FB00089014D0AD8B2DBE7621F95402900024E35
:100FC00031406A07F4D0E9E7FFFFFFFB03685A00EE
:100FD00004D5802212061343C01870475B005B08DB
:100FE000FAE7C046F8B557464546DE464E469046B7
:100FF000E0B50700002924D04B1E9A4699460023ED
:101000009B465B464B44DC0FE4186410E5007E19F8
:101010003000FFF7DBFFA2450CD040450CD828007C
:1010200008303818FFF7D2FF013840450AD2631C58
:101030009B46E6E7404505D9A34502D0631E994685
:10104000DFE700263000F0BCBB46B246A946A0460A
:10105000F8BDC0460300012805D0022807D00020B3
:10106000002B02D070470348FCE70348FAE7034827
:10107000F8E7C0467D1700087117000889170008B7
:1010800030B5234B050083B08C1E002B26D02000EA
:1010900001A900E000BF00281CD001992200FFF741
:1010A000A1FF041E16D0FFF791FF6368A864012B0F
:1010B0002AD0201D002B23DBFFF788FF0023E864E4
:1010C0002B650368002B0FDBFFF780FF28610020F2
:1010D00003B030BD002309202B61F9E70D480E490C
:1010E000091AC9100191D9E71801000FFFF7B2FFE3
:1010F0002861431E98410823404298430930E7E79E
:101100000123E8642B65DCE7002305202B61DFE782
:1011100000000000845E00087C5F0008036810B5D2
:101120000400DA0705D49B070AD5483000F080FC9C
:1011300023685A070AD51A070FD5DB0615D510BD47
:10114000483000F071FC23685A07F4D42000D030F6
:1011500000F072FC23681A07EFD420005130FF30F2
:1011600000F06EFC2368DB06E9D42000D130FF30AC
:1011700000F06AFCE3E7C0460920704703000068FE
:10118000002800D0C01870477047C04670B50400F2
:101190000D002000296CFFF773FF002811D12B6C84
:1011A0002A00636121000120236998470828F0D0B4
:1011B000072806D10020296CFFF7E6FF281D00F064
:1011C0001DFC04F002FDC046F0B5CE46474680B592
:1011D000C368304C9846A544836904001600043166
:1011E000402205A8994604F0DFFC0023049325E083
:1011F000F022149B5200636104A97CA8039304F0BD
:10120000D3FC2100280023697CAA98478A9B05000B
:10121000039315934B46019304AB009322002300E4
:1012200031000120C047002822D1F0227CA95200C1
:1012300004A804F0B9FC0026082D22D1149B20003C
:1012400019000393FFF71CFF09360700F5B20028C9
:10125000CED0129B1021039315934B46019304AB00
:1012600000932200230001202943C047002800D01A
:1012700009273800F5239B009D44C0BCB946B04601
:10128000F0BD072DF4D130001499FFF77DFF05A8BC
:1012900000F0B4FB2CFCFFFF406C704770B5CB6BCB
:1012A000FAB00B6405000E004022043103A804F0DC
:1012B0007BFC01235B42029306E029002B6902AA12
:1012C0009847040008280AD1129B280019000193AE
:1012D000FFF7D6FE0028F0D009207AB070BD02A832
:1012E000FFF71CFF062CF7D131002800FFF74EFF57
:1012F00010B58261DA6BC1601A6419000022FFF731
:1013000063FF10BD436970B50B64C36804000D0032
:10131000002B13D10A0023690100022098470728F7
:1013200005D008280FD129002000FFF72FFF00204B
:10133000296CFFF729FF281D00F060FB0122FFF751
:1013400043FF04F042FC04F040FCC046C36810B503
:10135000002B05D0CB6B00220B64FFF735FF10BDCF
:10136000FFF79CFFFBE7C0467047C046836801005B
:1013700010B5002B01D00120984710BD012915D0D0
:101380000AD8002B10D10F2A0ED89200821852686A
:10139000009B00201A6006E001200339C9B2884290
:1013A00080414042013070470220FCE70120FAE70B
:1013B00000B585B003AB0A00009300210023FFF7BE
:1013C000DDFF039805B000BD012915D00AD8002B18
:1013D00010D10F2A0ED8009B92001B688218536010
:1013E000002006E001200339C9B288428041404212
:1013F000013070470220FCE70120FAE700B585B014
:1014000003AB039200930A0000230021FFF7DCFFE7
:1014100005B000BD70B51A4CD36BA544136405002C
:101420000C0019A8111D402204F0BEFB01235B42F1
:10143000189314E00C2118A802AAFFF7DFFF21007F
:1014400018A8A847002812D1069B18AA02A908309C
:1014500001939847060005280AD0092807D0289B41
:1014600002A819000193FFF70BFE0028E2D009261D
:1014700018A8FFF753FE300090239B009D4470BDD9
:10148000C0FDFFFFF0B557469246032245464E4643
:10149000DE4699461300E0B58846CD6C494689B0D2
:1014A0000340009308CD0695002900D180E01A0C76
:1014B0001B040593022304A90B73FD3313409B0007
:1014C0004A73ED18009B022B01D143469D6B4346A6
:1014D0001B6DDB070FD5504605A900F05BFB00280C
:1014E00001D1082000E0092009B0F0BCBB46B2469B
:1014F000A946A046F0BD2F68002FECD0082303407A
:10150000029300230193013354469B464646BA4654
:101510004B46022B49D02B886F889A4604355A4691
:101520003B009343B26C0F21904620009844FFF794
:101530003FFF0023804506D853465A469343434411
:1015400098429B415B4202227F0017405946524617
:101550000A401743012F30D0022F4CD0002FC2D1A8
:10156000009A002A02D0002B00D09BE004352B68A3
:101570009A46002BCCD1200005A9A24600F00AFB18
:101580000028B0D1019B002BABD00F215046FFF7B4
:101590000FFF0E2102005046FFF730FF50460F218B
:1015A000724AFFF72BFF07209EE76F680835B6E702
:1015B0001B02059304AB9A8184E7009A002A49D163
:1015C000002B16D02B68DF0F6B689A1C00D18AE7BE
:1015D000320058320492013300D1B6E0281DFFF7E3
:1015E000CDFD3A00010004AB300000E000BF002850
:1015F0006CD10835BBE72A68009957007F0800299D
:101600000DD1002B04D0029B002B72D0002F3CD0B8
:10161000002A00DA04350137BF00ED19A7E7336A65
:101620000D2120009846FFF7C3FE804501D02A68AF
:10163000EEE7B36A9D42FAD10023F36204333363C9
:101640002B1DB76273632B68002B00DA87E0012340
:101650000193E0E70D212000376AFFF7A9FE8742DA
:10166000C7D1B36A9D42C4D1B046A2462800FFF755
:10167000ADFC0F2102005046FFF7C0FE5046424627
:101680000021FFF7BBFE07202EE7B046A2460D2142
:101690005046FFF78DFE4346049A18625A620620B0
:1016A0009D6221E72800FFF791FC0435A246B5634F
:1016B0000400300000E000BF002800D113E75046CE
:1016C00022000F21FFF79AFE07200DE7A2460D2109
:1016D00004005046FFF76CFEB04633003062022C27
:1016E00039D1049A2C33F2627362434606209D621C
:1016F000FAE62B1D9A460023984658339C46210053
:101700004A46B4445446A9468A463D000392474699
:10171000E0460EE0434620000493FFF72FFD002231
:10172000010004AB300000E000BF013704340028A2
:1017300004D1AF42EED14D46B046A8E72F004D464A
:10174000039B544699462A6862E70D212000FFF763
:101750002FFEB04630624346049A5A62C5E7781CB1
:101760008000B046A246281881E7C046000000006D
:1017700010B50023FFF786FE10BDC04610B501234B
:10178000FFF780FE10BDC04610B50223FFF77AFEBA
:1017900010BDC046F0B5CE46474680B505001400E2
:1017A0001E00C3B0032944D020D8002949D0012904
:1017B00041D1130C14049846230C9946012E00D1F4
:1017C0007AE0052E37D144464C44202C33D843468A
:1017D0000F2B00D8B5E04C46002C00D0C2E04A46A2
:1017E000A96B20AF002A22D000247FE0042922D157
:1017F000002B20D1102A1ED8102203681A4200D0D4
:10180000C7E020AF380000F021F90126390000239D
:10181000AA6B30009840044201D001CA086001332D
:101820000431042BF5D13800AA6300F00DF9002033
:1018300002E0032B1CD0022043B0C0BCB946B04626
:10184000F0BD002BF7D1002301271604826B360C64
:10185000011D38009840064201D001CA08600133DA
:101860000431102BF5D10020A304E5D4AA63E3E7EB
:101870001404160C240C3319102BDCD8082203682E
:101880001A4200D08CE020AF380000F0DBF8F60000
:10189000AB6B002C0AD0F61AE400321F1C19BA18E0
:1018A0001900096804339950A342F9D13800AB6399
:1018B00000F0C6F80020BFE743464B44102BBAD8CF
:1018C00043460F2BB7D82B681E4206D003222800B0
:1018D00093432B60483000F0A9F820AF380000F0A7
:1018E000A5F84A460024A96B002A61D04346DB00D4
:1018F000FF180023D200C858F85004339A42FAD196
:101900008918002C0FD06F464046102800D21020B6
:1019100000231038C0003818E200CF58C7500433F5
:101920009342FAD1C918012E41D04346A9630F2B27
:1019300045D9002C00D17AE7684600F07DF80020F8
:101940007AE7102C46D9103C01222B681A4207D0A6
:1019500093430222280013432B60483000F06AF8BA
:10196000002C39D004222B681A422CD143460F2B6D
:1019700003D820AF380000F05DF86F46380000F063
:101980005DF810224346A96BD21A002ABCDD20AFB5
:10199000ACE793430360D130FF3000F057F830E7F5
:1019A000934303605130FF3000F04CF86BE720AFF9
:1019B00004313800A96300F037F800203CE720A884
:1019C00000F036F8B5E7280093432B60D03000F0E4
:1019D00035F8CBE70024B7E743460F2B00D9FEE6E6
:1019E00020AF380000F026F84A46A96B002A00D044
:1019F000FAE6380000F01CF800201DE70100343141
:101A000038C9043B9C461D60A646010020313CC9F4
:101A100090469946A246AB4601000831FCC9416890
:101A20000068E54600BDC0467047C0467047C046E6
:101A30007047C0467047C0467047C0467047C046B2
:101A40007047C0467047C0467047C0467047C046A2
:101A500001B401A801B585B0FFB408A841464A46C3
:101A600053465C4665463EC001A83EC80F980090AC
:101A700000230CB401A9FFF711FC109B12B018470A
:101A800001B401A801B585B0FFB408A841464A4693
:101A900053465C4665463EC001A83EC80F9800907C
:101AA00000230CB401A9FFF72DFC109B12B01847BE
:101AB00001B401A801B585B0FFB408A841464A4663
:101AC00053465C4665463EC001A83EC80F9800904C
:101AD00000230CB401A9FFF739FC109B12B0184782
:101AE00001B401A801B585B0FFB408A841464A4633
:101AF00053465C4665463EC001A83EC80F9800901C
:101B000000230CB401ABFFF7F3FB109B12B0184796
:101B100001B401A801B585B0FFB408A841464A4602
:101B200053465C4665463EC001A83EC80F980090EB
:101B300000230CB401AAFFF76DFC109B12B01847EC
:101B4000027A0300002A0BD1427A002A0FD0013A10
:101B500042724268111D416003211268017202E065
:101B6000013A02720268100E12021A607047B02029
:101B7000FCE7C04600B585B003AB00930C22002300
:101B80000021FFF7FBFB039805B000BD10B5FFF780
:101B9000F1FF10BDF0B54E4645465746DE460023E0
:101BA000E0B587B003930F339846083B99468023EE
:101BB0001B0305000E009A463000FFF7C1FF04002A
:101BC000B02800D1C1E0030629D503004246934363
:101BD000DBB2802B53D0902B3DD0A02B6BD0B02B01
:101BE00000D17EE0C02B00D195E003004A4693432C
:101BF000DBB2D02B0AD15346024001321A430523EF
:101C000001212800FFF7C6FD0028D5D009242000B7
:101C100007B0F0BCBB46B246A946A046F0BDFF23C4
:101C2000820013401F1D05AB9B4600930D2200232D
:101C300000212800FFF7A2FB630639D4059B9C46D0
:101C400067445B460597009300230D22002128007E
:101C5000FFF7BAFBB0E7833B03400D2BD6D005AFAF
:101C600002400023002128000097FFF787FB002394
:101C70000D22002128000097FFF7A6FB9CE7040235
:101C80003000FFF75DFF802720433F02B842BDD000
:101C900004010005020C002300212800FFF77AFD53
:101CA0000028B3D13C4200D186E70123039383E7A8
:101CB000059BDF1BC5E7FF234A461B011900824332
:101CC00011410A001A40030702D58023DB011A43A1
:101CD000002300212800FFF75DFD002800D16BE7FD
:101CE00094E7B12845D0B22800D19FE0B32855D061
:101CF000FC230340B42B00D188E74A4653460240F8
:101D000001321A43012101232800FFF743FD002877
:101D100000D151E77AE7C6284BD0C7285DD0030031
:101D20004A469343DBB2C02B6CD0C82871D0C92877
:101D300000D06BE73000FFF703FFF02302031B0323
:101D4000134042460240013258E7039B0024002B17
:101D500000D05CE705AE0E22002128000096FFF7B8
:101D60000DFB00230F22002128000096FFF72CFB1B
:101D70004DE73000FFF7E4FE021E00D146E7030006
:101D800041468B43DBB2002B00D03FE70021280007
:101D9000FFF700FD002800D10EE737E73000FFF71E
:101DA000CFFEF02302031B031340424602400132E0
:101DB000A7E73000FFF7C4FEF02302031B03134024
:101DC0004246024001321A43032303212800FFF751
:101DD000E1FC002800D1EFE618E73000FFF7B0FE85
:101DE000021E00D112E7030041468B43DBB2002BF9
:101DF00000D00BE704212800FFF7CCFC002800D11D
:101E0000DAE603E74346A0221C40013412032243D2
:101E1000DAE73000FFF794FE434602009A43D2B25D
:101E200010321840120301300243E8E605AB00937C
:101E30009B460D22002300212800FFF79FFA300067
:101E4000FFF77EFE03061AD57F27B03C059B38407E
:101E5000A0409C466044059030000734FFF770FEB8
:101E60000306F3D481217F2389008C460340A340DD
:101E7000059A62449B1805935B460093E4E60224AE
:101E8000F0E7C046030000B5DA6C85B0536808007F
:101E90000832190201910292694603221B0E0A734D
:101EA0004B7301A9FFF776FE05B000BD10B5FFF733
:101EB0006DFE806C10BDC04610B5FFF767FEC26CAA
:101EC000D07902308000101810BDC0461C210123BB
:101ED0001B04984201D3000C10391B0A984201D30D
:101EE000000A08391B09984201D30009043902A2EB
:101EF000105C40187047C046040302020101010152
:101F0000000000000000000072B6FEE710B594B0BB
:101F10003022002108A803F050FE102410220021D6
:101F200004A803F04AFE10220021684603F045FE93
:101F300012230893113B0B930D930C940E940133D1
:101F40001093A0239B03129308A800F049FD0028DA
:101F500018D107230493053B0593002306930793A9
:101F6000012104A800F0C2FF00280DD12123009315
:101F7000002302930393684601F068F8002805D116
:101F800014B010BDFFF7C0FFFFF7BEFFFFF7BCFFA7
:101F900010B501F011F9FFF7B9FF00F00FF800F0EC
:101FA000EBF900F01BF800F00FF900F05BF900F01E
:101FB000FBF900F091F803F0C5FBFEE782B0064A9A
:101FC00051698020800201435161536903400193AC
:101FD000019B02B07047C0460010024010B50C488B
:101FE0000C4B0360E1235B02436000238360C3600A
:101FF00003610C2242618361C3610362436203F0A7
:10200000E7F9002800D110BDFFF77EFFFBE7C046CF
:102010008C0000200038014010B588B00400142264
:10202000002103A803F0C9FD2268134B9A4201D096
:1020300008B010BD114B99698020C001014399611E
:102040009A6902400192019A5A69802189020A43E1
:102050005A615B690B400293029B0C2303930A3B7A
:10206000049301330693023B0793902003A9C00514
:1020700002F0E8F8DCE7C0460038014000100240FA
:10208000FEE7FEE77047704710B501F0A5F810BDF8
:1020900010B5024802F04CFA10BDC046E80100201D
:1020A00010B5024802F022FD10BDC046100100200C
:1020B00010B5074B1B689A69E023DB001A4203D076
:1020C000034802F02BF810BD014801F06BFBFAE762
:1020D0002C0200207047000010B50A480A4B03602C
:1020E0002F23436000238360FA229200C2600361C1
:1020F000836102F0EBFD002800D110BDFFF704FF63
:10210000FBE7C046100100200020004082B00268BA
:10211000074B9A4201D002B07047064AD1690223A8
:102120001943D161D26913400193019BF3E7C04683
:10213000000400400010024000B583B002680C4B60
:102140009A4201D003B000BD0A4AD1698020400004
:102150000143D161D36903400193019B0022032114
:10216000ED3802F03FFA132002F06CFAEAE7C046BD
:10217000002000400010024010B586B00400142278
:10218000002101A803F019FD22680D4B9A4201D0ED
:1021900006B010BD0B4A5169802080020143516195
:1021A000536903400093009BC0230193BE3B0293FD
:1021B000013B0593902001A9C00502F043F8E7E731
:1021C000000400400010024000B58BB0082200213E
:1021D00008A803F0F2FC1C22002101A803F0EDFC8A
:1021E0001E481F4B0360002343608360FA22920065
:1021F000C2600361836102F095FD002821D10023B4
:102200000893099308A9154802F0F0FE00281BD195
:10221000602301930023029303930593002201A9F5
:102220000E4802F0EBFD002811D1042201A90B4851
:1022300002F0E4FD00280DD10848FFF79DFF0BB028
:1022400000BDFFF761FEDAE7FFF75EFEE0E7FFF7AC
:102250005BFEEAE7FFF758FEEEE7C04658010020B4
:102260000004004000B585B00C22002101A803F055
:10227000A4FC1848184B0360002343608360C360CC
:102280000122026104214161037643768376C3769D
:10229000C221FF31C16103629E39FF39435482621A
:1022A00000F0A0F900280FD10423019380235B01E3
:1022B000029380235B05039301A9064800F0F6FA18
:1022C000002804D105B000BDFFF71EFEECE7FFF7C4
:1022D0001BFEF7E7A80100200024014010B588B0DC
:1022E00004001422002103A803F067FC1E4B22689F
:1022F0009A4201D008B010BD1C4B99698020800023
:10230000014399619A6902400192019A5A698021B8
:1023100089020A435A615B690B400293029B1023B6
:1023200003930D3B04937138FF3803A9C00501F0F6
:1023300089FF0F480F4B03600023436083608022B6
:10234000C260803202618022D2004261202282611A
:10235000C36102F065F8002803D1054B23635C627A
:10236000C8E7FFF7D1FDF8E7002401400010024064
:10237000E80100200800024000B583B0094A516915
:10238000012319435161526913400193019B0022BB
:102390000021092002F026F9092002F053F903B0C8
:1023A00000BDC0460010024010B51448144B036035
:1023B000144B4360002383600122C26003614361C8
:1023C0008361C361036201F083F800280CD100210E
:1023D0000A4801F0E1FE002809D10021074801F078
:1023E00007FF002806D110BDFFF78EFDEFE7FFF7CE
:1023F0008BFDF2E7FFF788FDF5E7C0462C020020D1
:10240000005400400E09002010B588B004001422CA
:10241000002103A803F0D1FB2268174B9A4201D098
:1024200008B010BD154C6269802189020A436261BF
:1024300063690B400193019BC023DB0003931223CC
:1024400004930F3B069301330793902003A9C00523
:1024500001F0F8FEE269802189030A43E261E36941
:102460000B400293029B00220021172002F0BAF8D1
:10247000172002F0E7F8D3E70054004000100240B4
:1024800010B5154B154A1A60154A5A60986001221A
:10249000DA60802212021A6100225A619A61DA61BE
:1024A0001A62180001F014F800280CD100210A4823
:1024B00001F072FE002809D10021074801F098FEC2
:1024C000002806D110BDFFF71FFDEFE7FFF71CFD49
:1024D000F2E7FFF719FDF5E72C0200200054004059
:1024E0000E0900200120704710B503F033FB1623BE
:1024F00003600120404210BD10B501214942FFF7A1
:10250000F3FFFEE782B00A4B9969012211439961FA
:1025100099690A400092009ADA69802149050A43C4
:10252000DA61DB690B400193019B02B07047C04642
:102530000010024030B583B004000023019303680B
:10254000996803220A40012A14D09968224A11424C
:1025500018D19A6801210A439A60204B18682049D3
:10256000FDF7D2FD0190019B002B15D0019B013B93
:102570000193F8E71A68D2072BD4DA681204E4D57D
:10258000002024E0A36B10221343A363E36B0F3AF4
:102590001343E36301201AE000F02AFE05002368DC
:1025A0001B68DB0712D400F023FE401B0228F6D97B
:1025B00023681B68DB07F2D4A36B10221343A363C9
:1025C000E36B0F3A1343E363012000E0002003B004
:1025D00030BD0020FBE7C04617000080000000204F
:1025E00040420F0070B5041E00D1B4E0836B002B95
:1025F00000D180E0A36BDB0600D5A6E022689168DD
:10260000042005000D40084200D09EE0A16B534B12
:1026100019400633FF331943A163916801330B401E
:10262000012B6ED0D36818218B43A1680B43D36074
:10263000226813699B009B0861680B431361226841
:10264000D36847490B40D360237E9B03627ED2034D
:102650001343A17E4A031343A26A012A58D0802261
:1026600052011343E26813432269022A52D02B43DA
:102670002422A25C52001343E27E012A4CD0E2697C
:10268000C221FF318A4202D0216A0A4313432168E2
:10269000CA681A43CA60E26A802149058A420DD09D
:1026A000012A0BD0022A09D0032A07D0042A05D018
:1026B000052A03D0062A01D0072A0AD120684169D9
:1026C00007229143416120684169E56A2A400A4333
:1026D00042612268D26823490A409A422BD0A36BF8
:1026E00012229343023A1343A363E36B0F3A13435B
:1026F000E36301202EE0C36334228354FFF7EEFD31
:1027000078E71368DB079AD4D3681B0497D489E76A
:102710002A00A6E70425AAE7002903D18022520255
:102720001343ACE7A26B20210A43A263E26B1F397B
:102730000A43E263A3E70023E363A36B032293430B
:10274000023A1343A363002004E0A36B1022134357
:10275000A363012070BD0120FCE7C046FDFEFFFF22
:102760001902FEFFE7FF3F83F8B504000D001600D5
:1027700003689B685B073ED43423C35C012B3CD0C9
:1027800034230122C254437E012B04D0FFF7D2FE32
:10279000071E2ED100E00027A36B194A1A408023A0
:1027A0005B001343A3630023E3633422A354236B2E
:1027B000144A9A62236B144ADA62236B134A1A632F
:1027C00023681C221A602268536810210B4353604F
:1027D0002268D3680F390B43D3602168403133003E
:1027E0002A00206B01F044FE2268936804210B4309
:1027F00093603800F8BD0227FBE70227F9E7C046DF
:10280000FEF0FFFF1528000887280008932800081D
:102810007047000010B5436A9A6B502111422BD1CA
:10282000996B802292000A439A631A68D068C0218B
:102830000901084213D1997E002910D111680907B6
:102840000DD5916849070ED451680C208143516021
:102850009A6B0B490A400431FF310A439A6318000E
:10286000FFF7D6FF10BD9A6B20210A439A63DA6BFB
:102870001F390A43DA63F2E71B6B1B6B9847F1E7DA
:10288000FEFEFFFF704710B5406AFFF7FBFF10BD6B
:10289000704710B5406A836B402213438363C36B58
:1028A0003C3A1343C363FFF7F3FF10BD30B583B069
:1028B0000400002301933433C35C012B00D181E079
:1028C00034230122C25403689A68520770D43E4AE6
:1028D0004868904253D09A6A01200D68A84002438C
:1028E0009A62E36A8022520593421ED0012B1CD0CB
:1028F000022B1AD0032B18D0042B16D0052B14D082
:10290000062B12D0072B10D02268506907230340F2
:102910008868984209D0506907239843506120681D
:1029200042698D682B40134343610B681A00103ACB
:10293000012A01D9002040E0244A1268102B09D056
:102940008023DB031343214A13600B68102B04D050
:10295000002032E080231B04F4E71D4B18681D495A
:10296000FDF7D2FB83001B185B00019302E0019B83
:10297000013B0193019B002BF9D100201DE09A6AD5
:1029800001200D68A84082439A620B681A00103A31
:10299000012A01D9002010E00C4A1268102B05D042
:1029A0000D4B1340094A1360002006E00B4BF8E77B
:1029B000836B202213438363012034230022E254DB
:1029C00003B030BD0220FBE70110000008270140E2
:1029D0000000002040420F00FFFFBFFFFFFF7FFF0E
:1029E00070B582B0041E00D12EE20368DB0726D545
:1029F000AE4B5A680C231340042B18D0AB4B5A68CB
:102A00000C231340082B0ED06368012B3CD0002B05
:102A100051D1A64B1A68A6490A401A601A68A549FE
:102A20000A401A6036E0A14B5B68DB03ECD59F4B94
:102A30001B689B0303D56368002B00D107E2236862
:102A40009B0772D5994B5B680C221A425DD0974B5D
:102A50005A680C231340082B53D0E368002B00D195
:102A600085E0924A136801210B43136000F0C0FB1C
:102A700005008E4B1B689B0770D400F0B9FB401B10
:102A80000228F6D90320E0E1884A116880235B021E
:102A90000B4313606368002B25D000F0A9FB0500F1
:102AA000824B1B689B03CAD400F0A2FB401B642826
:102AB000F6D90320C9E1052B09D07C4B1A687C4963
:102AC0000A401A601A687B490A401A60E2E7774BAD
:102AD00019688022D2020A431A60196880225202C1
:102AE0000A431A60D6E700F083FB05006F4B1B68B2
:102AF0009B03A4D500F07CFB401B6428F6D903207F
:102B0000A3E16A4B5B68DB03A7D4684B1B689B0798
:102B100003D5E368012B00D09BE164490B68F822E0
:102B200093432269D20013430B6023681B0744D5EB
:102B3000E369002B2ED05D4A536A01210B43536297
:102B400000F056FB0500594B5B6A9B0735D400F03B
:102B50004FFB401B0228F6D9032076E153490B684E
:102B6000F82293432269D20013430B60DDE74F4AFA
:102B7000136801218B43136000F03AFB05004B4BB7
:102B80001B689B07D1D500F033FB401B0228F6D908
:102B900003205AE1454A536A01218B43536200F0F6
:102BA00027FB0500414B5B6A9B0706D500F020FB25
:102BB000401B0228F6D9032047E123685B0700D4B5
:102BC00080E03A4BDB69DB001DD4384AD1698020B4
:102BD00040050143D161D36903400193019B012565
:102BE000354B1B68DB0510D5A368012B21D0002BCA
:102BF00036D12E4B1A6A01218A431A621A6A0331AE
:102C00008A431A621AE00025EAE72B4A11688023FA
:102C10005B000B43136000F0EBFA0600264B1B68C9
:102C2000DB05E1D400F0E4FA801B6428F6D9032028
:102C30000BE11E4A136A01210B431362A368002BA8
:102C400024D000F0D5FA0600184B1B6A9B0737D436
:102C500000F0CEFA801B194B9842F5D90320F4E01E
:102C6000052B09D0114B1A6A01218A431A621A6A8C
:102C700003318A431A62E1E70C4B1A6A04210A43C2
:102C80001A621A6A03390A431A62D7E700F0B0FAE7
:102C90000600064B1B6A9B0712D500F0A9FA801BA1
:102CA000064B9842F5D90320CFE0C0460010024001
:102CB000FFFFFEFFFFFFFBFF0070004088130000D6
:102CC000012D33D02368DB0610D56369012B33D087
:102CD000053351D1654A536B04218B435363536BC6
:102CE000F4318B43A169C9000B435363236A002B62
:102CF00000D1B0E05D4A51680C220A40082A00D198
:102D00008AE0022B4FD0594A136859490B4013608F
:102D100000F06EFA0400554B1B689B017AD500F059
:102D200067FA001B0228F6D903208EE04F4AD369C8
:102D300050490B40D361C5E74C4B5A6B04210A4301
:102D40005A635A6B03390A435A6300F051FA05007B
:102D5000464B5B6B9B0706D400F04AFA401B0228E7
:102D6000F6D9032071E041494B6BF8229343A269E5
:102D7000D20013434B63B9E73C4B5A6B04210A431F
:102D80005A635A6B03398A435A6300F031FA0500DB
:102D9000364B5B6B9B07A9D500F02AFA401B022833
:102DA000F6D9032051E0314A136831490B401360D2
:102DB00000F01EFA05002D4B1B689B0106D500F0A4
:102DC00017FA401B0228F6D903203EE0274BDA6AA7
:102DD0000F218A43E16A0A43DA625A6826490A40A7
:102DE000A16A606A01430A435A601968802252044A
:102DF0000A431A6000F0FCF904001C4B1B689B019D
:102E000006D400F0F5F9001B0228F6D903201CE0D7
:102E100000201AE0002018E0012B1ED0134B5A6846
:102E2000D96A80235B021340606A834217D10F2363
:102E30000B40E16A8B4214D1F0239B031A40A36A32
:102E40009A4210D1002000E0012002B070BD0120A4
:102E5000FBE70120F9E70020F7E70120F5E7012073
:102E6000F3E70120F1E70120EFE7C0460010024040
:102E7000FFFFFFFEFFFFFFEFFFFFC2FF10B588B0AF
:102E800004AA164B13CB13C21B6813606A46144B7B
:102E900013CB13C21B681360124B5A680C231340E8
:102EA000082B02D0104808B010BD910C0733194010
:102EB00004A8445C0B49C96A0B406946C95CD3034A
:102EC00004D50948FDF720F96043ECE763011B1BBB
:102ED0009801C01AC00000190002E4E78C5D0008E8
:102EE000A05D00080010024000127A0070B50400D6
:102EF0000D00002800D17EE0434B1A6801231340E7
:102F00008B420AD240490B68012293432B430B604A
:102F10000B681A40AA4200D06FE023689A070ED5CA
:102F20005B0705D5394A5168E023DB000B4353604A
:102F3000364A5368F0218B43A1680B4353602368E2
:102F4000DB072DD56368012B1ED0022B22D02F4A20
:102F50001268920753D52D494A68032082431343D0
:102F60004B6000F045F90600284B5B680C221A40C4
:102F700063689B009A4213D000F03AF9801B244BFF
:102F80009842F1D9032035E0204A12689203E2D436
:102F900001202FE01D4A12689201DCD4012029E0B3
:102FA000194B1A6801231340AB4209D916490B6823
:102FB000012293432B430B600B681A40AA4220D195
:102FC00023685B0706D5114A536812490B40E16834
:102FD0000B435360FFF752FF0C4B5A6812090F2343
:102FE00013400D4AD35CD8400C4B1860032000F00E
:102FF000BBF8002070BD0120FCE70120FAE70120AA
:10300000F8E70120F6E7C046002002400010024029
:1030100088130000FFF8FFFF745D00080000002027
:10302000014B18687047C0460000002010B5FFF73C
:10303000F7FF044B5A68120A07231340024AD35C75
:10304000D84010BD00100240845D000870B582B009
:1030500004000368DB0337D53D4BDB69DB0049D453
:103060003B4AD169802040050143D161D3690340C7
:103070000193019B0125374B1B68DB053CD5344B85
:103080001A6AC0239B00110019401A4213D06268CB
:1030900013408B420FD02E4B186A2F4A02401E6AF3
:1030A0008021490231431962196A2C4E314019625C
:1030B0001A62C30734D4264A136A27490B40616851
:1030C0000B431362012D3AD02368DB0706D5204A53
:1030D000136B03218B43A1680B43136323689B0687
:1030E00032D51B4A136B10218B43E1680B431363EA
:1030F00000202AE00025BEE7164A116880235B0005
:103100000B43136000F074F80600124B1B68DB05DC
:10311000B5D400F06DF8801B6428F6D9032014E0C4
:1031200000F066F806000A4B1B6A9B07C3D400F048
:103130005FF8801B0A4B9842F5D9032005E0D3695C
:1031400008490B40D361BFE7002002B070BDC04604
:103150000010024000700040FFFCFFFFFFFFFEFF79
:1031600088130000FFFFFFEF10B504000F4B197824
:10317000FA208000FCF7C8FF01000D4B1868FCF72F
:10318000C3FF01F06BFA00280DD1032C01D90120F7
:103190000AE0013000222100404201F023FA054BF1
:1031A0001C60002000E0012010BDC046040000208B
:1031B000000000200800002010B5064A1368102106
:1031C0000B4313600320FFF7CFFFFFF79BF90020AD
:1031D00010BDC04600200240034A1168034B1B7813
:1031E0005B1813607047C04688020020040000206E
:1031F000014B18687047C0468802002070B5040073
:10320000FFF7F6FF0500631C02D0044B1B78E4189F
:10321000FFF7EEFF401BA042FAD370BD0400002070
:1032200003689A69920701D500229A6203689A6935
:10323000D20703D49A6901210A439A6170470000BA
:1032400070B504686068049D6D0D8026F6002E4000
:10325000064D3543A8438905890D120411431943CE
:10326000049B19430143616070BDC046FF63FF03C7
:10327000436B194A934213D0184A934210D00BB2B1
:10328000002B27DB0023CA0701D5F22213438A074C
:1032900001D5F422134320290CD12022134309E045
:1032A0000BB2002B0BDB002310290AD020290BD0F6
:1032B00040290CD001680A6813430B607047B8239B
:1032C000F2E790221343F1E760221343F0E7402234
:1032D0001343EFE7B823D6E7E13F0008B53E000807
:1032E00030B5CB0709D54123C35C28221340282BD6
:1032F00001D0F22302E01A3300E000238A0709D547
:1033000044241C434122825C28252A40282A0FD0CD
:10331000F42213430AB2002A0CDB10290DD0202915
:103320000ED040290FD001680A689A430A6030BD68
:103330002300EFE7B8221343EFE790221343EEE7B1
:1033400020221343EDE740221343ECE7F8B50500D4
:103350000F00160003689A69D2063BD55A6892019D
:1033600004D459688022D2010A435A602B689C69B0
:10337000A20615D47B1CF9D0FFF73AFF801BB84298
:1033800001D8002FF2D16B6C202213436B644123D0
:10339000EA5400232232AB54023AAB5401201AE023
:1033A0001022DA612B682024DC612800FFF738FF47
:1033B0002A68536808490B4053606B6C042213431E
:1033C0006B644123EC5400233E32AB54023AAB54BD
:1033D000012000E00020F8BD00E800FE70B5040008
:1033E0000D00160023689B699B071CD4320029003E
:1033F0002000FFF7ABFF002817D16B1CF2D0FFF7BE
:10340000F7FE801BA84201D8002DEBD1636C20226F
:10341000134363644123E25400232232A354023A4B
:10342000A354012000E0002070BD0120FCE7F0B5AE
:10343000C64600B507000D0090461E003B689C691B
:103440002C40641B63425C41444516D1731CF5D08B
:10345000FFF7CEFE069BC01AB04201D8002EEDD178
:103460007B6C202213437B644123FA5400232232D5
:10347000BB54023ABB54012000E0002080BCB84697
:10348000F0BD70B505000C0016002B689B699B060B
:103490001AD4320021002800FFF758FF002815D168
:1034A000FFF7A6FE801BA04201D8002CEDD16B6C6B
:1034B000202213436B644123EA5400232232AB548D
:1034C000023AAB54012070BD0020FCE70120FAE76E
:1034D00010B5041E59D04123C35C002B43D04123B7
:1034E0002422E2542268136801218B43136022686E
:1034F000274B61680B4013612268936825490B4094
:103500009360E368012B34D0226884231B02A168F6
:103510000B439360E368022B32D0226851681E4B44
:103520000B4353602268D3681A490B40D360236968
:1035300062691343A269120221681343CB602268B7
:10354000E369216A0B4313602268136801210B436E
:1035500013600023636441221F31A15423630132AD
:10356000A354002010BD40330022C254FEF74CFF8C
:10357000B5E7226880231B02A1680B439360C9E76B
:103580002368802212015A60C7E70120EAE7C0469B
:10359000FFFFFFF0FF7FFFFF00800002F0B5C6468F
:1035A00000B582B004000D0090461E004123C35CAC
:1035B000202B00D0B7E000294DD0002A4BD040236B
:1035C000C35C012B00D1B3E040230122C254FFF7BA
:1035D0000FFE070041232122E2540133013AE25455
:1035E00000236364656242466285636322685368B0
:1035F00051490B4053600090330000220821200005
:10360000FFF715FF00282BD123680822DA61E36851
:10361000022B2DD080210097330000224902200088
:10362000FFF705FF002838D1638D9BB2002B44D0F3
:103630003A0031002000FFF7D1FE002835D1236881
:10364000626A12789A62636A01336362658D013D32
:10365000ADB26585E8E780239B006364012063E0E9
:103660002268516880231B020B43536001205BE0FA
:1036700000973300002208212000FFF7D8FE002821
:1036800003D123680822DA61C4E7226851688023E5
:103690001B020B435360012046E0226851688023DF
:1036A0001B020B43536001203EE0226851688023D7
:1036B0001B020B435360012036E03A00310020002A
:1036C000FFF7DFFE00280AD02268516880231B0222
:1036D0000B435360636C042B2CD100236364236879
:1036E0002022DA618021009733001F3A090220006E
:1036F000FFF79DFE002807D02268516880231B0237
:103700000B43536001200FE02268516880231B02A5
:103710000B43536041232022E25400232232A3545E
:10372000023AA35400E0022002B080BCB846F0BDCB
:103730000220F9E70120F7E7FF7FFFFFF8B54123FB
:10374000C35C202B21D12033C35C012B1FD040242C
:103750000123035540332225C5540133023DC5548E
:1037600000254564066873680A4F3B4073604162F8
:103770004285438D0385084BC362084B436305555F
:103780000749FFF775FD0020F8BD0220FCE7022085
:10379000FAE7C046FF7FFFFF0000FFFF513C000833
:1037A0000280000010B5036899691A68436B002B0A
:1037B00000D0984710BD7047704770B50400422391
:1037C0000022C254013BC35C212B0FD04123202295
:1037D000C2542F3B0363002545630221FFF780FDA0
:1037E0004023E5542000FFF7E7FF70BD203320326F
:1037F000C254303B0363002545630121FFF770FD90
:103800004023E5542000FFF7D6FFEEE770470000A5
:1038100010B5040003681A68422100206054510466
:103820000CD51A6819490A401A604123E35C292B18
:103830000BD04123E35C2A2B17D010BD1204F4D522
:103840001A6813490A401A60EFE718332822E25435
:10385000203B236301212000FFF742FD402300228B
:10386000E2542000FFF7D2FFE7E717332822E254A3
:103870001F3B236302212000FFF732FD402300227B
:10388000E254200001F0EAFDD7E7C046FFBFFFFF8A
:10389000FF7FFFFF7047F8B504004123C35C282277
:1038A0001340282B06D003680822DA614023002247
:1038B000C254F8BD01688E69360C273B1E408D69E5
:1038C0002D0CFE273D408B689B059B0DCA68174059
:1038D000C268022A24D1DA096A400620104211D1B6
:1038E000A26C0132A264A26C022AE2D10022A2647C
:1038F0000230C861402162541A0031002000FFF7F5
:10390000C9FFD6E7802109022000FFF7E9FC402328
:103910000022E2543A0031002000FFF7BBFFC8E765
:1039200080210902FFF7DCFC40230022E2542A0038
:1039300031002000FFF7AEFFBBE7704710B5040071
:10394000164BC3620023036341222020A05401329E
:10395000A35463634B0713D523685B6A626A1370D1
:10396000636A01336362238D002B09D0013B2385F9
:10397000638D013B9BB26385636C042213436364D4
:1039800007492000FFF7ACFC23681022DA614023CE
:103990000022E2542000FFF7D0FF10BD0000FFFF1F
:1039A00003800000704770477047704710B541238F
:1039B000C35C602B06D00023036340228354FFF7CF
:1039C000F3FF10BD1F3B2022C254002303632032AB
:1039D0008354FFF7EAFFF4E710B504004123C35C0A
:1039E00000204222A0543A4AE2626085626C0A4397
:1039F0006264283BDBB2022B1BD803212000FFF7B7
:103A00006FFC41232822E254324B6363236BA26B89
:103A1000002A03D0112B1AD0212B18D0E26B002AD8
:103A200003D0122B33D0222B31D02000FFF7BEFF62
:103A300010BD29492000FFF753FC4123E35C602BB4
:103A400002D041232022E25400236363DEE723688F
:103A50001A68520403D51A6820490A401A60A06BFC
:103A600000F0BBFD01280ED0A36B1D4A5A63402312
:103A70000022E254A06B00F036FD0028D8D0A06BE5
:103A8000436B9847D4E72000FFF790FFD0E7236807
:103A90001A68120403D51A6812490A401A60E06BCA
:103AA00000F09BFD01280ED0E36B0D4A5A634023C2
:103AB0000022E254E06B00F016FD0028B8D0E06B65
:103AC000436B9847B4E72000FFF770FFB0E7C046AC
:103AD0000000FFFF513C000803800000FFBFFFFF14
:103AE0007B410008FF7FFFFF70B504000D000268F6
:103AF00016684123C35CD9B22020D061212B0CD0A1
:103B000029290AD0222901D02A290CD14A4920008A
:103B1000FFF7E6FB2223236305E048492000FFF777
:103B2000DFFB212323632268516880231B020B43A0
:103B300053602268536842490B4053602000FFF7EE
:103B40006FFB730441D5226813683E490B40136034
:103B5000A36B002B03D01B685B689BB263856B076C
:103B600011D504239D4323685B6A626A1370636AFC
:103B700001336362238D002B05D0013B2385638DC8
:103B8000013B9BB26385638D9BB2002B03D0636CBA
:103B900004221343636400234222A3546363636CCF
:103BA000002B21D1E26A284B9A422AD14123E35CBF
:103BB000222B36D041232022E254002323632032DB
:103BC000A3542000FFF722FE2AE03304C7D5226861
:103BD00013681E490B401360E36B002BBFD01B68BA
:103BE0005B689BB26385BAE7616C2000FFF7F4FE67
:103BF0004123E35C282B13D129002000FFF79EFE10
:103C00000EE02000FFF704FE0F4BE3624123202269
:103C1000E254002323632032A3542000FFF78DFEDB
:103C200070BD1F332022E254002323632032A354AB
:103C3000200001F013FCF3E7028000000180000087
:103C400000E800FEFFBFFFFF0000FFFFFF7FFFFF58
:103C5000F8B504000D001600C76A4023C35C012BB1
:103C600000D196E00123402283544A09134201D037
:103C7000B30617D4EB0640D5F3063ED5638D9BB251
:103C8000002B28D14133E35C282B0ED04123E35C89
:103C9000292B13D023681022DA6140230022E2543A
:103CA0000020F8BDFFF720FFE4E780239B049F423C
:103CB000ECD129002000FFF741FEEEE7364B9F4292
:103CC000E8D023681022DA612000FFF7A9FA20006B
:103CD000FFF79EFDE1E723681022DA61636C0C3A7E
:103CE00013436364002F03D080235B049F42D4D12D
:103CF000616C2000FFF770FECFE76B071ED57307DE
:103D00001CD5638D9BB2002B0DD023685B6A626A61
:103D10001370636A01336362238D013B2385638DD6
:103D2000013B9BB26385638D9BB2002BB5D11A4BCF
:103D30009F42B2D02000FFF76BFDAEE72B0701D505
:103D4000330716D4AB07A8D5B307A6D5638D9BB2AE
:103D5000002B13D02368626A12789A62636A013377
:103D60006362638D013B9BB26385238D013B238599
:103D700093E729002000FFF78EFD8EE780235B0488
:103D80009F4202D0002F00D087E72000FFF740FDC0
:103D900083E7022085E7C0460000FFFF30B583B00F
:103DA00004000D0003682022DA614123C35C212B4B
:103DB00029D04123C35C222B2BD0226853683B4976
:103DC0000B40536000236363394BE362EB0606D577
:103DD00023681022DA61636C0C3A13436364412355
:103DE000E35C602B1BD02000FFF71AFA626C4123C2
:103DF000E35C602B01D0002A1AD0616C2000FFF731
:103E0000EBFD03B030BD0121FFF76AFA11232363F4
:103E1000D3E70221FFF764FA12232363CDE76B0790
:103E2000E1D523685A6AFF2313400193019BDAE727
:103E30004123E35C212B15D04123E35C222BE0D10D
:103E40001F332022E254002323634233E35C402BE0
:103E500023D000234222A354023AA3542000FFF7A8
:103E6000ABFCCEE720332022E2540023236342330D
:103E7000E35C402B08D000234222A354023AA3540F
:103E80002000FFF798FCBCE700232232A354023A3B
:103E9000A3542000FFF786FDB3E700232232A3548A
:103EA000023AA3542000FFF77EFDAAE700E800FED7
:103EB0000000FFFFF8B504000D001600C76A40239C
:103EC000C35C012B00D187E00123402283544A09BF
:103ED000134201D0B30616D4EB066FD5F3066DD5A9
:103EE000B30B0122110019401A4201D1330461D5EC
:103EF000E36B002B0AD032040AD51B685B68002BE9
:103F00002DD0002205E0FFF7EFFDE5E7002200E0FD
:103F10000022A36B002B05D0002903D01B685B682F
:103F2000002B1ED0012A1CD023681022DA61636C9A
:103F30000C3A134363644123E35CDBB2002F03D0EC
:103F40008022520497423DD1212B2CD0292B2AD0FC
:103F5000222B01D02A2B28D12223236325E0012202
:103F6000D7E74123E35C282B07D04123E35C292BCF
:103F70000CD023681022DA6124E080239B049F4246
:103F8000F3D129002000FFF7D9FC1BE0134B9F421F
:103F9000EFD023681022DA612000FFF741F92000FA
:103FA000FFF736FC0EE021232363616C2000FFF74E
:103FB00013FD07E023681022DA6103E02B0701D527
:103FC000330704D440230022E2540020F8BD290026
:103FD0002000FFF760FCF5E70220F7E70000FFFF95
:103FE00010B582B004004023C35C012B00D191E0E6
:103FF0000123402023540809034201D0D3062FD4C3
:104000000B0660D553065ED52268136840218B43AA
:104010001360638D9BB2002B48D0236859688905D3
:10402000890D638D9BB2FF2B2ED9FF23238580231F
:104030005B04228DD2B2002000902000FFF700F92F
:10404000638D228D9B1A9BB263854123E35C222BF7
:1040500025D0226811688023DB010B4313600DE03B
:1040600023681022DA61636C0C3A134363642021E5
:104070002000FFF7FDF82000FFF7D2F840230022D0
:10408000E254002002B010BD638D2385E26A224B0A
:104090009A4201D0E36ACCE780239B04C9E72268F7
:1040A000116880231B020B431360E7E723685B68FA
:1040B0009B0103D42000FFF780FBDFE740212000B5
:1040C000FFF78AFCDAE74B061CD553061AD5638D39
:1040D0009BB2002B11D123685A689201CED4E16AB9
:1040E0000D4A914205D159688022D2010A435A6093
:1040F000C4E72000FFF761FBC0E740212000FFF785
:104100006BFCBBE78B06B9D59306B7D52000FFF74C
:1041100045FEB3E70220B5E70000FFFF70B5026877
:1041200093691168DC0508D50C0606D5446C012599
:104130002C43446480246400D4615A0509D50A06DE
:1041400007D5426C08242243426402688024E400BC
:10415000D4619B0509D50B0607D5436C0222134396
:1041600043640368FF32FF32DA61416C0B230B4278
:1041700000D170BDFFF730FCFBE710B5406A836BE0
:10418000002B01D000225A63C36B002B01D0002208
:104190005A63FFF70BFC10BDF0B54123C35C202B25
:1041A00020D12033C35C012B1ED0402401220255B4
:1041B00041252423435506683368934333600668DA
:1041C00033680A4F3B4033600668336819433160F7
:1041D00001680B6813430B602023435500230355EC
:1041E0000020F0BD0220FCE70220FAE7FFEFFFFF0E
:1041F000F0B54123C35C202B1ED12033C35C012BBF
:104200001CD0402401220255412524234355066831
:1042100033689343336006683368094F3B400902B3
:104220001943316001680B6813430B602023435529
:10423000002303550020F0BD0220FCE70220FAE72E
:10424000FFF0FFFFF0B583B0002357E084685F0004
:104250000326BE40B4432600CC68BC40344384608F
:10426000446894434A681609012232409A40224326
:10427000426053E0DC080834A400265805321A4096
:1042800092000F279740BE430F6997403A00324390
:10429000225057E0032600E00026A64034003C43AD
:1042A00002329200444E9451444A1468EA43260074
:1042B000AE434F68FF0301D52C4326003F4C2660D8
:1042C0006468260016404F68BF0301D52C432600C2
:1042D0003A4C6660A468260016404F68FF0201D57C
:1042E0002C432600354CA660E46822404E68B60296
:1042F00001D52A002243314CE26001330C682200D0
:10430000DA4057D001229A40250015401442F4D0DB
:1043100003244E683440013C012C97D903224C6899
:104320002240032A09D0C2685E000324B440A2439D
:1043300014008A68B2402243C26003224C682240C3
:10434000022A97D004685E0003221700B740BC43DE
:104350004F683A40B24022430260C02292024C6849
:104360001442CAD0164CA66901221643A661A4695C
:1043700022400192019A9A08941CA4000E4EA7595B
:1043800003241C40A4000F26A640B7439026F60540
:10439000B04281D00B4EB04208D00B4EB04207D095
:1043A0000A4EB04200D175E7052676E7012674E78C
:1043B000022672E703B0F0BD000001400004014096
:1043C000001002400004004800080048000C0048AB
:1043D00030B50124056CAC40C56B6C60046863604B
:1043E0004368102B04D0036899600368DA6030BD1D
:1043F00003689A600368D960F9E7000010B504000B
:104400000068054B9C4660441421FBF77DFE80004C
:104410002064024BE36310BDF8FFFDBF00000240C3
:1044200070B5041E20D021250223435501680B6876
:104430000E4A1A40436880680343E06803432069DA
:10444000034360690343A0690343E06903431343E3
:104450000B602000FFF7D2FF0023A3630122625507
:104460001F32A354002070BD0120FCE70FC0FFFFE6
:1044700070B504002020205C012832D020200125C6
:1044800025540130205C012804D020230022E2546E
:10449000022070BD2030013525540020A06325681E
:1044A00028680126B04328602000FFF791FFE36AE7
:1044B000002B0BD0226813680E210B431360226877
:1044C000136801210B4313600020E2E722681368A0
:1044D0000A210B4313602268136806398B4313606B
:1044E000EDE70220D5E710B52123C35C022B03D0F2
:1044F00004238363012010BD026813680E218B43DF
:10450000136001680A6801239A430A60C26B1900AC
:10451000046CA1405160212283541F330022C254F5
:10452000436B002B02D098470020E4E70020E2E72D
:1045300070B5C36B1A6804682568016C04238B404E
:104540001A4212D06B0710D523689B0603D4236848
:10455000042293432360C26B0423016C8B4053609D
:10456000C36A002B00D0984770BD02238B401A42CB
:1045700018D0AB0716D523689B0606D423680A22F9
:10458000934323602123093AC254C26B0223016C76
:104590008B40536020230022C254836A002BE3D057
:1045A0009847E1E708238B401A42DDD02B07DBD583
:1045B00023680E2293432360C26B01231900046C0D
:1045C000A14051608363212283541F330022C254CF
:1045D000036B002BC8D09847C6E72123C05CC0B24C
:1045E0007047000070B5002811DB8308134EC033FC
:1045F0009B009D5903242040C000FF2214008440EA
:10460000A54389010A4082402A439A5170BD0F2375
:104610000340083B9B0806339B00094A94466344C9
:104620005C6803221040C000FC3215008540AC439A
:1046300089010A40824022435A60E7E700E100E036
:1046400000ED00E0002805DB1F2318401E3B8340DF
:10465000014A13607047C04600E100E00138802342
:104660005B0498420FD2094A50600948036A1B0252
:104670001B0AC02109060B43036200239360073322
:104680001360002070470120FCE7C04610E000E006
:1046900000ED00E010B5054B0022DA61044A136911
:1046A000012423431361018010BDC0469002002005
:1046B000002002400D4BDA6810210B00134011421C
:1046C00005D00B4AD3690E390B43D3611023074A37
:1046D000D268520706D50649CA6901200243CA6159
:1046E00004221343014AD3607047C04600200240B1
:1046F00090020020084B1B691B0609D5064B074A90
:104700005A60074A5A601B691B0603D4002000E068
:10471000002070470120FCE700200240230167458C
:10472000AB89EFCD034A136980210B43136100204D
:104730007047C0460020024070B50400FEF758FDE7
:104740000500124BDB68DB070AD5631CF9D0002C8F
:1047500004D0FEF74DFD401BA042F2D903200FE02C
:104760000A4BDB689B0602D5084B2022DA60074B18
:10477000DB68DB0605D4054BDB685B0701D4002052
:1047800070BDFFF797FF0120FAE7C0460020024006
:10479000F8B5CE46474680B505000E0090461F008E
:1047A000224B1B7E012B3ED0204B01221A76204843
:1047B000FFF7C2FF041E2FD1012D07D0022D02D01A
:1047C000042399461DE0022399461AE001239946E5
:1047D00017E02022D21A390091400A004146D94000
:1047E000114389B28019FFF755FF1148FFF7A4FF65
:1047F000104A136901218B43136100280CD1013445
:10480000E4B24C4508D260002301202252429A189B
:10481000DFD43900D140E4E7044B00221A76C0BC53
:10482000B946B046F8BD0220F9E7C0469002002024
:1048300050C3000000200240064B0022DA61064B04
:104840001A6904210A431A611A693C310A431A6140
:104850007047C0469002002000200240064B002214
:10486000DA61064B1A6902210A431A6158611A6912
:104870003E310A431A617047900200200020024036
:1048800070B505000E00244B1B7E012B41D0224B3E
:1048900001221A760368012B22D02048FFF74CFF33
:1048A000002831D101235B4233606C680130AB6872
:1048B0009B026A6894466344A34226D92000FFF70E
:1048C000CDFF1648FFF738FF154A136902218B43C5
:1048D0001361002816D18023DB009C466444E6E780
:1048E0000E48FFF729FF002801D001200DE0FFF757
:1048F000A3FF0A48FFF720FF094A136904218B43ED
:10490000136102E0346000E00120034B00221A76BC
:1049100070BD0220FCE7C0469002002050C300009A
:104920000020024030B5036A012293430362036A08
:10493000426884697325AC430D682C430225AB4360
:104940008D682B43114DA84205D0114DA84202D0CD
:10495000104DA84205D10825AB43CD682B43042553
:10496000AB430A4DA84205D0094DA84202D0094DDB
:10497000A84205D1084D2A404D692A438D692A4332
:10498000426084614A684263036230BD002C01408A
:104990000044014000480140FFFCFFFF70B5036A7E
:1049A000184A13400362036A4468C2697325AA4324
:1049B0000E681643144A13408A6812021343134ABE
:1049C000904216D0114A904205D0114A904202D02E
:1049D000104A904207D1104A22404C6924011443E6
:1049E0008A6915012C434460C6614A68C263036248
:1049F00070BD0A4A1A40CB681B021343084A134091
:104A0000E0E7C046FFFEFFFFFFFDFFFF002C014077
:104A10000044014000480140FFCFFFFFFFF7FFFFC8
:104A2000FFFBFFFF30B5036A114A13400362036ABC
:104A30004568C2690F4C22400C68240222430E4C88
:104A40001C408B681B0323430C4CA04205D00C4C2C
:104A5000A04202D00B4CA04204D10B4C25404C6923
:104A6000A40125434560C2614A680264036230BD07
:104A7000FFEFFFFFFF8CFFFFFFDFFFFF002C014078
:104A80000044014000480140FFBFFFFF3D23C35CDD
:104A9000012B1FD13C330222C2540268D36801218A
:104AA0000B43D36003680D4A934208D00C4A9342EB
:104AB00005D01A6801210A431A6000200BE09968AA
:104AC00007220A40062A07D01A6801210A431A6001
:104AD000002000E0012070470020FCE7002C01408E
:104AE00000040040704770477047704710B50400DD
:104AF00003681A6992070FD5DA6892070CD503226A
:104B000052421A610123037703689B699B0763D0B4
:104B1000FFF7E9FF0023237723681A69520712D5AC
:104B2000DA6852070FD5052252421A610223237711
:104B300023689A69C0239B001A4253D02000FFF7D4
:104B4000D2FF0023237723681A69120710D5DA6889
:104B500012070DD5092252421A61042323772368D4
:104B6000DB699B0745D02000FFF7BDFF00232377BB
:104B700023681A69D20612D5DA68D2060FD5112237
:104B800052421A61082323772368DA69C0239B0005
:104B90001A4235D02000FFF7A6FF002323772368B1
:104BA0001A69D20702D5DA68D20730D423681A69A5
:104BB000120602D5DA68120630D423681A69520642
:104BC00002D5DA68520630D423681A69920602D5F3
:104BD000DA68920630D410BDFFF784FF2000FFF79B
:104BE00083FF97E72000FFF77DFF2000FFF77CFFA2
:104BF000A7E72000FFF776FF2000FFF775FFB5E776
:104C00002000FFF76FFF2000FFF76EFFC5E70222CD
:104C100052421A61200000F01DFDC7E78122524276
:104C20001A61200000F011FAC7E7412252421A61CE
:104C30002000FFF75AFFC7E7212252421A612000E5
:104C400000F002FAC7E7000003681A4A904202D057
:104C5000194A904203D1702293434A681343154A7C
:104C600090420BD0144A904208D0144A904205D08A
:104C7000134A904202D0134A904203D1124A134081
:104C8000CA681343802293434A69134303608B68C5
:104C9000C3620B688362074B984205D0084B984269
:104CA00002D0084B984201D10B6903630123436191
:104CB0007047C046002C0140000400400020004026
:104CC0000044014000480140FFFCFFFF70B5041E96
:104CD00026D03D23C35C002B1CD03D250223635509
:104CE000210001C9FFF7B0FF01234622A354083A6F
:104CF000A3540132A3540132A3540132A35401320C
:104D0000A3540132A3540132A3540132A354635576
:104D1000002070BD3C330022C254FDF70DFADCE7E1
:104D20000120F6E770B5041E26D03D23C35C002B9E
:104D30001CD03D2502236355210001C9FFF784FFE4
:104D400001234622A354083AA3540132A35401324A
:104D5000A3540132A3540132A3540132A3540132AB
:104D6000A3540132A3546355002070BD3C3300228C
:104D7000C254FDF7CBF9DCE70120F6E730B5036A52
:104D8000102293430362036A45688469164A1440FB
:104D90000A6812021443202293438A6812011343C3
:104DA000124A904216D0114A904205D0104A9042C1
:104DB00002D0104A904207D10F4A2A404D69AD00F7
:104DC00015438A6992001543456084614A6882638D
:104DD000036230BD802293431A00CB681B0113434A
:104DE00040229343DFE7C046FF8CFFFF002C0140C9
:104DF0000044014000480140FFF3FFFF70B504008C
:104E00000D003C23C35C012B00D16AE03C2301214F
:104E1000C154082A50D01CD8002A38D0042A16D1F0
:104E200029000068FFF7AAFF2268916980231B010F
:104E30000B439361226893692B490B40936121686E
:104E40008B692A69120213438B6100201BE0080062
:104E500019E00C2A16D129000068FFF7E3FD22684B
:104E6000D16980231B010B43D3612268D3691E499A
:104E70000B40D3612168CB692A6912021343CB61CD
:104E8000002000E001203C230022E25470BD2900F4
:104E90000068FFF747FD2268936908210B4393617F
:104EA0002268936904398B43936122689369296965
:104EB0000B4393610020E6E729000068FFF76EFDD1
:104EC0002268D36908210B43D3612268D36904396E
:104ED0008B43D3612268D36929690B43D3610020D6
:104EE000D1E70220D2E7C046FFFBFFFF10B51F232A
:104EF000194001248C40036AA3430362036A8A4079
:104F00001343036210BD000010B5040000292CD12A
:104F10003E23C35C013B5A1E9341DBB2002B58D1A8
:104F200000293BD13E330222E25401222068FFF7E0
:104F3000DDFF2368294A934205D0294A934202D0D3
:104F4000284A934204D1596C802212020A435A64BF
:104F50002368224A934231D0234A93422ED01A68C2
:104F600001210A431A60002034E0042908D00829EE
:104F70000DD04123C35C013B5A1E9341DBB2CDE708
:104F80003F23C35C013B5A1E9341DBB2C6E740237B
:104F9000C35C013B5A1E9341DBB2BFE7042905D035
:104FA000082907D041230222E254BEE73F23022210
:104FB000E254BAE740230222E254B6E79968072296
:104FC0000A40062A07D01A6801210A431A60002005
:104FD00000E0012010BD0020FCE7C046002C01408D
:104FE00000440140004801400004004030B53C232B
:104FF000C35C012B21D03C230122C2540133013276
:10500000C25403685A689C687025AA430D682A43F5
:105010005A6003680A4A934202D00A4A934204D172
:10502000802294434A6814439C603D230122C25469
:10503000013B0022C254002030BD0220FCE7C046E4
:10504000002C0140000400407047704710B5040078
:1050500083680269134342691343C26913430168B9
:105060000A684A48024013430B6022685368484963
:105070000B40E1680B435360226AA3691A4321681D
:105080008B684448034013438B60434B1A6B0323E4
:105090001340022B27D022D8002B26D0012B26D15B
:1050A0000333E06980221202904224D0042B65D0A1
:1050B00054D8002B5CD0022B4ED1384863685B0873
:1050C00018186168FBF720F80004000C0200103A81
:1050D000334B9A4257D82368D860002044E0032B12
:1050E00007D1013BDDE70823DBE70023D9E71023E5
:1050F000D7E71023D5E7042B2BD020D8002B22D0C4
:10510000022B1AD12548400063685B08C01861680B
:10511000FAF7FAFF83B20004000C01001039204AAC
:1051200091422ED80F2293431A00400807231840BB
:1051300010432368D860002016E0012014E0082BFB
:10514000E1D0012010E0FDF771FF0028DBD1002045
:105150000AE0FDF793FEF8E7012005E0082B02D1F5
:1051600080200002AAE7012000236366A36610BD29
:10517000FDF75CFF0028A1D10020F5E7FDF77EFEDA
:10518000F8E70120F0E70120EEE7C046F369FFFFF2
:10519000FFCFFFFFFFF4FFFF0010024000127A0074
:1051A000EFFF0000436ADB0706D5026853682C490D
:1051B0000B40816A0B435360436A9B0706D5026824
:1051C000536828490B40C16A0B435360436A5B072D
:1051D00006D50268536824490B40016B0B435360AA
:1051E000436A1B0706D50268536820490B40416B90
:1051F0000B435360436ADB0606D5026893681C497B
:105200000B40816B0B439360436A9B0606D5026893
:10521000936818490B40C16B0B439360436A5B066C
:105220000BD50268536814490B40016C0B43536063
:1052300080235B03026C9A420AD0436A1B0606D5A0
:10524000026853680D490B40816C0B4353607047F3
:10525000026853680A490B40416C0B435360ECE70A
:10526000FFFFFDFFFFFFFEFFFFFFFBFFFF7FFFFFD5
:10527000FFEFFFFFFFDFFFFFFFFFEFFFFFFFF7FF86
:10528000FFFF9FFFF8B5CE46474680B506000D00EC
:1052900017009946089B98463368DC692C40641BCC
:1052A00063425C41BC4253D143460133F4D0FDF725
:1052B0009FFF4B46C01A40452CD84346002B29D0AF
:1052C00033681A685207E7D5DA691205E4D58022F7
:1052D00012011A62EFF31080012282F31088316804
:1052E0000B681E4C23400B6080F31088EFF3108096
:1052F00082F3108831688B6893438B6080F3108849
:105300002023B367F3677F32B35054330022F25443
:1053100003201EE0EFF31080012282F31088316831
:105320000B680E4C23400B6080F31088EFF3108065
:1053300082F3108831688B6893438B6080F3108808
:105340002023B367F36754330022F254032000E0B4
:105350000020C0BCB946B046F8BDC0465FFEFFFFA6
:1053600030B583B0040080230022C250FDF740FF17
:1053700005002268126813070DD423681B685B07B9
:1053800016D42023A367E367002323667422A35463
:10539000002003B030BD80210C4B0093030000229D
:1053A00089032000FFF76EFF0028E6D00320F0E716
:1053B0008021064B00932B000022C9032000FFF739
:1053C00061FF0028DDD00320E3E7C046FFFFFF01B7
:1053D00010B5041E2ED0836F002B21D02423A36789
:1053E0002268136801218B4313602000FFF72EFE13
:1053F000012814D0636A002B18D1226853680E4923
:105400000B4053602268936808218B4393602268A5
:10541000136807390B4313602000FFF7A1FF10BD8D
:1054200074330022C254FCF7F7FDD7E72000FFF7E2
:10543000B9FEE2E70120F2E7FFF7FFFF012800D005
:105440007047034B9942FBD1024B034A1A60F7E7BE
:10545000FFFF0000E00200200000FA4310B5764B89
:105460005878997809020843DA78120402431C79C3
:10547000240614431B78714A1370272B07D8002B7E
:105480000FD0272B0DD89B006D4AD3589F46FF2B7A
:1054900007D1694B59784B1E9941C9B2694800F050
:1054A0002BFB694B052265496848FEF777F8002811
:1054B000F7D1052260496548FEF740F90028F8D188
:1054C00010BD604B5C610022032AEADC5D4B303387
:1054D0009B1801321978594B9954F5E7594B9C6147
:1054E0000022032ADDDC574B34339B180132197834
:1054F000524B9954F5E7211C524800F0E1FA002282
:10550000032ACEDC4F4B30339B18013219784B4BBA
:105510009954F5E70022032AC3DC4A4B30339B1829
:1055200001321978454B9954F5E70022032AB8DC7B
:10553000444B34339B1801321978404B9954F5E7AA
:105540003D4B5A78424B5A7002221A700022032AAD
:10555000A7DC3C4B30339B1801321978374B9954F8
:10556000F5E7384B5C603A4BDC6102221A7000228E
:10557000032A96DC334B30339B18013219782F4BBA
:105580009954F5E72F4BDC60314B5C6202221A70B4
:105590000022032A00DD84E72A4B30339B180132B6
:1055A0001978264B9954F4E7264B9C60284B1C62D3
:1055B00002221A700022032A00DD72E7214B3033E9
:1055C0009B18013219781D4B9954F4E71D4B1C614F
:1055D0001F4B9C6202221A700022032A00DD60E742
:1055E000184B30339B1801321978144B9954F4E757
:1055F000211C144800F064FA154B9C6002221A70BA
:105600000022032A00DD4CE70E4B30339B18013299
:1056100019780A4B9954F4E70D4B5C6002221A701A
:105620000022032A00DD3CE7064B30339B18013291
:105630001978024B9954F4E7780200208002002088
:10564000B45D0008E0020020102700002C020020BA
:10565000B0020020F0B5C64600B502681F4B9A4262
:1056600002D080BCB846F0BD1D4D012229001D4866
:10567000FDF77AF81C4CA76B391CE06BFBF796FA28
:10568000061C2888FBF760FC8046A08DFBF75CFCBD
:10569000051C011C4046FBF789FA011C301CFBF776
:1056A0005FF9061CE08DFBF74FFC291CFBF77EFA27
:1056B000011C301CFAF78CFF011C381CFAF7EAFDBC
:1056C000011C20630022200000F04AF9A06AFBF7C9
:1056D0001BFC01B2200000F0C9F9C2E70020004025
:1056E000A0010020A8010020E0020020F0B583B056
:1056F00007000C0001920378002B03D0A4B2019B99
:1057000030260EE000F0F0F801233B70F6E75D1C58
:105710001978200000F0E2F8013EB6B20134A4B2DC
:105720002B00002EF3D1BB78002B04D101237B701A
:10573000019803B0F0BD00F0E3F800237B70013363
:10574000FB70F5E7F0B583B001AB00221A705A7018
:1057500001329A70DA7000F0C7F801AB01221A70BA
:1057600030264E4D0024002E0AD06F1C200000F081
:10577000AFF82870013EB6B20134A4B23D00F2E7A2
:10578000464B1B78012B38D1444C454DA16828006D
:1057900000F096F96369AB63A369EB63238AAB8579
:1057A000638AEB85E3696B60636AEB60236AAB60D5
:1057B000A36A2B6163686B612C23E15C280000F015
:1057C0009BF9384D00212800FFF79EFB042128009B
:1057D000FFF79AFB2B6800225A639A636078FCF704
:1057E0004FFE0A20FDF70AFD05222F492F48FDF73D
:1057F000A5FF2F48FFF74AF933E0284A2D4B110047
:1058000031CB31C131CB31C131CB31C131CB31C1E0
:10581000002101A8FFF76AFFB6E7204B01221A70AA
:1058200001AB1B78002B03D0350030241B4B0FE05D
:1058300000F05AF801AB01221A70F5E75F1C1978E5
:10584000280000F04BF8013CA4B20135ADB23B009A
:10585000002CF3D101AB9B78002B16D101AB0122B8
:105860005A700E4B1B78022BD7D0002BF9D10B4A64
:10587000002101A8FFF73AFFBFF34F8F0E4B0F4AED
:10588000DA60BFF34F8FC046FDE700F039F801AB97
:1058900000225A700132DA70E3E7C046B0020020FD
:1058A000E002002058010020780200202C02002095
:1058B00010010020845C000800ED00E00400FA05FF
:1058C00010B502490120FFF7B9FD10BDFFFF000030
:1058D000014B185C7047C04638030020014B195437
:1058E0007047C0463803002010B58022D20002491C
:1058F000024800F059F910BD007C00083803002070
:1059000030B587B000230293019301330593FEF76E
:10591000F1FE02A903A8FEF7B3FF002815D10D4C34
:1059200000250D4B9C4210D80C496918042201A88F
:1059300000F03AF9019A002321000220FEF728FF27
:10594000002802D104340435EBE7FEF7EBFE07B084
:1059500030BDC046007C0008FF7F000838030020EF
:10596000F0B5D6464F464646C0B50400081C161C86
:105970006169FBF71BF9051CA169301CFBF716F9DF
:105980008146616A281CFBF711F980466562E1696E
:10599000281CFAF77FFC071CE0612668311CFAF727
:1059A00065FC00283BD0E661216A4846FAF772FCA4
:1059B000071C2062011C301CFAF744FC00283CD074
:1059C0002662291C6068FAF7CBFF051CE169E068D4
:1059D000FAF7C6FF011C281CFAF75CFC051C216ABB
:1059E000A068FAF7BDFF011C281CFAF753FC051C40
:1059F00041462069FAF7B4FF011C281CFAF74AFC5B
:105A0000051CA062666D311CFAF730FC002820D01E
:105A1000A662A06AE0BCBA46B146A846F0BD8023A3
:105A20001B069C46B444E2466146381CFAF70AFC61
:105A30000028B9D05346E361B6E780231B069C4695
:105A40006644311C381CFAF7FDFB0028B9D02662E9
:105A5000B7E780231B069C466644311C281CFAF7D6
:105A6000F1FB0028D5D0A662D3E700004023C35C39
:105A7000002B1BD000290CDB0F4B1A68002353634B
:105A80000B1CFA208000814200DD031C1BB29363D3
:105A900011E0094B1B6800229A63084A914202DB1D
:105AA0004942596307E0FA218900FAE7024B1B6873
:105AB00000229A635A6370475801002018FCFFFFC8
:105AC00070B505000C1CFE218905201CFAF7CEFBE1
:105AD000002807D0FE24A4050649201CFAF740FF41
