:020000040800F2
:100000000000022091490008010B0008030B0008C2
:10001000050B0008070B0008090B00080000000092
:100020000000000000000000000000000B0B0008B2
:100030000D0B0008000000000F0B0008110B00085A
:10004000E1490008E1490008E1490008E1490008E8
:10005000E1490008E1490008E1490008E1490008D8
:10006000E1490008E1490008E1490008E1490008C8
:10007000E1490008E1490008E1490008E1490008B8
:10008000E1490008E1490008E1490008E1490008A8
:10009000E1490008E1490008E1490008E149000898
:1000A000E1490008E1490008E1490008E149000888
:1000B000E1490008E1490008E1490008E149000878
:1000C000E1490008E1490008E1490008E149000868
:1000D000E1490008E1490008E1490008E149000858
:1000E000E1490008E1490008E1490008E149000848
:1000F000E1490008E1490008E1490008E149000838
:10010000E1490008E1490008E1490008E149000827
:10011000E1490008E1490008E1490008E149000817
:10012000E1490008E1490008E1490008E149000807
:10013000E14900080000000000000000E14900085B
:10014000E1490008E1490008E1490008190B0008ED
:10015000E1490008E1490008E1490008E1490008D7
:10016000E1490008E1490008E1490008E1490008C7
:10017000E1490008E149000800000000000000001B
:08018000E1490008E149000813
:1001900010B5054C237833B9044B13B10448AFF3C1
:1001A00000800123237010BD180200200000000011
:1001B000D05A000808B5034B1BB103490348AFF3FD
:1001C000008008BD000000001C020020D05A00087A
:1001D00001F0FF01102A2BDB10F0070F08D010F8F8
:1001E000013B013A8B422DD010F0070F42B3F6D1FC
:1001F000F0B441EA012141EA014122F007047FF015
:1002000000070023F0E80256083C85EA010586EA6B
:10021000010685FA47F5A3FA87F586FA47F6A5FAA7
:1002200087F68EB9EED1F0BC01F0FF0102F00702B3
:1002300032B110F8013B013A83EA010313B1F8D15E
:100240000020704701387047002D06BF354603383F
:10025000073815F0010F07D1013015F4807F02BF78
:10026000013015F4C03F0130F0BC0138704700BFC9
:1002700053B94AB9002908BF00281CBF4FF0FF310D
:100280004FF0FF3000F074B9ADF1080C6DE904CE09
:1002900000F006F8DDF804E0DDE9022304B0704761
:1002A0002DE9F047089D04468E46002B4DD18A4229
:1002B000944669D9B2FA82F252B101FA02F3C2F15C
:1002C000200120FA01F10CFA02FC41EA030E9440ED
:1002D0004FEA1C48210CBEFBF8F61FFA8CF708FB0E
:1002E00016E341EA034306FB07F199420AD91CEBE6
:1002F000030306F1FF3080F01F81994240F21C8118
:10030000023E63445B1AA4B2B3FBF8F008FB10335F
:1003100044EA034400FB07F7A7420AD91CEB040494
:1003200000F1FF3380F00A81A74240F20781644464
:10033000023840EA0640E41B00261DB1D4400023E9
:10034000C5E900433146BDE8F0878B4209D9002D4D
:1003500000F0EF800026C5E9000130463146BDE8D7
:10036000F087B3FA83F6002E4AD18B4202D3824241
:1003700000F2F980841A61EB030301209E46002DF0
:10038000E0D0C5E9004EDDE702B9FFDEB2FA82F245
:10039000002A40F09280A1EB0C014FEA1C471FFAA3
:1003A0008CFE0126200CB1FBF7F307FB131140EA8A
:1003B00001410EFB03F0884208D91CEB010103F157
:1003C000FF3802D2884200F2CB804346091AA4B219
:1003D000B1FBF7F007FB101144EA01440EFB00FEED
:1003E000A64508D91CEB040400F1FF3102D2A64552
:1003F00000F2BB800846A4EB0E0440EA03409CE7F1
:10040000C6F12007B34022FA07FC4CEA030C20FA9D
:1004100007F401FA06F31C43F9404FEA1C4900FABD
:1004200006F3B1FBF9F8200C1FFA8CFE09FB18113A
:1004300040EA014108FB0EF0884202FA06F20BD9AD
:100440001CEB010108F1FF3A80F08880884240F2FD
:100450008580A8F102086144091AA4B2B1FBF9F041
:1004600009FB101144EA014100FB0EFE8E4508D93C
:100470001CEB010100F1FF346CD28E456AD90238C1
:10048000614440EA0840A0FB0294A1EB0E01A142A6
:10049000C846A64656D353D05DB1B3EB080261EB14
:1004A0000E0101FA07F722FA06F3F1401F43C5E9EE
:1004B000007100263146BDE8F087C2F12003D84024
:1004C0000CFA02FC21FA03F3914001434FEA1C4766
:1004D0001FFA8CFEB3FBF7F007FB10360B0C43EA58
:1004E000064300FB0EF69E4204FA02F408D91CEB08
:1004F000030300F1FF382FD29E422DD90238634406
:100500009B1B89B2B3FBF7F607FB163341EA0341A5
:1005100006FB0EF38B4208D91CEB010106F1FF38F4
:1005200016D28B4214D9023E6144C91A46EA0046EB
:1005300038E72E46284605E70646E3E61846F8E67D
:100540004B45A9D2B9EB020864EB0C0E0138A3E7C6
:100550004646EAE7204694E74046D1E7D0467BE7A7
:10056000023B614432E7304609E76444023842E71F
:10057000704700BF10B514464FF6FF7392B20248A1
:1005800002F0A7FD204610BD3402002072B6FEE73F
:1005900000B595B03022002108A804F057FA0023D6
:1005A000039304930593069307930193204A116CD8
:1005B00041F080511164126C02F080520192019A54
:1005C00002931C4B1A6842F480421A601B6803F4C1
:1005D00080430293029B012308934FF480330993D5
:1005E00002230E934FF480020F9204221092A8224D
:1005F000119212930723139308A801F06FFF98B983
:100600000F23039302230493002305934FF4A05375
:1006100006934FF480530793052103A802F0C4F911
:1006200020B915B05DF804FBFFF7B0FFFFF7AEFF90
:10063000003802400070004008B502F00FFCFFF7E0
:10064000A7FF00F00BF800F025F800F073F802485F
:1006500004F06AFBFEE700BFE85A000882B0002100
:1006600000910B4B1A6B42F080021A631A6B02F076
:1006700080020092009A01911A6B42F001021A6303
:100680001B6B03F001030193019B02B0704700BF95
:100690000038024008B50A480A4B03604FF4E133C2
:1006A000436000238360C36003610C224261836165
:1006B000C36102F0DFFC00B908BDFFF767FFFBE78D
:1006C00034020020004C004000B589B000230393A1
:1006D00004930593069307930268144B9A4202D041
:1006E00009B05DF804FB0021019103F5F6331A6CA3
:1006F00042F400221A641A6C02F400220192019A58
:1007000002911A6B42F001021A631B6B03F00103A2
:100710000293029B0323039302220492069308236D
:10072000079303A9024802F015FAD9E7004C0040EC
:100730000000024008B51C4804F0F6FA00221B49EC
:100740001B4802F03DFDE0B9002302221949184878
:1007500002F064FDC0B91849154803F0B1FEB0B904
:1007600000230D221549124802F058FD90B9144992
:100770000F4803F0B3FF80B90D4802F085FD78B94A
:1007800008BDFFF703FFDFE7FFF700FFE3E7FFF731
:10079000FDFEE5E7FFF7FAFEE9E7FFF7F7FEEBE717
:1007A000FFF7F4FEECE700BF005B000898010020B3
:1007B00078020020240000200000002060000020BB
:1007C0009C00002030B589B0002303930493059367
:1007D000069307930368B3F1A04F01D009B030BD71
:1007E00000250195164C236B43F001032363236B13
:1007F00003F001030193019B4FF4C05303930223C1
:100800000493032306930A23079303A90D4802F0D8
:10081000A1F9636B43F0800363630295636C43F457
:1008200080436364636C03F480430293029B2A4613
:100830002946432002F092FA432002F0C7FACDE79E
:10084000003802400000024008B500F2C441D0F870
:10085000080502F066FD08BD08B501EBC10300EB19
:100860008303D3F88C22D0F8080502F0B8FE08BD47
:1008700008B501EBC10300EB8303DA6CD0F808057F
:1008800002F014FF08BD08B5D0F8080502F0D1FD4C
:1008900008BD10B50446C3683BB1022B01D101214C
:1008A00004E0FFF773FE012100E00021D4F8080501
:1008B00002F0A5FDD4F8080502F05FFD10BD0000B0
:1008C00010B50446D0F8080502F09CFD2268D2F865
:1008D000003E43F00103C2F8003E236A23B1034AFD
:1008E000136943F00603136110BD00BF00ED00E083
:1008F00008B5D0F8080502F08FFD08BD08B5D0F89E
:10090000080502F0D2FD08BD08B5D0F8080502F0D0
:10091000B5FD08BD08B5D0F8080502F0DDFD08BD3D
:1009200008B5D0F8080502F0D9FD08BD02780AB173
:100930000020704710B503461748C0F80835C3F8C3
:10094000EC024FF0A0430360062343600222C26022
:10095000002303618261C36103624362C362036374
:1009600000F066F9A8B90C4C8021204600F05CFF2D
:1009700040220021204600F031FF40220121204684
:1009800000F02CFF40220321204600F027FF00202A
:1009900010BDFFF7FBFDE6E758060020D0F8EC326B
:1009A00011F0800F08D101F07F0101EBC10103EBD1
:1009B000810191F87E02704701F07F0101EBC101D6
:1009C00003EB810191F83E00704708B5D0F8EC02C6
:1009D00000F051FB08BD032805D8DFE800F005044E
:1009E0000205012070470320704708B5D0F8EC02DB
:1009F00000F0B5F9FFF7EFFF08BD08B594461A46B9
:100A00006346D0F8EC0200F089FAFFF7E4FF08BD76
:100A100008B5D0F8EC0200F0C6FAFFF7DCFF08BD1D
:100A200008B5D0F8EC0200F05EFBFFF7D4FF08BD7C
:100A300008B5D0F8EC0200F09AFBFFF7CCFF08BD38
:100A400008B5D0F8EC0200F055FAFFF7C4FF08BD76
:100A500008B5D0F8EC0200F017FBFFF7BCFF08BDAB
:100A600008B5D0F8EC0200F0D7FAFFF7B4FF08BDE4
:100A700000207047212801D00020704700230B7010
:100A8000C2224A7001228A70CB700B714B7108230D
:100A90008B71F1E70020704770B505460E460024C3
:100AA00004E0295D094804F0B9F801343368A34231
:100AB000F7D8074804F038F9064C2946204603F0D9
:100AC00022FD204603F02CFD002070BD145B0008C1
:100AD0001C5B00087802002010B5064C0022064975
:100AE000204603F001FD0549204603F00CFD0020DF
:100AF00010BD00BF7802002064130020640B0020AA
:100B0000FEE7FEE7FEE7FEE7FEE770477047704747
:100B100008B502F0BDF908BD08B5024800F07CFB3D
:100B200008BD00BF5806002082B0002100910B4B89
:100B30005A6C42F480425A645A6C02F48042009229
:100B4000009A01911A6C42F080521A641B6C03F0F7
:100B500080530193019B02B0704700BF00380240F0
:100B60002DE9F04383B0D0F8008001EBC10300EB26
:100B70008303DA6D5B6D9A4254D807460C469B1A84
:100B800001EBC10200EB8202926C9A4200D31A463A
:100B900002F103094FEA990915E006F103094FEA4A
:100BA000990904EBC40507EB8505E96C3B7C0093D0
:100BB000B3B2E2B2404601F008FAEB6C3344EB64A6
:100BC000EB6D3344EB6508EB441303F510639B694D
:100BD0009BB24B4512D304EBC40207EB8202D16DEA
:100BE000536D99420AD24BB15B1A04EBC40207EB76
:100BF0008202966C9E42D0D31E46CEE704EBC40020
:100C000007EB80077A6DFB6D9A420FD804F00F0452
:100C10000123A340D8F8344824EA0304C8F8344830
:100C2000002000E0012003B0BDE8F0830020FAE7D7
:100C300070B58AB0002800F090800546046890F8EE
:100C4000BD343BB3032385F8BD34E36B13F4807FDD
:100C500001D100232B61286800F0D2FE2C4654F805
:100C6000106BEC460FCCACE80F000FCCACE80F00DB
:100C700094E803008CE803002B1D0ECB304600F0F7
:100C800001FE044658B1022385F8BD3401242046F4
:100C90000AB070BD80F8BC34FFF794FDD2E70021A4
:100CA000286801F0A9FB234616E003EBC30205EB1D
:100CB0008202012182F83D1082F83C30A2F84430D3
:100CC000002182F840109164D16403EBC30205EB6C
:100CD000820251650133DBB269688B42E5D316E0CD
:100CE00004EBC40305EB8303002283F87D2283F821
:100CF0007C4283F88022C3F88822C3F88C2204EB5C
:100D0000C40305EB8303C3F894220134E4B2A14287
:100D1000E6D82C4654F8106BEC460FCCACE80F002C
:100D20000FCCACE80F0094E803008CE803002B1D07
:100D30000ECB304600F0C0FE044620B1022385F8F9
:100D4000BD340124A3E7002385F83830012385F85A
:100D5000BD34286801F00DFB99E7012497E702688C
:100D600090F8BC34012B19D010B50446012380F84B
:100D7000BC34836A012B09D0206800F03BFE206858
:100D800001F0E9FA002084F8BC0410BD8369012B4E
:100D9000F2D0936B43F480339363EDE70220704706
:100DA00070B504460D460068066C00EB411303F570
:100DB00030639A682169012911D038498E4256D092
:100DC0003DB905EBC50304EB8303D3F89432002B44
:100DD0005ED0E9B22046FFF73FFD002070BD12F063
:100DE000080F09D02E498E42F7D912F4004FF4D0E3
:100DF0004FF400429A60F0E712F0200F02D0202258
:100E00009A60EAE712F0280FE7D125498E4206D909
:100E100012F4004F03D04FF400429A60DDE705EB77
:100E2000C50204EB8202D2F898121B69C3F31203C5
:100E3000CB1AC2F89C327DB905EBC50204EB8202E5
:100E4000D2F894226AB105EBC50204EB8202D2F813
:100E50008C120B44C2F88C32E9B22046FFF7FCFC3E
:100E6000BBE704F2C442012101F008FBF4E712F4ED
:100E7000004F03D04FF400429A60AEE712F0200F0B
:100E800001D020229A60E9B22046FFF7E5FCA4E7F2
:100E900004F2C442002101F0F1FA9AE70A31544FFA
:100EA0000A30544F38B5044603681D6C03EB4113F8
:100EB000D3F8081B0E4A954207D903F5306311F4A5
:100EC000004F02D04FF400429A602046FFF7BCFC6E
:100ED000074B9D4202D92369012B01D0002038BD68
:100EE00004F2C4420121206801F0C8FAF6E700BF0D
:100EF0000A30544F90F8BC34012B0DD010B5044685
:100F0000012380F8BC3480F83810006801F013FA2F
:100F1000002084F8BC0410BD0220704738B5054697
:100F20008C4611F0800F29D101F00F0E0EEBCE048C
:100F3000A40004F51E740444211D0EEBCE0E00EB3C
:100F40008E0E00208EF87D020CF00F0C81F800C090
:100F5000CA600B714A780AB1A1F808C0022B1DD0F3
:100F600095F8BC34012B1CD0012385F8BC342868CB
:100F700000F07BFE002085F8BC0438BD01F00F00B6
:100F800000EBC001890038312944043100EBC00076
:100F900005EB8000012480F83D40D5E700234B712C
:100FA000DEE70220E9E710B504460A4611F0800F9B
:100FB00020D101F00F0000EBC0039B0003F51E736E
:100FC0002344191D00EBC00004EB8000002380F8CF
:100FD0007D3202F00F020A7094F8BC34012B19D054
:100FE000012384F8BC34206800F08EFE002084F8D1
:100FF000BC0410BD01F00F0000EBC0039B003833B0
:101000002344191D00EBC00004EB8000012380F88D
:101010003D30DEE70220ECE710B501F00F0404EBF1
:10102000C401890001F51E710144043104EBC40CB4
:1010300000EB8C0CCCF88C22CCF894320023CCF84A
:101040009C328CF87D328CF87C420369012B06D0EF
:1010500064B9DAB2006800F0C7FE002010BD04EBEE
:10106000C40C00EB8C0CCCF89022F1E7DAB20068EB
:1010700000F0C2FFF1E701F00F0101EBC10100EB4D
:101080008101D1F89C02704710B501F00F0404EB08
:10109000C401890038310144043104EBC40C00EB75
:1010A0008C0CCCF84C20CCF854300023CCF85C30BD
:1010B00001238CF83D308CF83C400369012B06D0AD
:1010C00064B9DAB2006800F08FFE002010BD04EBB6
:1010D000C40C00EB8C0CCCF85020F1E7DAB20068BD
:1010E00000F08AFFF1E738B501F00F05426895423C
:1010F00039D804460B4611F0800F1FD101EBC10116
:10110000890001F51E710144043103EBC30300EBB8
:101110008303002283F87D2201238B700D7094F8E5
:10112000BC34012B21D0012384F8BC34206801F0A9
:10113000A7F88DB1002084F8BC0438BD05EBC501CB
:10114000890038310144043105EBC50300EB83030A
:10115000012283F83D20DFE704F2C442217C2068AD
:1011600001F08CF9E6E70120E7E70220E5E701F06E
:101170000F034268934231D810B5044611F0800F36
:101180001ED103EBC301890001F51E710144043136
:1011900003EBC30200EB8202002082F87D020022F2
:1011A0008A700B7094F8BC34012B19D0012384F899
:1011B000BC34206801F091F8002084F8BC0410BD14
:1011C00003EBC301890038310144043103EBC3024E
:1011D00000EB8202012082F83D00E0E70120704729
:1011E0000220ECE708B511F0800F0CD101F00F01DF
:1011F00001EBC101890001F51E7101440431006851
:1012000000F084FE08BD01F00F0101EBC10189006F
:10121000383101440431F2E72DE9F04F83B0044640
:101220000568284601F0E4F810B103B0BDE8F08F7E
:101230000646206801F0ABF80028F6D005F50067F7
:10124000BB68C3F30D23C4F8FC34206801F09FF899
:1012500010F0020F04D02268536903F002035361B7
:10126000206801F094F810F0100F13D022689369F1
:1012700023F010039361D5F8208008F00F09C8F31C
:101280004343022B4BD0062B6FD02268936943F067
:1012900010039361206801F07AF810F4002F76D1E2
:1012A000206801F074F810F4802F40F0E08020688E
:1012B00001F06DF80028C0F26381206801F067F842
:1012C00010F4006F09D0BB6813F0010F40F070817B
:1012D0002268536903F400635361206801F057F8F2
:1012E00010F4805F40F06881206801F050F810F43D
:1012F000005F40F0B581206801F049F810F0080F58
:1013000040F0C681206801F042F810F0800F00F034
:10131000D981AB6923F08003AB610126C2E147F6B6
:10132000F07318EA030FB0D04FEA181B4FEAC90355
:10133000019309EBC90A04EB8A0AC8F30A12DAF826
:101340008C12284600F072FFCBF30A0BDAF88C32CD
:101350005B44CAF88C32019B4B4404EB8303D3F803
:101360009C325B44CAF89C328FE7082204F2C441E5
:10137000284600F05BFFC8F30A1809EBC90204EB2A
:101380008202D2F89C324344C2F89C327DE7206846
:1013900001F001F88046B14635E005EB4913012222
:1013A000C3F8082B49462046FFF7FAFC3CE005EB62
:1013B00049130822C3F8082B49462046FFF772FD5F
:1013C00035E009EBC90304EB830393F87F32012B6B
:1013D00041D005EB49130222C3F8082B1AF0200F65
:1013E00004D005EB49132022C3F8082B1AF4005F40
:1013F00005D005EB49134FF40052C3F8082B09F14F
:1014000001094FEA5808B8F1000F3FF449AF18F04E
:10141000010FF4D05FFA89FB5946206800F0CBFF3A
:10142000824610F0010FB8D11AF0080FBFD11AF0A0
:10143000100F04D005EB49131022C3F8082B1AF043
:10144000020FCBD06B6913F0800FBAD07B6843F4E6
:1014500080637B60B5E709EBC90304EB83030022DB
:1014600083F87F2259462046FFF748FAB1E7206803
:1014700000F099FF8046B14625E059462046FFF727
:10148000F7F91AF0080F04D005EB49130822C3F846
:1014900008291AF0100F04D005EB49131022C3F8E5
:1014A00008291AF0400F04D005EB49134022C3F875
:1014B00008291AF0020F40D11AF0800F5BD109F110
:1014C00001094FEA5808B8F1000F3FF4F0AE18F0E8
:1014D000010FF4D05FFA89FB5946206800F074FFD1
:1014E000824610F0010FCCD009F00F03012101FA60
:1014F00003F27B6B23EA02037B6305EB4913C3F81A
:10150000081923698B42B8D109EBC90304EB8303A3
:10151000996CDA6C0A44DA64B9F1000FADD109EBC9
:10152000C90304EB83035B6D002BA6D104F2C44214
:101530000121206800F0A2FF9FE74946284600F0FD
:1015400065FA09EBC90304EB830393F83F30012BE1
:1015500005D005EB49130222C3F80829ACE709EBD3
:10156000C90304EB8303002283F83F205946204639
:10157000FFF7CAF9EDE749462046FFF7F1FA9EE783
:101580007B6823F001037B6094F8F434012B08D0CE
:101590002046FFF7ADF92268536903F00043536119
:1015A0008BE6002184F8F414204600F041F9F2E7BC
:1015B0002046FFF785F98BE67B6823F001037B600B
:1015C0001021206800F022FA1AE005EB46134FF6CE
:1015D0007F31C3F80819D3F8002922F40012C3F8A8
:1015E0000029C3F8081BD3F8002B22F40012C3F81B
:1015F000002BD3F8002B42F00062C3F8002B013619
:101600006368B342E1D8FB6943F00113FB61236BCC
:10161000DBB1D7F8843043F00B03C7F884307B6C20
:1016200043F00B037B64D5F8003823F4FE63C5F860
:10163000003804F2C442217C206800F01FFF2268B9
:10164000536903F4805353614EE67B6943F40053BE
:1016500043F02B037B613B6943F00B033B61E2E703
:10166000206800F0FAFE206800F0EEFAE0602668DC
:1016700001F04AFA0146227B304600F049F9204643
:10168000FFF707F92268536903F40053536132E608
:101690002046FFF7F8F82268536903F00803536106
:1016A00030E601366368B3420CD906EBC60304EB9F
:1016B000830393F87F32012BF3D1F1B22046FFF779
:1016C00091FDEEE7206800F062FE10F4801F27D144
:1016D000206800F05CFE10F4001F5BD0012328E0BE
:1016E00001366368B3421DD905EB4613D3F80029D0
:1016F00006EBC60304EB830393F84030012BEFD1D4
:10170000002AEDDA06EBC60304EB8303012283F81B
:101710003F2066F07F01C9B22046FFF763FDDFE797
:101720000126DEE72268536903F480135361CFE793
:10173000013362689A4228D905EB4312D2F8001BA4
:1017400003EBC30204EB820292F88022012AEFD15C
:101750000029EDDA01F48031D4F8FC2402F0010212
:101760009142E5D103EBC30204EB8202012182F82E
:101770007F12AA6942F08002AA616A6912F0800FA2
:10178000D6D17B6843F400737B602268536903F40D
:1017900000135361206800F0FAFD10F0804F10D163
:1017A000206800F0F4FD10F0040F3FF43EAD236814
:1017B0005D6815F0040F0DD1226853682B43536008
:1017C00033E52046FFF7A6F82268536903F080430B
:1017D0005361E5E72046FFF7A3F8EDE710B404688E
:1017E000606A31B940EA0240A06200205DF8044B13
:1017F00070478C46A36A00EB1340002308E003F116
:10180000400104EB8101496800EB11400133DBB278
:101810000CF1FF318B42F2D340EA02400CF13F0160
:1018200004EB81014860E0E70368596200207047DB
:101830007047000082B000230193019B01330193A4
:10184000019A0F4B9A4215D80369002BF5DA002351
:101850000193036943F001030361019B0133019389
:10186000019A074B9A4208D8036913F0010FF4D18B
:10187000002000E0032002B070470320FBE700BF18
:10188000400D030084B010B5044603A880E80E00A4
:10189000089B012B1FD1A36B23F48033A363E36860
:1018A00023F4840323F04003E360E36823F440134C
:1018B000E3600F9B012B09D02046FFF7BBFF069B7F
:1018C000012B1BD0BDE8104004B07047E36843F41F
:1018D0008013E360F0E7E36843F04003E3602046F1
:1018E000FFF7A8FF0C9B23B9A36B43F48033A363DA
:1018F000E5E7A36B23F48033A363E0E7A36843F039
:101900000603A360A36843F02003A360DAE70000A6
:10191000022A0AD00921C26822F47052C260C36848
:1019200043EA8123C36000207047234B0B44234AC2
:1019300093422FD9224B0B44224A93422CD9A1F532
:101940007403A3F51053204A934227D9A1F183735E
:10195000A3F5E7431D4A934222D31D4B0B441D4A76
:1019600093421FD91C4B0B441C4A93421CD31C4B63
:101970000B441C4A934219D3A1F1B773A3F55853F2
:10198000194A934214D3194B0B44194A934211D26A
:101990000721C0E70F21BEE70E21BCE70D21BAE702
:1019A0000C21B8E70B21B6E70A21B4E70921B2E719
:1019B0000821B0E70621AEE7405327FFFF340C00B3
:1019C000401E1BFF3F420F007F4F120020D6130026
:1019D00060B6E5FE5FE3160000D3CEFE40771B0045
:1019E000C05BB3FEC091210020753800E05459FE61
:1019F000E09C4100836843F001038360002070474E
:101A0000836823F0010383600020704782B00023C5
:101A10000193019B01330193019A0F4B9A4215D810
:101A20000369002BF5DA00230193890141F02001BD
:101A30000161019B01330193019A074B9A4208D837
:101A4000036913F0200FF4D1002000E0032002B05E
:101A500070470320FBE700BF400D030082B0002366
:101A60000193019B01330193019A0E4B9A4213D8C3
:101A70000369002BF5DA0023019310230361019B16
:101A800001330193019A074B9A4208D8036913F076
:101A9000100FF4D1002000E0032002B070470320B3
:101AA000FBE700BF400D0300D0F800381943C0F831
:101AB000001800207047000084B02DE9F041044672
:101AC00007A880E80E00002306E003F1400204EBC3
:101AD00082020021516001330E2BF6D9119F27BBE2
:101AE000D4F8043843F00203C4F80438A36B43F479
:101AF0000013A363A36B23F40023A363A36B23F45A
:101B00008023A3630023C4F8003E04F50065D4F8E5
:101B10000038C4F800380C9B012B14D1099B6BB919
:101B200000212046FFF7C0FF11E0A36B23F4001350
:101B3000A363A36B43F40023A363E3E701212046DF
:101B4000FFF7B2FF03E003212046FFF7ADFF1021AE
:101B50002046FFF75BFF804608B14FF001082046A2
:101B6000FFF77CFF08B14FF0010800232B616B6188
:101B7000EB610AE0C3B94FF00060C2F8000900222F
:101B80000A614FF67F328A6001330799994210D972
:101B900004EB431202F51061D2F800090028E9DBDA
:101BA0000020C2F80009EAE74FF09040C2F80009AF
:101BB000E5E700230AE0C3B14FF0904CC2F800CB38
:101BC000002202614FF67F3282600133994211D9BF
:101BD00004EB431202F53060D2F8006B002EEADB12
:101BE0004FF0000CC2F800CBEAE74FF0006CC2F8EF
:101BF00000CBE5E72B6923F480732B610023A361FD
:101C00006FF0804363610A9B1BB9A36943F0100323
:101C1000A361A2690B4B1343A3610D9B1BB1A36985
:101C200043F00803A361012F04D04046BDE8F04112
:101C300004B07047A36943F0804343F00403A361F9
:101C4000F3E700BF00383C80D0F8083813F00603F3
:101C500007D0022B07D0062B01D00F20704702209F
:101C60007047002070470220704710B591F800C0FF
:101C70004B78012B23D000F5006ED0F81C380CF007
:101C80000F040122A24043EA0243C0F81C3800EBD3
:101C90004C10D0F8003B13F4004F0ED1D0F8003BAD
:101CA000CA68C2F30A02097942EA8142134343F047
:101CB000805343F40043C0F8003B002010BDD0F82F
:101CC0001C280CF00F0E03FA0EF39BB21343C0F85E
:101CD0001C3800EB4C10D0F8003913F4004FECD155
:101CE000D0F80039CA68C2F30A02097942EA81428F
:101CF00042EA8C5C43EA0C0343F0805343F4004314
:101D0000C0F80039D9E7000030B40B784A78012ACE
:101D100026D000EB4313D3F8002B002A52DBD0F877
:101D20003C480A7802F00F024FF0010C0CFA02F264
:101D300024EA0242C0F83C28D0F81C28097801F0B7
:101D40000F010CFA01FC22EA0C42C0F81C28D3F85F
:101D5000001B234A0A40C3F8002B002030BC704708
:101D600000EB4313D3F80029002A1EDBD0F83C58BF
:101D70000A7802F00F02012404FA02F292B225EA74
:101D80000202C0F83C28D0F81C28097801F00F01A5
:101D90008C40A4B222EA0404C0F81C48D3F800190D
:101DA000104A0A40C3F80029D7E7D3F8002942F0C7
:101DB0000062C3F80029D3F8002942F08042C3F83A
:101DC0000029D3E7D3F8002B42F00062C3F8002BC0
:101DD000D3F8002B42F08042C3F8002B9FE700BFEE
:101DE0000078F3EF007833EC70B40B784C78012C6A
:101DF00029D000EB431000F530631C69E40CE404C7
:101E00001C611C6924F0FF5424F4C0141C618C690B
:101E10000CB1CC688C61CC68CC611C6944F40024A2
:101E20001C611C69CD69C5F3120C44EA0C041C61E9
:101E3000012A66D0D0F8003B43F00443C0F8003BD1
:101E4000002070BC70478C696CBB00EB4314D4F865
:101E5000105925F0FF5525F4C015C4F81059D4F8D1
:101E6000105945F40025C4F81059D4F81059ED0C58
:101E7000ED04C4F81059012A34D000EB4313D3F811
:101E8000002942F00442C3F800298B69002BD7D007
:101E9000D0F834380A7802F00F0101228A40134347
:101EA000C0F83438CCE700EB431404F5106425691E
:101EB000ED0CED042561256925F0FF5525F4C015CD
:101EC0002561CD688E69AE4200D98D61256945F4E2
:101ED0000025256125698E69C6F3120C45EA0C05BB
:101EE0002561C8E74A691AB100EB4311C1F814290A
:101EF00000EB4310D0F8002942F00442C0F800295A
:101F00009EE70A69002A95D05A6193E710B483B01E
:101F1000024600230193487801280BD00B7802EB8E
:101F20004313D3F8000B00282DDB002003B05DF82D
:101F3000044B70470B7802EB4313D3F80049002C95
:101F400001DB0020F2E7D3F8004944F00064C3F855
:101F500000490B7802EB4313D3F8004944F0804466
:101F6000C3F80049019B01330193019C42F21073B5
:101F70009C42DBD80B7802EB4313D3F80039002BDB
:101F8000F0DB0020D2E7D3F8000B40F00060C3F88C
:101F9000000B0B7802EB4313D3F8000B40F08040AA
:101FA000C3F8000B019B01330193019842F21073B7
:101FB000984208D80B7802EB4313D3F8003B002B70
:101FC000F0DB0020B2E70120B0E710B59DF8084033
:101FD00084B903334FEA930E4FF0000C08E000EB96
:101FE000023303F5805351F8044B1C600CF1010CD3
:101FF000F445F4D3002010BDF0B583B00B784C78D5
:10200000012C33D000EB431303F5306CDCF81040A7
:10201000E40CE404CCF81040DCF8104024F0FF5449
:1020200024F4C014CCF810408C69002C40F0C78018
:10203000DCF81040CD68C5F312052C43CCF81040F5
:10204000DCF8104044F40024CCF81040012A00F0E1
:10205000D0800A79012A00F0D380D3F8002B42F017
:102060000442C3F8002B002003B0F0BD8C6984BB90
:1020700000EB4314D4F8105925F0FF5525F4C01592
:10208000C4F81059D4F8105945F40025C4F8105973
:10209000D4F81059ED0CED04C4F81059012A4CD0B5
:1020A00000EB4313D3F8004944F00444C3F800495B
:1020B0000C79012C6AD08B69002BD4D0D0F834383D
:1020C0000A7802F00F0101228A401343C0F8343825
:1020D000C9E700EB4314D4F81059ED0CED04C4F833
:1020E0001059D4F8105925F0FF5525F4C015C4F83F
:1020F0001059D4F810698D69CF683D44013DB5FB96
:10210000F7F5494F07EAC5453543C4F81059D4F8E7
:1021100010598E69C6F312063543C4F8105904F5F8
:1021200010640D79012DB9D1256925F0C0452561CF
:10213000256945F000552561B0E74A691AB100EB01
:102140004314C4F814290A79012A08D000EB431378
:10215000D3F8002942F00442C3F8002983E7D0F8FD
:10216000082812F4807F08D100EB4311D1F8002930
:1021700042F00052C1F80029E8E700EB4311D1F822
:10218000002942F08052C1F80029DFE7D0F8084862
:1021900014F4807F0CD1D3F8004944F00054C3F804
:1021A000004900920B8B0A780969FFF70EFF5AE786
:1021B000D3F8004944F08054C3F80049F1E7CD68F2
:1021C0002C44013CB4FBF5F4A4B204FB05F5CD614D
:1021D000DCF81050144E06EAC4442C43CCF81040EE
:1021E000DCF81040CD69C5F312052C43CCF8104043
:1021F0002CE70A69002A3FF42CAFCCF8142028E71A
:10220000D0F8082812F4807F06D1D3F8002B42F0D2
:102210000052C3F8002B20E7D3F8002B42F0805285
:10222000C3F8002B19E700BF0000F81F00B583B00A
:10223000844608464FEA920E02F00302002305E0AE
:102240000CF58051096840F8041B01337345F7D33E
:102250009AB10CF5805CDCF8003001934FF0000C73
:102260005FFA8CF3D900019BCB4000F8013B0CF1E5
:10227000010C013A92B2002AF2D103B05DF804FBDE
:102280000B784A78012A14D000EB4310D0F8002BC9
:10229000002A06DB2BB1D0F8003B23F08043C0F8C6
:1022A000003BD0F8003B43F40013C0F8003B002093
:1022B000704700EB4310D0F80029002A06DB2BB151
:1022C000D0F8003923F08043C0F80039D0F8003945
:1022D00043F40013C0F80039E9E70B784A78012A83
:1022E0000ED000EB4310D0F8003B23F40013C0F8ED
:1022F000003B0B79023BDBB2012B15D90020704764
:1023000000EB4310D0F8003923F40013C0F8003973
:102310000B79023BDBB2012BF0D8D0F8003943F047
:102320008053C0F80039E9E7D0F8003B43F0805310
:10233000C0F8003BE2E7D0F8003823F4FE63C0F8B1
:102340000038D0F80038090101F4FE611943C0F8E3
:10235000001800207047D0F8003E23F00303C0F8B7
:10236000003ED0F8043823F00203C0F804380020FF
:102370007047D0F8003E23F00303C0F8003ED0F8C9
:10238000043843F00203C0F8043800207047426963
:10239000806910407047D0F8183800F50060C069B7
:1023A0001840000C7047D0F8183800F50060C0697C
:1023B000184080B2704700EB4111D1F8082B00F5AE
:1023C000006040691040704710B4D0F81048D0F851
:1023D000343801F00F02D340DB01DBB2234300EBC2
:1023E000411000F51060806818405DF8044B70479C
:1023F000406900F00100704738B50546C36823F016
:10240000C043C360012913D019BBC36843F08043A4
:10241000C3600024012000F04DFD01342846FFF781
:10242000E7FF08B1312CF5D9322C14D0002038BD8B
:10243000C36843F00053C3600024012000F03AFD5C
:1024400001342846FFF7D4FF0128EDD0312CF4D910
:10245000EAE70120EBE70120E9E7D0F8003923F4AF
:10246000FF6323F00703C0F80039D0F8043843F4C1
:102470008073C0F8043800207047000010B4046C6A
:10248000154B9C4203D9D0F8003B002B16DB0024EF
:10249000C0F8104BD0F8104B44F40024C0F8104B97
:1024A000D0F8104B44F01804C0F8104BD0F8104B83
:1024B00044F0C044C0F8104B012903D000205DF85F
:1024C000044B7047C0F8142BD0F8003B43F0802336
:1024D000C0F8003BF2E700BF0A30544F002800F07C
:1024E000E08170B582B00446036813F0010F3BD061
:1024F0009F4B9B6803F00C03042B2CD09C4B9B68D8
:1025000003F00C03082B21D06368B3F5803F4FD054
:10251000B3F5A02F52D0964B1A6822F480321A607D
:102520001A6822F480221A606368002B50D000F0F1
:10253000BBFC05468E4B1B6813F4003F14D100F022
:10254000B3FC401B6428F5D90320B1E1884B5B68DC
:1025500013F4800FD8D0864B1B6813F4003F03D0D0
:102560006368002B00F09F81236813F0020F54D0A2
:102570007F4B9B6813F00C0F3ED07D4B9B6803F0A4
:102580000C03082B33D0E368002B68D0794B012271
:102590001A6000F089FC0546754B1B6813F0020FAA
:1025A00054D100F081FC401B0228F5D903207FE1C3
:1025B0006F4A136843F480331360B5E76C4B1A68B5
:1025C00042F480221A601A6842F480321A60ABE743
:1025D00000F06AFC0546664B1B6813F4003FC3D04D
:1025E00000F062FC401B6428F5D9032060E1604BD9
:1025F0005B6813F4800FC6D15D4B1B6813F0020FAC
:1026000003D0E368012B40F05081594A136823F04E
:10261000F803216943EAC1031360236813F0080F2C
:1026200042D063696BB3534B0122C3F8802E00F094
:102630003BFC05464E4B5B6F13F0020F34D100F0AC
:1026400033FC401B0228F5D9032031E1484A1368C6
:1026500023F0F803216943EAC1031360DDE7454B2A
:1026600000221A6000F020FC0546414B1B6813F065
:10267000020FD2D000F018FC401B0228F5D903202D
:1026800016E13C4B0022C3F8802E00F00DFC0546FD
:10269000374B5B6F13F0020F06D000F005FC401BB8
:1026A0000228F5D9032003E1236813F0040F77D043
:1026B0002F4B1B6C13F0805F33D1002301932C4B05
:1026C0001A6C42F080521A641B6C03F08053019321
:1026D000019B0125284B1B6813F4807F23D0A3683E
:1026E000012B34D0052B38D0214B1A6F22F0010278
:1026F0001A671A6F22F004021A67A368002B3DD0F4
:1027000000F0D2FB06461A4B1B6F13F0020F46D1A6
:1027100000F0CAFB801B41F288339842F3D90320B2
:10272000C6E00025D6E7144A136843F480731360AB
:1027300000F0BAFB0646104B1B6813F4807FCED125
:1027400000F0B2FB801B0228F5D90320B0E0084A54
:10275000136F43F001031367CFE7054B1A6F42F085
:1027600004021A671A6F42F001021A67C5E700BF38
:1027700000380240000047420070004000F094FB27
:102780000646524B1B6F13F0020F08D000F08CFB73
:10279000801B41F288339842F3D9032088E0EDB9D9
:1027A000A369002B00F08380484A926802F00C0273
:1027B000082A51D0022B17D0454B00221A6600F090
:1027C00073FB0446414B1B6813F0007F42D000F0BE
:1027D0006BFB001B0228F5D9032069E03B4A136C10
:1027E00023F080531364DBE7394B00221A6600F0B4
:1027F0005BFB0546354B1B6813F0007F06D000F0ED
:1028000053FB401B0228F5D9032051E0E369226AFB
:102810001343626A43EA8213A26A5208013A43EA06
:102820000243E26A43EA0263284A5360284B0122CA
:102830001A6600F039FB0446244B1B6813F0007F36
:1028400006D100F031FB001B0228F5D903202FE050
:1028500000202DE000202BE0012B2BD01B4B5B68D0
:1028600003F48001E269914226D103F03F02216A1C
:102870008A4223D1616A47F6C0721A40B2EB811FC7
:102880001ED103F44031A26A5208013AB1EB024F63
:1028900018D103F07063E26AB3EB026F14D1002029
:1028A00006E001207047012002E0012000E0002046
:1028B00002B070BD0120FBE70120F9E70120F7E736
:1028C0000120F5E70120F3E70120F1E7003802409D
:1028D0000000474208B5314B9B6803F00C03042B02
:1028E00057D0082B57D12D4B5A6802F03F025B6836
:1028F00013F4800F2AD0294B5968C1F3881C4FEA82
:102900004C11B1EB0C006EEB0E0E4FEA8E1343EA46
:1029100090638101091A63EB0E03DB0043EA5173F4
:10292000C90011EB0C0C43F10003590200234FEADC
:102930004C2041EADC51FDF79BFC184B5B68C3F36C
:10294000014301335B00B0FBF3F025E0134B596802
:10295000C1F3881C4FEA4C11B1EB0C006EEB0E0E6C
:102960004FEA8E1343EA90638101091A63EB0E0369
:10297000DB0043EA5173C90011EB0C0C43F1000377
:10298000990200234FEA8C2041EA9C51FDF770FC2C
:10299000D3E7034800E0034808BD00BF0038024009
:1029A00000127A000024F400002800F09B8070B52B
:1029B0000D4604464F4B1B6803F007038B4208D2B9
:1029C000CBB24C4A1370136803F007038B4240F0FC
:1029D0008B80236813F0020F17D013F0040F04D07C
:1029E000454A936843F4E0539360236813F0080F5B
:1029F00004D0414A936843F4604393603E4A93682D
:102A000023F0F003A1680B439360236813F0010FD8
:102A100032D06368012B21D09A1E012A25D9364A6B
:102A2000126812F0020F61D033498A6822F0030263
:102A300013438B6000F038FA06462F4B9B6803F077
:102A40000C036268B3EB820F16D000F02DFA801BE6
:102A500041F288339842F0D9032042E0264A1268B6
:102A600012F4003FE0D101203BE0234A126812F04B
:102A7000007FD9D1012034E01E4B1B6803F007030F
:102A8000AB4207D9EAB21B4B1A701B6803F007036D
:102A9000AB422DD1236813F0040F06D0164A936879
:102AA00023F4E053E1680B439360236813F0080FAD
:102AB00007D0114A936823F46043216943EAC103B4
:102AC0009360FFF707FF0C4B9B68C3F303130B4A9C
:102AD000D35CD8400A4B18600A4B186800F098F98C
:102AE000002070BD012070470120FAE70120F8E7BF
:102AF0000120F6E7003C024000380240205B00085D
:102B00001C00002018000020014B1868704700BF0F
:102B10001C00002008B5FFF7F7FF044B9B68C3F3C8
:102B20008223034AD35CD84008BD00BF003802406E
:102B3000305B000808B5FFF7E7FF044B9B68C3F361
:102B40004233034AD35CD84008BD00BF003802407E
:102B5000305B000800230F2B00F2E48070B582B0D8
:102B600060E085685E000324B44025EA0405CC6873
:102B7000B4402C438460456825EA02054C68C4F3E0
:102B800000129A402A4342605AE0DC08083450F8A8
:102B9000246003F0070295000F22AA4026EA020EE5
:102BA0000A69AA4042EA0E0240F824205CE00722AB
:102BB00000E0002202FA0EF22A4302345A4D45F890
:102BC00024205A4A94686FEA0C0224EA0C054E68E5
:102BD00016F4801F01D04CEA0405544CA560E4684B
:102BE00002EA04054E6816F4001F01D04CEA040501
:102BF0004E4CE560646802EA04054E6816F4003F36
:102C000001D04CEA0405494C6560246822404D68B7
:102C100015F4803F01D04CEA0402444C2260013399
:102C20000F2B7DD801229A400C6804EA020C32EA8C
:102C30000404F4D14C6804F00304013C012C90D945
:102C40004A6802F00302032A09D0C4685D00032227
:102C5000AA4024EA02048A68AA402243C2604A6861
:102C600002F00302022A90D004684FEA430E0322C6
:102C700002FA0EF224EA02044A6802F0030202FA9F
:102C80000EF2224302604A6812F4403FC7D000228D
:102C90000192274A546C44F480445464526C02F408
:102CA00080420192019A9C08A51C1F4A52F82550A7
:102CB00003F003024FEA820E0F2202FA0EF225EA17
:102CC00002051C4A90423FF474AF02F580629042C4
:102CD0001AD002F58062904218D002F580629042CC
:102CE00016D002F58062904214D002F580629042C4
:102CF00012D002F58062904210D002F580629042BC
:102D00003FF455AF082255E7012253E7022251E76D
:102D100003224FE704224DE705224BE7062249E74D
:102D200002B070BD704700BF00380140003C014058
:102D30000038024000000240074AD36823F4E063F1
:102D40001B041B0C000200F4E060034343F0BF636C
:102D500043F40033D360704700ED00E000B5194B39
:102D6000DB68C3F30223C3F1070CBCF1040F28BFD7
:102D70004FF0040C03F1040EBEF1060F18D9033B0B
:102D80004FF0FF3E0EFA0CFC21EA0C0199400EFABE
:102D900003F322EA0303194300280BDB0901C9B23C
:102DA00000F1604000F5614080F800135DF804FB1D
:102DB0000023E5E700F00F000901C9B2024B1954E6
:102DC000F4E700BF00ED00E014ED00E0002807DBB1
:102DD00000F01F02400901239340024A42F82030CC
:102DE000704700BF00E100E00138B0F1807F0BD2F6
:102DF0004FF0E0235861054AF02182F823100020AB
:102E0000986107221A6170470120704700ED00E0C9
:102E100010B504460E4B18784FF47A73B3FBF0F3F9
:102E20000C4A1068B0FBF3F0FFF7DEFF68B90F2C17
:102E300001D901200AE0002221464FF0FF30FFF7C0
:102E40008DFF054B1C60002000E0012010BD00BF7D
:102E5000140000201C0000201800002008B50B4BB7
:102E60001A6842F400721A601A6842F480621A60AA
:102E70001A6842F480721A600320FFF75DFF0F208A
:102E8000FFF7C6FFFDF750FE002008BD003C0240E2
:102E9000034A1168034B1B780B441360704700BF53
:102EA000641B002014000020014B1868704700BF0D
:102EB000641B002038B50446FFF7F6FF0546B4F161
:102EC000FF3F02D0044B1B781C44FFF7EDFF401B73
:102ED000A042FAD338BD00BF1400002038B5044624
:102EE0000268136923F44053C1680B43136183687C
:102EF0000269134342691343C2691A430168CB68EC
:102F000023F4164323F00C031343CB600268536988
:102F100023F4407381690B4353610368314A934240
:102F200006D002F58062934202D0FFF7F3FD01E084
:102F3000FFF700FEE369B3F5004F29D00021031825
:102F400049411B1841F10001C90041EA5371DB00FE
:102F5000181863684FEA83024FEA937341F1000146
:102F6000FDF786F9204DA5FB00325109642303FBD0
:102F700011031B013233A5FB03235B0903F0F002AD
:102F800002EB011203F00F03216813448B6038BD7C
:102F90000023021843EB0301121841F10001C9009C
:102FA00041EA5271D200101841F100016268921892
:102FB0005B41FDF75DF90C4DA5FB0032510964231F
:102FC00003FB1103DB003233A5FB03235B095A002B
:102FD00002F4F87202EB011203F0070321681344B4
:102FE0008B60D4E7001001401F85EB512DE9F843B9
:102FF00005460F4616469946DDF820802C68246861
:1030000037EA04030CBF4FF0010C4FF0000CB4453D
:103010002DD1B8F1FF3FF1D0B8F1000F05D0FFF787
:1030200043FFA0EB09004045E8D92A6802F10C03F0
:1030300053E8003F23F4D0730C3242E800310029FA
:10304000F3D12A6802F1140353E8003F23F001038F
:10305000143242E800310029F3D1202385F83D30B5
:1030600085F83E30002385F83C30032000E0002046
:10307000BDE8F88358B310B5044690F83D300BB363
:10308000242384F83D302268D36823F40053D360AE
:103090002046FFF723FF2268136923F4904313614E
:1030A0002268536923F02A0353612268D36843F4EA
:1030B0000053D36000202064202384F83D3084F83E
:1030C0003E3010BD80F83C30FDF7FEFAD8E7012015
:1030D00070472DE9F04182B01E4690F83D30DBB2DA
:1030E000202B54D104460D469046002953D0002A87
:1030F00053D090F83C30012B51D0012380F83C3064
:1031000000230364212380F83D30FFF7CDFE0746FE
:10311000A4F82480A4F82680A368B3F5805F05D0C6
:103120004FF00008002384F83C3012E0236913B10B
:103130004FF00008F6E7A8460025F3E738F8023B11
:103140002268C3F308035360E28C92B2013A92B250
:10315000E284E38C9BB273B100963B46002280214F
:103160002046FFF743FFE0B9002DE7D015F8012B0B
:1031700023685A60E8E700963B460022402120463B
:10318000FFF734FF78B9202384F83D3000E00220B7
:1031900002B0BDE8F0810120FAE70120F8E7022043
:1031A000F6E70320F4E70320F2E70000034AD2F831
:1031B000883043F47003C2F88830704700ED00E0B7
:1031C00050B308B58446002315E003F1AE0E00208D
:1031D0004CF82E0003F1B60E0CEB8E0ECEF8040068
:1031E000C3EBC30E0CEBCE0ECEF80803CCF8FC02FA
:1031F000CCF8F8020133032BE7D90023CCF8F432E2
:1032000009B1CCF8B41201238CF89C328CF8002060
:103210006046FDF78BFB08BD0320704730B583B0D7
:1032200004460020ADF80600D4F8F80203281CD8A4
:10323000D4F8FC52032D18D809B300F1AE0C44F8B1
:103240002C10C0EBC00004EBC000C0F824330023F6
:10325000204601F009FBD4F8F8320133C4F8F83203
:10326000D4F8FC320133C4F8FC32064BDB6A0DF1B2
:1032700006009847C4F8F402002003B030BD0320D4
:10328000FBE700BFB000002008B50022C0F8F8221C
:10329000FDF7ABFB08BDF8B505460E4600242746F2
:1032A00000E00134032C17D8C4EBC40305EBC303BF
:1032B000D3F80833012BF4D104F1AE0355F82330D1
:1032C000002BEED0C5F8F8421B68314628469847D7
:1032D0000028E6D00327E4E73846F8BDF8B50546F0
:1032E0000E460024274600E00134032C17D8C4EB17
:1032F000C40305EBC303D3F80833012BF4D104F165
:10330000AE0355F82330002BEED0C5F8F8425B68C9
:103310003146284698470028E6D00327E4E7384698
:10332000F8BD38B5044600F2AA25284600F06CFA2C
:103330000123C4F89432B4F8B032C4F8983294F847
:10334000AA1201F01F03012B0DD0022B10D02BB1BC
:1033500001F080012046FDF763FB03E0294620468B
:1033600000F07CFC38BD2946204600F0B2FCF9E7AD
:103370002946204600F0F0FCF4E7F8B505460123A5
:1033800080F89C320026C0F894624660C0F8A462BF
:1033900080F8A062344600E00134032C19D8C4EB55
:1033A000C40305EBC303D3F80833012BF4D104F1B4
:1033B000AE0355F82330002BEED0C5F8F8425B6819
:1033C000002BE9D02979284698470028E4D0032625
:1033D000E2E74023002211462846FDF70EFB0127B5
:1033E000A5F864714024C5F860412346002280217D
:1033F0002846FDF702FBAF842C623046F8BD01740D
:103400000020704790F89C32DBB280F89D32042394
:1034100080F89C320020704790F89C32DBB2042B7D
:1034200001D00020704790F89D32DBB280F89C32CA
:10343000F7E738B590F89C32DBB2032B1BD00020A5
:1034400038BD0134032CFAD8C4EBC40305EBC30325
:10345000D3F80833012BF4D104F1AE0355F823302F
:10346000002BEED0DA69002AEBD0C5F8F842DB6910
:1034700028469847E5E705460024E3E708B5D0F875
:10348000F832AE3350F823205AB190F89C32DBB2B8
:10349000032B01D0002008BD136A23B198470020F8
:1034A000F9E70320F7E70020F5E708B5D0F8F83290
:1034B000AE3350F823205AB190F89C32DBB2032B84
:1034C00001D0002008BD536A23B198470020F9E7D6
:1034D0000320F7E70020F5E70020704770B50546A8
:1034E000012380F89C320024264600E00134032C9E
:1034F00017D8C4EBC40305EBC303D3F80833012B7F
:10350000F4D104F1AE0355F82330002BEED0C5F80A
:10351000F8425B682979284698470028E6D00326B8
:10352000E4E7304670BD00231CE00CF1010CC3EB56
:10353000C30200EBC202D2F82823624511D9C3EBC3
:10354000C30200EBC202624492F82C238A42ECD1FF
:1035500003F1AE0250F822209268002AE5D0D8B2DA
:1035600070470133032B0AD8C3EBC30200EBC2023E
:10357000D2F80823012AF4D14FF0000CD7E7FF203E
:10358000704700231CE00CF1010CC3EBC30200EBFD
:10359000C202D2F80C23624511D9C3EBC3020CEB73
:1035A0004202C43210F822208A42ECD103F1AE026A
:1035B00050F822209268002AE5D0D8B27047013333
:1035C000032B0AD8C3EBC30200EBC202D2F80823D4
:1035D000012AF4D14FF0000CD7E7FF20704738B52F
:1035E00004460D46002943D11346D0F89422032AFD
:1035F00001D0084638BDD0F85C11D0F86021914266
:1036000012D890F8AA3203F01F03012B17D0022B17
:103610001CD0284694F89C32DBB2032B1BD02046EA
:1036200000F0F9FC2846E5E7891AC0F85C118A42E7
:1036300028BF0A46194600F0E6FC2846DAE790F86B
:10364000AE12FFF770FF0328E9D8E3E790F8AE1257
:10365000FFF797FFF7E700F1AE0354F823301A693C
:10366000002ADCD0C4F8F8021B6920469847D6E748
:1036700001F07F01FFF785FF032813D894F89C32EF
:10368000DBB2032B01D00020B4E700F1AE0354F805
:1036900023309A6942B1C4F8F8029B692946204652
:1036A0009847A7E70020A5E70020A3E738B5044620
:1036B0000D4600294BD11346D0F89422022A07D098
:1036C00094F8A00218B1002384F8A032284638BD2F
:1036D000C269016A8A420ED88A4218D094F89C3294
:1036E000DBB2032B27D080212046FDF799F9204635
:1036F00000F09CFCE4E7521AC261194600F06CFC31
:1037000000231A4619462046FDF7AAF9D8E783692F
:103710009942E3D8D0F898229342DFD20022114692
:1037200000F05AFC0021C4F898120B460A462046C5
:10373000FDF796F9C4E7D4F8B832DA68002AD2D097
:103740000022C4F8F822DB6820469847CBE741F016
:103750008001FFF716FF032813D894F89C32DBB2E0
:10376000032B01D00020B2E700F1AE0354F8233060
:103770005A6942B1C4F8F8025B6929462046984765
:10378000A5E70020A3E70020A1E730B58646002387
:1037900001E00133DBB2DEF8F842C4EBC40C0EEBFF
:1037A000CC0CDCF80C03834222D2C4EBC40C03EB38
:1037B0004C0C0CF1C40C1EF82C0000F0800C8C4555
:1037C000E7D1C4EBC40C03EB4C0C0CF1C40C0EEBB6
:1037D0008C0C9CF801C09445DBD1C4EBC40403EB12
:1037E0004405C4350EEB8505EC78002CD1D000E003
:1037F000FF2030BD0346002002E00130C0B201339B
:103800001A78002AF9D170470B7803704B7843700F
:103810008B78CA7843EA022343800B794A7943EADA
:10382000022383808B79CA7943EA0223C3807047DD
:1038300010B504468021FDF7F3F800212046FDF77E
:10384000EFF810BDF0B583B004460D460023ADF887
:1038500006304A88130A013B062B00F2FB80DFE8A2
:1038600013F0070023004D00F900F900C700DF0046
:10387000D0F8B4321B680DF10601007C984706466B
:10388000EA88002A00F0EF80BDF80630002B00F037
:10389000E5809A4228BF1A46ADF8062031462046F8
:1038A00000F08DFB03B0F0BD037C9BB990F8FC32B7
:1038B00043B16F4B9B6A0DF1060098470646022301
:1038C0007370DDE7D0F8B8329B6A0DF106009847B7
:1038D0000646F4E790F8FC3243B1654BDB6A0DF124
:1038E00006009847064602237370C9E7D0F8B8323D
:1038F000DB6A0DF1060098470646F4E7D2B2052AC6
:1039000073D8DFE802F003111F2D3B49D0F8B43221
:103910005B682BB10DF10601007C98470646AFE7C6
:103920002946FFF785FFBDE7D0F8B4329B682BB17D
:103930000DF10601007C98470646A1E72946FFF7EE
:1039400077FFAFE7D0F8B432DB682BB10DF1060199
:10395000007C9847064693E72946FFF769FFA1E7F1
:10396000D0F8B4321B692BB10DF10601007C9847E9
:10397000064685E72946FFF75BFF93E7D0F8B432A8
:103980005B692BB10DF10601007C9847064677E78D
:103990002946FFF74DFF85E7D0F8B4329B692BB17C
:1039A0000DF10601007C9847064669E72946FFF7B6
:1039B0003FFF77E72F4801F0B7F907F1AE0354F85E
:1039C00023309A6B5AB1C4F8F8729B6B0DF1060262
:1039D000A97820469847064600287FF451AF013762
:1039E000D4F8FC32BB42E5D84AE700273E46F7E769
:1039F000037C8BB990F8FC3233B11D4B5B6B0DF13E
:103A00000600984706463BE7D0F8B8325B6B0DF1ED
:103A100006009847064633E72946FFF709FF41E7C6
:103A2000037C9BB990F8FC3243B1114B1B6B0DF139
:103A30000600984706460723737021E7D0F8B8328E
:103A40001B6B0DF1060098470646F4E72946FFF781
:103A5000EFFE27E72946FFF7EBFE23E7294620463E
:103A6000FFF7E6FE1EE7204600F0D5FA1AE700BF92
:103A7000B0000020385B000838B504468B88FBB9DD
:103A8000CB88EBB94B887F2B1AD803F07F0590F8D1
:103A90009C32DBB2032B0CD080F89E522946FCF7F7
:103AA000CFFF204600F0B7FA35B1022384F89C32EC
:103AB00009E0FFF7BDFE06E0012384F89C3202E036
:103AC0002046FFF7B5FE38BD70B504460E468D782A
:103AD0002F4B1D70012D10D890F89C32DBB2022BB9
:103AE0000FD0032B26D0FFF7A3FE294B19782046D1
:103AF000FFF7F4FB0325284670BDFFF799FE032569
:103B0000F9E7A5B145602946FFF7C5FB054638B181
:103B100031462046FFF78CFE022384F89C32EAE708
:103B2000204600F078FA032384F89C32E3E700F0A3
:103B300072FAE0E7CDB141688D4225D0C9B2FFF7F6
:103B4000CDFB134B197861602046FFF7A4FB0546B7
:103B5000B0B131462046FFF76BFE21792046FFF7D2
:103B6000BDFB022384F89C32C5E7022380F89C3217
:103B700045602946FFF7B2FB204600F04CFABAE751
:103B8000204600F048FAB6E700F045FA0025B2E713
:103B9000681B002008B5CB88012B0BD190F89C3214
:103BA000DBB2022B09D9032B09D10122011D00F040
:103BB00006FA01E0FFF73CFE08BD5BB213B9FFF760
:103BC00037FEF9E70146002341F8083F012200F0E3
:103BD000F6F9F1E708B590F89C32013B022B12D8B8
:103BE000CB88022B0CD10123C360D0F8A4320BB1D7
:103BF0000323C360022200F10C0100F0E0F908BDCC
:103C0000FFF716FEFBE7FFF713FEF8E708B54B8852
:103C1000012B04D0022B07D0FFF70AFE08BDC0F825
:103C2000A43200F0F8F9F9E78B881B0A80F8A0327B
:103C300000F0F1F9F2E708B590F89C32013B022B55
:103C400009D84B88012B00D008BD0023C0F8A4324E
:103C500000F0E1F9F8E7FFF7EBFDF5E738B50C7890
:103C600004F06004202C06D0402C04D06CB1FFF787
:103C7000DFFD002407E0D0F8F832AE3350F82330EF
:103C80009B6898470446204638BD4D78092D1DD8BD
:103C9000DFE805F012191C161C08051C0F0BFFF7B6
:103CA000D1FDF0E7FFF7E8FEEDE7FFF70DFF044673
:103CB000E9E7FFF76FFFE6E7FFF78CFF2C46E2E747
:103CC000FFF7A4FFDFE7FFF7B6FFDCE7FFF7B0FD84
:103CD000D9E770B505460C460B7803F06003202B3E
:103CE00007D0402B05D023B1FFF7A2FD00263046B8
:103CF00070BD95F89C32013B022B27D8217903290E
:103D00001ED82846FFF70FFC03280DD800F1AE039C
:103D100055F823309A688AB1C5F8F8029B682146A5
:103D200028469847064600E00326E388002BDED1AC
:103D3000002EDCD1284600F06EF9D8E70326F4E720
:103D400021462846FFF774FD0026D0E72146284685
:103D5000FFF76EFD0026CAE72DE9F04106460D4645
:103D60008B88DFB20C7804F06004202C08D0402C43
:103D700006D0D4B1FFF75CFD00242046BDE8F081F9
:103D800039463046FFF7FDFB032800F2F780C6F8FE
:103D9000F802AE3056F820309B68002B00F0F0801F
:103DA0002946304698470446E7E791F80180B8F184
:103DB000010F31D0B8F1030F05D0B8F1000F66D074
:103DC000FFF736FDD9E790F89C32DBB2022B04D026
:103DD000032B12D0FFF72CFDCFE70FB1802F04D1BA
:103DE00029463046FFF724FDC7E73946FCF718FEA1
:103DF00080213046FCF714FEBFE74B8823B91FB182
:103E0000802F01D0CB881BB1304600F004F9B4E715
:103E10003946FCF705FEF7E790F89C32DBB2022B3F
:103E200004D0032B12D0FFF703FDA6E70FB1802FBC
:103E300004D129463046FFF7FBFC9EE73946FCF7E4
:103E4000EFFD80213046FCF7EBFD96E74B88002B19
:103E500093D117F07F0F16D1304600F0DCF83946C9
:103E60003046FFF78EFB032887D8C6F8F802AE303D
:103E700056F820309B68002B3FF47FAF2946304630
:103E80009847044679E73946FCF7D2FDE4E790F815
:103E90009C22D2B2022A05D0032A27D0FFF7C8FC01
:103EA00044466AE70FB1802F13D113F0800F14D16D
:103EB00007F07F0707EB8707B90001F5A8713144C8
:103EC000043100230B600222304600F078F84446AB
:103ED00053E7FFF7ADFC44464FE707F07F0707EBDA
:103EE0008707B900103131440431EAE75BB2002B97
:103EF0001FDB07F00F0202EB820200EB8202B2F836
:103F000064211AB3002B25DB07F07F0303EB830347
:103F10009C0004F5A874344404340FB1802F22D1DE
:103F20000023236002222146304600F048F8444630
:103F300023E707F00F0202EB820200EB8202928C71
:103F4000002ADFD1FFF774FC444616E7FFF770FC48
:103F5000444612E707F07F0303EB83039C00103411
:103F600034440434D9E739463046FCF717FD10B124
:103F700001232360D6E700232360D3E70024FCE677
:103F80000024FAE6D0B170B50D4616460446FFF798
:103F900031FC431C5B009BB233802B7003236B709E
:103FA000022307E0EA5401345A1CD2B20021A9547A
:103FB0000233DBB22278002AF4D170BD704708B515
:103FC00013460222C0F894228361C3610A4600218D
:103FD000FCF73EFD002008BD08B513460A46002147
:103FE000FCF736FD002008BD08B513460322C0F8D3
:103FF0009422C0F85831C0F85C310A460021FCF721
:104000002FFD002008BD08B513460A460021FCF725
:1040100027FD002008BD08B50422C0F89422002323
:104020001A461946FCF714FD002008BD08B5052204
:10403000C0F8942200231A461946FCF711FD00200F
:1040400008BD10B5D0F8F83203F1B20200EB8202DD
:10405000546894B1B63300EB830043687BB194F8A5
:104060000002FF280DD09B6894F801222146984752
:10407000FF2384F80032002010BD0320FCE700205D
:10408000FAE70020F8E738B5D0F8F832B23300EBA1
:1040900083035D6895B10446FCF797FCC5F80C02F4
:1040A000D4F8F832B63304EB83046368DB6805F5B3
:1040B0000371D5F804029847002038BD0320FCE7BF
:1040C00038B5D0F8EC52D0F8F832B23300EB8303B5
:1040D0005C6884B301F00F0303EB830200EB820200
:1040E00092694AB103EBC30C05EB8C05AD6CB2FBD6
:1040F000F5FC05FB1C2292B10023C4F81432D0F861
:10410000F832B63300EB830043681B69ABB10A4653
:1041100004F50471D4F808029847002038BD03EB79
:10412000830300EB830300249C6123462246FCF7B3
:104130008FFC2046F2E70320F0E70020EEE7F0B521
:1041400083B00D46D0F8F81201F1B20300EB8303FF
:104150005F6800238DF80730ADF80430002F7AD067
:1041600004462B7813F0600634D0202E6CD1EA88F8
:104170002AB313F0800F07D16B7887F80032EA88F2
:104180003F2A13D8D2B212E0B63100EB81014B685E
:104190009B68394668789847EA88072A28BF07222B
:1041A00039462046FFF70BFF002651E0402287F8F2
:1041B000012239462046FFF717FF002648E0B631B6
:1041C00000EB810463689B68002229466878984761
:1041D00000263DE06F780B2F31D8DFE807F0063975
:1041E0003030303030303030162690F89C32DBB230
:1041F000032B04D02946FFF71BFB032628E00222ED
:1042000001A9FFF7DCFE3E4622E090F89C32DBB2CB
:10421000032B04D02946FFF70BFB032618E00122ED
:104220000DF10701FFF7CBFE12E090F89C32DBB2F4
:10423000032B0DD02946FFF7FBFA032608E0294699
:10424000FFF7F6FA032603E02946FFF7F1FA032603
:10425000304603B0F0BD0326FAE70000F8B5044687
:1042600002228021FFF791FA2B4D287002220021B3
:104270002046FFF78AFA294F387003228021204612
:10428000FFF783FA264E307029782046FCF7C0FBF2
:104290002B7803F00F0303EB830304EB8303002568
:1042A0009D8439782046FCF7B3FB3B7803F00F037D
:1042B00003EB830304EB8303A3F8645131782046B6
:1042C000FCF7A6FB337803F00F0303EB830204EB48
:1042D00082029584D584D4F8F83203F1B20204EB5B
:1042E00082025268AAB1B63304EB83035B685B6851
:1042F0009847D4F8F832B23304EB8303586800F0DF
:104300009DFBD4F8F832B23304EB83035D60C4F84C
:10431000C8520020F8BD00BF21000020220000206C
:1043200020000020F8B504464FF4077000F07EFB33
:10433000002800F0818005464FF40772002100F04C
:1043400085FBD4F8F832B23304EB83035D60C4F824
:10435000C852022280212046FFF717FA554B1870E9
:10436000022200212046FFF710FA534B1870032257
:1043700080212046FFF709FA504B1870237C002B50
:1043800063D14C4E4FF40073022231782046FCF783
:1043900034FB337803F00F0303EB830304EB830355
:1043A00001269E84444F4FF4007302223978204640
:1043B000FCF723FB3B7803F00F0303EB830304EBD1
:1043C0008303A3F864613D4B1B7803F00F0303EBF9
:1043D000830304EB83031022DA84384E082303227C
:1043E00031782046FCF709FB337803F00F0303EB29
:1043F000830304EB830301229A840026C5F8046238
:10440000D4F8F832B63304EB83035B681B68984733
:10441000C5F81462C5F81862D5F80422002A47D0FE
:10442000257C002D3CD14FF40073234909782046A8
:10443000FCF716FB2846F8BDD4F8F832B23304EB8B
:104440008304002363600225F4E71A4E402302220E
:1044500031782046FCF7D1FA337803F00F0303EBF1
:10446000830304EB830301269E84134F402302221F
:1044700039782046FCF7C1FA3B7803F00F0303EBD1
:10448000830304EB8303A3F864610C4B1B7803F0F4
:104490000F0303EB830304EB83031022DA849CE70E
:1044A0004023054909782046FCF7DAFA0025C1E7E0
:1044B0000225BFE72100002022000020200000206C
:1044C00081B110B4D0F8F8325A1EC0F8F82203F1C6
:1044D000B50200EB82025160C0F8F83200205DF8AE
:1044E000044B704703207047D0F8F832B23300EB2A
:1044F000830043682BB1C3F80812C3F810220020D0
:10450000704703207047D0F8F832B23300EB8300D5
:1045100043681BB1C3F804120020704703207047A2
:1045200070B50446D0F8F832B23300EB83035E680E
:1045300002220021FFF729F90F4B1870D4F8F83246
:10454000B23304EB83035B689BB10146257C45B91C
:104550004FF40073D6F804222046FCF781FA28466F
:1045600070BD4023D6F804222046FCF779FA0025D6
:10457000F5E70325F3E700BF220000200020704785
:1045800000207047002070470020704700207047CF
:1045900038B504468321FCF73BFA0025A4F8A05166
:1045A00003212046FCF734FAA4F8A051D4F8F832DD
:1045B00003F1B20204EB82025268AAB1B63304EBF3
:1045C00083035B685B689847D4F8F832B23304EB36
:1045D0008303586800F032FAD4F8F832B23304EBAF
:1045E00083035D60C4F8C852002038BD70B504462E
:1045F0004FF4077000F01AFAA8B305464FF407729B
:10460000002100F023FAD4F8F832B23304EB83032C
:104610005D60C4F8C8524023022283212046FCF783
:10462000ECF94023022203212046FCF7E6F901239E
:10463000A4F860300026C5F80462D4F8F832B63326
:1046400004EB83035B681B689847C5F81462C5F8E0
:104650001862D5F804227AB1402303212046FCF7E2
:10466000FFF9304670BDD4F8F832B23304EB83045E
:10467000002363600220F5E70220F3E7D0F8F83268
:10468000B23300EB830043682BB1C3F80812C3F8C0
:1046900010220020704703207047D0F8F832B23360
:1046A00000EB830043681BB1C3F80412002070477D
:1046B0000320704710B5064C002206492046FFF73C
:1046C000DDFF05492046FFF7E8FF002010BD00BFD1
:1046D000780200206C2300206C1B002081B110B4F4
:1046E000D0F8F8325A1EC0F8F82203F1B50200EBF8
:1046F00082025160C0F8F83200205DF8044B704728
:104700000320704712230B8000487047640100208B
:1047100004230B8000487047780100200023934257
:104720001ED200B510E00CF1370C01F813C00001E7
:104730004FEA430C0CF1010C4FF0000E01F80CE0B5
:104740000133DBB2934209D24FEA107CB0F1204F23
:10475000E9D20CF1300C01F813C0E8E75DF804FB76
:104760007047000038B50B4BD3F8100AD3F8144A41
:10477000D3F8183AC01800D138BD074D0822A91C3B
:10478000FFF7CCFF042205F112012046FFF7C6FF18
:10479000F2E700BF0070FF1F7C01002008B51A235C
:1047A0000B80FFF7DFFF014808BD00BF7C01002040
:1047B0006A23038000487047EC0000206A230380CE
:1047C00000487047EC0000206A23038000487047CF
:1047D000EC0000200A2303800048704758010020A5
:1047E00010B50A46034C21460348FFF7CBFB204691
:1047F00010BD00BF6C2B00204C5B000808B50A46BA
:1048000028B905490548FFF7BDFB034808BD024923
:104810000248FFF7B7FBF8E76C2B00205C5B000851
:1048200008B50A4628B905490548FFF7ABFB034818
:1048300008BD02490248FFF7A5FBF8E76C2B0020F2
:10484000745B000808B50A4628B905490548FFF712
:1048500099FB034808BD02490248FFF793FBF8E7BC
:104860006C2B0020885B000830B4022A0CD00D2A83
:104870003FD0D0F8F832C3EBC30300EBC3000023F2
:10488000C0F8343330BC7047D0F8F822C2EBC20312
:1048900000EBC303022483F800430121C3F808138B
:1048A0000325C3F80C534FF0820C83F810C383F830
:1048B0001153082583F8125383F8131383F8141344
:1048C00083F815434FF0400C83F816C383F8171391
:1048D000812583F8185383F8194383F81AC383F8A2
:1048E0001B13C3F82843002483F82C4383F82D13AB
:1048F000BFE7D0F8F822C2EBC20300EBC3030D21DF
:1049000083F800130124C3F808430221C3F80C13F1
:10491000032583F8105383F811134FF0400C83F8EC
:1049200012C383F81343832583F8145383F81513B4
:1049300083F816C383F81743C3F8284383F82C136E
:1049400097E7000038B50C461546002313800C4845
:1049500000F064F9062C03D0072C09D0002038BDE4
:10496000084C2A4621460848FFF70CFB2046F6E78C
:10497000044C2A4621460548FFF704FB2046EEE793
:104980009C5B00086C2B0020A85B0008B85B00084B
:10499000DFF834D00D480E490E4A002302E0D45807
:1049A000C4500433C4188C42F9D30B4A0B4C002377
:1049B00001E013600432A242FBD3FEF7F7FB00F0E4
:1049C00011F8FBF739FE70470000022000000020BC
:1049D00018020020805C000818020020802D0020B2
:1049E000FEE7000070B50D4D0D4C641BA4100026B1
:1049F000A64209D10B4D0C4C01F06AF8641BA410BF
:104A00000026A64205D170BD55F8043B98470136F3
:104A1000EEE755F8043B98470136F2E7785C00086A
:104A2000785C0008785C00087C5C0008024B01465A
:104A3000186800F07FB800BFB4010020024B0146A7
:104A4000186800F00BB800BFB40100200244034610
:104A5000934200D1704703F8011BF9E737B50029ED
:104A600044D051F8043C0190002BA1F10404B8BFDC
:104A7000E41800F051FC1E4A0198136833B96360D2
:104A8000146003B0BDE8304000F04CBCA34208D92C
:104A9000256861198B4201BF19685B68491921605B
:104AA000EDE71A465B680BB1A342FAD911685518B5
:104AB000A5420BD1246821445418A3421160E0D1CF
:104AC0001C685B68536021441160DAE702D90C234B
:104AD0000360D6E7256861198B4204BF19685B68DB
:104AE000636004BF491921605460CAE703B030BD58
:104AF0006C2D002070B50E4E0C463168054611B97C
:104B000000F01AF930602146284600F015F9431CE0
:104B10000AD0C41C24F00304A04207D0211A28465E
:104B200000F00AF9013001D14FF0FF34204670BD8A
:104B3000702D00202DE9F041CD1C25F0030508352E
:104B40000C2D38BF0C25002D074601DBA94205D9E5
:104B50000C233B6000263046BDE8F0812E4E00F06D
:104B6000DBFB33681C4634BB29463846FFF7C2FFDF
:104B7000431C04464DD134682646002E40D123689C
:104B80003146384604EB030800F0D6F880453AD1A8
:104B9000216803356D1A25F0030508350C2D38BF43
:104BA0000C2529463846FFF7A5FF01302BD0236896
:104BB0002B4423600EE02268521B1ED40B2A16D908
:104BC0006119A342256018BF5960636808BF31604E
:104BD00062514B60384604F10B0600F0A3FB26F04F
:104BE0000706231DF21AB6D09B1BA350B3E76268D9
:104BF000A3420CBF32605A60ECE723466468B2E718
:104C000034467668B9E70C233B60384600F08AFBEF
:104C1000A1E72560DEE700BF6C2D00200FB40A4B32
:104C200013B51C6824B1A36913B9204600F06EFACD
:104C300005AB049AA1680193204600F0A3FB02B0E3
:104C4000BDE8104004B07047B401002070B50E46B6
:104C5000054618B183690BB900F058FAAB69AC6826
:104C600013B9284600F052FA2C4B9C4220D16C68B4
:104C7000636EDB0705D4A389980502D4A06D00F00C
:104C8000E3FAA38919071DD52369DBB1013EA368A7
:104C900016F8011F013BA36039BB002B38DA22460E
:104CA0000A21284600F058F8013011D00A2511E0F9
:104CB0001B4B9C4201D1AC68DAE71A4B9C4208BFFF
:104CC000EC68D5E72146284600F098F80028DDD0AA
:104CD0004FF0FF35636EDA0705D4A3899B0502D434
:104CE000A06D00F0B2FA284670BD002B04DAA2696C
:104CF0009A4206DC0A2904D023685A1C22601970E3
:104D0000C5E72246284600F027F80130BFD1DFE78B
:104D100023680A255A1C22601D70DBE7FC5B000833
:104D20001C5C0008DC5B0008024B01461868FFF7BA
:104D30008DBF00BFB401002038B5064D00230446E6
:104D400008462B6000F0B6FE431C02D12B6803B16D
:104D5000236038BD782D0020F8B50E461446054670
:104D600018B183690BB900F0D1F9214B9C422BD1CA
:104D70006C68A369A360A3891A072FD523696BB355
:104D800023692068C01A6369F6B28342374604DC9F
:104D90002146284600F026F930BBA368013BA360FA
:104DA00023685A1C22601E7063690130834204D05C
:104DB000A389DB0706D50A2E04D12146284600F038
:104DC00011F988B93846F8BD0A4B9C4201D1AC684C
:104DD000CFE7094B9C4208BFEC68CAE7214628464A
:104DE00000F00CF80028CBD04FF0FF37EAE700BF07
:104DF000FC5B00081C5C0008DC5B0008324B70B5F3
:104E00001D6806460C4625B1AB6913B9284600F06B
:104E10007DF92E4B9C420FD16C68A389B4F90C200C
:104E200019072CD4DD0611D40923336042F0400366
:104E3000A3814FF0FF303EE0254B9C4201D1AC688E
:104E4000EBE7244B9C4208BFEC68E6E7580712D515
:104E5000616B41B104F14403994202D03046FFF73F
:104E6000FDFD00236363A38923F02403A3810023B2
:104E7000636023692360A38943F00803A381236946
:104E80004BB9A38903F42073B3F5007F03D0214607
:104E9000304600F001FAA089B4F90C2010F00103AB
:104EA0000AD00023A36063695B42A361236943B90D
:104EB00010F08000BAD170BD810758BF6369A3604C
:104EC000F4E70020F7E700BFB4010020FC5B000816
:104ED0001C5C0008DC5B00088A892DE9F04105466E
:104EE00010070C4658D44B68002B05DC0B6C002BCC
:104EF00002DC0020BDE8F081E66A002EF9D0002334
:104F000012F480522F682B6032D0606DA3895A074B
:104F100005D56368C01A636B0BB1236CC01A0023FC
:104F20000246E66A216A2846B047431CA38906D197
:104F300029681D292CD82A4ACA40D60728D500221C
:104F40006260D9042269226004D5421C01D12B6819
:104F500003B96065616B2F600029CAD004F1440376
:104F6000994202D02846FFF779FD00206063C1E72F
:104F7000216A01232846B047411CC7D12B68002B6A
:104F8000C4D01D2B01D0162B01D12F60B1E7A3890E
:104F900043F04003A381ADE70F69002FA9D0930729
:104FA0000E6808BF4B690F6018BF0023A6EB070807
:104FB0008B60B8F1000F9CDD216AA66A43463A4631
:104FC0002846B047002806DCA38943F04003A381AC
:104FD0004FF0FF308EE70744A8EB0008E9E700BF79
:104FE0000100402038B50B6905460C4613B9002571
:104FF000284638BD18B183690BB900F087F8144B07
:105000009C421BD16C68B4F90C30002BEFD0626E5F
:10501000D00704D4990502D4A06D00F015F92846F4
:105020002146FFF759FF636EDA070546E0D4A389EE
:105030009B05DDD4A06D00F008F9D9E7054B9C4233
:1050400001D1AC68DFE7044B9C4208BFEC68DAE7AB
:10505000FC5B00081C5C0008DC5B0008002310B54A
:105060000446C0E90033C0E90433836081814366AC
:10507000C2818361194608225C30FFF7E7FC054BCB
:105080006362054BA362054BE362054B2462236315
:1050900010BD00BF0D5900082F59000867590008BE
:1050A0008B590008014900F0AFB800BFE54F000878
:1050B00070B568224D1E55430E4605F17401FFF789
:1050C00039FD044640B10021C0E900160C30A06053
:1050D00005F16802FFF7BAFC204670BD014800F0F8
:1050E000B3B800BF752D0020014800F0AEB800BF76
:1050F000752D0020014800F0A7B800BF762D0020D4
:10510000014800F0A2B800BF762D002010B504467B
:10511000FFF7F0FFA3691BB1BDE81040FFF7F0BF38
:10512000C4E912332365134B134A1B68A262A342DE
:1051300004BF0123A361204600F020F860602046F0
:1051400000F01CF8A060204600F018F80022E06093
:1051500004216068FFF782FFA06801220921FFF7A0
:105160007DFFE06802221221FFF778FF0123A3618F
:10517000D2E700BFD85B0008A5500008F8B5074685
:10518000FFF7ACFF1E4B1E68B36913B93046FFF73B
:10519000BDFF4836D6E90134013B03D533680BB374
:1051A0003668F7E7B4F90C50D5B9164BE36004F153
:1051B0005800656600F047F8FFF796FFC4E901550F
:1051C000C4E904552560A5610822294604F15C0064
:1051D000FFF73CFCC4E90D55C4E912552046F8BD63
:1051E0006834D9E704213846FFF762FF044630608F
:1051F0000028D5D1FFF778FF0C233B60EEE700BF16
:10520000D85B00080100FFFF2DE9F84306468846F9
:1052100000F148040027D4E90195B9F1010905D549
:105220002468002CF7D13846BDE8F883AB89012B00
:1052300007D9B5F90E30013303D029463046C047AF
:1052400007436835E9E770477047704770B50E4609
:10525000B1F90E10002996B014461D4608DAB6F9C9
:105260000C3000222A601A0610D44FF480630EE03E
:105270006A4600F0B1FB0028F1DB019A02F47042AB
:10528000A2F500535A425A412A60EEE7402300201B
:10529000236016B070BD00008B8973B59D0706466C
:1052A0000C4607D504F147032360236101236361A2
:1052B00002B070BD01AB6A46FFF7C8FF0099054612
:1052C0003046FFF737FC48B9B4F90C309A05EFD4F3
:1052D00023F0030343F00203A381E3E70D4BB36222
:1052E000A389206043F08003A381009B6361019B3D
:1052F00020615BB1B4F90E10304600F07FFB28B19D
:10530000A38923F0030343F00103A381A08905438C
:10531000A581CDE7A55000080148FFF795BF00BF64
:10532000742D00200148FFF790BF00BF742D0020AE
:105330009368013B002B10B4936008DA9469A34290
:1053400001DB0A2903D15DF8044BFFF705BD1368A3
:10535000581C1060197008465DF8044B7047F8B58A
:1053600006460F461446D518AC4201D1002007E08E
:1053700014F8011B3A463046FFF7DAFF431CF3D11D
:10538000F8BD00002DE9F04F0D469DB0144698463B
:10539000064618B183690BB9FFF7B8FE894B9D42E9
:1053A0001BD175686B6ED90705D4AB899A0502D4F9
:1053B000A86DFFF749FFAB891B0701D52B69EBB936
:1053C00029463046FFF71AFDC0B16B6EDC070ED5DB
:1053D0004FF0FF301DB0BDE8F08F7B4B9D4201D1F7
:1053E000B568DFE7794B9D4208BFF568DAE7AB891E
:1053F0009805EDD4A86DFFF728FFE9E7002309938E
:1054000020238DF82930CDF80C803023DFF8C081BF
:105410008DF82A304FF0010923469A4613F8012BE4
:105420000AB1252AF9D1BAEB040B0BD05B46224610
:1054300029463046FFF793FF013000F0AA80099A11
:105440005A4409929AF80030002B00F0A280002301
:105450004FF0FF32CDE905230AF1010A04930793C7
:105460008DF853301A935446052214F8011B5848FE
:10547000FAF7AEFE049AD8B9D10644BF20238DF8BE
:105480005330130744BF2B238DF853309AF8003064
:105490002A2B15D0079A544600204FF00A0C2146BB
:1054A00011F8013B303B092B4ED9B0B1079214E003
:1054B000A0EB080309FA03F313430493A246D2E7CF
:1054C000039B191D1B680391002BBBBF5B4242F07D
:1054D000020207930793B8BF049223782E2B0CD1B6
:1054E00063782A2B35D1039B1A1D1B680392002B6E
:1054F000B8BF4FF0FF3302340593DFF8E4A0217802
:1055000003225046FAF764FE40B14023A0EB0A00A4
:1055100003FA00F0049B03430134049314F8011BC5
:105520002C488DF828100622FAF752FE00283FD0AA
:10553000294B1BBB039B073323F00703083303935B
:10554000099B3B44099367E70CFB02320C460120A0
:10555000A5E700230134059319464FF00A0C2046B5
:1055600010F8012B303A092A03D9002BC5D0059138
:10557000C3E70CFB012104460123F0E703AB0093D2
:105580002A46164B04A93046AFF300800746781C24
:10559000D6D16B6ED90705D4AB899A0502D4A86D14
:1055A000FFF753FEAB895B063FF512AF099811E791
:1055B00003AB00932A46094B04A9304600F080F85B
:1055C000E4E700BFFC5B00081C5C0008DC5B000833
:1055D0003C5C0008465C0008000000005F530008C7
:1055E000425C00082DE9F047164699468A680B6927
:1055F000DDF820809342B8BF1346336091F8432012
:1056000007460C460AB1013333602368990642BF4E
:10561000336802333360256815F0060506D104F1BE
:10562000190AE36832689B1AAB4226DC94F84320DF
:10563000131E226818BF012392062BD404F14302E3
:1056400049463846C04701301ED02368E5683268B5
:1056500003F00603042B08BFAD1AA36822690CBF30
:1056600025EAE57500259342C4BF9B1AED18002674
:105670001A34B5421AD1002008E0012352464946A7
:105680003846C047013003D14FF0FF30BDE8F08706
:105690000135C6E7E1185A1C302081F84300224446
:1056A00094F8451082F843100233C7E701232246DD
:1056B00049463846C0470130E6D00136D9E70000F8
:1056C0002DE9FF470F7E0C9D782F914680460C46B2
:1056D0009A4601F1430207D8622F0AD8002F00F042
:1056E000D880582F00F0A38004F1420584F842705E
:1056F0003AE0A7F16303152BF6D801A151F823F086
:10570000595700086D570008E9560008E956000887
:10571000E9560008E95600086D570008E9560008E8
:10572000E9560008E9560008E956000879580008CB
:105730009D5700085B580008E9560008E956000824
:105740009B580008E95600089D570008E9560008D4
:10575000E9560008635800082B681A1D1B682A6068
:1057600004F1420584F842300123A3E0206829684F
:10577000060601F104030AD50E682B60002E03DA39
:105780002D23764284F843305E480A2319E00E68E0
:105790002B6010F0400F18BF36B2EFE72B6820687F
:1057A000191D2960010601D51E6802E04606FBD5D9
:1057B0001E8854486F2F0CBF08230A23002184F849
:1057C00043106568A560002DA2BF216821F0040187
:1057D00021600EB9002D4DD01546B6FBF3F103FB49
:1057E0001167C75D05F8017D3746BB420E46F4D907
:1057F000082B0BD12368DE0708D52369616899421D
:10580000DEBF302305F8013C05F1FF35521B226154
:10581000CDF800A04B4603AA21464046FFF7E2FE22
:1058200001304CD14FF0FF3004B0BDE8F08735486F
:1058300081F845702968236851F8046B29601D06BA
:1058400014D5DF0744BF43F0200323601EB923684B
:1058500023F0200323601023B0E7236843F02003E4
:1058600023607823284884F84530E3E7590648BF89
:10587000B6B2E6E71546BBE72B6826686169181DD6
:10588000286035061B6801D5196002E07006FBD55B
:105890001980002323611546BAE72B681A1D2A6078
:1058A0001D68626800212846FAF792FC08B1401B87
:1058B000606063682361002384F84330A8E72369AC
:1058C0002A4649464046D0470130ABD023689B0763
:1058D00013D4E068039B9842B8BF1846A4E701239D
:1058E000324649464046D04701309BD00135E368F7
:1058F00003995B1AAB42F2DCEBE7002504F11906D1
:10590000F5E700BF4D5C00085E5C000810B50C4672
:10591000B1F90E1000F094F80028ABBF636DA389B5
:105920001B1823F48053ACBF6365A38110BD2DE920
:10593000F0411F468B89DB0505460C46164605D50A
:10594000B1F90E100223002200F068F8A389B4F91F
:105950000E1023F48053A38132463B462846BDE80F
:10596000F04100F017B810B50C46B1F90E1000F078
:1059700055F8431CA38915BF606523F4805343F495
:105980008053A38118BFA38110BDB1F90E1000F0A0
:1059900013B8000038B5074D0446084611460022EA
:1059A0002A601A46FAF7E6FD431C02D12B6803B1C0
:1059B000236038BD782D002038B5064D00230446FD
:1059C00008462B6000F04EF8431C02D12B6803B14F
:1059D000236038BD782D002038B5074D00230446DC
:1059E000084611462B6000F045F8431C02D12B6895
:1059F00003B1236038BD00BF782D002038B5064DB7
:105A00000023044608462B6000F03CF8431C02D1FA
:105A10002B6803B1236038BD782D002038B5074DC1
:105A200004460846114600222A601A4600F032F861
:105A3000431C02D12B6803B1236038BD782D0020B0
:105A400038B5074D04460846114600222A601A461A
:105A500000F028F8431C02D12B6803B1236038BD45
:105A6000782D0020024B58221A604FF0FF3070470B
:105A7000782D0020024B58221A604FF0FF307047FB
:105A8000782D0020024B58221A600020704700BF7A
:105A9000782D0020024B58221A604FF0FF307047DB
:105AA000782D0020024B58221A604FF0FF307047CB
:105AB000782D0020044A05491368002B08BF0B46C7
:105AC00018441060184670477C2D0020802D00205F
:105AD000F8B500BFF8BC08BC9E467047F8B500BFDB
