:020000040800F2
:1000000000180020D13500088D2300088F23000838
:1000100000000000000000000000000000000000E0
:100020000000000000000000000000009123000814
:100030000000000000000000932300089523000842
:100040005136000851360008513600085136000874
:100050005136000851360008513600085136000864
:100060005136000899230008A523000851360008DE
:100070005136000851360008513600085136000844
:10008000513600080000000000000000DD230008D9
:10009000000000005136000851360008F123000826
:1000A00000000000513600085136000851360008A3
:1000B0005136000800000000513600085136000893
:1000C00010B5064C2378002B07D1054B002B02D02E
:1000D000044800E000BF0123237010BD6800002029
:1000E000000000006C370008044B10B5002B03D053
:1000F0000349044800E000BF10BDC04600000000F6
:100100006C0000206C370008002243088B4274D337
:1001100003098B425FD3030A8B4244D3030B8B4208
:1001200028D3030C8B420DD3FF22090212BA030C11
:100130008B4202D31212090265D0030B8B4219D3F2
:1001400000E0090AC30B8B4201D3CB03C01A524112
:10015000830B8B4201D38B03C01A5241430B8B425A
:1001600001D34B03C01A5241030B8B4201D30B0343
:10017000C01A5241C30A8B4201D3CB02C01A52416A
:10018000830A8B4201D38B02C01A5241430A8B422D
:1001900001D34B02C01A5241030A8B4201D30B0216
:1001A000C01A5241CDD2C3098B4201D3CB01C01A30
:1001B000524183098B4201D38B01C01A524143093A
:1001C0008B4201D34B01C01A524103098B4201D328
:1001D0000B01C01A5241C3088B4201D3CB00C01A95
:1001E000524183088B4201D38B00C01A524143080D
:1001F0008B4201D34B00C01A5241411A00D2014632
:10020000524110467047FFE701B5002000F006F8A4
:1002100002BDC0460029F7D076E770477047C04658
:10022000844608006146FFE71FB500F055FB002833
:1002300001D40021C8421FBD10B500F0E1FA4042D0
:10024000013010BD10B500F047FB002801DB002095
:1002500010BD012010BDC04610B500F03DFB0028C8
:1002600001DD002010BD012010BDC04610B500F01A
:10027000EDFA002801DC002010BD012010BDC046B1
:1002800010B500F0E3FA002801DA002010BD0120CB
:1002900010BDC046F0B5C64643025B0A4E0245009B
:1002A0004F00DA00C40F9C46700A904600B52D0E30
:1002B0003F0EC90FB6098C424BD0EA1B002A36DD2F
:1002C000002F61D0FF2D00D1ADE08023DB041E4361
:1002D0001B2A00DCD3E001204346181A430100D456
:1002E0008CE080018709380001F0F0FD0538874077
:1002F000854200DCB6E02D1AB3483840430704D0ED
:100300000F230340042B00D00430430100D478E0D5
:100310006A1CFE2D65D08001430A9C46D2B263461A
:10032000D0051843E407204380BCB846F0BD002A3E
:1003300035D07A1B002D00D0AFE04346002B00D112
:10034000A7E0531E012A00D12FE1FF2A69D01A002D
:10035000AAE0E91B002970DD002F37D0FF2D62D005
:100360008023DB041E431B2900DCB0E00120404455
:10037000430143D50135FF2D33D00123934A034078
:10038000400810401843B9E7002E00D183E0511E09
:10039000012A00D1D8E0FF2A45D00A0098E7FE27BD
:1003A0006A1C174200D086E0002D00D0B7E043461B
:1003B000002B00D1F3E00022002EB0D0981B4301A7
:1003C00000D4FAE043460C00F01A97E7002E00D163
:1003D000C8E04A1E012900D1AEE0FF2923D0110058
:1003E000C1E70023FF229C4699E7FE216A1C1142C7
:1003F00077D0FF2AF5D0150046447008430700D097
:100400007EE7C308FF2D0ED05B025B0A9C46EAB272
:1004100085E7002E07D08022D203134203D010427A
:1004200001D10C000300002BDBD08020C003184357
:100430004002430A9C46FF2271E70029D5D07A1B6F
:10044000002D60D14346002B24D0531E012A73D0C7
:10045000FF2AE7D01A001B2A00DC85E001203D00BE
:10046000801985E720233A00451B38000135EA4012
:100470005D1BA840431E9841002510433EE7202302
:1004800030009B1A31009840D140431E98410843E8
:1004900022E70C0003001500B4E7FF2FC1D0802332
:1004A0004046DB04184380461B2A51DD01200C0026
:1004B0003D00301A12E743469F1B7B012BD4002FCF
:1004C00000D010E70023002400229C4627E72023C9
:1004D00032003000CA40591A8840431E98411043E8
:1004E00045E7002D4AD14346002B63D00022002E61
:1004F00000D114E730004044430100D47EE7324B82
:10050000013518407AE7FF2F8CD080234146DB0469
:10051000194388469FE743460C00F71AE3E6424634
:10052000002A00D075E7002E00D07AE78023DB0395
:1005300000249C46FF22F2E630004044012543019E
:1005400000D45BE7022518E743460125981BC5E662
:10055000202344464046D4409A1A9040431E984176
:100560002043A4E70D004DE7202341464046D140FB
:100570009A1A9040431E9841084370E74246002A69
:1005800000D14FE7002E00D14DE78022D203134265
:1005900000D148E7104200D045E7030043E7002EB2
:1005A00090D00C0084460022B9E643460C00F01AB5
:1005B000013593E684460022B1E6002800D01DE70D
:1005C000002300249C46AAE6FFFFFFFBFFFFFF7D00
:1005D000F0B54F464646D6464502C0B547000C1C0E
:1005E0006D0A3F0EC60F002F00D170E0FF2F00D123
:1005F00075E0EB008025ED041D43002399469A46E3
:100600007F3F6002430A984663001B0EE40F002BF5
:100610004ED0FF2B46D04246D0008022D204024367
:10062000904600227F3B3100FF1A4B466140C9B221
:1006300013430F2B00D9B5E06E489B00C3589F466B
:10064000002398462600454692465346022B00D189
:1006500089E0032B00D19EE0012B18D03B007F33B3
:10066000002B69DD6A0704D00F222A40042A00D03B
:1006700004352A0103D5604B1D403B008033FE2B1F
:1006800000DD70E0AD016D0AD8B202E00E0000207E
:100690000025C0052843F6073043E0BCBA46B14602
:1006A000A846F0BD4346002B3FD10222FF3F03E0A6
:1006B0004346002B2DD1012231004B466140C9B287
:1006C00013430F2B34D84D489B00C3589F46002D31
:1006D00013D104239946033B00279A4691E7002D46
:1006E00005D108239946063BFF279A4689E70C2344
:1006F0009946093BFF279A4683E7280001F0E6FB6D
:100700007627431F9D4000237F4299469A463F1A11
:1007100077E7404601F0DAFB4246431F9A407623D2
:100720005B4290461B1A00227DE7FF2303227AE7F3
:100730000E00FF200025ACE70120C01A1B28A6DC14
:100740009E372A00BD40C2406B1E9D4115436B077A
:1007500004D00F232B40042B00D004356B0144D56B
:100760000120002595E7FF20002592E7802500263F
:10077000FF20ED038DE7002398468020C00305424B
:1007800009D04346034206D1454605436D02260083
:10079000FF206D0A7DE78020C00305436D02FF2026
:1007A0006D0A76E742466B015001834219D21B2243
:1007B0000025013F01261C006D005B00002C01DBC1
:1007C000984201D81B1A3543013A002AF3D15A1E28
:1007D00093411D433B007F330E00002B00DD41E7BA
:1007E000AAE71A2201251B1AE4E7AD0100206D0AD1
:1007F0004FE7C046B4370008FFFFFFF7F4370008A3
:1008000070B5420045024E024C00C30F6D0A012034
:10081000120E760A240EC90FFF2A06D0FF2C03D031
:10082000A24201D1B54206D070BD002DFCD1FF2CF3
:10083000FAD1002EF8D18B4206D00120002AF3D144
:100840002800431E9841EFE70020EDE770B5420015
:1008500045024E024C00C30F6D0A120E760A240E9A
:10086000C80FFF2A1BD0FF2C0ED0002A1BD1002C52
:1008700001D1002E1CD0002D0CD083421CD00221AF
:10088000581E0840013870BD002E22D1002AF4D134
:10089000002DF2D10028F6D101204042F3E7002DCF
:1008A00017D1FF2CF0D0002CE7D1002EE5D1E6E7E0
:1008B0000020002DE7D0E2E7A24205DCEADBB542EA
:1008C00002D8E7D30020DEE7434258414000013818
:1008D000D9E702204042D6E770B5420045024E02F9
:1008E0004C00C30F6D0A120E760A240EC80FFF2AA1
:1008F0000BD0FF2C0DD0002A1FD1002C16D1002EBA
:1009000014D10020002D10D009E0002D0CD1FF2CB7
:1009100013D1002E08D1002A08D0834212D0022120
:10092000581E0840013800E0022070BD002DF4D1AF
:100930000028FAD101204042F7E7002CEDD1002E2B
:10094000EBD1ECE7A24205DCF2DBB54202D8EFD3F3
:100950000020EAE74342584140000138E5E7C0463D
:10096000F0B54F464646D64644024500C0B5640A37
:100970000F1C2D0EC60F002D00D18DE0FF2D00D1D4
:1009800092E00023802099469A46E400C004044384
:100990007F3D7802430A98467B001B0EFF0F002B19
:1009A00000D170E0FF2B00D186E04246D0008022CB
:1009B0007F3BED180023D204024390469C46310051
:1009C0004B467940681C0F2B1CD8764A9B00D358A5
:1009D0009F4639004446E2465346022B0FD0032B74
:1009E00000D1D7E0012B37D100200024C0052043DF
:1009F000C9070843E0BCBA46B146A846F0BDFF208F
:100A00000024F3E7260C2404220C44462404240C7E
:100A1000434627001B0C574374435A435E43121945
:100A20003B0C9B189C4203D9802252029446664498
:100A30003F041A043F0CD2199401671EBC411B0CE1
:100A4000920E9B1914439B011C431B0100D49BE095
:100A5000012362081C40144302007F32002A64DD37
:100A6000630704D00F232340042B00D00434230158
:100A700003D502004C4B80321C40FE2ABFDCA4018F
:100A8000640AD0B2B2E74346002B3DD14A46013357
:100A90001A4391469C4692E7002C29D1042399469B
:100AA000033B00259A4674E7002C1BD10823994686
:100AB000063BFF259A466CE74346FF35002B0BD1DA
:100AC00002234A461A4391469C4678E75346310032
:100AD000022B00D083E792E703234A461A4391464C
:100AE0009C466CE70C239946093BFF259A4650E744
:100AF000200001F0EBF97625431F9C4000236D4256
:100B000099469A462D1A44E7404601F0DFF94246DD
:100B1000431F9A4000232D1A90469C46763D4EE78F
:100B200080240021FF20E40360E701239B1A1B2B94
:100B300000DD59E722009E30DA4084401300621E37
:100B400094411C43630704D00F232340042B00D09F
:100B5000043463011AD50120002447E78020C00334
:100B6000044209D04346034206D14446044364028A
:100B70003900FF20640A39E78020C003044364027F
:100B80003100FF20640A31E7280065E7A401002056
:100B9000640A2BE78020C00304436402FF20640A38
:100BA00024E7C04634380008FFFFFFF7F8B5CE460B
:100BB000474643025B0A4E02DA009446720A9146A7
:100BC00045004A0080B52D0E1F00C40F120EC90F3C
:100BD000B609FF2A5BD0012041408C4239D0A81AC7
:100BE00000285ADD002A6AD0FF2D00D1D9E08022EA
:100BF000D20416431B2800DCE9E001206346181AE2
:100C0000430100D4B4E080018709380001F05EF9A7
:100C100005388740854200DCCCE02D1AB5483840C5
:100C2000430704D00F230340042B00D004304301BA
:100C300000D4A0E06A1CFE2D00D18DE08001470A9F
:100C4000D2B2D0053843E4072043C0BCB946B04611
:100C5000F8BDA81A8046002845DD002A70D0FF2D77
:100C600000D19EE08023DB041E4343461B2B00DCA7
:100C7000D2E00120604443017AD50135FF2D6BD0CD
:100C800001239D4A0340400810401843C8E7002E46
:100C900020D08C4223D02800FF38002839D0571BA1
:100CA000002D00D09DE06346002B00D1DBE07B1ED1
:100CB000012F00D10DE1FF2F71D01F0098E0002E11
:100CC00000D1A7E0421E012800D1E6E0FF2868D04D
:100CD00010008FE701204140A14200D07FE7FF20B4
:100CE00040428046A8444046002838D0511B002D81
:100CF00000D1AEE0FF2A00D1DFE080236046DB04B4
:100D0000184384461B2900DCD9E001201500801916
:100D1000B1E7FE206A1C104271D1002D00D0A6E080
:100D20006346002B00D1D9E00022002E00D188E7D5
:100D3000981B430100D4E1E063460C00F01A6FE712
:100D4000002E00D1B7E00200013A012800D19CE05A
:100D5000FF2826D0904688E7FF22002771E7FE2073
:100D60006A1C104264D0FF2AF6D015006644700851
:100D7000430700D056E7C308FF2D12D05B025F0A7D
:100D8000EAB25EE76246002A00D196E0002E08D063
:100D90008022D203134204D04846104201D10C00F5
:100DA0004B46002BD8D08027FF031F437F02FF2232
:100DB0007F0A46E720233A00451B38000135EA4008
:100DC0005D1BA840431E98410025104328E72023BF
:100DD0001B1A32009E40C2403000431E984110430F
:100DE0000CE7FF2ADBD080236046DB0418438446EF
:100DF0001B2F56DD01200C001500301A00E763465A
:100E00009F1B7B013DD4002F00D0FEE60024002272
:100E1000002716E70500AFE7320043464146DA40B7
:100E200020235B1A9E403000431E9841104321E767
:100E3000002DA7D16346002B59D00022002E00D1EF
:100E4000FFE630006044430192D52A4B013518403B
:100E50008EE76346002B47D04B1E012915D0FF2992
:100E60002BD019004EE70C004B463D0084E762464C
:100E7000002A8BD1002E92D180270024FF22FF036D
:100E8000DFE663460C00F71ABFE630006044012538
:100E9000430100D46CE70225F2E663460125981B66
:100EA000AEE6202364466046FC40DF1BB840431E8C
:100EB000984120439FE705005EE74B4671E72023FA
:100EC00065466046CD40591A8840431E98412843E4
:100ED0001CE763460C000125F01A91E6002E95D020
:100EE0000C004F460022ACE64B460D0044E74F464F
:100EF0000022A6E6FFFFFFFBFFFFFF7D002800D0DA
:100F000036E7002400279CE641024200C30F490A4D
:100F10000020120E7E2A03DD9D2A02DD094A981860
:100F20007047802000040143952A07DC9620821A2E
:100F3000D1404842002BF3D10800F1E7963A9140A6
:100F4000F7E7C046FFFFFF7F70B5051E0ED000F02B
:100F5000BDFF9E2304001B1A962B0CDC082801DD24
:100F6000083CA5406D026D0AD8B201E000200025C2
:100F7000C005284370BD992B09DD020029001B32F2
:100F800091404A1E91410522121AD5400D43052C6D
:100F900012DC29000C4E31406A0709D00F2028408E
:100FA000042805D004314A0102D59F2331401B1B80
:100FB00089014D0AD8B2DBE7621F95402900024E35
:100FC00031406A07F4D0E9E7FFFFFFFB03685A00EE
:100FD00004D5802212061343C01870475B005B08DB
:100FE000FAE7C046F8B557464546DE464E469046B7
:100FF000E0B50700002924D04B1E9A4699460023ED
:101000009B465B464B44DC0FE4186410E5007E19F8
:101010003000FFF7DBFFA2450CD040450CD828007C
:1010200008303818FFF7D2FF013840450AD2631C58
:101030009B46E6E7404505D9A34502D0631E994685
:10104000DFE700263000F0BCBB46B246A946A0460A
:10105000F8BDC0460300012805D0022807D00020B3
:10106000002B02D070470348FCE70348FAE7034827
:10107000F8E7C0467D1700087117000889170008B7
:1010800030B5234B050083B08C1E002B26D02000EA
:1010900001A900E000BF00281CD001992200FFF741
:1010A000A1FF041E16D0FFF791FF6368A864012B0F
:1010B0002AD0201D002B23DBFFF788FF0023E864E4
:1010C0002B650368002B0FDBFFF780FF28610020F2
:1010D00003B030BD002309202B61F9E70D480E490C
:1010E000091AC9100191D9E71801000FFFF7B2FFE3
:1010F0002861431E98410823404298430930E7E79E
:101100000123E8642B65DCE7002305202B61DFE782
:10111000000000005C390008543A0008036810B56C
:101120000400DA0705D49B070AD5483000F080FC9C
:1011300023685A070AD51A070FD5DB0615D510BD47
:10114000483000F071FC23685A07F4D42000D030F6
:1011500000F072FC23681A07EFD420005130FF30F2
:1011600000F06EFC2368DB06E9D42000D130FF30AC
:1011700000F06AFCE3E7C0460920704703000068FE
:10118000002800D0C01870477047C04670B50400F2
:101190000D002000296CFFF773FF002811D12B6C84
:1011A0002A00636121000120236998470828F0D0B4
:1011B000072806D10020296CFFF7E6FF281D00F064
:1011C0001DFC02F082FAC046F0B5CE46474680B517
:1011D000C368304C9846A544836904001600043166
:1011E000402205A8994602F05FFA0023049325E007
:1011F000F022149B5200636104A97CA8039302F0BF
:1012000053FA2100280023697CAA98478A9B05008D
:10121000039315934B46019304AB009322002300E4
:1012200031000120C047002822D1F0227CA95200C1
:1012300004A802F039FA0026082D22D1149B2000C0
:1012400019000393FFF71CFF09360700F5B20028C9
:10125000CED0129B1021039315934B46019304AB00
:1012600000932200230001202943C047002800D01A
:1012700009273800F5239B009D44C0BCB946B04601
:10128000F0BD072DF4D130001499FFF77DFF05A8BC
:1012900000F0B4FB2CFCFFFF406C704770B5CB6BCB
:1012A000FAB00B6405000E004022043103A802F0DE
:1012B000FBF901235B42029306E029002B6902AA95
:1012C0009847040008280AD1129B280019000193AE
:1012D000FFF7D6FE0028F0D009207AB070BD02A832
:1012E000FFF71CFF062CF7D131002800FFF74EFF57
:1012F00010B58261DA6BC1601A6419000022FFF731
:1013000063FF10BD436970B50B64C36804000D0032
:10131000002B13D10A0023690100022098470728F7
:1013200005D008280FD129002000FFF72FFF00204B
:10133000296CFFF729FF281D00F060FB0122FFF751
:1013400043FF02F0C2F902F0C0F9C046C36810B50D
:10135000002B05D0CB6B00220B64FFF735FF10BDCF
:10136000FFF79CFFFBE7C0467047C046836801005B
:1013700010B5002B01D00120984710BD012915D0D0
:101380000AD8002B10D10F2A0ED89200821852686A
:10139000009B00201A6006E001200339C9B2884290
:1013A00080414042013070470220FCE70120FAE70B
:1013B00000B585B003AB0A00009300210023FFF7BE
:1013C000DDFF039805B000BD012915D00AD8002B18
:1013D00010D10F2A0ED8009B92001B688218536010
:1013E000002006E001200339C9B288428041404212
:1013F000013070470220FCE70120FAE700B585B014
:1014000003AB039200930A0000230021FFF7DCFFE7
:1014100005B000BD70B51A4CD36BA544136405002C
:101420000C0019A8111D402202F03EF901235B4275
:10143000189314E00C2118A802AAFFF7DFFF21007F
:1014400018A8A847002812D1069B18AA02A908309C
:1014500001939847060005280AD0092807D0289B41
:1014600002A819000193FFF70BFE0028E2D009261D
:1014700018A8FFF753FE300090239B009D4470BDD9
:10148000C0FDFFFFF0B557469246032245464E4643
:10149000DE4699461300E0B58846CD6C494689B0D2
:1014A0000340009308CD0695002900D180E01A0C76
:1014B0001B040593022304A90B73FD3313409B0007
:1014C0004A73ED18009B022B01D143469D6B4346A6
:1014D0001B6DDB070FD5504605A900F05BFB00280C
:1014E00001D1082000E0092009B0F0BCBB46B2469B
:1014F000A946A046F0BD2F68002FECD0082303407A
:10150000029300230193013354469B464646BA4654
:101510004B46022B49D02B886F889A4604355A4691
:101520003B009343B26C0F21904620009844FFF794
:101530003FFF0023804506D853465A469343434411
:1015400098429B415B4202227F0017405946524617
:101550000A401743012F30D0022F4CD0002FC2D1A8
:10156000009A002A02D0002B00D09BE004352B68A3
:101570009A46002BCCD1200005A9A24600F00AFB18
:101580000028B0D1019B002BABD00F215046FFF7B4
:101590000FFF0E2102005046FFF730FF50460F218B
:1015A000724AFFF72BFF07209EE76F680835B6E702
:1015B0001B02059304AB9A8184E7009A002A49D163
:1015C000002B16D02B68DF0F6B689A1C00D18AE7BE
:1015D000320058320492013300D1B6E0281DFFF7E3
:1015E000CDFD3A00010004AB300000E000BF002850
:1015F0006CD10835BBE72A68009957007F0800299D
:101600000DD1002B04D0029B002B72D0002F3CD0B8
:10161000002A00DA04350137BF00ED19A7E7336A65
:101620000D2120009846FFF7C3FE804501D02A68AF
:10163000EEE7B36A9D42FAD10023F36204333363C9
:101640002B1DB76273632B68002B00DA87E0012340
:101650000193E0E70D212000376AFFF7A9FE8742DA
:10166000C7D1B36A9D42C4D1B046A2462800FFF755
:10167000ADFC0F2102005046FFF7C0FE5046424627
:101680000021FFF7BBFE07202EE7B046A2460D2142
:101690005046FFF78DFE4346049A18625A620620B0
:1016A0009D6221E72800FFF791FC0435A246B5634F
:1016B0000400300000E000BF002800D113E75046CE
:1016C00022000F21FFF79AFE07200DE7A2460D2109
:1016D00004005046FFF76CFEB04633003062022C27
:1016E00039D1049A2C33F2627362434606209D621C
:1016F000FAE62B1D9A460023984658339C46210053
:101700004A46B4445446A9468A463D000392474699
:10171000E0460EE0434620000493FFF72FFD002231
:10172000010004AB300000E000BF013704340028A2
:1017300004D1AF42EED14D46B046A8E72F004D464A
:10174000039B544699462A6862E70D212000FFF763
:101750002FFEB04630624346049A5A62C5E7781CB1
:101760008000B046A246281881E7C046000000006D
:1017700010B50023FFF786FE10BDC04610B501234B
:10178000FFF780FE10BDC04610B50223FFF77AFEBA
:1017900010BDC046F0B5CE46474680B505001400E2
:1017A0001E00C3B0032944D020D8002949D0012904
:1017B00041D1130C14049846230C9946012E00D1F4
:1017C0007AE0052E37D144464C44202C33D843468A
:1017D0000F2B00D8B5E04C46002C00D0C2E04A46A2
:1017E000A96B20AF002A22D000247FE0042922D157
:1017F000002B20D1102A1ED8102203681A4200D0D4
:10180000C7E020AF380000F021F90126390000239D
:10181000AA6B30009840044201D001CA086001332D
:101820000431042BF5D13800AA6300F00DF9002033
:1018300002E0032B1CD0022043B0C0BCB946B04626
:10184000F0BD002BF7D1002301271604826B360C64
:10185000011D38009840064201D001CA08600133DA
:101860000431102BF5D10020A304E5D4AA63E3E7EB
:101870001404160C240C3319102BDCD8082203682E
:101880001A4200D08CE020AF380000F0DBF8F60000
:10189000AB6B002C0AD0F61AE400321F1C19BA18E0
:1018A0001900096804339950A342F9D13800AB6399
:1018B00000F0C6F80020BFE743464B44102BBAD8CF
:1018C00043460F2BB7D82B681E4206D003222800B0
:1018D00093432B60483000F0A9F820AF380000F0A7
:1018E000A5F84A460024A96B002A61D04346DB00D4
:1018F000FF180023D200C858F85004339A42FAD196
:101900008918002C0FD06F464046102800D21020B6
:1019100000231038C0003818E200CF58C7500433F5
:101920009342FAD1C918012E41D04346A9630F2B27
:1019300045D9002C00D17AE7684600F07DF80020F8
:101940007AE7102C46D9103C01222B681A4207D0A6
:1019500093430222280013432B60483000F06AF8BA
:10196000002C39D004222B681A422CD143460F2B6D
:1019700003D820AF380000F05DF86F46380000F063
:101980005DF810224346A96BD21A002ABCDD20AFB5
:10199000ACE793430360D130FF3000F057F830E7F5
:1019A000934303605130FF3000F04CF86BE720AFF9
:1019B00004313800A96300F037F800203CE720A884
:1019C00000F036F8B5E7280093432B60D03000F0E4
:1019D00035F8CBE70024B7E743460F2B00D9FEE6E6
:1019E00020AF380000F026F84A46A96B002A00D044
:1019F000FAE6380000F01CF800201DE70100343141
:101A000038C9043B9C461D60A646010020313CC9F4
:101A100090469946A246AB4601000831FCC9416890
:101A20000068E54600BDC0467047C0467047C046E6
:101A30007047C0467047C0467047C0467047C046B2
:101A40007047C0467047C0467047C0467047C046A2
:101A500001B401A801B585B0FFB408A841464A46C3
:101A600053465C4665463EC001A83EC80F980090AC
:101A700000230CB401A9FFF711FC109B12B018470A
:101A800001B401A801B585B0FFB408A841464A4693
:101A900053465C4665463EC001A83EC80F9800907C
:101AA00000230CB401A9FFF72DFC109B12B01847BE
:101AB00001B401A801B585B0FFB408A841464A4663
:101AC00053465C4665463EC001A83EC80F9800904C
:101AD00000230CB401A9FFF739FC109B12B0184782
:101AE00001B401A801B585B0FFB408A841464A4633
:101AF00053465C4665463EC001A83EC80F9800901C
:101B000000230CB401ABFFF7F3FB109B12B0184796
:101B100001B401A801B585B0FFB408A841464A4602
:101B200053465C4665463EC001A83EC80F980090EB
:101B300000230CB401AAFFF76DFC109B12B01847EC
:101B4000027A0300002A0BD1427A002A0FD0013A10
:101B500042724268111D416003211268017202E065
:101B6000013A02720268100E12021A607047B02029
:101B7000FCE7C04600B585B003AB00930C22002300
:101B80000021FFF7FBFB039805B000BD10B5FFF780
:101B9000F1FF10BDF0B54E4645465746DE460023E0
:101BA000E0B587B003930F339846083B99468023EE
:101BB0001B0305000E009A463000FFF7C1FF04002A
:101BC000B02800D1C1E0030629D503004246934363
:101BD000DBB2802B53D0902B3DD0A02B6BD0B02B01
:101BE00000D17EE0C02B00D195E003004A4693432C
:101BF000DBB2D02B0AD15346024001321A430523EF
:101C000001212800FFF7C6FD0028D5D009242000B7
:101C100007B0F0BCBB46B246A946A046F0BDFF23C4
:101C2000820013401F1D05AB9B4600930D2200232D
:101C300000212800FFF7A2FB630639D4059B9C46D0
:101C400067445B460597009300230D22002128007E
:101C5000FFF7BAFBB0E7833B03400D2BD6D005AFAF
:101C600002400023002128000097FFF787FB002394
:101C70000D22002128000097FFF7A6FB9CE7040235
:101C80003000FFF75DFF802720433F02B842BDD000
:101C900004010005020C002300212800FFF77AFD53
:101CA0000028B3D13C4200D186E70123039383E7A8
:101CB000059BDF1BC5E7FF234A461B011900824332
:101CC00011410A001A40030702D58023DB011A43A1
:101CD000002300212800FFF75DFD002800D16BE7FD
:101CE00094E7B12845D0B22800D19FE0B32855D061
:101CF000FC230340B42B00D188E74A4653460240F8
:101D000001321A43012101232800FFF743FD002877
:101D100000D151E77AE7C6284BD0C7285DD0030031
:101D20004A469343DBB2C02B6CD0C82871D0C92877
:101D300000D06BE73000FFF703FFF02302031B0323
:101D4000134042460240013258E7039B0024002B17
:101D500000D05CE705AE0E22002128000096FFF7B8
:101D60000DFB00230F22002128000096FFF72CFB1B
:101D70004DE73000FFF7E4FE021E00D146E7030006
:101D800041468B43DBB2002B00D03FE70021280007
:101D9000FFF700FD002800D10EE737E73000FFF71E
:101DA000CFFEF02302031B031340424602400132E0
:101DB000A7E73000FFF7C4FEF02302031B03134024
:101DC0004246024001321A43032303212800FFF751
:101DD000E1FC002800D1EFE618E73000FFF7B0FE85
:101DE000021E00D112E7030041468B43DBB2002BF9
:101DF00000D00BE704212800FFF7CCFC002800D11D
:101E0000DAE603E74346A0221C40013412032243D2
:101E1000DAE73000FFF794FE434602009A43D2B25D
:101E200010321840120301300243E8E605AB00937C
:101E30009B460D22002300212800FFF79FFA300067
:101E4000FFF77EFE03061AD57F27B03C059B38407E
:101E5000A0409C466044059030000734FFF770FEB8
:101E60000306F3D481217F2389008C460340A340DD
:101E7000059A62449B1805935B460093E4E60224AE
:101E8000F0E7C046030000B5DA6C85B0536808007F
:101E90000832190201910292694603221B0E0A734D
:101EA0004B7301A9FFF776FE05B000BD10B5FFF733
:101EB0006DFE806C10BDC04610B5FFF767FEC26CAA
:101EC000D07902308000101810BDC0461C210123BB
:101ED0001B04984201D3000C10391B0A984201D30D
:101EE000000A08391B09984201D30009043902A2EB
:101EF000105C40187047C046040302020101010152
:101F0000000000000000000010B5324A13680121F3
:101F10008B430B4313602F4B1B68DB07FBD52E4A0B
:101F2000136801210B4313602B4B1B689B07FBD5E8
:101F3000294A1368F8218B4378390B431360536B9C
:101F40007F390B435363244B5B6B9B07FBD5224BC1
:101F50005A6BF8218A4378390A435A635A681F49F1
:101F60001140A22292030A435A60DA6A0F218A437F
:101F70000E390A43DA621968802252040A431A6051
:101F8000154B1B689B01FBD5134B5A68F0218A4304
:101F90005A605A6812490A405A605A6803218A43B3
:101FA00001390A435A600C4B5A680C231340082B22
:101FB000F9D10C4C200000F04DFB200000F06EFB2E
:101FC000054B5A6B04218A435A631A6B0C318A43BE
:101FD0001A6310BD0020024000100240FF7FC2FFC4
:101FE000FFF8FFFF006CDC0200B583B0154B996968
:101FF00001221143996199690A400192019ADA69B3
:10200000802149050A43DA61DB690B400093009B9C
:102010000D490B6A1B021B0AC022120613430B62F6
:10202000FFF772FF00F012F800F0D2FD00F0BCF8EC
:1020300000F01CF800F064F900F0DAF801F0E6F8BE
:10204000FEE7C0460010024000ED00E082B0064A04
:10205000516980208002014351615369034001931B
:10206000019B02B07047C0460010024070B592B0AC
:102070001025102200210EA801F01FFB14220021C0
:1020800009A801F01AFB1822002103A801F015FB92
:102090003B4B996980208000014399619A69024015
:1020A0000292029A5A69802189020A435A615B6945
:1020B0000B400193019B0395032304937138FF3870
:1020C00003A9C00500F0ACF92E4B1A682E490A404E
:1020D0001A601A682D490A401A601A6820218A433A
:1020E0000A431A601A6820318A431A601A6840311C
:1020F0008A430A431A601A68254911408022520017
:102100000A431A601A68234911408022D2000A4308
:102110001A605A68120C1204012632435A601E4A91
:10212000DA601E4A9A601A6802210A431A601C4C3F
:10213000A36A1D43A56200250E950F951095119574
:102140000EA9200000F0C4F909950A950B950C968C
:102150000D9509A9200000F0D5F9E26804218A4311
:10216000E260626907239A436261A2680D480240F7
:102170003243A260A36803400B43A36012B070BD5A
:102180000010024008000240EFBFFFFFFFCFFFFF3B
:10219000FFFCFFFFFFF3FFFF84000020402401400D
:1021A00000240140E8FFFF7F82B00D4A51690123FE
:1021B00019435161526913400193019B094BC2229B
:1021C000920099580848014099508021890019606F
:1021D0009958064801409950F8321A6002B0704789
:1021E0000010024000E100E0FF00FFFFFFFF00FFE2
:1021F000F0B5CE46474680B597B01422002111A80D
:1022000001F05BFA2022002109A801F056FA1822F9
:10221000002103A801F051FA354EF36902273B4330
:10222000F361F3693B400293029BFA239B001393F3
:10223000304C11A9200000F043FB23688022914616
:1022400093432360A369783A1343A36160230993FE
:1022500000250A950B950C950D9509AA01212000E2
:1022600000F076FB244B98461B68042293434246B9
:102270001360A26980231B011343A36109AA1021E3
:10228000200000F065FB43461B681C4A1340424691
:1022900013606368702293436360A3684A46934364
:1022A000A3607269802189020A43726173690B40DD
:1022B0000193019B40230393049705950695079589
:1022C000012608969024E40503A9200000F0A8F850
:1022D0004B4603930497059506950795089603A921
:1022E000200000F09DF817B0C0BCB946B046F0BD64
:1022F000001002400004004018040040FFFBFFFFF4
:1023000030B587B001AC14220021200001F0D5F9CE
:10231000134AD169802040000143D161D369034051
:102320000093009B0F4AC421890053581B021B0ACB
:10233000535080231B0313602F2323800023029319
:10234000FA22920003920493074D2100280000F026
:10235000B7FA2B68802293432B6007B030BDC0468C
:102360000010024000E100E0002000400120704722
:1023700010B501F06FF9162303600120404210BD33
:1023800010B501214942FFF7F3FFFEE7FEE7FEE744
:102390007047704770470000014B02225A60704737
:1023A0000000024010B50B4B1B689B0500D410BD0C
:1023B000084B802292005A6000F0B6FD064A13686E
:1023C00001218B43136053681B0C1B0404310B4326
:1023D0005360ECE7000002403000024010B5034BB0
:1023E000022252421A6100F09BFE10BD0020004004
:1023F000094B9B691B070DD5074B9B69DB0309D470
:10240000064A136801210B431360034AD36907315D
:102410000B43D3617047C046005400403000024077
:10242000F0B5002216E0C6682B006B435F00FF1872
:10243000FC43A446BE430F695F433E43C6604C68FD
:10244000022C27D0046865462C404D686B4323431B
:10245000036001320C682300D34037D0012393403E
:1024600025001D401C42F4D04B68013B012BDAD8FB
:1024700083682C006C4366003619B3438E6874433E
:10248000234383600C684368A343CE6874432343AB
:102490004360C8E7FF2D0BD8066A1C006C436543F8
:1024A0002C01641BA6434C69654335430562C9E7AB
:1024B000466A2D0A2C006C436C4365432C01641B57
:1024C000A6434C69654335434562BBE70020F0BD38
:1024D00010B58368DB0711D4C368094A13404A6802
:1024E0008C682243CC6822431343C36003699B007A
:1024F0009B080A6813430361002010BD0120FCE71C
:10250000C73FFFFF10B58368DB070FD4C368084AD5
:102510001A400B684C6823438C682343CC682343E0
:1025200009690B431343C360002010BD0120FCE781
:102530003CC2FEFF044B5A6812090F231340034AA2
:10254000D35CD8407047C046001002407438000881
:10255000044B5A68120A07231340034AD35CD8403D
:102560007047C046001002408438000870B50B4B1D
:102570005B68C0225202134093420DD00848074DB9
:10258000E96A0F2421400131FDF7BEFD6B689B0C09
:102590001C400234604370BD0248F0E70010024066
:1025A00000127A00006CDC0210B5074B5A680C234D
:1025B0001340082B03D00C2B04D1044810BDFFF7A7
:1025C000D5FFFBE70248F9E700100240006CDC028F
:1025D00000127A0010B50400FFF7E6FF2060FFF755
:1025E000A9FF6060FFF7B4FFA06010BD10B5002820
:1025F00029D1164B1A6B032383401340000618435E
:10260000022816D003280BD0012806D0FFF7CCFFF4
:10261000FFF790FFFFF79CFF16E0FFF7C5FF13E001
:102620000A4B1B680222100018401A420CD00848BE
:102630000AE0064B1B6A0222100018401A4203D01F
:102640008020000200E0002010BDC04600100240C3
:1026500000127A0010B5FA218900FDF755FD013806
:10266000034B586000229A6005321A6010BDC046C4
:1026700010E000E082B0084B1B680193019B431CF3
:1026800000D00130002805D0034B1B68DB03F9D5CF
:102690000138F7E702B0704710E000E0014B186026
:1026A0007047C0460000002070B5036A01229343C2
:1026B0000362036A456884697326B4430E68344331
:1026C0000226B3430E69334393434A681343114AC6
:1026D000904205D0104A904202D0104A904212D146
:1026E000082293434A6992001343042293438A6861
:1026F000920013430A4A2A408D692A43094D2A4011
:10270000CD696D00154345608461CA684263036208
:10271000002070BD002C01400044014000480140F1
:10272000FFFEFFFFFFFDFFFF70B5036A1026B343F6
:102730000362036A44688269184D2A400D682D02BD
:102740002A432025AB430D692D012B43B3434D682C
:102750002D012B43124DA84205D0124DA84202D0A4
:10276000114DA84213D18025AB434D69AD012B43D8
:102770004025AB438D68AD012B430C4D2C408D693A
:10278000AD002C430A4D2C40CD69ED002C43446034
:102790008261CA6882630362002070BDFF8CFFFF04
:1027A000002C01400044014000480140FFFBFFFFB6
:1027B000FFF7FFFF70B5026A1B4E32400262036AE8
:1027C0004468C2697325AA430D682A43174D2B40FC
:1027D0000D692D022B4333404D682D022B43144DC0
:1027E000A84205D0134DA84202D0134DA84213D1E0
:1027F000124D2B404D69AD022B43114D2B408D687E
:10280000AD022B430F4D2C408D692D012C430E4DF5
:102810002C40CD696D012C434460C261CA68C2631B
:102820000362002070BDC046FFFEFFFFFFFDFFFFFB
:10283000002C01400044014000480140FFF7FFFF29
:10284000FFFBFFFFFFEFFFFFFFDFFFFF70B5026A37
:10285000144E32400262036A4568C269124C22403B
:102860000C6824022243114C23400C6924032343A7
:1028700033404C68240323430D4CA04205D00D4C3B
:10288000A04202D00C4CA04204D10C4C2C408D69CB
:10289000AD0125434560C261CA680264036200203D
:1028A00070BDC046FFEFFFFFFF8CFFFFFFDFFFFFA4
:1028B000002C01400044014000480140FFBFFFFFE1
:1028C00003681D4A904206D08022D205904202D071
:1028D0001A4A904203D1702293434A681343164A1E
:1028E00090420FD08022D20590420BD0134A9042E2
:1028F00008D0134A904205D0124A904202D0124AA0
:10290000904203D1114A1340CA68134303608B6895
:10291000C3620B888362084B984205D0094B9842EA
:1029200002D0094B984201D10B690363436901222C
:102930001343436100207047002C01400004004015
:10294000002000400044014000480140FFFCFFFF20
:1029500010B50B00110080225200934215D008D808
:10296000012B0FD0102B02D1FFF7DEFE09E0012072
:1029700007E080225201934202D1FFF767FF00E097
:10298000012010BDFFF790FEFBE7FFF713FFF8E70C
:1029900070470000F0B5D6464F464646C0B590B0E9
:1029A00081461C22002109A800F087FE1822002180
:1029B00003A800F082FE514C6269802189020A431B
:1029C000626163690B400293029B80239B00039327
:1029D00002270497FE3BFF3B9A4605930125069587
:1029E0000795042608969023DB05984603A918004E
:1029F000FFF716FD8023DB000393049753460593EE
:102A000006950795089603A94046FFF709FD3C4B3C
:102A10001A683C490A401A601A683B4911408022F2
:102A200092010A431A601A6820218A431A601A68C0
:102A300020318A431A601A6840318A430A431A6077
:102A40001A6832490A401A601A6831490A401A6005
:102A50005A68120C120405210A435A602D4ADA60A2
:102A60002D4A9A601A6817431F60E2698021890322
:102A70000A43E261E3690B400193019B274AC521A8
:102A8000890053581B021B0A535080231B041360F8
:102A9000234C2368234A134023602368224A1340AF
:102AA000236000230993214A0A920B930C934A4610
:102AB0000D920E930F9309A9200000F085F962682A
:102AC00080239B0413436360E368194A1340E36067
:102AD000E26880231B021A43E260226815432560E6
:102AE000226808210A43226022681343236010B041
:102AF000E0BCBA46B146A846F0BDC0460010024050
:102B000030000240EFBFFFFFFFCFFFFFFFFCFFFFE2
:102B1000FFF3FFFF8C0000202454004000E100E0A0
:102B200000540040FFFFF7FFFFFFFDFF0E090020EC
:102B300001F8FFFF074B9A6807490A409A609A68B4
:102B4000D20AD20202439A609968802212020A4392
:102B50009A60704700540040FF7FFFFF70B513007C
:102B6000194CA469240709D5174CE5690826354393
:102B7000E561A469E4030AD4002070BD134C246805
:102B8000E403EDD55C1E002B19D02300E8E70029F3
:102B900013D00D4CA469E40706D504780A4B9C6257
:102BA000013989B213000130084C2468E403EED5E2
:102BB0005C1E002B05D02300E9E70020DDE70120A3
:102BC000DBE70120D9E7C0460054004010E000E0F8
:102BD000F0B591B01C22002109A800F06EFD18226A
:102BE000002103A800F069FD284BD96980229202D8
:102BF0001143D961D9691140029102995969114370
:102C000059615B691A400192019B042303930227D7
:102C1000049703240594012508959026F60503A939
:102C20003000FFF7FDFB082303930497059400246D
:102C300006940794089503A93000FFF7F1FBE12300
:102C40005B0209930A940B940C940C230D930E943D
:102C50000F940F4C09A9200000F0F2F8EFF3108256
:102C600085F31088A3680B490B40A36082F310889A
:102C70006368094A13406360A3682A229343A360F0
:102C800023681D43256011B0F0BDC046001002400E
:102C900000440040FFFBFFFFFFB7FFFF10B5034AF2
:102CA0001369012423431361018010BD00200240F9
:102CB000074BDB68DB07FBD4054B1B691B0601D404
:102CC00000207047024B034A5A60034A5A60F7E7F4
:102CD0000020024023016745AB89EFCD30B50C00E1
:102CE000426883689B0241688C466344934222D9C0
:102CF000124B19690225294319615A6119693E3538
:102D0000294319610D4BDB68DB07FBD40B4BDB68F8
:102D10009B060DD5094BD96820252943D96019692F
:102D20001E3DA94319618023DB009C466244D8E71D
:102D30002260012000E0002030BDC046002002409B
:102D4000F0B5C64600B50D0090461E00022806D01C
:102D5000012802D00427002411E00227FBE7012705
:102D6000F9E72022D21A310091400A004146D940A9
:102D7000114389B24019FFF791FF0134E4B2BC421C
:102D800008D260002301202252429A18E9D431006F
:102D9000D140EEE70B4BDB68DB07FBD4094BDB686C
:102DA0009B060CD5074BDA6820210A43DA601A69C2
:102DB0001F398A431A61002080BCB846F0BD01204B
:102DC000FAE7C0460020024030B502680124A24361
:102DD00002600368174A1340CA6812028D682A43CA
:102DE000134303604B6803610368234303608368F4
:102DF000114A134083608368DB0ADB020A698C692D
:102E00002243134383600B69002B04D08268802324
:102E10001B02134383600368084A13400A68134384
:102E200003604B69426804490A4013434360002031
:102E300030BDC046FFE0FFFFFF7FFFFFFFFFCFFF7A
:102E400030B585B004000D000368DB074AD4036881
:102E5000274A1A404B68C9680B4329690B43A96983
:102E60000B43134303604368224A1340AA68134389
:102E700043608368204A13406A69134383601F4B91
:102E8000984204D01E4B98420BD001202BE000202A
:102E9000FFF7ACFB002828D02968002906D10120C3
:102EA00021E001A8FFF796FB0398F3E7AA698023C6
:102EB0001B029A4208D04B08C018FDF725F90304FD
:102EC0001B0CE36000200EE040004B08C018FDF72B
:102ED0001BF90C4B03400004400C07221040184320
:102EE000E060EFE7012005B030BD0120FBE7C04600
:102EF000F369FFEFFFCFFFFFFFFCFFFF003801404A
:102F000000440040F0FF0000012800D07047034B50
:102F10009942FBD1024B034A1A60F7E7FFFF00001A
:102F2000CC0000200000FA4310B5774B5878997810
:102F300009020843DA78120402431C792406144378
:102F40001B78724A1370272B07D8002B0FD0272B22
:102F50000DD89B006E4AD3589F46FF2B07D16A4B72
:102F600059784B1E9941C9B26A4800F0DBFA6A4AA7
:102F700005216648FFF7F2FD0028F8D1624B1B7867
:102F8000212B00D1BBE010BD624B5C610022032A03
:102F9000EDDC604B30339B18013219785B4B995450
:102FA000F5E75C4B9C610022032AE0DC594B34338B
:102FB0009B1801321978554B9954F5E7211C554857
:102FC00000F094FA0022032AD1DC524B30339B18D4
:102FD000013219784D4B9954F5E70022032AC6DCDB
:102FE0004C4B30339B1801321978484B9954F5E714
:102FF0000022032ABBDC474B34339B18013219787B
:10300000424B9954F5E7404B5A78444B5A70022290
:103010001A700022032AAADC3E4B30339B1801327F
:1030200019783A4B9954F5E73A4B5C603B4BDC61BD
:1030300002221A700022032A99DC364B30339B1887
:1030400001321978314B9954F5E7324BDC60334B40
:103050005C6202221A700022032A00DD87E72D4BF2
:1030600030339B1801321978284B9954F4E7294BD7
:103070009C602A4B1C6202221A700022032A00DD87
:1030800075E7244B30339B18013219781F4B995444
:10309000F4E7204B1C61214B9C6202221A70002233
:1030A000032A00DD63E71B4B30339B18013219788C
:1030B000164B9954F4E7211C164800F017FA174BE9
:1030C0009C6002221A700022032A00DD4FE7114B98
:1030D00030339B18013219780C4B9954F4E70F4B9D
:1030E0005C6002221A700022032A00DD3FE7094BD0
:1030F00030339B1801321978044B9954F4E7074B8D
:103100005878FFF717FD3EE78C0000209400002060
:103110008C380008CC000020881300009C000020A0
:10312000F0B5C64600B51F4A93681F490B400421FD
:103130000B4393601D4CA76B391CE06BFDF736FD0C
:10314000061C1B4B1888FDF7FFFE8046A08DFDF77F
:10315000FBFE051C011C4046FDF728FD011C301C30
:10316000FDF7FEFB061CE08DFDF7EEFE291CFDF7CA
:103170001DFD011C301CFDF72BFA011C381CFDF74E
:1031800089F8011C20630022200000F001F9A06AE8
:10319000FDF7BAFE01B2200000F080F980BCB8460D
:1031A000F0BDC04600240140E8FFFF7FCC000020B6
:1031B00084000020F0B583B007000C000192037872
:1031C000002B03D0A4B2019B30260EE000F0BAF928
:1031D00001233B70F6E75D1C1978200000F0ACF984
:1031E000013EB6B20134A4B22B00002EF3D1BB785D
:1031F000002B04D101237B70019803B0F0BD00F0D7
:10320000ADF900237B700133FB70F5E7F0B583B0B7
:1032100001AB00221A705A7001329A70DA7000F015
:1032200091F901AB01221A7030264E4D0024002E78
:103230000AD06F1C200000F079F92870013EB6B268
:103240000134A4B23D00F2E7464B1B78012B39D183
:10325000444C454DA168280000F048F96369AB6310
:10326000A369EB63238AAB85638AEB85E3696B60B3
:10327000636AEB60236AAB60A36A2B6163686B616E
:103280002C23E15C280000F04DF9384B1A68012529
:103290002A431A601A6A2A431A621A6A10210A43D8
:1032A0001A6200225A639A636078FFF773FB0A2060
:1032B000FFF7E0F92E4BDA682A43DA601A68154303
:1032C0001D6033E0274A2B4B110031CB31C131CB8C
:1032D00031C131CB31C131CB31C1002101A8FFF760
:1032E00069FFB5E71F4B01221A7001AB1B78002B59
:1032F00003D0350030241B4B0FE000F023F901AB65
:1033000001221A70F5E75F1C1978280000F014F903
:10331000013CA4B20135ADB23B00002CF3D101ABAE
:103320009B78002B16D101AB01225A700D4B1B78F4
:10333000022BD7D0002BF9D10A4A002101A8FFF7B0
:1033400039FFBFF34F8F0C4B0C4ADA60BFF34F8F3E
:10335000C046FDE700F002F901AB00225A700132CD
:10336000DA70E3E79C000020CC000020000400405D
:10337000002000408437000800ED00E00400FA055A
:1033800010B502490120FFF7BFFD10BDFFFF00008F
:10339000F0B5D6464F464646C0B50400081C161C7C
:1033A0006169FDF703FC051CA169301CFDF7FEFBFC
:1033B0008146616A281CFDF7F9FB80466562E16978
:1033C000281CFCF767FF071CE0612668311CFCF72E
:1033D0004DFF00283BD0E661216A4846FCF75AFFC2
:1033E000071C2062011C301CFCF72CFF00283CD07D
:1033F0002662291C6068FDF7B3FA051CE169E068E4
:10340000FDF7AEFA011C281CFCF744FF051C216ADD
:10341000A068FDF7A5FA011C281CFCF73BFF051C62
:1034200041462069FDF79CFA011C281CFCF732FF7D
:10343000051CA062666D311CFCF718FF002820D027
:10344000A662A06AE0BCBA46B146A846F0BD802399
:103450001B069C46B444E2466146381CFCF7F2FE6B
:103460000028B9D05346E361B6E780231B069C468B
:103470006644311C381CFCF7E5FE0028B9D02662F2
:10348000B7E780231B069C466644311C281CFCF7CA
:10349000D9FE0028D5D0A662D3E700004023C35C44
:1034A000002B1AD000290CDB0E4B00225A630B1C98
:1034B000FA229200914200DD131C1BB2094A936369
:1034C0000FE0094B994205DB4942064B5963002244
:1034D0009A6306E0FA218900F7E7024B00225A635B
:1034E0009A6370470004004018FCFFFF70B50500A8
:1034F0000C1CFE218905201CFCF7B8FE002807D013
:10350000FE24A4050649201CFDF72AFA686570BD53
:103510000021201CFCF796FE0028F3D00024F1E7E0
:1035200000007A444023C15470470000014B185CEE
:103530007047C04628010020014B19547047C0460F
:103540002801002010B58022D2000249024800F074
:10355000ABF810BD007C00082801002030B585B014
:103560000023009302330193154B0293012303932D
:10357000FFF79EFB002801D005B030BD114B34226F
:10358000DA60694601A8FFF7A9FB002811D10C4CAD
:1035900000250D4B9C420CD80C4BEB181A685B684D
:1035A00021000020FFF7CCFB002802D108340835A9
:1035B000EFE7044A136980210B431361DCE7C0463F
:1035C000007C000800200240FF7F00082801002046
:1035D0001348854613480168090E134A914205D1E4
:1035E00012481349016013481349016013481449F4
:1035F000144A002302E0D458C4500433C4188C4247
:10360000F9D3114A114C002301E013600432A242A5
:10361000FBD3FFF7BDF900F023F8FEF7E5FCFEE76A
:1036200000180020040000001F00000018100240D5
:103630000100000000000140000000000000002028
:1036400068000020603A0008680000202C05002077
:10365000FEE70000014B18687047C04604000020D8
:1036600070B500260C4D0D4C641BA410A64209D168
:10367000002600F07BF80A4D0A4C641BA410A642F9
:1036800005D170BDB300EB5898470136EEE7B300A3
:10369000EB5898470136F2E7543A0008543A0008CC
:1036A000543A00085C3A0008002310B59A4200D151
:1036B00010BDCC5CC4540133F8E703008218934278
:1036C00000D1704719700133F9E7062010B500F0FA
:1036D0002DF80120FEF754FE70B504000D001F29DF
:1036E00004D9162303600120404270BD436C002BB7
:1036F00004D08A009B181A68002A08D1200000F024
:1037000031F82A000100200000F01AF8EDE700204F
:10371000012AEAD0511C03D1162301302360E4E7CB
:10372000002428001C6090472000DEE710B5034B02
:1037300001001868FFF7D0FF10BDC046040000204C
:10374000002370B5064D0400080011002B60FEF741
:103750000FFE431C03D12B68002B00D0236070BDEB
:103760002805002010B5FEF701FE10BDF8B5C046D3
:10377000F8BC08BC9E467047F8B5C046F8BC08BC0B
:043780009E467047AA
:10378400010C00000000B4420000003F00000000F3
:10379400FA00B80B00000000000034430000204190
:1037A400000000000000000000004842000000008B
:1037B400A4070008300700088C0600084406000827
:1037C4008C0600086C0700088C06000844060008F4
:1037D40030070008300700086C070008440600089A
:1037E4004A0600084A0600084A0600087A07000844
:1037F40030070008300700088C060008400600085F
:103804008C0600086C0700088C06000840060008B7
:1038140030070008300700086C070008400600085D
:103824004A0600084A0600084A0600087607000807
:10383400040A0008D4090008D4090008D2090008C1
:10384400D8090008D8090008200B0008D20900088C
:10385400D8090008200B0008D8090008D20900087C
:10386400CC0A0008CC0A0008CC0A00085C0B00084B
:10387400000000000000000001020304060708091C
:1038840000000000010203046E2F0008882F0008C6
:10389400A22F0008BC2F00086E2F00086E2F00080E
:1038A4006E2F00086E2F00086E2F00086E2F000880
:1038B4006E2F00086E2F00086E2F00086E2F000870
:1038C4006E2F00086E2F00086E2F0008DA2F0008F4
:1038D400F02F00086E2F00086E2F00086E2F0008CE
:1038E4006E2F00086E2F00086E2F00086E2F000840
:1038F4006E2F00086E2F00086E2F00086E2F000830
:103904006E2F00086E2F00086E2F00080630000886
:10391400283000084A3000086E3000089230000851
:08392400B6300008DE30000897
:10392C0074B20181B0AB30800000000080080181CE
:10393C00B0B0ABF0000000003F020181B0AB3080B2
:10394C000000000080060181B0B0ABF00000000068
:10395C0070D6FF7F010000001CD7FF7FB0A902804A
:10396C00B0D7FF7FB0B0A88004D8FF7F0100000063
:10397C0010D8FF7FB0B0AA8044D8FF7FA4FFFF7F90
:10398C000CD9FF7F0100000008D9FF7FAA3F3980C6
:10399C0054D9FF7FB0B0A88060D9FF7FB0B0AA80A7
:1039AC00A0D9FF7FB0B0A880B4D9FF7F0100000080
:1039BC00B0D9FF7FB0B0A880B8D9FF7F010000005C
:1039CC0048DAFF7FAA0FB280B0DAFF7F60FFFF7F7B
:1039DC0094DDFF7FB0B0A880B0DDFF7F5CFFFF7F80
:1039EC0010E0FF7F0100000080E1FF7F0084048075
:1039FC0090E1FF7FB0B0A88090E1FF7F48FFFF7F90
:103A0C0078E4FF7F0084048098E4FF7FB0B0A88046
:103A1C00B0E4FF7F0100000004F5FF7FB0B0A88088
:103A2C00F4F6FF7FAB10808080F7FF7FB0AB028095
:103A3C0044F9FF7F0100000018FBFF7FB0A9048050
:083A4C0084FBFF7F0100000074
:083A5400E900000881330008BD
:043A5C00C10000089D
:103A600000127A00080000200000000000000000A2
:103A70000000000000000000000000000000000046
:103A80000000000000000000000000000000000036
:103A90000000000000000000000000000000000026
:103AA0000000000000000000000000000000000016
:103AB0000000000000000000000000000000000006
:083AC0000000000000000000FE
:04000005080035D1E9
:00000001FF
