:020000040800F2
:1000000000000220D1540008510E0008530E0008D1
:10001000550E0008570E0008590E00080000000099
:100020000000000000000000000000005B0E00085F
:100030005D0E0008000000005F0E0008610E000861
:1000400025550008255500082555000825550008A8
:100050002555000825550008255500082555000898
:100060002555000825550008255500082555000888
:100070002555000825550008255500082555000878
:100080002555000825550008255500082555000868
:100090002555000825550008255500082555000858
:1000A0002555000825550008255500082555000848
:1000B0002555000825550008255500082555000838
:1000C0002555000825550008255500082555000828
:1000D0002555000825550008255500082555000818
:1000E0002555000825550008255500082555000808
:1000F00025550008255500082555000825550008F8
:1001000025550008255500082555000825550008E7
:1001100025550008255500082555000825550008D7
:1001200025550008255500082555000825550008C7
:1001300025550008000000000000000025550008BB
:1001400025550008255500082555000825550008A7
:100150002555000825550008255500082555000897
:100160002555000825550008255500082555000887
:1001700025550008690E000800000000000000007E
:08018000255500082555000873
:1001900010B5054C237833B9044B13B10448AFF3C1
:1001A00000800123237010BD080300200000000020
:1001B0001466000808B5034B1BB103490348AFF3AD
:1001C000008008BD000000000C0300201466000839
:1001D00001F0FF01102A2BDB10F0070F08D010F8F8
:1001E000013B013A8B422DD010F0070F42B3F6D1FC
:1001F000F0B441EA012141EA014122F007047FF015
:1002000000070023F0E80256083C85EA010586EA6B
:10021000010685FA47F5A3FA87F586FA47F6A5FAA7
:1002200087F68EB9EED1F0BC01F0FF0102F00702B3
:1002300032B110F8013B013A83EA010313B1F8D15E
:100240000020704701387047002D06BF354603383F
:10025000073815F0010F07D1013015F4807F02BF78
:10026000013015F4C03F0130F0BC0138704700BFC9
:1002700053B94AB9002908BF00281CBF4FF0FF310D
:100280004FF0FF3000F074B9ADF1080C6DE904CE09
:1002900000F006F8DDF804E0DDE9022304B0704761
:1002A0002DE9F047089D04468E46002B4DD18A4229
:1002B000944669D9B2FA82F252B101FA02F3C2F15C
:1002C000200120FA01F10CFA02FC41EA030E9440ED
:1002D0004FEA1C48210CBEFBF8F61FFA8CF708FB0E
:1002E00016E341EA034306FB07F199420AD91CEBE6
:1002F000030306F1FF3080F01F81994240F21C8118
:10030000023E63445B1AA4B2B3FBF8F008FB10335F
:1003100044EA034400FB07F7A7420AD91CEB040494
:1003200000F1FF3380F00A81A74240F20781644464
:10033000023840EA0640E41B00261DB1D4400023E9
:10034000C5E900433146BDE8F0878B4209D9002D4D
:1003500000F0EF800026C5E9000130463146BDE8D7
:10036000F087B3FA83F6002E4AD18B4202D3824241
:1003700000F2F980841A61EB030301209E46002DF0
:10038000E0D0C5E9004EDDE702B9FFDEB2FA82F245
:10039000002A40F09280A1EB0C014FEA1C471FFAA3
:1003A0008CFE0126200CB1FBF7F307FB131140EA8A
:1003B00001410EFB03F0884208D91CEB010103F157
:1003C000FF3802D2884200F2CB804346091AA4B219
:1003D000B1FBF7F007FB101144EA01440EFB00FEED
:1003E000A64508D91CEB040400F1FF3102D2A64552
:1003F00000F2BB800846A4EB0E0440EA03409CE7F1
:10040000C6F12007B34022FA07FC4CEA030C20FA9D
:1004100007F401FA06F31C43F9404FEA1C4900FABD
:1004200006F3B1FBF9F8200C1FFA8CFE09FB18113A
:1004300040EA014108FB0EF0884202FA06F20BD9AD
:100440001CEB010108F1FF3A80F08880884240F2FD
:100450008580A8F102086144091AA4B2B1FBF9F041
:1004600009FB101144EA014100FB0EFE8E4508D93C
:100470001CEB010100F1FF346CD28E456AD90238C1
:10048000614440EA0840A0FB0294A1EB0E01A142A6
:10049000C846A64656D353D05DB1B3EB080261EB14
:1004A0000E0101FA07F722FA06F3F1401F43C5E9EE
:1004B000007100263146BDE8F087C2F12003D84024
:1004C0000CFA02FC21FA03F3914001434FEA1C4766
:1004D0001FFA8CFEB3FBF7F007FB10360B0C43EA58
:1004E000064300FB0EF69E4204FA02F408D91CEB08
:1004F000030300F1FF382FD29E422DD90238634406
:100500009B1B89B2B3FBF7F607FB163341EA0341A5
:1005100006FB0EF38B4208D91CEB010106F1FF38F4
:1005200016D28B4214D9023E6144C91A46EA0046EB
:1005300038E72E46284605E70646E3E61846F8E67D
:100540004B45A9D2B9EB020864EB0C0E0138A3E7C6
:100550004646EAE7204694E74046D1E7D0467BE7A7
:10056000023B614432E7304609E76444023842E71F
:10057000704700BFBFF34F8F0549CA6802F4E062BD
:10058000044B1343CB60BFF34F8F00BFFDE700BFA9
:1005900000ED00E00400FA0508B5064BDA69064BE9
:1005A0009A4200D008BD034B1A6882F308885B6842
:1005B0009847F7E700800008EFBEFECA10B5144662
:1005C0004FF6FF7392B2024803F003F9204610BDC4
:1005D0002803002038B505460C46A1B2284604F091
:1005E00071FD0028F9D138BD054BB3F8E0319BB25D
:1005F0008342F9D1024B0022A3F8E021704700BFEB
:10060000806C0120084A02F5A83393F8E231B3FA6E
:1006100083F35B094AF6E00003FB00F0203010444E
:1006200000F52840C0307047801C0020074800F5C6
:10063000A83393F8E231B3FA83F35B094AF6E00298
:1006400002FB03F320331844704700BF801C0020D6
:1006500008B50748EF23C377012383770023437747
:100660002021FFF7B7FF322002F0A4FFFFF782FF3F
:10067000801C002008B50548EF23C3770223837749
:10068000002343772021FFF7A5FF08BD801C002031
:1006900030B58BB00446214A06AB07CA83E8070091
:1006A000D4F81A10C1F309039BB18D0A01352A460B
:1006B0001B4805F055F8002302240B2C0BDC04F139
:1006C00028026A4412F8102C13449D4203D90134C5
:1006D000F3E78D0AEBE72146124805F041F802F0F6
:1006E00073FC002501950123029302230393013C2F
:1006F0000494059309A901A802F062FD0146099A34
:10070000094805F02DF80948EF23C37703238377C1
:1007100045772021FFF75EFF0BB030BD80660008F3
:100720002C6600085066000860660008801C0020E7
:1007300070B50E46FFF77AFF054600240EE0154A15
:10074000118803FB01F101F1006101F500412A5913
:1007500000232144022002F089FC04340E4B1B8844
:10076000A342ECDC0D4BEF22DA7704229A77B6B283
:10077000084B1B889E4209D0084B01225A77074834
:10078000A0F81B602021FFF725FF70BD034B00225E
:100790005A77F4E72603002024030020801C002061
:1007A00008B50C4602F028FC0648EF23C377052362
:1007B000837784832021FFF70DFF322002F0FAFEB9
:1007C000FFF7D8FE801C002072B6FEE700B595B09A
:1007D0003022002108A804F0DBFE002303930493D9
:1007E0000593069307930193204A116C41F08051C1
:1007F0001164126C02F080520192019A02931C4B18
:100800001A6842F480421A601B6803F48043029322
:10081000029B012308934FF48033099302230E9324
:100820004FF480020F9204221092A8221192129388
:100830000723139308A801F0F9FF98B90F23039336
:1008400002230493002305934FF4A05306934FF41F
:1008500080530793052103A802F04EFA20B915B082
:100860005DF804FBFFF7B0FFFFF7AEFF0038024072
:1008700000700040F8B502F071FEFFF7A7FF00F02E
:1008800063F800F0E5F800F08FF8254804F0EEFF7B
:100890000026E020FFF7A8FEFFF7B4FE0546C48B54
:1008A0002146204804F05CFFA4F57E41013904296B
:1008B000EFD8DFE801F0030910182D001A4804F002
:1008C000D5FF2846FFF7C4FE184804F0CFFF28469E
:1008D000FFF7D0FEDDE7164804F0C8FF2846FFF713
:1008E000D7FE0026D5E7134CAB8B2380124F2B8B02
:1008F0003B80124804F0BAFF3A882188104804F07F
:100900002FFFF1B22846FFF713FF0136B6B2C0E75A
:100910000C4804F0ABFFF1B22846FFF741FF00BFDF
:1009200090660008A8660008B8660008D06600084F
:10093000E46600082603002024030020F466000873
:10094000086700082867000884B000220092154B51
:10095000196B41F080011963196B01F0800100915E
:1009600000990192196B41F004011963196B01F0B0
:100970000401019101990292196B41F0010119637F
:10098000196B01F001010291029903921A6B42F076
:1009900002021A631B6B03F002030393039B04B070
:1009A000704700BF0038024008B50A480A4B036090
:1009B0004FF4E133436000238360C36003610C2282
:1009C00042618361C36102F0D5FE00B908BDFFF743
:1009D000FBFEFBE7280300200010014000B589B0B2
:1009E000002303930493059306930793026803F18E
:1009F000804303F588339A4202D009B05DF804FBC6
:100A00000021019103F594335A6C42F010025A64AC
:100A10005A6C02F010020192019A02911A6B42F094
:100A200001021A631B6B03F001030293029B4FF454
:100A3000C0630393022304930323069307230793BE
:100A400003A9024802F006FCD7E700BF00000240FD
:100A500008B5012219491A4802F032FFE0B9002313
:100A600002221849164802F059FFC0B91649144825
:100A700004F0B6F8B0B900230D221449104802F072
:100A80004DFF90B912490E4804F032FB80B90C4872
:100A900002F07AFF78B908BDFFF796FEDFE7FFF7AF
:100AA00093FEE3E7FFF790FEE5E7FFF78DFEE9E74A
:100AB000FFF78AFEEBE7FFF787FEECE788020020EE
:100AC0006C030020240000200000002040010020D2
:100AD0007C0100202DE9F0418AB0002305930693A4
:100AE0000793089309930268334B9A4202D00AB0E5
:100AF000BDE8F08100250095304C236B43F00403E2
:100B00002363236B03F004030093009B0195236B85
:100B100043F001032363236B03F001030193019B63
:100B20000295236B43F002032363236B03F002035C
:100B30000293029B0D2305934FF00208CDF8188015
:100B4000032708970A26099605A91D4802F082FB8B
:100B500028230593CDF8188007950897099605A9CD
:100B6000184802F077FB43F623430593CDF818802D
:100B700007950897099605A9134802F06BFB0395A2
:100B8000236B43F000532363236B03F00053039361
:100B9000039B0495236B43F080432363236B03F093
:100BA00080430493049B2A4629464D2002F056FCBC
:100BB0004D2002F08BFC9AE7000004400038024010
:100BC00000080240000002400004024008B500F2A4
:100BD000C441D0F8080502F024FF08BD08B501EBB8
:100BE000C10300EB8303D3F88C22D0F8080503F08F
:100BF00076F808BD08B501EBC10300EB8303DA6C9E
:100C0000D0F8080503F0D2F808BD08B5D0F80805FB
:100C100002F08FFF08BD10B50446C3683BB1022B3C
:100C200001D1012104E0FFF7CFFD012100E0002107
:100C3000D4F8080502F063FFD4F8080502F01DFFA0
:100C400010BD000010B50446D0F8080502F05AFFA8
:100C50002268D2F8003E43F00103C2F8003E236A46
:100C600023B1034A136943F00603136110BD00BFAB
:100C700000ED00E008B5D0F8080502F04DFF08BD12
:100C800008B5D0F8080502F090FF08BD08B5D0F807
:100C9000080502F073FF08BD08B5D0F8080502F09A
:100CA0009BFF08BD08B5D0F8080502F097FF08BD06
:100CB0000378012B01D00020704710B5194BC3F801
:100CC0000805C0F8EC32184A1A6008225A6000225F
:100CD000DA601A6101219961DA611A625A62DA6294
:100CE0001A635A63184600F04BF9C0B90D4C4FF423
:100CF0000071204600F040FF80220021204600F0D5
:100D000015FF4FF4BA720121204600F00FFF4FF497
:100D1000BA720321204600F009FF002010BDFFF742
:100D200053FDE3E74C07002000000440D0F8EC320C
:100D300011F0800F08D101F07F0101EBC10103EB3D
:100D4000810191F87E02704701F07F0101EBC10142
:100D500003EB810191F83E00704708B5D0F8EC0232
:100D600000F031FB08BD032805D8DFE800F00504DA
:100D70000205012070470320704708B5D0F8EC0247
:100D800000F095F9FFF7EFFF08BD08B594461A4645
:100D90006346D0F8EC0200F069FAFFF7E4FF08BD03
:100DA00008B5D0F8EC0200F0A6FAFFF7DCFF08BDAA
:100DB00008B5D0F8EC0200F03EFBFFF7D4FF08BD09
:100DC00008B5D0F8EC0200F07AFBFFF7CCFF08BDC5
:100DD00008B5D0F8EC0200F035FAFFF7C4FF08BD03
:100DE00008B5D0F8EC0200F0F7FAFFF7BCFF08BD39
:100DF00008B5D0F8EC0200F0B7FAFFF7B4FF08BD71
:100E000000207047002070470020704710B5014651
:100E1000044C204603F007FF204603F011FF00209A
:100E200010BD00BF6C03002010B5064C002206491F
:100E3000204603F0E9FE0549204603F0F4FE0020B9
:100E400010BD00BF6C03002058140020580C002077
:100E5000FEE7FEE7FEE7FEE7FEE7704770477047F4
:100E600008B502F095FB08BD08B5024800F07CFB10
:100E700008BD00BF4C07002082B0002100910B4B41
:100E80005A6C42F480425A645A6C02F480420092D6
:100E9000009A01911A6C42F080521A641B6C03F0A4
:100EA00080530193019B02B0704700BF003802409D
:100EB0002DE9F04383B0D0F8008001EBC10300EBD3
:100EC0008303DA6D5B6D9A4254D807460C469B1A31
:100ED00001EBC10200EB8202926C9A4200D31A46E7
:100EE00002F103094FEA990915E006F103094FEAF7
:100EF000990904EBC40507EB8505E96C3B7C00937D
:100F0000B3B2E2B2404601F008FAEB6C3344EB6452
:100F1000EB6D3344EB6508EB441303F510639B69F9
:100F20009BB24B4512D304EBC40207EB8202D16D96
:100F3000536D99420AD24BB15B1A04EBC40207EB22
:100F40008202966C9E42D0D31E46CEE704EBC400CC
:100F500007EB80077A6DFB6D9A420FD804F00F04FF
:100F60000123A340D8F8344824EA0304C8F83448DD
:100F7000002000E0012003B0BDE8F0830020FAE784
:100F800070B58AB0002800F090800546046890F89B
:100F9000BD343BB3032385F8BD34E36B13F4807F8A
:100FA00001D100232B61286800F0D2FE2C4654F8B2
:100FB000106BEC460FCCACE80F000FCCACE80F0088
:100FC00094E803008CE803002B1D0ECB304600F0A4
:100FD00001FE044658B1022385F8BD3401242046A1
:100FE0000AB070BD80F8BC34FFF774FDD2E7002171
:100FF000286801F0A9FB234616E003EBC30205EBCA
:101000008202012182F83D1082F83C30A2F844307F
:10101000002182F840109164D16403EBC30205EB18
:10102000820251650133DBB269688B42E5D316E079
:1010300004EBC40305EB8303002283F87D2283F8CD
:101040007C4283F88022C3F88822C3F88C2204EB08
:10105000C40305EB8303C3F894220134E4B2A14234
:10106000E6D82C4654F8106BEC460FCCACE80F00D9
:101070000FCCACE80F0094E803008CE803002B1DB4
:101080000ECB304600F0C0FE044620B1022385F8A6
:10109000BD340124A3E7002385F83830012385F807
:1010A000BD34286801F00DFB99E7012497E7026839
:1010B00090F8BC34012B19D010B50446012380F8F8
:1010C000BC34836A012B09D0206800F03BFE206805
:1010D00001F0E9FA002084F8BC0410BD8369012BFB
:1010E000F2D0936B43F480339363EDE702207047B3
:1010F00070B504460D460068066C00EB411303F51D
:1011000030639A682169012911D038498E4256D03E
:101110003DB905EBC50304EB8303D3F89432002BF0
:101120005ED0E9B22046FFF759FD002070BD12F0F5
:10113000080F09D02E498E42F7D912F4004FF4D08F
:101140004FF400429A60F0E712F0200F02D0202204
:101150009A60EAE712F0280FE7D125498E4206D9B6
:1011600012F4004F03D04FF400429A60DDE705EB24
:10117000C50204EB8202D2F898121B69C3F3120372
:10118000CB1AC2F89C327DB905EBC50204EB820292
:10119000D2F894226AB105EBC50204EB8202D2F8C0
:1011A0008C120B44C2F88C32E9B22046FFF716FDD0
:1011B000BBE704F2C442012101F008FBF4E712F49A
:1011C000004F03D04FF400429A60AEE712F0200FB8
:1011D00001D020229A60E9B22046FFF7FFFCA4E785
:1011E00004F2C442002101F0F1FA9AE70A31544FA7
:1011F0000A30544F38B5044603681D6C03EB4113A5
:10120000D3F8081B0E4A954207D903F5306311F451
:10121000004F02D04FF400429A602046FFF7D6FC00
:10122000074B9D4202D92369012B01D0002038BD14
:1012300004F2C4420121206801F0C8FAF6E700BFB9
:101240000A30544F90F8BC34012B0DD010B5044631
:10125000012380F8BC3480F83810006801F013FADC
:10126000002084F8BC0410BD0220704738B5054644
:101270008C4611F0800F29D101F00F0E0EEBCE0439
:10128000A40004F51E740444211D0EEBCE0E00EBE9
:101290008E0E00208EF87D020CF00F0C81F800C03D
:1012A000CA600B714A780AB1A1F808C0022B1DD0A0
:1012B00095F8BC34012B1CD0012385F8BC34286878
:1012C00000F07BFE002085F8BC0438BD01F00F0063
:1012D00000EBC001890038312944043100EBC00023
:1012E00005EB8000012480F83D40D5E700234B71D9
:1012F000DEE70220E9E710B504460A4611F0800F48
:1013000020D101F00F0000EBC0039B0003F51E731A
:101310002344191D00EBC00004EB8000002380F87B
:101320007D3202F00F020A7094F8BC34012B19D000
:10133000012384F8BC34206800F08EFE002084F87D
:10134000BC0410BD01F00F0000EBC0039B0038335C
:101350002344191D00EBC00004EB8000012380F83A
:101360003D30DEE70220ECE710B501F00F0404EB9E
:10137000C401890001F51E710144043104EBC40C61
:1013800000EB8C0CCCF88C22CCF894320023CCF8F7
:101390009C328CF87D328CF87C420369012B06D09C
:1013A00064B9DAB2006800F0C7FE002010BD04EB9B
:1013B000C40C00EB8C0CCCF89022F1E7DAB2006898
:1013C00000F0C2FFF1E701F00F0101EBC10100EBFA
:1013D0008101D1F89C02704710B501F00F0404EBB5
:1013E000C401890038310144043104EBC40C00EB22
:1013F0008C0CCCF84C20CCF854300023CCF85C306A
:1014000001238CF83D308CF83C400369012B06D059
:1014100064B9DAB2006800F08FFE002010BD04EB62
:10142000C40C00EB8C0CCCF85020F1E7DAB2006869
:1014300000F08AFFF1E738B501F00F0542689542E8
:1014400039D804460B4611F0800F1FD101EBC101C2
:10145000890001F51E710144043103EBC30300EB65
:101460008303002283F87D2201238B700D7094F892
:10147000BC34012B21D0012384F8BC34206801F056
:10148000A7F88DB1002084F8BC0438BD05EBC50178
:10149000890038310144043105EBC50300EB8303B7
:1014A000012283F83D20DFE704F2C442217C20685A
:1014B00001F08CF9E6E70120E7E70220E5E701F01B
:1014C0000F034268934231D810B5044611F0800FE3
:1014D0001ED103EBC301890001F51E7101440431E3
:1014E00003EBC30200EB8202002082F87D0200229F
:1014F0008A700B7094F8BC34012B19D0012384F846
:10150000BC34206801F091F8002084F8BC0410BDC0
:1015100003EBC301890038310144043103EBC302FA
:1015200000EB8202012082F83D00E0E701207047D5
:101530000220ECE708B511F0800F0CD101F00F018B
:1015400001EBC101890001F51E71014404310068FD
:1015500000F084FE08BD01F00F0101EBC10189001C
:10156000383101440431F2E72DE9F04F83B00446ED
:101570000568284601F0E4F810B103B0BDE8F08F2B
:101580000646206801F0ABF80028F6D005F50067A4
:10159000BB68C3F30D23C4F8FC34206801F09FF846
:1015A00010F0020F04D02268536903F00203536164
:1015B000206801F094F810F0100F13D0226893699E
:1015C00023F010039361D5F8208008F00F09C8F3C9
:1015D0004343022B4BD0062B6FD02268936943F014
:1015E00010039361206801F07AF810F4002F76D18F
:1015F000206801F074F810F4802F40F0E08020683B
:1016000001F06DF80028C0F26381206801F067F8EE
:1016100010F4006F09D0BB6813F0010F40F0708127
:101620002268536903F400635361206801F057F89E
:1016300010F4805F40F06881206801F050F810F4E9
:10164000005F40F0B581206801F049F810F0080F04
:1016500040F0C681206801F042F810F0800F00F0E1
:10166000D981AB6923F08003AB610126C2E147F663
:10167000F07318EA030FB0D04FEA181B4FEAC90302
:10168000019309EBC90A04EB8A0AC8F30A12DAF8D3
:101690008C12284600F072FFCBF30A0BDAF88C327A
:1016A0005B44CAF88C32019B4B4404EB8303D3F8B0
:1016B0009C325B44CAF89C328FE7082204F2C44192
:1016C000284600F05BFFC8F30A1809EBC90204EBD7
:1016D0008202D2F89C324344C2F89C327DE72068F3
:1016E00001F001F88046B14635E005EB49130122CF
:1016F000C3F8082B49462046FFF7FAFC3CE005EB0F
:1017000049130822C3F8082B49462046FFF772FD0B
:1017100035E009EBC90304EB830393F87F32012B17
:1017200041D005EB49130222C3F8082B1AF0200F11
:1017300004D005EB49132022C3F8082B1AF4005FEC
:1017400005D005EB49134FF40052C3F8082B09F1FB
:1017500001094FEA5808B8F1000F3FF449AF18F0FB
:10176000010FF4D05FFA89FB5946206800F0CBFFE7
:10177000824610F0010FB8D11AF0080FBFD11AF04D
:10178000100F04D005EB49131022C3F8082B1AF0F0
:10179000020FCBD06B6913F0800FBAD07B6843F493
:1017A00080637B60B5E709EBC90304EB8303002288
:1017B00083F87F2259462046FFF762FAB1E7206896
:1017C00000F099FF8046B14625E059462046FFF7D4
:1017D00011FA1AF0080F04D005EB49130822C3F8D8
:1017E00008291AF0100F04D005EB49131022C3F892
:1017F00008291AF0400F04D005EB49134022C3F822
:1018000008291AF0020F40D11AF0800F5BD109F1BC
:1018100001094FEA5808B8F1000F3FF4F0AE18F094
:10182000010FF4D05FFA89FB5946206800F074FF7D
:10183000824610F0010FCCD009F00F03012101FA0C
:1018400003F27B6B23EA02037B6305EB4913C3F8C6
:10185000081923698B42B8D109EBC90304EB830350
:10186000996CDA6C0A44DA64B9F1000FADD109EB76
:10187000C90304EB83035B6D002BA6D104F2C442C1
:101880000121206800F0A2FF9FE74946284600F0AA
:1018900065FA09EBC90304EB830393F83F30012B8E
:1018A00005D005EB49130222C3F80829ACE709EB80
:1018B000C90304EB8303002283F83F2059462046E6
:1018C000FFF7E4F9EDE749462046FFF7F1FA9EE716
:1018D0007B6823F001037B6094F8F434012B08D07B
:1018E0002046FFF7C7F92268536903F000435361AC
:1018F0008BE6002184F8F414204600F041F9F2E769
:101900002046FFF79FF98BE67B6823F001037B609D
:101910001021206800F022FA1AE005EB46134FF67A
:101920007F31C3F80819D3F8002922F40012C3F854
:101930000029C3F8081BD3F8002B22F40012C3F8C7
:10194000002BD3F8002B42F00062C3F8002B0136C5
:101950006368B342E1D8FB6943F00113FB61236B79
:10196000DBB1D7F8843043F00B03C7F884307B6CCD
:1019700043F00B037B64D5F8003823F4FE63C5F80D
:10198000003804F2C442217C206800F01FFF226866
:10199000536903F4805353614EE67B6943F400536B
:1019A00043F02B037B613B6943F00B033B61E2E7B0
:1019B000206800F0FAFE206800F0EEFAE060266889
:1019C00001F04AFA0146227B304600F049F92046F0
:1019D000FFF721F92268536903F40053536132E69B
:1019E0002046FFF712F92268536903F00803536198
:1019F00030E601366368B3420CD906EBC60304EB4C
:101A0000830393F87F32012BF3D1F1B22046FFF725
:101A100091FDEEE7206800F062FE10F4801F27D1F0
:101A2000206800F05CFE10F4001F5BD0012328E06A
:101A300001366368B3421DD905EB4613D3F800297C
:101A400006EBC60304EB830393F84030012BEFD180
:101A5000002AEDDA06EBC60304EB8303012283F8C8
:101A60003F2066F07F01C9B22046FFF763FDDFE744
:101A70000126DEE72268536903F480135361CFE740
:101A8000013362689A4228D905EB4312D2F8001B51
:101A900003EBC30204EB820292F88022012AEFD109
:101AA0000029EDDA01F48031D4F8FC2402F00102BF
:101AB0009142E5D103EBC30204EB8202012182F8DB
:101AC0007F12AA6942F08002AA616A6912F0800F4F
:101AD000D6D17B6843F400737B602268536903F4BA
:101AE00000135361206800F0FAFD10F0804F10D110
:101AF000206800F0F4FD10F0040F3FF43EAD2368C1
:101B00005D6815F0040F0DD1226853682B435360B4
:101B100033E52046FFF7C0F82268536903F080439D
:101B20005361E5E72046FFF7BDF8EDE710B4046820
:101B3000606A31B940EA0240A06200205DF8044BBF
:101B400070478C46A36A00EB1340002308E003F1C2
:101B5000400104EB8101496800EB11400133DBB225
:101B60000CF1FF318B42F2D340EA02400CF13F010D
:101B700004EB81014860E0E7036859620020704788
:101B80007047000082B000230193019B0133019351
:101B9000019A0F4B9A4215D80369002BF5DA0023FE
:101BA0000193036943F001030361019B0133019336
:101BB000019A074B9A4208D8036913F0010FF4D138
:101BC000002000E0032002B070470320FBE700BFC5
:101BD000400D030084B010B5044603A880E80E0051
:101BE000089B012B1FD1A36B23F48033A363E3680D
:101BF00023F4840323F04003E360E36823F44013F9
:101C0000E3600F9B012B09D02046FFF7BBFF069B2B
:101C1000012B1BD0BDE8104004B07047E36843F4CB
:101C20008013E360F0E7E36843F04003E36020469D
:101C3000FFF7A8FF0C9B23B9A36B43F48033A36386
:101C4000E5E7A36B23F48033A363E0E7A36843F0E5
:101C50000603A360A36843F02003A360DAE7000053
:101C6000022A0AD00921C26822F47052C260C368F5
:101C700043EA8123C36000207047234B0B44234A6F
:101C800093422FD9224B0B44224A93422CD9A1F5DF
:101C90007403A3F51053204A934227D9A1F183730B
:101CA000A3F5E7431D4A934222D31D4B0B441D4A23
:101CB00093421FD91C4B0B441C4A93421CD31C4B10
:101CC0000B441C4A934219D3A1F1B773A3F558539F
:101CD000194A934214D3194B0B44194A934211D217
:101CE0000721C0E70F21BEE70E21BCE70D21BAE7AF
:101CF0000C21B8E70B21B6E70A21B4E70921B2E7C6
:101D00000821B0E70621AEE7405327FFFF340C005F
:101D1000401E1BFF3F420F007F4F120020D61300D2
:101D200060B6E5FE5FE3160000D3CEFE40771B00F1
:101D3000C05BB3FEC091210020753800E05459FE0D
:101D4000E09C4100836843F00103836000207047FA
:101D5000836823F0010383600020704782B0002372
:101D60000193019B01330193019A0F4B9A4215D8BD
:101D70000369002BF5DA00230193890141F020016A
:101D80000161019B01330193019A074B9A4208D8E4
:101D9000036913F0200FF4D1002000E0032002B00B
:101DA00070470320FBE700BF400D030082B0002313
:101DB0000193019B01330193019A0E4B9A4213D870
:101DC0000369002BF5DA0023019310230361019BC3
:101DD00001330193019A074B9A4208D8036913F023
:101DE000100FF4D1002000E0032002B07047032060
:101DF000FBE700BF400D0300D0F800381943C0F8DE
:101E0000001800207047000084B02DE9F04104461E
:101E100007A880E80E00002306E003F1400204EB6F
:101E200082020021516001330E2BF6D9119F27BB8E
:101E3000D4F8043843F00203C4F80438A36B43F425
:101E40000013A363A36B23F40023A363A36B23F406
:101E50008023A3630023C4F8003E04F50065D4F892
:101E60000038C4F800380C9B012B14D1099B6BB9C6
:101E700000212046FFF7C0FF11E0A36B23F40013FD
:101E8000A363A36B43F40023A363E3E7012120468C
:101E9000FFF7B2FF03E003212046FFF7ADFF10215B
:101EA0002046FFF75BFF804608B14FF0010820464F
:101EB000FFF77CFF08B14FF0010800232B616B6135
:101EC000EB610AE0C3B94FF00060C2F800090022DC
:101ED0000A614FF67F328A6001330799994210D91F
:101EE00004EB431202F51061D2F800090028E9DB87
:101EF0000020C2F80009EAE74FF09040C2F800095C
:101F0000E5E700230AE0C3B14FF0904CC2F800CBE4
:101F1000002202614FF67F3282600133994211D96B
:101F200004EB431202F53060D2F8006B002EEADBBE
:101F30004FF0000CC2F800CBEAE74FF0006CC2F89B
:101F400000CBE5E72B6923F480732B610023A361A9
:101F50006FF0804363610A9B1BB9A36943F01003D0
:101F6000A361A2690B4B1343A3610D9B1BB1A36932
:101F700043F00803A361012F04D04046BDE8F041BF
:101F800004B07047A36943F0804343F00403A361A6
:101F9000F3E700BF00383C80D0F8083813F00603A0
:101FA00007D0022B07D0062B01D00F20704702204C
:101FB0007047002070470220704710B591F800C0AC
:101FC0004B78012B23D000F5006ED0F81C380CF0B4
:101FD0000F040122A24043EA0243C0F81C3800EB80
:101FE0004C10D0F8003B13F4004F0ED1D0F8003B5A
:101FF000CA68C2F30A02097942EA8142134343F0F4
:10200000805343F40043C0F8003B002010BDD0F8DB
:102010001C280CF00F0E03FA0EF39BB21343C0F80A
:102020001C3800EB4C10D0F8003913F4004FECD101
:10203000D0F80039CA68C2F30A02097942EA81423B
:1020400042EA8C5C43EA0C0343F0805343F40043C0
:10205000C0F80039D9E7000030B40B784A78012A7B
:1020600026D000EB4313D3F8002B002A52DBD0F824
:102070003C480A7802F00F024FF0010C0CFA02F211
:1020800024EA0242C0F83C28D0F81C28097801F064
:102090000F010CFA01FC22EA0C42C0F81C28D3F80C
:1020A000001B234A0A40C3F8002B002030BC7047B5
:1020B00000EB4313D3F80029002A1EDBD0F83C586C
:1020C0000A7802F00F02012404FA02F292B225EA21
:1020D0000202C0F83C28D0F81C28097801F00F0152
:1020E0008C40A4B222EA0404C0F81C48D3F80019BA
:1020F000104A0A40C3F80029D7E7D3F8002942F074
:102100000062C3F80029D3F8002942F08042C3F8E6
:102110000029D3E7D3F8002B42F00062C3F8002B6C
:10212000D3F8002B42F08042C3F8002B9FE700BF9A
:102130000078F3EF007833EC70B40B784C78012C16
:1021400029D000EB431000F530631C69E40CE40473
:102150001C611C6924F0FF5424F4C0141C618C69B8
:102160000CB1CC688C61CC68CC611C6944F400244F
:102170001C611C69CD69C5F3120C44EA0C041C6196
:10218000012A66D0D0F8003B43F00443C0F8003B7E
:10219000002070BC70478C696CBB00EB4314D4F812
:1021A000105925F0FF5525F4C015C4F81059D4F87E
:1021B000105945F40025C4F81059D4F81059ED0C05
:1021C000ED04C4F81059012A34D000EB4313D3F8BE
:1021D000002942F00442C3F800298B69002BD7D0B4
:1021E000D0F834380A7802F00F0101228A401343F4
:1021F000C0F83438CCE700EB431404F510642569CB
:10220000ED0CED042561256925F0FF5525F4C01579
:102210002561CD688E69AE4200D98D61256945F48E
:102220000025256125698E69C6F3120C45EA0C0567
:102230002561C8E74A691AB100EB4311C1F81429B6
:1022400000EB4310D0F8002942F00442C0F8002906
:102250009EE70A69002A95D05A6193E710B483B0CB
:10226000024600230193487801280BD00B7802EB3B
:102270004313D3F8000B00282DDB002003B05DF8DA
:10228000044B70470B7802EB4313D3F80049002C42
:1022900001DB0020F2E7D3F8004944F00064C3F802
:1022A00000490B7802EB4313D3F8004944F0804413
:1022B000C3F80049019B01330193019C42F2107362
:1022C0009C42DBD80B7802EB4313D3F80039002B88
:1022D000F0DB0020D2E7D3F8000B40F00060C3F839
:1022E000000B0B7802EB4313D3F8000B40F0804057
:1022F000C3F8000B019B01330193019842F2107364
:10230000984208D80B7802EB4313D3F8003B002B1C
:10231000F0DB0020B2E70120B0E710B59DF80840DF
:1023200084B903334FEA930E4FF0000C08E000EB42
:10233000023303F5805351F8044B1C600CF1010C7F
:10234000F445F4D3002010BDF0B583B00B784C7881
:10235000012C33D000EB431303F5306CDCF8104054
:10236000E40CE404CCF81040DCF8104024F0FF54F6
:1023700024F4C014CCF810408C69002C40F0C780C5
:10238000DCF81040CD68C5F312052C43CCF81040A2
:10239000DCF8104044F40024CCF81040012A00F08E
:1023A000D0800A79012A00F0D380D3F8002B42F0C4
:1023B0000442C3F8002B002003B0F0BD8C6984BB3D
:1023C00000EB4314D4F8105925F0FF5525F4C0153F
:1023D000C4F81059D4F8105945F40025C4F8105920
:1023E000D4F81059ED0CED04C4F81059012A4CD062
:1023F00000EB4313D3F8004944F00444C3F8004908
:102400000C79012C6AD08B69002BD4D0D0F83438E9
:102410000A7802F00F0101228A401343C0F83438D1
:10242000C9E700EB4314D4F81059ED0CED04C4F8DF
:102430001059D4F8105925F0FF5525F4C015C4F8EB
:102440001059D4F810698D69CF683D44013DB5FB42
:10245000F7F5494F07EAC5453543C4F81059D4F894
:1024600010598E69C6F312063543C4F8105904F5A5
:1024700010640D79012DB9D1256925F0C04525617C
:10248000256945F000552561B0E74A691AB100EBAE
:102490004314C4F814290A79012A08D000EB431325
:1024A000D3F8002942F00442C3F8002983E7D0F8AA
:1024B000082812F4807F08D100EB4311D1F80029DD
:1024C00042F00052C1F80029E8E700EB4311D1F8CF
:1024D000002942F08052C1F80029DFE7D0F808480F
:1024E00014F4807F0CD1D3F8004944F00054C3F8B1
:1024F000004900920B8B0A780969FFF70EFF5AE733
:10250000D3F8004944F08054C3F80049F1E7CD689E
:102510002C44013CB4FBF5F4A4B204FB05F5CD61F9
:10252000DCF81050144E06EAC4442C43CCF810409A
:10253000DCF81040CD69C5F312052C43CCF81040EF
:102540002CE70A69002A3FF42CAFCCF8142028E7C6
:10255000D0F8082812F4807F06D1D3F8002B42F07F
:102560000052C3F8002B20E7D3F8002B42F0805232
:10257000C3F8002B19E700BF0000F81F00B583B0B7
:10258000844608464FEA920E02F00302002305E05B
:102590000CF58051096840F8041B01337345F7D3EB
:1025A0009AB10CF5805CDCF8003001934FF0000C20
:1025B0005FFA8CF3D900019BCB4000F8013B0CF192
:1025C000010C013A92B2002AF2D103B05DF804FB8B
:1025D0000B784A78012A14D000EB4310D0F8002B76
:1025E000002A06DB2BB1D0F8003B23F08043C0F873
:1025F000003BD0F8003B43F40013C0F8003B002040
:10260000704700EB4310D0F80029002A06DB2BB1FD
:10261000D0F8003923F08043C0F80039D0F80039F1
:1026200043F40013C0F80039E9E70B784A78012A2F
:102630000ED000EB4310D0F8003B23F40013C0F899
:10264000003B0B79023BDBB2012B15D90020704710
:1026500000EB4310D0F8003923F40013C0F8003920
:102660000B79023BDBB2012BF0D8D0F8003943F0F4
:102670008053C0F80039E9E7D0F8003B43F08053BD
:10268000C0F8003BE2E7D0F8003823F4FE63C0F85E
:102690000038D0F80038090101F4FE611943C0F890
:1026A000001800207047D0F8003E23F00303C0F864
:1026B000003ED0F8043823F00203C0F804380020AC
:1026C0007047D0F8003E23F00303C0F8003ED0F876
:1026D000043843F00203C0F8043800207047426910
:1026E000806910407047D0F8183800F50060C06964
:1026F0001840000C7047D0F8183800F50060C06929
:10270000184080B2704700EB4111D1F8082B00F55A
:10271000006040691040704710B4D0F81048D0F8FD
:10272000343801F00F02D340DB01DBB2234300EB6E
:10273000411000F51060806818405DF8044B704748
:10274000406900F00100704738B50546C36823F0C2
:10275000C043C360012913D019BBC36843F0804351
:10276000C3600024012000F025FF01342846FFF754
:10277000E7FF08B1312CF5D9322C14D0002038BD38
:10278000C36843F00053C3600024012000F012FF2F
:1027900001342846FFF7D4FF0128EDD0312CF4D9BD
:1027A000EAE70120EBE70120E9E7D0F8003923F45C
:1027B000FF6323F00703C0F80039D0F8043843F46E
:1027C0008073C0F8043800207047000010B4046C17
:1027D000154B9C4203D9D0F8003B002B16DB00249C
:1027E000C0F8104BD0F8104B44F40024C0F8104B44
:1027F000D0F8104B44F01804C0F8104BD0F8104B30
:1028000044F0C044C0F8104B012903D000205DF80B
:10281000044B7047C0F8142BD0F8003B43F08023E2
:10282000C0F8003BF2E700BF0A30544F002800F028
:10283000E08170B582B00446036813F0010F3BD00D
:102840009F4B9B6803F00C03042B2CD09C4B9B6884
:1028500003F00C03082B21D06368B3F5803F4FD001
:10286000B3F5A02F52D0964B1A6822F480321A602A
:102870001A6822F480221A606368002B50D000F09E
:1028800093FE05468E4B1B6813F4003F14D100F0F5
:102890008BFE401B6428F5D90320B1E1884B5B68AF
:1028A00013F4800FD8D0864B1B6813F4003F03D07D
:1028B0006368002B00F09F81236813F0020F54D04F
:1028C0007F4B9B6813F00C0F3ED07D4B9B6803F051
:1028D0000C03082B33D0E368002B68D0794B01221E
:1028E0001A6000F061FE0546754B1B6813F0020F7D
:1028F00054D100F059FE401B0228F5D903207FE196
:102900006F4A136843F480331360B5E76C4B1A6861
:1029100042F480221A601A6842F480321A60ABE7EF
:1029200000F042FE0546664B1B6813F4003FC3D01F
:1029300000F03AFE401B6428F5D9032060E1604BAB
:102940005B6813F4800FC6D15D4B1B6813F0020F58
:1029500003D0E368012B40F05081594A136823F0FB
:10296000F803216943EAC1031360236813F0080FD9
:1029700042D063696BB3534B0122C3F8802E00F041
:1029800013FE05464E4B5B6F13F0020F34D100F07F
:102990000BFE401B0228F5D9032031E1484A136899
:1029A00023F0F803216943EAC1031360DDE7454BD7
:1029B00000221A6000F0F8FD0546414B1B6813F039
:1029C000020FD2D000F0F0FD401B0228F5D9032001
:1029D00016E13C4B0022C3F8802E00F0E5FD0546D1
:1029E000374B5B6F13F0020F06D000F0DDFD401B8C
:1029F0000228F5D9032003E1236813F0040F77D0F0
:102A00002F4B1B6C13F0805F33D1002301932C4BB1
:102A10001A6C42F080521A641B6C03F080530193CD
:102A2000019B0125284B1B6813F4807F23D0A368EA
:102A3000012B34D0052B38D0214B1A6F22F0010224
:102A40001A671A6F22F004021A67A368002B3DD0A0
:102A500000F0AAFD06461A4B1B6F13F0020F46D179
:102A600000F0A2FD801B41F288339842F3D9032085
:102A7000C6E00025D6E7144A136843F48073136058
:102A800000F092FD0646104B1B6813F4807FCED1F8
:102A900000F08AFD801B0228F5D90320B0E0084A27
:102AA000136F43F001031367CFE7054B1A6F42F032
:102AB00004021A671A6F42F001021A67C5E700BFE5
:102AC00000380240000047420070004000F06CFDFA
:102AD0000646524B1B6F13F0020F08D000F064FD46
:102AE000801B41F288339842F3D9032088E0EDB986
:102AF000A369002B00F08380484A926802F00C0220
:102B0000082A51D0022B17D0454B00221A6600F03C
:102B10004BFD0446414B1B6813F0007F42D000F090
:102B200043FD001B0228F5D9032069E03B4A136CE2
:102B300023F080531364DBE7394B00221A6600F060
:102B400033FD0546354B1B6813F0007F06D000F0BF
:102B50002BFD401B0228F5D9032051E0E369226ACE
:102B60001343626A43EA8213A26A5208013A43EAB3
:102B70000243E26A43EA0263284A5360284B012277
:102B80001A6600F011FD0446244B1B6813F0007F09
:102B900006D100F009FD001B0228F5D903202FE023
:102BA00000202DE000202BE0012B2BD01B4B5B687D
:102BB00003F48001E269914226D103F03F02216AC9
:102BC0008A4223D1616A47F6C0721A40B2EB811F74
:102BD0001ED103F44031A26A5208013AB1EB024F10
:102BE00018D103F07063E26AB3EB026F14D10020D6
:102BF00006E001207047012002E0012000E00020F3
:102C000002B070BD0120FBE70120F9E70120F7E7E2
:102C10000120F5E70120F3E70120F1E70038024049
:102C20000000474208B5314B9B6803F00C03042BAE
:102C300057D0082B57D12D4B5A6802F03F025B68E2
:102C400013F4800F2AD0294B5968C1F3881C4FEA2E
:102C50004C11B1EB0C006EEB0E0E4FEA8E1343EAF3
:102C600090638101091A63EB0E03DB0043EA5173A1
:102C7000C90011EB0C0C43F10003590200234FEA89
:102C80004C2041EADC51FDF7F3FA184B5B68C3F3C3
:102C9000014301335B00B0FBF3F025E0134B5968AF
:102CA000C1F3881C4FEA4C11B1EB0C006EEB0E0E19
:102CB0004FEA8E1343EA90638101091A63EB0E0316
:102CC000DB0043EA5173C90011EB0C0C43F1000324
:102CD000990200234FEA8C2041EA9C51FDF7C8FA83
:102CE000D3E7034800E0034808BD00BF00380240B6
:102CF00000127A000024F400002800F09B8070B5D8
:102D00000D4604464F4B1B6803F007038B4208D265
:102D1000CBB24C4A1370136803F007038B4240F0A8
:102D20008B80236813F0020F17D013F0040F04D028
:102D3000454A936843F4E0539360236813F0080F07
:102D400004D0414A936843F4604393603E4A9368D9
:102D500023F0F003A1680B439360236813F0010F85
:102D600032D06368012B21D09A1E012A25D9364A18
:102D7000126812F0020F61D033498A6822F0030210
:102D800013438B6000F010FC06462F4B9B6803F04A
:102D90000C036268B3EB820F16D000F005FC801BB9
:102DA00041F288339842F0D9032042E0264A126863
:102DB00012F4003FE0D101203BE0234A126812F0F8
:102DC000007FD9D1012034E01E4B1B6803F00703BC
:102DD000AB4207D9EAB21B4B1A701B6803F007031A
:102DE000AB422DD1236813F0040F06D0164A936826
:102DF00023F4E053E1680B439360236813F0080F5A
:102E000007D0114A936823F46043216943EAC10360
:102E10009360FFF707FF0C4B9B68C3F303130B4A48
:102E2000D35CD8400A4B18600A4B186800F070FB5E
:102E3000002070BD012070470120FAE70120F8E76B
:102E40000120F6E7003C02400038024040670008DD
:102E50001C00002018000020014B1868704700BFBC
:102E60001C00002008B5FFF7F7FF044B9B68C3F375
:102E70008223034AD35CD84008BD00BF003802401B
:102E80005067000808B5FFF7E7FF044B9B68C3F3E2
:102E90004233034AD35CD84008BD00BF003802402B
:102EA0005067000810B40A490C6924F440740C619E
:102EB0000C6944F440740C610C6944F001040C6129
:102EC0000260BFF36F8F43605DF8044B704700BF33
:102ED000003C0240074B1A6922F440721A611A69D9
:102EE00042F400721A611A6942F001021A6101602B
:102EF000704700BF003C0240074B1A6922F4407241
:102F00001A611A6942F480721A611A6942F0010268
:102F10001A610180704700BF003C0240064B1A69ED
:102F200022F440721A611A691A611A6942F00102A8
:102F30001A610170704700BF003C0240204BDB6803
:102F400013F0100F07D01F4AD36943F01003D36169
:102F50001B4B1022DA601A4BDB6813F0200F07D0EE
:102F6000184AD36943F00803D361154B2022DA6075
:102F7000134BDB6813F0400F07D0124AD36943F0BC
:102F80000403D3610E4B4022DA600D4BDB6813F073
:102F9000800F07D00B4AD36943F00203D361084B7B
:102FA0008022DA60064BDB6813F0020F07D0054A77
:102FB000D36943F02003D361014B0222DA607047EA
:102FC000003C0240581C0020094B1B69002B01DB10
:102FD00000207047064B074A5A6002F188325A6057
:102FE0001B69002B01DB002070470120704700BFE8
:102FF000003C024023016745034A136943F0004344
:1030000013610020704700BF003C024038B5044601
:10301000144B0022DA6100F0C7FA0546124BDB6858
:1030200013F4803F0AD0B4F1FF3FF7D024B100F091
:10303000BBFA401BA042F1D903200DE00A4BDB682C
:1030400013F0010F02D0084B0122DA60064BDB6857
:1030500013F0F20F01D1002038BDFFF76FFF012000
:10306000FAE700BF581C0020003C0240F8B51646A5
:103070001B4A127E012A30D004460D461F46184BCB
:1030800001221A764CF25030FFF7C0FF90B9ACB174
:10309000012C18D0022C1BD032463B462846FFF7A5
:1030A00001FF4CF25030FFF7B1FF0E4A136923F0D5
:1030B000010313610A4B00221A76F8BDF1B22846CB
:1030C000FFF72CFFEDE7B1B22846FFF715FFE8E761
:1030D00031462846FFF7FEFEE3E70220EDE700BF9A
:1030E000581C0020003C0240074B196921F4407134
:1030F0001961196941F0040119611A6942EA002253
:1031000042F480321A617047003C024049B1012903
:1031100021D0022902D04FF4407C04E04FF4007C1F
:1031200001E04FF0000C0D4B196921F44071196159
:103130001A6942EA0C021A611A6922F0F8021A614D
:103140001A6942EAC00040F0020018611A6942F4AC
:1031500080321A6170474FF4807CE4E7003C024003
:10316000164B1B6813F4007F10D0144B1A6822F41E
:1031700000721A601A6842F400621A601A6822F437
:1031800000621A601A6842F400721A600B4B1B68E6
:1031900013F4806F10D0094B1A6822F480621A6011
:1031A0001A6842F480521A601A6822F480521A6037
:1031B0001A6842F480621A60704700BF003C024007
:1031C000F8B5224B1B7E012B3ED004460E461F4B0A
:1031D00001221A764CF25030FFF718FF074670BBF9
:1031E0004FF0FF3333602368012B16D0A568E368E6
:1031F000A2681344AB4220D9217C2846FFF786FF02
:103200004CF25030FFF702FF114A136923F0FA0322
:103210001361074680B90135E9E76168207CFFF753
:1032200063FF4CF25030FFF7F1FE0746084A13697E
:1032300023F00403136100E03560FFF791FF034BB7
:1032400000221A763846F8BD0227FBE7581C0020FA
:10325000003C024000230F2B00F2E48070B582B0E6
:1032600060E085685E000324B44025EA0405CC686C
:10327000B4402C438460456825EA02054C68C4F3D9
:1032800000129A402A4342605AE0DC08083450F8A1
:10329000246003F0070295000F22AA4026EA020EDE
:1032A0000A69AA4042EA0E0240F824205CE00722A4
:1032B00000E0002202FA0EF22A4302345A4D45F889
:1032C00024205A4A94686FEA0C0224EA0C054E68DE
:1032D00016F4801F01D04CEA0405544CA560E46844
:1032E00002EA04054E6816F4001F01D04CEA0405FA
:1032F0004E4CE560646802EA04054E6816F4003F2F
:1033000001D04CEA0405494C6560246822404D68B0
:1033100015F4803F01D04CEA0402444C2260013392
:103320000F2B7DD801229A400C6804EA020C32EA85
:103330000404F4D14C6804F00304013C012C90D93E
:103340004A6802F00302032A09D0C4685D00032220
:10335000AA4024EA02048A68AA402243C2604A685A
:1033600002F00302022A90D004684FEA430E0322BF
:1033700002FA0EF224EA02044A6802F0030202FA98
:103380000EF2224302604A6812F4403FC7D0002286
:103390000192274A546C44F480445464526C02F401
:1033A00080420192019A9C08A51C1F4A52F82550A0
:1033B00003F003024FEA820E0F2202FA0EF225EA10
:1033C00002051C4A90423FF474AF02F580629042BD
:1033D0001AD002F58062904218D002F580629042C5
:1033E00016D002F58062904214D002F580629042BD
:1033F00012D002F58062904210D002F580629042B5
:103400003FF455AF082255E7012253E7022251E766
:1034100003224FE704224DE705224BE7062249E746
:1034200002B070BD704700BF00380140003C014051
:103430000038024000000240074AD36823F4E063EA
:103440001B041B0C000200F4E060034343F0BF6365
:1034500043F40033D360704700ED00E000B5194B32
:10346000DB68C3F30223C3F1070CBCF1040F28BFD0
:103470004FF0040C03F1040EBEF1060F18D9033B04
:103480004FF0FF3E0EFA0CFC21EA0C0199400EFAB7
:1034900003F322EA0303194300280BDB0901C9B235
:1034A00000F1604000F5614080F800135DF804FB16
:1034B0000023E5E700F00F000901C9B2024B1954DF
:1034C000F4E700BF00ED00E014ED00E0002807DBAA
:1034D00000F01F02400901239340024A42F82030C5
:1034E000704700BF00E100E00138B0F1807F0BD2EF
:1034F0004FF0E0235861054AF02182F823100020A4
:10350000986107221A6170470120704700ED00E0C2
:1035100010B504460E4B18784FF47A73B3FBF0F3F2
:103520000C4A1068B0FBF3F0FFF7DEFF68B90F2C10
:1035300001D901200AE0002221464FF0FF30FFF7B9
:103540008DFF054B1C60002000E0012010BD00BF76
:10355000140000201C0000201800002008B50B4BB0
:103560001A6842F400721A601A6842F480621A60A3
:103570001A6842F480721A600320FFF75DFF0F2083
:10358000FFF7C6FFFDF778FC002008BD003C0240B5
:10359000034A1168034B1B780B441360704700BF4C
:1035A000781C002014000020014B1868704700BFF1
:1035B000781C002038B50446FFF7F6FF0546B4F145
:1035C000FF3F02D0044B1B781C44FFF7EDFF401B6C
:1035D000A042FAD338BD00BF1400002038B504461D
:1035E0000268136923F44053C1680B431361836875
:1035F0000269134342691343C2691A430168CB68E5
:1036000023F4164323F00C031343CB600268536981
:1036100023F4407381690B4353610368314A934239
:1036200006D002F58062934202D0FFF71BFC01E056
:10363000FFF728FCE369B3F5004F29D000210318F8
:1036400049411B1841F10001C90041EA5371DB00F7
:10365000181863684FEA83024FEA937341F100013F
:10366000FCF706FE204DA5FB00325109642303FB45
:1036700011031B013233A5FB03235B0903F0F002A6
:1036800002EB011203F00F03216813448B6038BD75
:103690000023021843EB0301121841F10001C90095
:1036A00041EA5271D200101841F10001626892188B
:1036B0005B41FCF7DDFD0C4DA5FB00325109642395
:1036C00003FB1103DB003233A5FB03235B095A0024
:1036D00002F4F87202EB011203F0070321681344AD
:1036E0008B60D4E7001001401F85EB512DE9F843B2
:1036F00005460F4616469946DDF820802C6824685A
:1037000037EA04030CBF4FF0010C4FF0000CB44536
:103710002DD1B8F1FF3FF1D0B8F1000F05D0FFF780
:1037200043FFA0EB09004045E8D92A6802F10C03E9
:1037300053E8003F23F4D0730C3242E800310029F3
:10374000F3D12A6802F1140353E8003F23F0010388
:10375000143242E800310029F3D1202385F83D30AE
:1037600085F83E30002385F83C30032000E000203F
:10377000BDE8F88358B310B5044690F83D300BB35C
:10378000242384F83D302268D36823F40053D360A7
:103790002046FFF723FF2268136923F49043136147
:1037A0002268536923F02A0353612268D36843F4E3
:1037B0000053D36000202064202384F83D3084F837
:1037C0003E3010BD80F83C30FDF708F9D8E7012005
:1037D00070472DE9F04182B01E4690F83D30DBB2D3
:1037E000202B54D104460D469046002953D0002A80
:1037F00053D090F83C30012B51D0012380F83C305D
:1038000000230364212380F83D30FFF7CDFE0746F7
:10381000A4F82480A4F82680A368B3F5805F05D0BF
:103820004FF00008002384F83C3012E0236913B104
:103830004FF00008F6E7A8460025F3E738F8023B0A
:103840002268C3F308035360E28C92B2013A92B249
:10385000E284E38C9BB273B100963B460022802148
:103860002046FFF743FFE0B9002DE7D015F8012B04
:1038700023685A60E8E700963B4600224021204634
:10388000FFF734FF78B9202384F83D3000E00220B0
:1038900002B0BDE8F0810120FAE70120F8E702203C
:1038A000F6E70320F4E70320F2E70000034AD2F82A
:1038B000883043F47003C2F88830704700ED00E0B0
:1038C00050B308B58446002315E003F1AE0E002086
:1038D0004CF82E0003F1B60E0CEB8E0ECEF8040061
:1038E000C3EBC30E0CEBCE0ECEF80803CCF8FC02F3
:1038F000CCF8F8020133032BE7D90023CCF8F432DB
:1039000009B1CCF8B41201238CF89C328CF8002059
:103910006046FDF7CDF908BD0320704730B583B090
:1039200004460020ADF80600D4F8F80203281CD89D
:10393000D4F8FC52032D18D809B300F1AE0C44F8AA
:103940002C10C0EBC00004EBC000C0F824330023EF
:10395000204601F029FDD4F8F8320133C4F8F832DA
:10396000D4F8FC320133C4F8FC32064B9B6A0DF1EB
:1039700006009847C4F8F402002003B030BD0320CD
:10398000FBE700BF8C01002008B50022C0F8F82238
:10399000FDF7F3F908BDF8B505460E4600242746A5
:1039A00000E00134032C17D8C4EBC40305EBC303B8
:1039B000D3F80833012BF4D104F1AE0355F82330CA
:1039C000002BEED0C5F8F8421B68314628469847D0
:1039D0000028E6D00327E4E73846F8BDF8B50546E9
:1039E0000E460024274600E00134032C17D8C4EB10
:1039F000C40305EBC303D3F80833012BF4D104F15E
:103A0000AE0355F82330002BEED0C5F8F8425B68C2
:103A10003146284698470028E6D00327E4E7384691
:103A2000F8BD38B5044600F2AA25284600F092FAFF
:103A30000123C4F89432B4F8B032C4F8983294F840
:103A4000AA1201F01F03012B0DD0022B10D02BB1B5
:103A500001F080012046FDF7ABF903E0294620463E
:103A600000F08CFC38BD2946204600F0C2FCF9E786
:103A70002946204600F000FDF4E7F8B5054601238D
:103A800080F89C320026C0F894624660C0F8A462B8
:103A900080F8A062344600E00134032C19D8C4EB4E
:103AA000C40305EBC303D3F80833012BF4D104F1AD
:103AB000AE0355F82330002BEED0C5F8F8425B6812
:103AC000002BE9D02979284698470028E4D003261E
:103AD000E2E74023002211462846FDF756F9012768
:103AE000A5F864714024C5F8604123460022802176
:103AF0002846FDF74AF9AF842C623046F8BD0174C0
:103B00000020704790F89C32DBB280F89D3204238D
:103B100080F89C320020704790F89C32DBB2042B76
:103B200001D00020704790F89D32DBB280F89C32C3
:103B3000F7E738B590F89C32DBB2032B1BD000209E
:103B400038BD0134032CFAD8C4EBC40305EBC3031E
:103B5000D3F80833012BF4D104F1AE0355F8233028
:103B6000002BEED0DA69002AEBD0C5F8F842DB6909
:103B700028469847E5E705460024E3E708B5D0F86E
:103B8000F832AE3350F823205AB190F89C32DBB2B1
:103B9000032B01D0002008BD136A23B198470020F1
:103BA000F9E70320F7E70020F5E708B5D0F8F83289
:103BB000AE3350F823205AB190F89C32DBB2032B7D
:103BC00001D0002008BD536A23B198470020F9E7CF
:103BD0000320F7E70020F5E70020704770B50546A1
:103BE000012380F89C320024264600E00134032C97
:103BF00017D8C4EBC40305EBC303D3F80833012B78
:103C0000F4D104F1AE0355F82330002BEED0C5F803
:103C1000F8425B682979284698470028E6D00326B1
:103C2000E4E7304670BD00231CE00CF1010CC3EB4F
:103C3000C30200EBC202D2F82823624511D9C3EBBC
:103C4000C30200EBC202624492F82C238A42ECD1F8
:103C500003F1AE0250F822209268002AE5D0D8B2D3
:103C600070470133032B0AD8C3EBC30200EBC20237
:103C7000D2F80823012AF4D14FF0000CD7E7FF2037
:103C8000704700231CE00CF1010CC3EBC30200EBF6
:103C9000C202D2F80C23624511D9C3EBC3020CEB6C
:103CA0004202C43210F822208A42ECD103F1AE0263
:103CB00050F822209268002AE5D0D8B2704701332C
:103CC000032B0AD8C3EBC30200EBC202D2F80823CD
:103CD000012AF4D14FF0000CD7E7FF20704738B528
:103CE00004460D46002943D11346D0F89422032AF6
:103CF00001D0084638BDD0F85C11D0F8602191425F
:103D000012D890F8AA3203F01F03012B17D0022B10
:103D10001CD0284694F89C32DBB2032B1BD02046E3
:103D200000F009FD2846E5E7891AC0F85C118A42CF
:103D300028BF0A46194600F0F6FC2846DAE790F854
:103D4000AE12FFF770FF0328E9D8E3E790F8AE1250
:103D5000FFF797FFF7E700F1AE0354F823301A6935
:103D6000002ADCD0C4F8F8021B6920469847D6E741
:103D700001F07F01FFF785FF032813D894F89C32E8
:103D8000DBB2032B01D00020B4E700F1AE0354F8FE
:103D900023309A6942B1C4F8F8029B69294620464B
:103DA0009847A7E70020A5E70020A3E738B5044619
:103DB0000D4600294BD11346D0F89422022A07D091
:103DC00094F8A00218B1002384F8A032284638BD28
:103DD000C269016A8A420ED88A4218D094F89C328D
:103DE000DBB2032B27D080212046FCF7E1FF2046E1
:103DF00000F0ACFCE4E7521AC261194600F07CFC0A
:103E000000231A4619462046FCF7F2FFD8E78369DB
:103E10009942E3D8D0F898229342DFD2002211468B
:103E200000F06AFC0021C4F898120B460A462046AE
:103E3000FCF7DEFFC4E7D4F8B832DA68002AD2D043
:103E40000022C4F8F822DB6820469847CBE741F00F
:103E50008001FFF716FF032813D894F89C32DBB2D9
:103E6000032B01D00020B2E700F1AE0354F8233059
:103E70005A6942B1C4F8F8025B692946204698475E
:103E8000A5E70020A3E70020A1E730B58646002380
:103E900001E00133DBB2DEF8F842C4EBC40C0EEBF8
:103EA000CC0CDCF80C03834222D2C4EBC40C03EB31
:103EB0004C0C0CF1C40C1EF82C0000F0800C8C454E
:103EC000E7D1C4EBC40C03EB4C0C0CF1C40C0EEBAF
:103ED0008C0C9CF801C09445DBD1C4EBC40403EB0B
:103EE0004405C4350EEB8505EC78002CD1D000E0FC
:103EF000FF2030BD03780A8813440B8003781844F0
:103F00007047428803789A4218D930B583B0044686
:103F10000D46ADF806306288BDF806309A420AD9DF
:103F20000DF10601FFF7E6FF4378052BF3D1837807
:103F3000AB42F0D100E0002003B030BD002070475C
:103F40000346002002E00130C0B201331A78002A93
:103F5000F9D170470B7803704B7843708B78CA782F
:103F600043EA022343800B794A7943EA02238380A0
:103F70008B79CA7943EA0223C380704710B504469F
:103F80008021FCF715FF00212046FCF711FF10BD32
:103F900070B582B004460D460023ADF806304A885D
:103FA000130A013B062B00F2E880DFE813F007005C
:103FB00022004800E600E600B800CE00D0F8B43297
:103FC0001B680DF10601007C9847EA88002A00F082
:103FD000DD80BDF80630002B00F0D3809A4228BF68
:103FE0001A46ADF806200146204600F078FB02B0E4
:103FF00070BD037C8BB990F8FC323BB1654B9B6A7A
:104000000DF10600984702234370DEE7D0F8B8327E
:104010009B6A0DF106009847F5E790F8FC323BB13A
:104020005C4BDB6A0DF10600984702234370CCE736
:10403000D0F8B832DB6A0DF106009847F5E7D2B246
:10404000052A69D8DFE802F003101D2A3744D0F8AA
:10405000B4325B6823B10DF10601007C9847B4E7E8
:104060002946FFF78BFFC2E7D0F8B4329B6823B133
:104070000DF10601007C9847A7E72946FFF77EFF70
:10408000B5E7D0F8B432DB6823B10DF10601007C4E
:1040900098479AE72946FFF771FFA8E7D0F8B432AE
:1040A0001B6923B10DF10601007C98478DE7294675
:1040B000FFF764FF9BE7D0F8B4325B6923B10DF1E1
:1040C0000601007C984780E72946FFF757FF8EE7F7
:1040D000D0F8B4329B6923B10DF10601007C9847FA
:1040E00073E72946FFF74AFF81E706F1AE0354F86C
:1040F00023309A6B52B1C4F8F8629B6B0DF1060243
:10410000A9782046984700287FF45FAF0136D4F89D
:10411000FC32B342E9D858E700263046F7E7037C83
:104120007BB990F8FC322BB11A4B5B6B0DF106009A
:1041300098474AE7D0F8B8325B6B0DF10600984714
:1041400043E72946FFF71AFF51E7037C8BB990F844
:10415000FC323BB10F4B1B6B0DF106009847072358
:10416000437032E7D0F8B8321B6B0DF10600984768
:10417000F5E72946FFF702FF39E72946FFF7FEFE7C
:1041800035E729462046FFF7F9FE30E7204600F0E4
:10419000D2FA2CE78C01002038B504468B88FBB995
:1041A000CB88EBB94B887F2B1AD803F07F0590F8AA
:1041B0009C32DBB2032B0CD080F89E522946FCF7D0
:1041C00007FE204600F0B7FA35B1022384F89C328E
:1041D00009E0FFF7D3FE06E0012384F89C3202E0F9
:1041E0002046FFF7CBFE38BD70B504460E468D78ED
:1041F0002F4B1D70012D10D890F89C32DBB2022B92
:104200000FD0032B26D0FFF7B9FE294B1978204693
:10421000FFF7E4FB0325284670BDFFF7AFFE03253B
:10422000F9E7A5B145602946FFF7B5FB054638B16A
:1042300031462046FFF7A2FE022384F89C32EAE7CB
:10424000204600F078FA032384F89C32E3E700F07C
:1042500072FAE0E7CDB141688D4225D0C9B2FFF7CF
:10426000BDFB134B197861602046FFF794FB0546B0
:10427000B0B131462046FFF781FE21792046FFF795
:10428000ADFB022384F89C32C5E7022380F89C3200
:1042900045602946FFF7A2FB204600F04CFABAE73A
:1042A000204600F048FAB6E700F045FA0025B2E7EC
:1042B0007C1C002008B5CB88012B0BD190F89C32D8
:1042C000DBB2022B09D9032B09D10122011D00F019
:1042D00006FA01E0FFF752FE08BD5BB213B9FFF723
:1042E0004DFEF9E70146002341F8083F012200F0A6
:1042F000F6F9F1E708B590F89C32013B022B12D891
:10430000CB88022B0CD10123C360D0F8A4320BB1AF
:104310000323C360022200F10C0100F0E0F908BDA4
:10432000FFF72CFEFBE7FFF729FEF8E708B54B88FF
:10433000012B04D0022B07D0FFF720FE08BDC0F8E8
:10434000A43200F0F8F9F9E78B881B0A80F8A03254
:1043500000F0F1F9F2E708B590F89C32013B022B2E
:1043600009D84B88012B00D008BD0023C0F8A43227
:1043700000F0E1F9F8E7FFF701FEF5E738B50C7852
:1043800004F06004202C06D0402C04D06CB1FFF760
:10439000F5FD002407E0D0F8F832AE3350F82330B2
:1043A0009B6898470446204638BD4D78092D1DD896
:1043B000DFE805F012191C161C08051C0F0BFFF78F
:1043C000E7FDF0E7FFF7E8FEEDE7FFF70DFF044636
:1043D000E9E7FFF76FFFE6E7FFF78CFF2C46E2E720
:1043E000FFF7A4FFDFE7FFF7B6FFDCE7FFF7C6FD47
:1043F000D9E770B505460C460B7803F06003202B17
:1044000007D0402B05D023B1FFF7B8FD002630467A
:1044100070BD95F89C32013B022B27D821790329E6
:104420001ED82846FFF7FFFB03280DD800F1AE0386
:1044300055F823309A688AB1C5F8F8029B6821467E
:1044400028469847064600E00326E388002BDED185
:10445000002EDCD1284600F06EF9D8E70326F4E7F9
:1044600021462846FFF78AFD0026D0E72146284648
:10447000FFF784FD0026CAE72DE9F04106460D4608
:104480008B88DFB20C7804F06004202C08D0402C1C
:1044900006D0D4B1FFF772FD00242046BDE8F081BC
:1044A00039463046FFF7EDFB032800F2F780C6F8E7
:1044B000F802AE3056F820309B68002B00F0F080F8
:1044C0002946304698470446E7E791F80180B8F15D
:1044D000010F31D0B8F1030F05D0B8F1000F66D04D
:1044E000FFF74CFDD9E790F89C32DBB2022B04D0E9
:1044F000032B12D0FFF742FDCFE70FB1802F04D17D
:1045000029463046FFF73AFDC7E73946FCF750FC2D
:1045100080213046FCF74CFCBFE74B8823B91FB124
:10452000802F01D0CB881BB1304600F004F9B4E7EE
:104530003946FCF73DFCF7E790F89C32DBB2022BE2
:1045400004D0032B12D0FFF719FDA6E70FB1802F7F
:1045500004D129463046FFF711FD9EE73946FCF7A6
:1045600027FC80213046FCF723FC96E74B88002B84
:1045700093D117F07F0F16D1304600F0DCF83946A2
:104580003046FFF77EFB032887D8C6F8F802AE3026
:1045900056F820309B68002B3FF47FAF2946304609
:1045A0009847044679E73946FCF70AFCE4E790F8B7
:1045B0009C22D2B2022A05D0032A27D0FFF7DEFCC4
:1045C00044466AE70FB1802F13D113F0800F14D146
:1045D00007F07F0707EB8707B90001F5A8713144A1
:1045E000043100230B600222304600F078F8444684
:1045F00053E7FFF7C3FC44464FE707F07F0707EB9D
:104600008707B900103131440431EAE75BB2002B6F
:104610001FDB07F00F0202EB820200EB8202B2F80E
:1046200064211AB3002B25DB07F07F0303EB830320
:104630009C0004F5A874344404340FB1802F22D1B7
:104640000023236002222146304600F048F8444609
:1046500023E707F00F0202EB820200EB8202928C4A
:10466000002ADFD1FFF78AFC444616E7FFF786FCF5
:10467000444612E707F07F0303EB83039C001034EA
:1046800034440434D9E739463046FCF74FFB10B1C7
:1046900001232360D6E700232360D3E70024FCE650
:1046A0000024FAE6D0B170B50D4616460446FFF771
:1046B00047FC431C5B009BB233802B7003236B7061
:1046C000022307E0EA5401345A1CD2B20021A95453
:1046D0000233DBB22278002AF4D170BD704708B5EE
:1046E00013460222C0F894228361C3610A46002166
:1046F000FCF776FB002008BD08B513460A460021EA
:10470000FCF76EFB002008BD08B513460322C0F875
:104710009422C0F85831C0F85C310A460021FCF7F9
:1047200067FB002008BD08B513460A460021FCF7C8
:104730005FFB002008BD08B50422C0F894220023C6
:104740001A461946FCF74CFB002008BD08B50522A7
:10475000C0F8942200231A461946FCF749FB0020B2
:1047600008BD10B5D0F8F83203F1B20200EB8202B6
:10477000546894B1B63300EB830043687BB194F87E
:104780000002FF280DD09B6894F80122214698472B
:10479000FF2384F80032002010BD0320FCE7002036
:1047A000FAE70020F8E738B5D0F8F832B23300EB7A
:1047B00083035D6895B10446FCF7CFFAC5F80C0297
:1047C000D4F8F832B63304EB83046368DB6805F58C
:1047D0000371D5F804029847002038BD0320FCE798
:1047E00038B5D0F8EC52D0F8F832B23300EB83038E
:1047F0005C6884B301F00F0303EB830200EB8202D9
:1048000092694AB103EBC30C05EB8C05AD6CB2FBAE
:10481000F5FC05FB1C2292B10023C4F81432D0F839
:10482000F832B63300EB830043681B69ABB10A462C
:1048300004F50471D4F808029847002038BD03EB52
:10484000830300EB830300249C6123462246FCF78C
:10485000C7FA2046F2E70320F0E70020EEE7F0B5C4
:1048600083B00D46D0F8F81201F1B20300EB8303D8
:104870005F6800238DF80730ADF80430002F7AD040
:1048800004462B7813F0600634D0202E6CD1EA88D1
:104890002AB313F0800F07D16B7887F80032EA88CB
:1048A0003F2A13D8D2B212E0B63100EB81014B6837
:1048B0009B68394668789847EA88072A28BF072204
:1048C00039462046FFF70BFF002651E0402287F8CB
:1048D000012239462046FFF717FF002648E0B6318F
:1048E00000EB810463689B6800222946687898473A
:1048F00000263DE06F780B2F31D8DFE807F006394E
:104900003030303030303030162690F89C32DBB208
:10491000032B04D02946FFF731FB032628E00222AF
:1049200001A9FFF7DCFE3E4622E090F89C32DBB2A4
:10493000032B04D02946FFF721FB032618E00122B0
:104940000DF10701FFF7CBFE12E090F89C32DBB2CD
:10495000032B0DD02946FFF711FB032608E029465B
:10496000FFF70CFB032603E02946FFF707FB0326AE
:10497000304603B0F0BD0326FAE70000F8B5044660
:1049800002228021FFF781FA2B4D2870022200219C
:104990002046FFF77AFA294F3870032280212046FB
:1049A000FFF773FA264E307029782046FCF7F8F9A5
:1049B0002B7803F00F0303EB830304EB8303002541
:1049C0009D8439782046FCF7EBF93B7803F00F0320
:1049D00003EB830304EB8303A3F86451317820468F
:1049E000FCF7DEF9337803F00F0303EB830204EBEB
:1049F00082029584D584D4F8F83203F1B20204EB34
:104A000082025268AAB1B63304EB83035B685B6829
:104A10009847D4F8F832B23304EB8303586800F0B7
:104A2000AFFDD4F8F832B23304EB83035D60C4F811
:104A3000C8520020F8BD00BF210000202200002045
:104A400020000020F8B504464FF4077000F090FDF8
:104A5000002800F0818005464FF40772002100F025
:104A600097FDD4F8F832B23304EB83035D60C4F8E9
:104A7000C852022280212046FFF707FA554B1870D2
:104A8000022200212046FFF700FA534B1870032240
:104A900080212046FFF7F9F9504B1870237C002B3A
:104AA00063D14C4E4FF40073022231782046FCF75C
:104AB0006CF9337803F00F0303EB830304EB8303F8
:104AC00001269E84444F4FF4007302223978204619
:104AD000FCF75BF93B7803F00F0303EB830304EB74
:104AE0008303A3F864613D4B1B7803F00F0303EBD2
:104AF000830304EB83031022DA84384E0823032255
:104B000031782046FCF741F9337803F00F0303EBCB
:104B1000830304EB830301229A840026C5F8046210
:104B2000D4F8F832B63304EB83035B681B6898470C
:104B3000C5F81462C5F81862D5F80422002A47D0D7
:104B4000257C002D3CD14FF4007323490978204681
:104B5000FCF74EF92846F8BDD4F8F832B23304EB2E
:104B60008304002363600225F4E71A4E40230222E7
:104B700031782046FCF709F9337803F00F0303EB93
:104B8000830304EB830301269E84134F40230222F8
:104B900039782046FCF7F9F83B7803F00F0303EB74
:104BA000830304EB8303A3F864610C4B1B7803F0CD
:104BB0000F0303EB830304EB83031022DA849CE7E7
:104BC0004023054909782046FCF712F90025C1E782
:104BD0000225BFE721000020220000202000002045
:104BE00081B110B4D0F8F8325A1EC0F8F82203F19F
:104BF000B50200EB82025160C0F8F83200205DF887
:104C0000044B704703207047D0F8F832B23300EB02
:104C1000830043682BB1C3F80812C3F810220020A8
:104C2000704703207047D0F8F832B23300EB8300AE
:104C300043681BB1C3F8041200207047032070477B
:104C400070B50446D0F8F832B23300EB83035E68E7
:104C500002220021FFF719F90F4B1870D4F8F8322F
:104C6000B23304EB83035B689BB10146257C45B9F5
:104C70004FF40073D6F804222046FCF7B9F8284612
:104C800070BD4023D6F804222046FCF7B1F8002579
:104C9000F5E70325F3E700BF22000020002070475E
:104CA000002070470020704738B5D0F8F832B23392
:104CB00000EB83035D6895B10446FCF74EF8C5F838
:104CC0000C02D4F8F832B63304EB830463689B68B3
:104CD00005F50371D5F804029847002038BD03207C
:104CE000FCE738B5D0F8EC52D0F8F832B23300EB2C
:104CF00083035C6884B301F00F0303EB830200EBD2
:104D0000820292694AB103EBC30C05EB8C05AD6CD2
:104D1000B2FBF5FC05FB1C2292B10023C4F814324F
:104D2000D0F8F832B63300EB83004368DB68ABB1F0
:104D30000A4604F50471D4F808029847002038BDEB
:104D400003EB830300EB830300249C61234622468C
:104D5000FCF746F82046F2E70320F0E70020EEE7F4
:104D600008B5FFF70BF9032008BD08B5FFF706F9F2
:104D7000032008BD08B58B88042B03D0FFF7FEF88D
:104D8000032008BDCA880249FFF7A9FC0020F8E704
:104D90006000002010B58C788B88052B06D14CB9AB
:104DA000CA880649FFF79BFC204610BDFFF7E6F8CE
:104DB0000324F9E7FFF7E2F80324F5E78800002071
:104DC00008B50B7813F0030305D0012B0CD0FFF7C7
:104DD000D5F8032008BD4B78502B02D0FFF7C0FF59
:104DE000F8E7FFF7C7FFF5E74B78502B02D0FFF746
:104DF000BCFFEFE7FFF7CEFFECE708B5D0F8F832DD
:104E0000B23300EB83035B6863B10B7803F060039C
:104E1000402B03D0FFF7B2F8032008BDFFF7D0FF07
:104E20000020FAE70320F8E738B504468321FBF7B2
:104E3000B7FF0025A4F8A05103212046FBF7B0FFDF
:104E4000A4F8A051D4F8F83203F1B20204EB8202C4
:104E50005268AAB1B63304EB83035B685B6898477A
:104E6000D4F8F832B23304EB8303586800F088FBBF
:104E7000D4F8F832B23304EB83035D60C4F8C8524F
:104E8000002038BD70B504464FF4077000F070FB89
:104E900000283CD005464FF40772002100F078FB53
:104EA000D4F8F832B23304EB83035D60C4F8C8521F
:104EB000237CABBB4FF40073022283212046FBF717
:104EC00064FF4FF40073022203212046FBF75DFFCD
:104ED0000123A4F860300026C5F80462D4F8F83243
:104EE000B63304EB83035B681B689847C5F814620C
:104EF000C5F81862D5F8042232B3257CEDB94FF419
:104F0000007303212046FBF773FF284670BDD4F8D9
:104F1000F832B23304EB8304002363600225F4E724
:104F20004023022283212046FBF72FFF4023022249
:104F300003212046FBF729FFCAE74023032120462F
:104F4000FBF756FF0025E0E70225DEE7D0F8F83250
:104F5000B23300EB830043682BB1C3F80812C3F8E7
:104F600010220020704703207047D0F8F832B23387
:104F700000EB830043681BB1C3F8041200207047A4
:104F800003207047F8B50E4E06F5A835002485F8C5
:104F9000E241A5F8E041C5F8E4410A4F2246314616
:104FA0003846FFF7D3FF95F8E2314AF6E00103FBFC
:104FB00001F1203131443846FFF7D7FF2046F8BDD4
:104FC000801C00206C03002010B5D0F8F832B233FA
:104FD00000EB83035A6892B1047C44B94FF4007328
:104FE000D2F804220321FBF703FF204610BD402323
:104FF000D2F804220321FBF7FBFE0024F5E703248B
:10500000F3E7000010B50A881C4BA3F8E021B3F8C1
:10501000E0319BB2E02B1CD0184BB3F8E0319BB2CF
:10502000B3F5007F21D0164901F5A83292F8E201CC
:10503000D2F8E4314AF6E00200FB02332033114C8F
:1050400019442046FFF791FF2046FFF7BDFF0020DF
:1050500010BD0A4A92F8E231B3FA83F35B0982F891
:10506000E2310023C2F8E431D6E7044AD2F8E43151
:1050700003F50073C2F8E431D5E700BF806C01206E
:10508000801C00206C03002008B5D0F8F832B23341
:1050900000EB83035A689AB1D2F814320BB10120A5
:1050A00008BD0123C2F81432D2F810324365D2F899
:1050B0001032D2F808228321FBF792FE0020EFE79E
:1050C0000320EDE7094BD3F8C832D3F814320BB103
:1050D0000120704710B5054C0A4601462046FFF7EF
:1050E00035FF2046FFF7D0FF10BD00BF6C03002046
:1050F00081B110B4D0F8F8325A1EC0F8F82203F18A
:10510000B50200EB82025160C0F8F83200205DF871
:10511000044B70470320704712230B8000487047F0
:105120004002002004230B800048704754020020F6
:10513000002393421ED200B510E00CF1370C01F8A9
:1051400013C000014FEA430C0CF1010C4FF0000EAC
:1051500001F80CE00133DBB2934209D24FEA107C34
:10516000B0F1204FE9D20CF1300C01F813C0E8E7A0
:105170005DF804FB7047000038B50B4BD3F8100AFC
:10518000D3F8144AD3F8183AC01800D138BD074DE7
:105190000822A91CFFF7CCFF042205F112012046CA
:1051A000FFF7C6FFF2E700BF0070FF1F58020020A4
:1051B00008B51A230B80FFF7DFFF014808BD00BFC9
:1051C000580200200A230380004870473402002060
:1051D00010B50A46034C21460348FFF763FA204600
:1051E00010BD00BF686E01205867000808B50A4668
:1051F00028B905490548FFF755FA034808BD024993
:105200000248FFF74FFAF8E7686E01206867000868
:1052100008B50A4628B905490548FFF743FA034887
:1052200008BD02490248FFF73DFAF8E7686E012021
:105230008067000808B50A4628B905490548FFF700
:1052400031FA034808BD02490248FFF72BFAF8E794
:10525000686E012094670008F8B50546194F822151
:105260003846FEF74EFE064601213846FEF749FE57
:10527000044681213846FEF744FE0EB11022B27179
:105280001CB1402222710022627118B140220271C9
:10529000002242710B4E03213046FEF732FE0446D7
:1052A00083213046FEF72DFE1CB1402222710022E0
:1052B000627118B140220271002242716A232B8070
:1052C0000048F8BDC8010020F8B50546194F8221F5
:1052D0003846FEF716FE064601213846FEF711FE57
:1052E000044681213846FEF70CFE0EB11022B27141
:1052F0001CB1402222710022627118B14022027159
:10530000002242710B4E03213046FEF7FAFD04469F
:1053100083213046FEF7F5FD1CB1402222710022A8
:10532000627118B140220271002242716A232B80FF
:105330000048F8BDC8010020F8B50546194F822184
:105340003846FEF7DEFD064601213846FEF7D9FD58
:10535000044681213846FEF7D4FD0EB11022B27109
:105360001CB1002222710222627118B10022027166
:10537000022242710B4E03213046FEF7C2FD044665
:1053800083213046FEF7BDFD1CB1002222710222AE
:10539000627118B100220271022242716A232B80CD
:1053A0000048F8BDC801002030B4022A0CD00D2AF4
:1053B0003FD0D0F8F832C3EBC30300EBC3000023A7
:1053C000C0F8343330BC7047D0F8F822C2EBC203C7
:1053D00000EBC303022483F800430121C3F8081340
:1053E0000325C3F80C534FF0820C83F810C383F8E5
:1053F0001153082583F8125383F8131383F81413F9
:1054000083F815434FF0400C83F816C383F8171345
:10541000812583F8185383F8194383F81AC383F856
:105420001B13C3F82843002483F82C4383F82D135F
:10543000BFE7D0F8F822C2EBC20300EBC3030D2193
:1054400083F800130124C3F808430221C3F80C13A6
:10545000032583F8105383F811134FF0400C83F8A1
:1054600012C383F81343832583F8145383F8151369
:1054700083F816C383F81743C3F8284383F82C1323
:1054800097E7000000231380EE2906D010B5062907
:1054900007D007290CD0002010BD12231380084824
:1054A0007047084C21460848FFF7FCF82046F3E710
:1054B000044C21460548FFF7F5F82046ECE700BF0D
:1054C00074020020686E0120A8670008B867000811
:1054D000DFF838D00E480F490F4A002302E0D458B5
:1054E000C4500433C4188C42F9D30C4A0C4C00232A
:1054F00001E013600432A242FBD3FEF7D7F9FBF7B9
:105500004BF800F011F8FBF7B5F9704700000220E6
:105510000000002008030020806800080803002025
:105520007C700120FEE7000070B50D4D0D4C641B32
:10553000A4100026A64209D10B4D0C4C01F06AF8CC
:10554000641BA4100026A64205D170BD55F8043B8B
:1055500098470136EEE755F8043B98470136F2E7E5
:105560007868000878680008786800087C68000897
:10557000024B0146186800F07FB800BFA40200206B
:10558000024B0146186800F00BB800BFA4020020CF
:1055900002440346934200D1704703F8011BF9E728
:1055A00037B5002944D051F8043C0190002BA1F1FB
:1055B0000404B8BFE41800F051FC1E4A01981368B7
:1055C00033B96360146003B0BDE8304000F04CBCF8
:1055D000A34208D9256861198B4201BF19685B682D
:1055E00049192160EDE71A465B680BB1A342FAD96D
:1055F00011685518A5420BD1246821445418A342C0
:105600001160E0D11C685B68536021441160DAE7E7
:1056100002D90C230360D6E7256861198B4204BFC9
:1056200019685B68636004BF491921605460CAE768
:1056300003B030BD6870012070B50E4E0C46316865
:10564000054611B900F01AF930602146284600F0ED
:1056500015F9431C0AD0C41C24F00304A04207D04F
:10566000211A284600F00AF9013001D14FF0FF3429
:10567000204670BD6C7001202DE9F041CD1C25F055
:10568000030508350C2D38BF0C25002D074601DB1E
:10569000A94205D90C233B6000263046BDE8F081C5
:1056A0002E4E00F0DBFB33681C4634BB29463846DF
:1056B000FFF7C2FF431C04464DD134682646002E36
:1056C00040D123683146384604EB030800F0D6F891
:1056D00080453AD1216803356D1A25F00305083558
:1056E0000C2D38BF0C2529463846FFF7A5FF0130A1
:1056F0002BD023682B4423600EE02268521B1ED45B
:105700000B2A16D96119A342256018BF5960636836
:1057100008BF316062514B60384604F10B0600F05F
:10572000A3FB26F00706231DF21AB6D09B1BA3503D
:10573000B3E76268A3420CBF32605A60ECE72346CD
:105740006468B2E734467668B9E70C233B603846B4
:1057500000F08AFBA1E72560DEE700BF687001204A
:105760000FB40A4B13B51C6824B1A36913B92046C2
:1057700000F06EFA05AB049AA1680193204600F090
:10578000A3FB02B0BDE8104004B07047A4020020A3
:1057900070B50E46054618B183690BB900F058FA8A
:1057A000AB69AC6813B9284600F052FA2C4B9C4206
:1057B00020D16C68636EDB0705D4A389980502D4F9
:1057C000A06D00F0E3FAA38919071DD52369DBB1A9
:1057D000013EA36816F8011F013BA36039BB002BF3
:1057E00038DA22460A21284600F058F8013011D054
:1057F0000A2511E01B4B9C4201D1AC68DAE71A4B39
:105800009C4208BFEC68D5E72146284600F098F88E
:105810000028DDD04FF0FF35636EDA0705D4A38989
:105820009B0502D4A06D00F0B2FA284670BD002B93
:1058300004DAA2699A4206DC0A2904D023685A1CB9
:1058400022601970C5E72246284600F027F801308B
:10585000BFD1DFE723680A255A1C22601D70DBE7F1
:10586000FC6700081C680008DC670008024B014662
:105870001868FFF78DBF00BFA402002038B5064DA1
:105880000023044608462B6000F0B6FE431C02D1FC
:105890002B6803B1236038BD74700120F8B50E4643
:1058A0001446054618B183690BB900F0D1F9214BB4
:1058B0009C422BD16C68A369A360A3891A072FD5DA
:1058C00023696BB323692068C01A6369F6B2834207
:1058D000374604DC2146284600F026F930BBA36891
:1058E000013BA36023685A1C22601E70636901306B
:1058F000834204D0A389DB0706D50A2E04D12146B2
:10590000284600F011F988B93846F8BD0A4B9C4288
:1059100001D1AC68CFE7094B9C4208BFEC68CAE7ED
:105920002146284600F00CF80028CBD04FF0FF3776
:10593000EAE700BFFC6700081C680008DC67000895
:10594000324B70B51D6806460C4625B1AB6913B9DC
:10595000284600F07DF92E4B9C420FD16C68A3893C
:10596000B4F90C2019072CD4DD0611D409233360B7
:1059700042F04003A3814FF0FF303EE0254B9C42B4
:1059800001D1AC68EBE7244B9C4208BFEC68E6E72A
:10599000580712D5616B41B104F14403994202D01A
:1059A0003046FFF7FDFD00236363A38923F0240342
:1059B000A3810023636023692360A38943F0080364
:1059C000A38123694BB9A38903F42073B3F5007F46
:1059D00003D02146304600F001FAA089B4F90C202A
:1059E00010F001030AD00023A36063695B42A36146
:1059F000236943B910F08000BAD170BD810758BF48
:105A00006369A360F4E70020F7E700BFA402002069
:105A1000FC6700081C680008DC6700088A892DE91B
:105A2000F041054610070C4658D44B68002B05DCA6
:105A30000B6C002B02DC0020BDE8F081E66A002E32
:105A4000F9D0002312F480522F682B6032D0606DA1
:105A5000A3895A0705D56368C01A636B0BB1236C21
:105A6000C01A00230246E66A216A2846B047431C52
:105A7000A38906D129681D292CD82A4ACA40D607ED
:105A800028D500226260D9042269226004D5421C14
:105A900001D12B6803B96065616B2F600029CAD002
:105AA00004F14403994202D02846FFF779FD002013
:105AB0006063C1E7216A01232846B047411CC7D172
:105AC0002B68002BC4D01D2B01D0162B01D12F60C9
:105AD000B1E7A38943F04003A381ADE70F69002F2D
