:020000040800F2
:1000000000000220556F0008890C00088B0C0008C6
:100010008D0C00088F0C0008910C000800000000F7
:10002000000000000000000000000000930C000829
:10003000950C000800000000970C0008990C0008BF
:10004000A56F0008A56F0008A56F0008A56F000840
:10005000A56F0008A56F0008A56F0008A56F000830
:10006000A56F0008A56F0008A56F0008A56F000820
:10007000A56F0008A56F0008A56F0008A56F000810
:10008000A56F0008A56F0008A56F0008A56F000800
:10009000A56F0008A56F0008A56F0008A56F0008F0
:1000A000A56F0008A56F0008A56F0008A56F0008E0
:1000B000A56F0008A56F0008A56F0008A56F0008D0
:1000C000A56F0008A56F0008A56F0008A56F0008C0
:1000D000A56F0008A56F0008A56F0008A56F0008B0
:1000E000A56F0008A56F0008A56F0008A56F0008A0
:1000F000A56F00089D0C0008A56F0008A56F0008FB
:10010000A56F0008A56F0008A56F0008A56F00087F
:10011000A56F0008A56F0008A56F0008A56F00086F
:10012000A56F0008A56F0008A56F0008A56F00085F
:10013000A56F00080000000000000000A56F000887
:10014000A56F0008A56F0008A56F0008A56F00083F
:10015000A56F0008A56F0008A56F0008A56F00082F
:10016000A56F0008A56F0008A56F0008A56F00081F
:10017000A56F0008AD0C00080000000000000000A2
:08018000A56F0008A56F00083F
:1001900010B5054C237833B9044B13B10448AFF3C1
:1001A00000800123237010BD6C02002000000000BD
:1001B0009480000808B5034B1BB103490348AFF313
:1001C000008008BD0000000070020020948000083C
:1001D00001F0FF01102A2BDB10F0070F08D010F8F8
:1001E000013B013A8B422DD010F0070F42B3F6D1FC
:1001F000F0B441EA012141EA014122F007047FF015
:1002000000070023F0E80256083C85EA010586EA6B
:10021000010685FA47F5A3FA87F586FA47F6A5FAA7
:1002200087F68EB9EED1F0BC01F0FF0102F00702B3
:1002300032B110F8013B013A83EA010313B1F8D15E
:100240000020704701387047002D06BF354603383F
:10025000073815F0010F07D1013015F4807F02BF78
:10026000013015F4C03F0130F0BC0138704700BFC9
:1002700053B94AB9002908BF00281CBF4FF0FF310D
:100280004FF0FF3000F074B9ADF1080C6DE904CE09
:1002900000F006F8DDF804E0DDE9022304B0704761
:1002A0002DE9F047089D04468E46002B4DD18A4229
:1002B000944669D9B2FA82F252B101FA02F3C2F15C
:1002C000200120FA01F10CFA02FC41EA030E9440ED
:1002D0004FEA1C48210CBEFBF8F61FFA8CF708FB0E
:1002E00016E341EA034306FB07F199420AD91CEBE6
:1002F000030306F1FF3080F01F81994240F21C8118
:10030000023E63445B1AA4B2B3FBF8F008FB10335F
:1003100044EA034400FB07F7A7420AD91CEB040494
:1003200000F1FF3380F00A81A74240F20781644464
:10033000023840EA0640E41B00261DB1D4400023E9
:10034000C5E900433146BDE8F0878B4209D9002D4D
:1003500000F0EF800026C5E9000130463146BDE8D7
:10036000F087B3FA83F6002E4AD18B4202D3824241
:1003700000F2F980841A61EB030301209E46002DF0
:10038000E0D0C5E9004EDDE702B9FFDEB2FA82F245
:10039000002A40F09280A1EB0C014FEA1C471FFAA3
:1003A0008CFE0126200CB1FBF7F307FB131140EA8A
:1003B00001410EFB03F0884208D91CEB010103F157
:1003C000FF3802D2884200F2CB804346091AA4B219
:1003D000B1FBF7F007FB101144EA01440EFB00FEED
:1003E000A64508D91CEB040400F1FF3102D2A64552
:1003F00000F2BB800846A4EB0E0440EA03409CE7F1
:10040000C6F12007B34022FA07FC4CEA030C20FA9D
:1004100007F401FA06F31C43F9404FEA1C4900FABD
:1004200006F3B1FBF9F8200C1FFA8CFE09FB18113A
:1004300040EA014108FB0EF0884202FA06F20BD9AD
:100440001CEB010108F1FF3A80F08880884240F2FD
:100450008580A8F102086144091AA4B2B1FBF9F041
:1004600009FB101144EA014100FB0EFE8E4508D93C
:100470001CEB010100F1FF346CD28E456AD90238C1
:10048000614440EA0840A0FB0294A1EB0E01A142A6
:10049000C846A64656D353D05DB1B3EB080261EB14
:1004A0000E0101FA07F722FA06F3F1401F43C5E9EE
:1004B000007100263146BDE8F087C2F12003D84024
:1004C0000CFA02FC21FA03F3914001434FEA1C4766
:1004D0001FFA8CFEB3FBF7F007FB10360B0C43EA58
:1004E000064300FB0EF69E4204FA02F408D91CEB08
:1004F000030300F1FF382FD29E422DD90238634406
:100500009B1B89B2B3FBF7F607FB163341EA0341A5
:1005100006FB0EF38B4208D91CEB010106F1FF38F4
:1005200016D28B4214D9023E6144C91A46EA0046EB
:1005300038E72E46284605E70646E3E61846F8E67D
:100540004B45A9D2B9EB020864EB0C0E0138A3E7C6
:100550004646EAE7204694E74046D1E7D0467BE7A7
:10056000023B614432E7304609E76444023842E71F
:10057000704700BF10B514464FF6FF7392B20248A1
:1005800003F03FF9204610BDDC02002008B50268E8
:10059000034B9A4200D008BD02F09AFDFBE700BF72
:1005A0000020004072B6FEE700B595B03022002171
:1005B00008A806F02DFD00230393049305930693EA
:1005C00007930193204A116C41F080511164126C21
:1005D00002F080520192019A02931C4B1A6842F475
:1005E00080421A601B6803F480430293029B01233C
:1005F00008934FF48033099302220E924FF4800344
:100600000F9304231093A82111911292139308A819
:1006100002F09AF898B90F2303930223049300235E
:1006200005934FF4A05306934FF48053079305218D
:1006300003A802F0EFFA20B915B05DF804FBFFF74C
:10064000B1FFFFF7AFFF00BF00380240007000406D
:1006500008B502F023FDFFF7A7FF00F011F800F046
:1006600067F800F0BBF805F067FC044806F03EFEB2
:1006700005F064FB00F006F9FEE700BFAC8000085F
:10068000F0B58BB00024059406940794089409945F
:100690000194244B1A6B42F080021A631A6B02F029
:1006A00080020192019A02941A6B42F004021A63CA
:1006B0001A6B02F004020292029A03941A6B42F03F
:1006C00001021A631A6B02F001020392039A049466
:1006D0001A6B42F002021A631B6B03F002030493CD
:1006E000049B114F01221021384602F079FC0F4E75
:1006F00001228021304602F073FC1023059301256E
:1007000006950795089405A9384602F077FB8023E3
:10071000059306950795089405A9304602F06EFBEF
:100720000BB0F0BD0038024000000240000402405F
:1007300008B50B480B4B03600B4B436000238360F1
:10074000C3604FF48042026143618361C36103620D
:1007500002F0E4FC00B908BDFFF724FFFBE700BF8F
:100760008802002000540040A086010030B589B006
:100770000023039304930593069307930268144B95
:100780009A4201D009B030BD00250195114C236B70
:1007900043F002032363236B03F002030193019BE5
:1007A0004FF440730393122304930323069304230B
:1007B000079303A9084802F021FB0295236C43F438
:1007C00000132364236C03F400130293029BD9E704
:1007D00000540040003802400004024008B50A48B6
:1007E0000A4B03604FF4E133436000238360C3602E
:1007F00003610C2242618361C36102F0D3FF00B93F
:1008000008BDFFF7CFFEFBE7DC020020001001402F
:1008100000B589B0002303930493059306930793CF
:10082000026803F1804303F588339A4202D009B08D
:100830005DF804FB0021019103F594335A6C42F0FA
:1008400010025A645A6C02F010020192019A02914D
:100850001A6B42F001021A631B6B03F0010302934F
:10086000029B4FF4C0630393022304930323069374
:100870000723079303A9024802F0C0FAD7E700BF95
:100880000000024008B5012219491A4803F030F867
:10089000E0B9002302221849164803F057F8C0B9FE
:1008A0001649144806F0F8FAB0B900230322144997
:1008B000104803F04BF890B912490E4804F0F6F8CE
:1008C00080B90C4803F078F878B908BDFFF76AFEE4
:1008D000DFE7FFF767FEE3E7FFF764FEE5E7FFF713
:1008E00061FEE9E7FFF75EFEEBE7FFF75BFEECE793
:1008F0009801002020030020CC010020B40100203A
:1009000030000020000000202DE9F0418AB00023D3
:10091000059306930793089309930268334B9A4211
:1009200002D00AB0BDE8F08100250095304C236B61
:1009300043F004032363236B03F004030093009B41
:100940000195236B43F001032363236B03F0010341
:100950000193019B0295236B43F002032363236BF6
:1009600003F002030293029B0D2305934FF002084C
:10097000CDF81880032708970A26099605A91D486F
:1009800002F03CFA28230593CDF8188007950897C4
:10099000099605A9184802F031FA43F62343059356
:1009A000CDF8188007950897099605A9134802F015
:1009B00025FA0395236B43F000532363236B03F065
:1009C00000530393039B0495236B43F080432363FD
:1009D000236B03F080430493049B2A4629464D2051
:1009E00002F016FB4D2002F04BFB9AE7000004409A
:1009F00000380240000802400000024000040240AB
:100A000008B500F2C441D0F8080503F022F808BD8B
:100A100008B501EBC10300EB8303D3F88C22D0F8B7
:100A2000080503F074F908BD08B501EBC10300EB3C
:100A30008303DA6CD0F8080503F0D0F908BD08B5D7
:100A4000D0F8080503F08DF808BD10B50446C3685A
:100A50003BB1022B01D1012104E0FFF7A3FD0121ED
:100A600000E00021D4F8080503F061F8D4F8080587
:100A700003F01BF810BD000010B50446D0F80805BF
:100A800003F058F82268D2F8003E43F00103C2F8A0
:100A9000003E236A23B1034A136943F0060313613E
:100AA00010BD00BF00ED00E008B5D0F8080503F068
:100AB0004BF808BD08B5D0F8080503F08EF808BD5E
:100AC00008B5D0F8080503F071F808BD08B5D0F8EE
:100AD000080503F099F808BD08B5D0F8080503F03B
:100AE00095F808BD0378012B01D00020704710B5A0
:100AF000194BC3F80805C0F8EC32184A1A600922ED
:100B00005A600022DA601A6101219961DA611A6281
:100B10005A62DA621A635A63184600F0A5F9C0B93E
:100B20000D4C4FF40071204600F0B5FF80220021EB
:100B3000204600F08AFF4FF4BA720121204600F0EF
:100B400084FF4FF4BA720321204600F07EFF00209C
:100B500010BDFFF727FDE3E7000700200000044079
:100B6000D0F8EC3211F0800F08D101F07F0101EBD9
:100B7000C10103EB810191F87E02704701F07F0112
:100B800001EBC10103EB810191F83E00704708B50C
:100B9000D0F8EC0200F08BFB08BD032805D8DFE895
:100BA00000F005040205012070470320704708B5D6
:100BB000D0F8EC0200F0EFF9FFF7EFFF08BD08B541
:100BC00094461A466346D0F8EC0200F0C3FAFFF7E9
:100BD000E4FF08BD08B5D0F8EC0200F000FBFFF719
:100BE000DCFF08BD08B5D0F8EC0200F013FFFFF7FA
:100BF000D4FF08BD08B5D0F8EC0200F090FBFFF779
:100C0000CCFF08BD08B5D0F8EC0200F0CCFBFFF734
:100C1000C4FF08BD08B5D0F8EC0200F087FAFFF772
:100C2000BCFF08BD08B5D0F8EC0200F049FBFFF7A7
:100C3000B4FF08BD08B5D0F8EC0200F009FBFFF7DF
:100C4000ACFF08BD002070474FF480630B604FF489
:100C500080531380002070470020704700207047A9
:100C60000020704708B510461A0302F4704205F0E0
:100C70004EF9002008BD08B510461A0302F4704270
:100C800005F034F9002008BDFEE7FEE7FEE7FEE7C9
:100C9000FEE77047704770477047000008B502488C
:100CA00002F064FB08BD00BF0C0C002008B5024830
:100CB00000F0CEFB08BD00BF0007002082B000217D
:100CC00000910B4B5A6C42F480425A645A6C02F405
:100CD00080420092009A01911A6C42F080521A648C
:100CE0001B6C03F080530193019B02B0704700BF5F
:100CF0000038024030B589B0044600230193214BEF
:100D00001A6C42F480721A641B6C03F480730193B2
:100D1000019B02A903A802F053F8069BCBB902F08D
:100D20002FF803461848A0FB03239B0C013B1748F0
:100D3000174A026040F2E732C26043600023036159
:100D40008360836102F034FC054630B1284609B067
:100D500030BD02F015F84300E4E70C4802F0BEFA9B
:100D600005460028F2D12D2002F08AF90F2C01D976
:100D70000125EBE7002221462D2002F049F9054B21
:100D80001C60E3E70038024083DE1B430C0C0020AC
:100D900000200040240000202DE9F04383B0D0F86B
:100DA000008001EBC10300EB8303DA6D5B6D9A42B7
:100DB00054D807460C469B1A01EBC10200EB820295
:100DC000926C9A4200D31A4602F103094FEA99093C
:100DD00015E006F103094FEA990904EBC40507EB96
:100DE0008505E96C3B7C0093B3B2E2B2404601F06A
:100DF00022FAEB6C3344EB64EB6D3344EB6508EBA8
:100E0000441303F510639B699BB24B4512D304EB6B
:100E1000C40207EB8202D16D536D99420AD24BB1E5
:100E20005B1A04EBC40207EB8202966C9E42D0D39D
:100E30001E46CEE704EBC40007EB80077A6DFB6D1E
:100E40009A420FD804F00F040123A340D8F8344885
:100E500024EA0304C8F83448002000E0012003B06D
:100E6000BDE8F0830020FAE770B58AB0002800F0F2
:100E700090800546046890F8BD343BB3032385F8A1
:100E8000BD34E36B13F4807F01D100232B6128680C
:100E900000F0ECFE2C4654F8106BEC460FCCACE89E
:100EA0000F000FCCACE80F0094E803008CE80300BF
:100EB0002B1D0ECB304600F01BFE044658B102231A
:100EC00085F8BD34012420460AB070BD80F8BC34DA
:100ED000FFF71AFDD2E70021286801F0C3FB234683
:100EE00016E003EBC30205EB8202012182F83D10FC
:100EF00082F83C30A2F84430002182F8401091641E
:100F0000D16403EBC30205EB820251650133DBB20E
:100F100069688B42E5D316E004EBC40305EB830359
:100F2000002283F87D2283F87C4283F88022C3F874
:100F30008822C3F88C2204EBC40305EB8303C3F8B7
:100F400094220134E4B2A142E6D82C4654F8106B46
:100F5000EC460FCCACE80F000FCCACE80F0094E8E7
:100F600003008CE803002B1D0ECB304600F0DAFEA8
:100F7000044620B1022385F8BD340124A3E70023F1
:100F800085F83830012385F8BD34286801F027FB47
:100F900099E7012497E7026890F8BC34012B19D037
:100FA00010B50446012380F8BC34836A012B09D0B4
:100FB000206800F055FE206801F003FB002084F853
:100FC000BC0410BD8369012BF2D0936B43F48033D2
:100FD0009363EDE70220704770B504460D46006844
:100FE000066C00EB411303F530639A68216901290F
:100FF00011D038498E4256D03DB905EBC50304EBFC
:101000008303D3F89432002B5ED0E9B22046FFF779
:10101000FFFC002070BD12F0080F09D02E498E424F
:10102000F7D912F4004FF4D04FF400429A60F0E781
:1010300012F0200F02D020229A60EAE712F0280F67
:10104000E7D125498E4206D912F4004F03D04FF460
:1010500000429A60DDE705EBC50204EB8202D2F89C
:1010600098121B69C3F31203CB1AC2F89C327DB9E4
:1010700005EBC50204EB8202D2F894226AB105EBBB
:10108000C50204EB8202D2F88C120B44C2F88C32F7
:10109000E9B22046FFF7BCFCBBE704F2C4420121E1
:1010A00001F022FBF4E712F4004F03D04FF40042AA
:1010B0009A60AEE712F0200F01D020229A60E9B2C8
:1010C0002046FFF7A5FCA4E704F2C442002101F08A
:1010D0000BFB9AE70A31544F0A30544F38B5044697
:1010E00003681D6C03EB4113D3F8081B0E4A9542AD
:1010F00007D903F5306311F4004F02D04FF40042DA
:101100009A602046FFF77CFC074B9D4202D9236979
:10111000012B01D0002038BD04F2C4420121206817
:1011200001F0E2FAF6E700BF0A30544F90F8BC3401
:10113000012B0DD010B50446012380F8BC3480F893
:101140003810006801F02DFA002084F8BC0410BDAE
:101150000220704738B505468C4611F0800F29D122
:1011600001F00F0E0EEBCE04A40004F51E7404442F
:10117000211D0EEBCE0E00EB8E0E00208EF87D02B0
:101180000CF00F0C81F800C0CA600B714A780AB1EC
:10119000A1F808C0022B1DD095F8BC34012B1CD03F
:1011A000012385F8BC34286800F095FE002085F8FE
:1011B000BC0438BD01F00F0000EBC00189003831DC
:1011C0002944043100EBC00005EB8000012480F8C5
:1011D0003D40D5E700234B71DEE70220E9E710B57B
:1011E00004460A4611F0800F20D101F00F0000EBF9
:1011F000C0039B0003F51E732344191D00EBC000C0
:1012000004EB8000002380F87D3202F00F020A70A8
:1012100094F8BC34012B19D0012384F8BC34206825
:1012200000F0A8FE002084F8BC0410BD01F00F00FF
:1012300000EBC0039B0038332344191D00EBC000B2
:1012400004EB8000012380F83D30DEE70220ECE76C
:1012500010B501F00F0404EBC401890001F51E7103
:101260000144043104EBC40C00EB8C0CCCF88C2250
:10127000CCF894320023CCF89C328CF87D328CF878
:101280007C420369012B06D064B9DAB2006800F031
:10129000E1FE002010BD04EBC40C00EB8C0CCCF87C
:1012A0009022F1E7DAB2006800F0DCFFF1E701F02C
:1012B0000F0101EBC10100EB8101D1F89C027047E5
:1012C00010B501F00F0404EBC4018900383101446A
:1012D000043104EBC40C00EB8C0CCCF84C20CCF8A3
:1012E00054300023CCF85C3001238CF83D308CF86E
:1012F0003C400369012B06D064B9DAB2006800F003
:10130000A9FE002010BD04EBC40C00EB8C0CCCF843
:101310005020F1E7DAB2006800F0A4FFF1E738B539
:1013200001F00F054268954239D804460B4611F08A
:10133000800F1FD101EBC101890001F51E7101442D
:10134000043103EBC30300EB8303002283F87D2207
:1013500001238B700D7094F8BC34012B21D0012334
:1013600084F8BC34206801F0C1F88DB1002084F805
:10137000BC0438BD05EBC501890038310144043196
:1013800005EBC50300EB8303012283F83D20DFE773
:1013900004F2C442217C206801F0A6F9E6E70120AE
:1013A000E7E70220E5E701F00F034268934231D8F6
:1013B00010B5044611F0800F1ED103EBC301890064
:1013C00001F51E710144043103EBC30200EB8202FC
:1013D000002082F87D0200228A700B7094F8BC34E1
:1013E000012B19D0012384F8BC34206801F0ABF83C
:1013F000002084F8BC0410BD03EBC3018900383120
:101400000144043103EBC30200EB8202012082F8A5
:101410003D00E0E7012070470220ECE708B511F03D
:10142000800F0CD101F00F0101EBC101890001F522
:101430001E7101440431006800F09EFE08BD01F0F9
:101440000F0101EBC1018900383101440431F2E799
:101450002DE9F04F83B004460568284601F0FEF8F8
:1014600010B103B0BDE8F08F0646206801F0C5F862
:101470000028F6D005F50067BB68C3F30D23C4F858
:10148000FC34206801F0B9F810F0020F04D0226893
:10149000536903F002035361206801F0AEF810F0C5
:1014A000100F13D02268936923F010039361D5F8CD
:1014B000208008F00F09C8F34343022B4BD0062BC2
:1014C0006FD02268936943F010039361206801F0A4
:1014D00094F810F4002F76D1206801F08EF810F403
:1014E000802F40F0E080206801F087F80028C0F2EB
:1014F0006381206801F081F810F4006F09D0BB68A7
:1015000013F0010F40F070812268536903F4006307
:101510005361206801F071F810F4805F40F0688139
:10152000206801F06AF810F4005F40F0B58120688F
:1015300001F063F810F0080F40F0C681206801F058
:101540005CF810F0800F00F0D981AB6923F08003C4
:10155000AB610126C2E147F6F07318EA030FB0D081
:101560004FEA181B4FEAC903019309EBC90A04EBC0
:101570008A0AC8F30A12DAF88C12284600F08CFFA7
:10158000CBF30A0BDAF88C325B44CAF88C32019B3D
:101590004B4404EB8303D3F89C325B44CAF89C327F
:1015A0008FE7082204F2C441284600F075FFC8F313
:1015B0000A1809EBC90204EB8202D2F89C324344B8
:1015C000C2F89C327DE7206801F01BF88046B146E6
:1015D00035E005EB49130122C3F8082B49462046A4
:1015E000FFF7FAFC3CE005EB49130822C3F8082B8F
:1015F00049462046FFF772FD35E009EBC90304EBCD
:10160000830393F87F32012B41D005EB491302226B
:10161000C3F8082B1AF0200F04D005EB4913202241
:10162000C3F8082B1AF4005F05D005EB49134FF4FB
:101630000052C3F8082B09F101094FEA5808B8F124
:10164000000F3FF449AF18F0010FF4D05FFA89FBA7
:101650005946206800F0E5FF824610F0010FB8D12E
:101660001AF0080FBFD11AF0100F04D005EB491380
:101670001022C3F8082B1AF0020FCBD06B6913F0BD
:10168000800FBAD07B6843F480637B60B5E709EBD9
:10169000C90304EB8303002283F87F2259462046C6
:1016A000FFF708FAB1E7206800F0B3FF8046B146C3
:1016B00025E059462046FFF7B7F91AF0080F04D085
:1016C00005EB49130822C3F808291AF0100F04D0BB
:1016D00005EB49131022C3F808291AF0400F04D073
:1016E00005EB49134022C3F808291AF0020F40D134
:1016F0001AF0800F5BD109F101094FEA5808B8F1DF
:10170000000F3FF4F0AE18F0010FF4D05FFA89FB40
:101710005946206800F08EFF824610F0010FCCD0B1
:1017200009F00F03012101FA03F27B6B23EA0203A4
:101730007B6305EB4913C3F8081923698B42B8D1C1
:1017400009EBC90304EB8303996CDA6C0A44DA648D
:10175000B9F1000FADD109EBC90304EB83035B6D55
:10176000002BA6D104F2C4420121206800F0BCFF86
:101770009FE74946284600F07FFA09EBC90304EBCE
:10178000830393F83F30012B05D005EB4913022268
:10179000C3F80829ACE709EBC90304EB8303002273
:1017A00083F83F2059462046FFF78AF9EDE749467E
:1017B0002046FFF7F1FA9EE77B6823F001037B6088
:1017C00094F8F434012B08D02046FFF76DF9226815
:1017D000536903F0004353618BE6002184F8F4144D
:1017E000204600F05CF9F2E72046FFF745F98BE66A
:1017F0007B6823F001037B601021206800F03CFA35
:101800001AE005EB46134FF67F31C3F80819D3F8F9
:10181000002922F40012C3F80029C3F8081BD3F8EA
:10182000002B22F40012C3F8002BD3F8002B42F057
:101830000062C3F8002B01366368B342E1D8FB694C
:1018400043F00113FB61236BDBB1D7F8843043F025
:101850000B03C7F884307B6C43F00B037B64D5F833
:10186000003823F4FE63C5F8003804F2C442217C3A
:10187000206800F039FF2268536903F480535361F4
:101880004EE67B6943F4005343F02B037B613B69D5
:1018900043F00B033B61E2E7206800F014FF20688F
:1018A00000F008FBE060266801F064FA0146227B44
:1018B000304600F063F92046FFF7C7F82268536905
:1018C00003F40053536132E62046FFF7B8F822686C
:1018D000536903F00803536130E601366368B3428D
:1018E0000CD906EBC60304EB830393F87F32012B7C
:1018F000F3D1F1B22046FFF791FDEEE7206800F04A
:101900007CFE10F4801F27D1206800F076FE10F4D2
:10191000001F5BD0012328E001366368B3421DD964
:1019200005EB4613D3F8002906EBC60304EB83034B
:1019300093F84030012BEFD1002AEDDA06EBC60315
:1019400004EB8303012283F83F2066F07F01C9B2D4
:101950002046FFF763FDDFE70126DEE722685369D3
:1019600003F480135361CFE7013362689A4228D9A8
:1019700005EB4312D2F8001B03EBC30204EB820217
:1019800092F88022012AEFD10029EDDA01F48031AA
:10199000D4F8FC2402F001029142E5D103EBC3022A
:1019A00004EB8202012182F87F12AA6942F08002D0
:1019B000AA616A6912F0800FD6D17B6843F4007384
:1019C0007B602268536903F400135361206800F0C0
:1019D00014FE10F0804F10D1206800F00EFE10F0C1
:1019E000040F3FF43EAD23685D6815F0040F0DD180
:1019F000226853682B43536033E52046FFF766F8AF
:101A00002268536903F080435361E5E72046FFF7FE
:101A100063F8EDE790F8BC34012B14D010B5044600
:101A2000012380F8BC3411F0800F06D1006800F06B
:101A30004BF9002084F8BC0410BD01F00F010068D0
:101A400000F01AF9F5E70220704710B40468606AE4
:101A500031B940EA0240A06200205DF8044B7047B3
:101A60008C46A36A00EB1340002308E003F1400119
:101A700004EB8101496800EB11400133DBB20CF14A
:101A8000FF318B42F2D340EA02400CF13F0104EBFC
:101A900081014860E0E703685962002070477047A1
:101AA00082B000230193019B01330193019A0F4BF4
:101AB0009A4215D80369002BF5DA002301930369D4
:101AC00043F001030361019B01330193019A074B2A
:101AD0009A4208D8036913F0010FF4D1002000E006
:101AE000032002B070470320FBE700BF400D030056
:101AF00084B010B5044603A880E80E00089B012BB3
:101B00001FD1A36B23F48033A363E36823F484031E
:101B100023F04003E360E36823F44013E3600F9B8A
:101B2000012B09D02046FFF7BBFF069B012B1BD0E2
:101B3000BDE8104004B07047E36843F48013E360ED
:101B4000F0E7E36843F04003E3602046FFF7A8FFB7
:101B50000C9B23B9A36B43F48033A363E5E7A36B2A
:101B600023F48033A363E0E7A36843F00603A36094
:101B7000A36843F02003A360DAE70000022A0AD03A
:101B80000921C26822F47052C260C36843EA81230B
:101B9000C36000207047234B0B44234A93422FD944
:101BA000224B0B44224A93422CD9A1F57403A3F58E
:101BB0001053204A934227D9A1F18373A3F5E74339
:101BC0001D4A934222D31D4B0B441D4A93421FD9F9
:101BD0001C4B0B441C4A93421CD31C4B0B441C4A09
:101BE000934219D3A1F1B773A3F55853194A9342FD
:101BF00014D3194B0B44194A934211D20721C0E761
:101C00000F21BEE70E21BCE70D21BAE70C21B8E792
:101C10000B21B6E70A21B4E70921B2E70821B0E7B2
:101C20000621AEE7405327FFFF340C00401E1BFF88
:101C30003F420F007F4F120020D6130060B6E5FE32
:101C40005FE3160000D3CEFE40771B00C05BB3FEFF
:101C5000C091210020753800E05459FEE09C4100FD
:101C6000836843F00103836000207047836823F09A
:101C7000010383600020704782B000230193019B21
:101C800001330193019A0F4B9A4215D80369002B37
:101C9000F5DA00230193890141F020010161019BE4
:101CA00001330193019A074B9A4208D8036913F054
:101CB000200FF4D1002000E0032002B07047032081
:101CC000FBE700BF400D030082B000230193019B9E
:101CD00001330193019A0E4B9A4213D80369002BEA
:101CE000F5DA0023019310230361019B0133019373
:101CF000019A074B9A4208D8036913F0100FF4D1E8
:101D0000002000E0032002B070470320FBE700BF83
:101D1000400D0300D0F800381943C0F80018002027
:101D20007047000084B02DE9F041044607A880E820
:101D30000E00002306E003F1400204EB82020021C2
:101D4000516001330E2BF6D9119F27BBD4F804380C
:101D500043F00203C4F80438A36B43F40013A363F5
:101D6000A36B23F40023A363A36B23F48023A36357
:101D70000023C4F8003E04F50065D4F80038C4F828
:101D800000380C9B012B14D1099B6BB90021204614
:101D9000FFF7C0FF11E0A36B23F40013A363A36B51
:101DA00043F40023A363E3E701212046FFF7B2FFDA
:101DB00003E003212046FFF7ADFF10212046FFF787
:101DC0005BFF804608B14FF001082046FFF77CFF1B
:101DD00008B14FF0010800232B616B61EB610AE051
:101DE000C3B94FF00060C2F8000900220A614FF643
:101DF0007F328A6001330799994210D904EB43126C
:101E000002F51061D2F800090028E9DB0020C2F8D1
:101E10000009EAE74FF09040C2F80009E5E7002327
:101E20000AE0C3B14FF0904CC2F800CB002202612F
:101E30004FF67F3282600133994211D904EB43128D
:101E400002F53060D2F8006B002EEADB4FF0000C98
:101E5000C2F800CBEAE74FF0006CC2F800CBE5E730
:101E60002B6923F480732B610023A3616FF08043FF
:101E700063610A9B1BB9A36943F01003A361A269C4
:101E80000B4B1343A3610D9B1BB1A36943F00803E4
:101E9000A361012F04D04046BDE8F04104B0704773
:101EA000A36943F0804343F00403A361F3E700BF59
:101EB00000383C80D0F8083813F0060307D0022B16
:101EC00007D0062B01D00F2070470220704700205A
:101ED00070470220704710B591F800C04B78012B75
:101EE00023D000F5006ED0F81C380CF00F0401224E
:101EF000A24043EA0243C0F81C3800EB4C10D0F873
:101F0000003B13F4004F0ED1D0F8003BCA68C2F377
:101F10000A02097942EA8142134343F0805343F4B1
:101F20000043C0F8003B002010BDD0F81C280CF086
:101F30000F0E03FA0EF39BB21343C0F81C3800EBEC
:101F40004C10D0F8003913F4004FECD1D0F8003920
:101F5000CA68C2F30A02097942EA814242EA8C5C09
:101F600043EA0C0343F0805343F40043C0F80039C4
:101F7000D9E7000030B40B784A78012A26D000EB6C
:101F80004313D3F8002B002A52DBD0F83C480A78E0
:101F900002F00F024FF0010C0CFA02F224EA0242A6
:101FA000C0F83C28D0F81C28097801F00F010CFA81
:101FB00001FC22EA0C42C0F81C28D3F8001B234A7B
:101FC0000A40C3F8002B002030BC704700EB4313DD
:101FD000D3F80029002A1EDBD0F83C580A7802F01A
:101FE0000F02012404FA02F292B225EA0202C0F8BA
:101FF0003C28D0F81C28097801F00F018C40A4B2CD
:1020000022EA0404C0F81C48D3F80019104A0A4018
:10201000C3F80029D7E7D3F8002942F00062C3F8DB
:102020000029D3F8002942F08042C3F80029D3E701
:10203000D3F8002B42F00062C3F8002BD3F8002B3A
:1020400042F08042C3F8002B9FE700BF0078F3EF17
:10205000007833EC70B40B784C78012C29D000EB6D
:10206000431000F530631C69E40CE4041C611C6936
:1020700024F0FF5424F4C0141C618C690CB1CC68AA
:102080008C61CC68CC611C6944F400241C611C691F
:10209000CD69C5F3120C44EA0C041C61012A66D018
:1020A000D0F8003B43F00443C0F8003B002070BC74
:1020B00070478C696CBB00EB4314D4F8105925F0C1
:1020C000FF5525F4C015C4F81059D4F8105945F43B
:1020D0000025C4F81059D4F81059ED0CED04C4F8DB
:1020E0001059012A34D000EB4313D3F8002942F0F1
:1020F0000442C3F800298B69002BD7D0D0F83438BC
:102100000A7802F00F0101228A401343C0F83438E4
:10211000CCE700EB431404F510642569ED0CED04E5
:102120002561256925F0FF5525F4C0152561CD6889
:102130008E69AE4200D98D61256945F4002525617F
:1021400025698E69C6F3120C45EA0C052561C8E7BE
:102150004A691AB100EB4311C1F8142900EB43108E
:10216000D0F8002942F00442C0F800299EE70A692D
:10217000002A95D05A6193E710B483B00246002339
:102180000193487801280BD00B7802EB4313D3F866
:10219000000B00282DDB002003B05DF8044B7047D6
:1021A0000B7802EB4313D3F80049002C01DB00202D
:1021B000F2E7D3F8004944F00064C3F800490B7813
:1021C00002EB4313D3F8004944F08044C3F80049BC
:1021D000019B01330193019C42F210739C42DBD8B6
:1021E0000B7802EB4313D3F80039002BF0DB00200F
:1021F000D2E7D3F8000B40F00060C3F8000B0B7877
:1022000002EB4313D3F8000B40F08040C3F8000BFF
:10221000019B01330193019842F21073984208D850
:102220000B7802EB4313D3F8003B002BF0DB0020CC
:10223000B2E70120B0E710B59DF8084084B9033338
:102240004FEA930E4FF0000C08E000EB023303F569
:10225000805351F8044B1C600CF1010CF445F4D38D
:10226000002010BDF0B583B00B784C78012C33D032
:1022700000EB431303F5306CDCF81040E40CE4048D
:10228000CCF81040DCF8104024F0FF5424F4C014C3
:10229000CCF810408C69002C40F0C780DCF810406E
:1022A000CD68C5F312052C43CCF81040DCF8104083
:1022B00044F40024CCF81040012A00F0D0800A79C0
:1022C000012A00F0D380D3F8002B42F00442C3F877
:1022D000002B002003B0F0BD8C6984BB00EB4314DD
:1022E000D4F8105925F0FF5525F4C015C4F810593D
:1022F000D4F8105945F40025C4F81059D4F81059F1
:10230000ED0CED04C4F81059012A4CD000EB431336
:10231000D3F8004944F00444C3F800490C79012C77
:102320006AD08B69002BD4D0D0F834380A7802F008
:102330000F0101228A401343C0F83438C9E700EB8B
:102340004314D4F81059ED0CED04C4F81059D4F826
:10235000105925F0FF5525F4C015C4F81059D4F8CC
:1023600010698D69CF683D44013DB5FBF7F5494FD4
:1023700007EAC5453543C4F81059D4F810598E6999
:10238000C6F312063543C4F8105904F510640D79EC
:10239000012DB9D1256925F0C0452561256945F094
:1023A00000552561B0E74A691AB100EB4314C4F83F
:1023B00014290A79012A08D000EB4313D3F8002925
:1023C00042F00442C3F8002983E7D0F8082812F449
:1023D000807F08D100EB4311D1F8002942F0005270
:1023E000C1F80029E8E700EB4311D1F8002942F0D9
:1023F0008052C1F80029DFE7D0F8084814F4807F44
:102400000CD1D3F8004944F00054C3F800490092BD
:102410000B8B0A780969FFF70EFF5AE7D3F80049DA
:1024200044F08054C3F80049F1E7CD682C44013CE6
:10243000B4FBF5F4A4B204FB05F5CD61DCF8105053
:10244000144E06EAC4442C43CCF81040DCF810408B
:10245000CD69C5F312052C43CCF810402CE70A696E
:10246000002A3FF42CAFCCF8142028E7D0F8082835
:1024700012F4807F06D1D3F8002B42F00052C3F84B
:10248000002B20E7D3F8002B42F08052C3F8002B3A
:1024900019E700BF0000F81F00B583B08446084666
:1024A0004FEA920E02F00302002305E00CF5805182
:1024B000096840F8041B01337345F7D39AB10CF552
:1024C000805CDCF8003001934FF0000C5FFA8CF375
:1024D000D900019BCB4000F8013B0CF1010C013A03
:1024E00092B2002AF2D103B05DF804FB0B784A786F
:1024F000012A14D000EB4310D0F8002B002A06DB91
:102500002BB1D0F8003B23F08043C0F8003BD0F85B
:10251000003B43F40013C0F8003B0020704700EB81
:102520004310D0F80029002A06DB2BB1D0F800397F
:1025300023F08043C0F80039D0F8003943F4001389
:10254000C0F80039E9E70B784A78012A0ED000EB91
:102550004310D0F8003B23F40013C0F8003B0B7984
:10256000023BDBB2012B15D90020704700EB431072
:10257000D0F8003923F40013C0F800390B79023B7E
:10258000DBB2012BF0D8D0F8003943F08053C0F80B
:102590000039E9E7D0F8003B43F08053C0F8003B36
:1025A000E2E7D0F8003823F4FE63C0F80038D0F832
:1025B0000038090101F4FE611943C0F80018002039
:1025C0007047D0F8003E23F00303C0F8003ED0F877
:1025D000043823F00203C0F8043800207047D0F814
:1025E000003E23F00303C0F8003ED0F8043843F067
:1025F0000203C0F804380020704742698069104027
:102600007047D0F8183800F50060C0691840000C19
:102610007047D0F8183800F50060C069184080B2E3
:10262000704700EB4111D1F8082B00F500604069BC
:102630001040704710B4D0F81048D0F8343801F08A
:102640000F02D340DB01DBB2234300EB411000F566
:102650001060806818405DF8044B7047406900F0D6
:102660000100704738B50546C36823F0C043C36016
:10267000012913D019BBC36843F08043C360002411
:10268000012000F037FD01342846FFF7E7FF08B1CD
:10269000312CF5D9322C14D0002038BDC36843F05A
:1026A0000053C3600024012000F024FD01342846BB
:1026B000FFF7D4FF0128EDD0312CF4D9EAE701204F
:1026C000EBE70120E9E7D0F8003923F4FF6323F0BA
:1026D0000703C0F80039D0F8043843F48073C0F819
:1026E000043800207047000010B4046C154B9C4265
:1026F00003D9D0F8003B002B16DB0024C0F8104BA8
:10270000D0F8104B44F40024C0F8104BD0F8104B14
:1027100044F01804C0F8104BD0F8104B44F0C044FB
:10272000C0F8104B012903D000205DF8044B70471E
:10273000C0F8142BD0F8003B43F08023C0F8003BD6
:10274000F2E700BF0A30544F002800F0E08170B576
:1027500082B00446036813F0010F3BD09F4B9B6887
:1027600003F00C03042B2CD09C4B9B6803F00C0350
:10277000082B21D06368B3F5803F4FD0B3F5A02F6D
:1027800052D0964B1A6822F480321A601A6822F4EA
:1027900080221A606368002B50D000F0A5FC05462B
:1027A0008E4B1B6813F4003F14D100F09DFC401BBE
:1027B0006428F5D90320B1E1884B5B6813F4800FDE
:1027C000D8D0864B1B6813F4003F03D06368002BFE
:1027D00000F09F81236813F0020F54D07F4B9B6859
:1027E00013F00C0F3ED07D4B9B6803F00C03082BBD
:1027F00033D0E368002B68D0794B01221A6000F0D7
:1028000073FC0546754B1B6813F0020F54D100F0A2
:102810006BFC401B0228F5D903207FE16F4A136847
:1028200043F480331360B5E76C4B1A6842F480229E
:102830001A601A6842F480321A60ABE700F054FC68
:102840000546664B1B6813F4003FC3D000F04CFCF8
:10285000401B6428F5D9032060E1604B5B6813F4EA
:10286000800FC6D15D4B1B6813F0020F03D0E368E5
:10287000012B40F05081594A136823F0F803216975
:1028800043EAC1031360236813F0080F42D0636961
:102890006BB3534B0122C3F8802E00F025FC054694
:1028A0004E4B5B6F13F0020F34D100F01DFC401B48
:1028B0000228F5D9032031E1484A136823F0F803D0
:1028C000216943EAC1031360DDE7454B00221A602A
:1028D00000F00AFC0546414B1B6813F0020FD2D0F2
:1028E00000F002FC401B0228F5D9032016E13C4B06
:1028F0000022C3F8802E00F0F7FB0546374B5B6FD4
:1029000013F0020F06D000F0EFFB401B0228F5D9B0
:10291000032003E1236813F0040F77D02F4B1B6CC7
:1029200013F0805F33D1002301932C4B1A6C42F0DB
:1029300080521A641B6C03F080530193019B0125A4
:10294000284B1B6813F4807F23D0A368012B34D05D
:10295000052B38D0214B1A6F22F001021A671A6F2B
:1029600022F004021A67A368002B3DD000F0BCFBE4
:1029700006461A4B1B6F13F0020F46D100F0B4FB52
:10298000801B41F288339842F3D90320C6E000252A
:10299000D6E7144A136843F48073136000F0A4FB75
:1029A0000646104B1B6813F4807FCED100F09CFBD1
:1029B000801B0228F5D90320B0E0084A136F43F0CA
:1029C00001031367CFE7054B1A6F42F004021A6741
:1029D0001A6F42F001021A67C5E700BF00380240D3
:1029E000000047420070004000F07EFB0646524B5C
:1029F0001B6F13F0020F08D000F076FB801B41F232
:102A000088339842F3D9032088E0EDB9A369002BFD
:102A100000F08380484A926802F00C02082A51D0E4
:102A2000022B17D0454B00221A6600F05DFB0446CE
:102A3000414B1B6813F0007F42D000F055FB001B98
:102A40000228F5D9032069E03B4A136C23F0805338
:102A50001364DBE7394B00221A6600F045FB05469C
:102A6000354B1B6813F0007F06D000F03DFB401B88
:102A70000228F5D9032051E0E369226A1343626A10
:102A800043EA8213A26A5208013A43EA0243E26A25
:102A900043EA0263284A5360284B01221A6600F079
:102AA00023FB0446244B1B6813F0007F06D100F083
:102AB0001BFB001B0228F5D903202FE000202DE08E
:102AC00000202BE0012B2BD01B4B5B6803F4800113
:102AD000E269914226D103F03F02216A8A4223D162
:102AE000616A47F6C0721A40B2EB811F1ED103F42F
:102AF0004031A26A5208013AB1EB024F18D103F0FB
:102B00007063E26AB3EB026F14D1002006E001208B
:102B10007047012002E0012000E0002002B070BDFB
:102B20000120FBE70120F9E70120F7E70120F5E7A5
:102B30000120F3E70120F1E700380240000047429E
:102B400008B5314B9B6803F00C03042B57D0082BBE
:102B500057D12D4B5A6802F03F025B6813F4800F87
:102B60002AD0294B5968C1F3881C4FEA4C11B1EBAC
:102B70000C006EEB0E0E4FEA8E1343EA9063810158
:102B8000091A63EB0E03DB0043EA5173C90011EB32
:102B90000C0C43F10003590200234FEA4C2041EA98
:102BA000DC51FDF765FB184B5B68C3F30143013350
:102BB0005B00B0FBF3F025E0134B5968C1F3881CB0
:102BC0004FEA4C11B1EB0C006EEB0E0E4FEA8E1378
:102BD00043EA90638101091A63EB0E03DB0043EAC9
:102BE0005173C90011EB0C0C43F10003990200234F
:102BF0004FEA8C2041EA9C51FDF73AFBD3E70348AA
:102C000000E0034808BD00BF0038024000127A000F
:102C10000024F400002800F09B8070B50D460446A7
:102C20004F4B1B6803F007038B4208D2CBB24C4AD0
:102C30001370136803F007038B4240F08B80236806
:102C400013F0020F17D013F0040F04D0454A936815
:102C500043F4E0539360236813F0080F04D0414A13
:102C6000936843F4604393603E4A936823F0F00313
:102C7000A1680B439360236813F0010F32D063689F
:102C8000012B21D09A1E012A25D9364A126812F04A
:102C9000020F61D033498A6822F0030213438B602C
:102CA00000F022FA06462F4B9B6803F00C03626883
:102CB000B3EB820F16D000F017FA801B41F2883375
:102CC0009842F0D9032042E0264A126812F4003FED
:102CD000E0D101203BE0234A126812F0007FD9D1F5
:102CE000012034E01E4B1B6803F00703AB4207D9F9
:102CF000EAB21B4B1A701B6803F00703AB422DD1DD
:102D0000236813F0040F06D0164A936823F4E053A7
:102D1000E1680B439360236813F0080F07D0114A52
:102D2000936823F46043216943EAC1039360FFF78A
:102D300007FF0C4B9B68C3F303130B4AD35CD840CB
:102D40000A4B18600A4B1868FDF7D4FF002070BDCD
:102D5000012070470120FAE70120F8E70120F6E79B
:102D6000003C024000380240F080000828000020AB
:102D700024000020014B1868704700BF2800002085
:102D800008B5FFF7F7FF044B9B68C3F38223034AA0
:102D9000D35CD84008BD00BF003802400081000865
:102DA00008B5FFF7E7FF044B9B68C3F34233034AC0
:102DB000D35CD84008BD00BF003802400081000845
:102DC0000F2303600B4B9A6802F0030242609A687B
:102DD00002F0F00282609A6802F4E052C2609B68DE
:102DE000DB0803F4E0530361034B1B6803F00703A4
:102DF0000B60704700380240003C024000230F2B5C
:102E000000F2E48070B582B060E085685E00032463
:102E1000B44025EA0405CC68B4402C43846045687E
:102E200025EA02054C68C4F300129A402A43426026
:102E30005AE0DC08083450F8246003F007029500DB
:102E40000F22AA4026EA020E0A69AA4042EA0E02AE
:102E500040F824205CE0072200E0002202FA0EF293
:102E60002A4302345A4D45F824205A4A94686FEA9E
:102E70000C0224EA0C054E6816F4801F01D04CEABF
:102E80000405544CA560E46802EA04054E6816F493
:102E9000001F01D04CEA04054E4CE560646802EA6C
:102EA00004054E6816F4003F01D04CEA0405494C75
:102EB0006560246822404D6815F4803F01D04CEADB
:102EC0000402444C226001330F2B7DD801229A402A
:102ED0000C6804EA020C32EA0404F4D14C6804F0F1
:102EE0000304013C012C90D94A6802F00302032A32
:102EF00009D0C4685D000322AA4024EA02048A685B
:102F0000AA402243C2604A6802F00302022A90D01B
:102F100004684FEA430E032202FA0EF224EA020486
:102F20004A6802F0030202FA0EF2224302604A6883
:102F300012F4403FC7D000220192274A546C44F457
:102F400080445464526C02F480420192019A9C08BD
:102F5000A51C1F4A52F8255003F003024FEA820EC7
:102F60000F2202FA0EF225EA02051C4A90423FF4B3
:102F700074AF02F5806290421AD002F580629042EE
:102F800018D002F58062904216D002F5806290421D
:102F900014D002F58062904212D002F58062904215
:102FA00010D002F5806290423FF455AF082255E7F9
:102FB000012253E7022251E703224FE704224DE7A3
:102FC00005224BE7062249E702B070BD704700BFFB
:102FD00000380140003C014000380240000002403F
:102FE0000AB181617047090481617047074AD3685B
:102FF00023F4E0631B041B0C000200F4E0600343B5
:1030000043F0BF6343F40033D360704700ED00E04A
:1030100000B5194BDB68C3F30223C3F1070CBCF105
:10302000040F28BF4FF0040C03F1040EBEF1060F8D
:1030300018D9033B4FF0FF3E0EFA0CFC21EA0C01BD
:1030400099400EFA03F322EA0303194300280BDB2D
:103050000901C9B200F1604000F5614080F8001339
:103060005DF804FB0023E5E700F00F000901C9B299
:10307000024B1954F4E700BF00ED00E014ED00E04E
:10308000002807DB00F01F02400901239340024A99
:1030900042F82030704700BF00E100E008B50B4B5C
:1030A0001A6842F400721A601A6842F480621A6068
:1030B0001A6842F480721A600320FFF797FF0F200E
:1030C000FDF718FEFDF7FAFD002008BD003C0240A8
:1030D000034A1168034B1B780B441360704700BF11
:1030E000540C002020000020014B1868704700BFDE
:1030F000540C002038B50446FFF7F6FF0546B4F13E
:10310000FF3F02D0044B1B781C44FFF7EDFF401B30
:10311000A042FAD338BD00BF20000020002800F0F4
:10312000CC8070B5044690F83D30002B77D0242336
:1031300084F83D302268136823F00103136022688D
:10314000136843F4004313602268136823F40043B8
:103150001360FFF715FE62685A4B9A4264D85A4BC7
:1031600098428CBF00230123002B40F0A8805749D0
:10317000A1FB00318B0C25686A6822F03F0242EA0D
:1031800091426A6021680A6A22F03F0266684D4DEA
:10319000AE424FD8013313430B622168CA6922F44F
:1031A0004F4222F0FF026668464B9E424CD8431EB7
:1031B0007600B3FBF6F3013340F6FC70034278D09F
:1031C000C3F30B031343CB6121680B6823F0C003E7
:1031D000E269206A024313430B6021688B6823F481
:1031E000034323F0FF032269E068024313438B602B
:1031F0002168CB6823F0FF036269A069024313438F
:10320000CB602268136843F0010313600020206440
:10321000202384F83D30206384F83E0070BD80F8A0
:103220003C30FDF7A3FA82E7294B98428CBF00237C
:10323000012399E74FF4967505FB03F3254DA5FB94
:1032400003539B090133A6E7A368BBB9451E06EBF0
:10325000460CB5FBFCF50135C5F30B05B5FA85F554
:103260006D0945BBC3B9013806EB4603B0FBF3F368
:103270000133C3F30B0343F40043A3E7451E06EBFE
:10328000860C0CEB8C0CB5FBFCF50135C5F30B057E
:10329000B5FA85F56D09E4E7013806EB860303EB23
:1032A0008303B0FBF3F30133C3F30B0343F4404355
:1032B00088E7042386E7012384E701207047012083
:1032C000ACE700BFA08601007F841E0083DE1B43A5
:1032D000FF083D00D34D62107047000090F83D306C
:1032E000DBB2012B37D1022380F83D300268D3686E
:1032F00043F00103D3600368194A934220D0B3F12D
:10330000804F1DD0A2F57C42934219D002F5806215
:10331000934215D002F58062934211D002F57842B3
:1033200093420DD002F57052934209D0A2F5943227
:10333000934205D01A6842F001021A6000207047DB
:103340009A6802F00702062A07D01A6842F00102C2
:103350001A6000207047012070470020704700BFAE
:1033600000000140704770477047704710B5044631
:1033700003681A6912F0020F11D0DA6812F0020F16
:103380000DD06FF002021A610123037703689B6975
:1033900013F0030F70D0FFF7E6FF002323772368B5
:1033A0001A6912F0040F12D0DA6812F0040F0ED06E
:1033B0006FF004021A610223237723689B6913F4D8
:1033C000407F5FD02046FFF7CEFF0023237723689E
:1033D0001A6912F0080F12D0DA6812F0080F0ED036
:1033E0006FF008021A61042323772368DB6913F066
:1033F000030F4ED02046FFF7B6FF00232377236844
:103400001A6912F0100F12D0DA6812F0100F0ED0F5
:103410006FF010021A61082323772368DB6913F425
:10342000407F3DD02046FFF79EFF0023237723688F
:103430001A6912F0010F03D0DA6812F0010F36D1C9
:1034400023681A6912F0800F03D0DA6812F0800F37
:1034500034D123681A6912F0400F03D0DA6812F0F1
:10346000400F32D123681A6912F0200F03D0DA68B6
:1034700012F0200F30D110BDFFF774FF2046FFF788
:1034800073FF8AE72046FFF76DFF2046FFF76CFFCA
:103490009BE72046FFF766FF2046FFF765FFACE796
:1034A0002046FFF75FFF2046FFF75EFFBDE76FF0A6
:1034B00001021A612046FDF769F8C1E76FF080024A
:1034C0001A61204600F0A1F8C3E76FF040021A61CC
:1034D0002046FFF74AFFC5E76FF020021A61204639
:1034E00000F092F8C7E700000368304A904212D01B
:1034F000B0F1804F0FD0A2F57C4290420BD002F584
:103500008062904207D002F58062904203D002F5BB
:103510007842904203D123F070034A681343234A50
:1035200090422AD0B0F1804F27D0A2F57C42904241
:1035300023D002F5806290421FD002F58062904253
:103540001BD002F57842904217D002F5705290429B
:1035500013D002F5806290420FD002F58062904253
:103560000BD0A2F59832904207D002F580629042CB
:1035700003D002F58062904203D123F44073CA68FD
:10358000134323F080034A69134303608B68C362CB
:103590000B688362054B984203D003F58063984221
:1035A00001D10B69036301234361704700000140AF
:1035B00040B310B5044690F83D30F3B1022384F8CF
:1035C0003D30214651F8040BFFF78EFF012384F8AC
:1035D000463084F83E3084F83F3084F8403084F838
:1035E000413084F8423084F8433084F8443084F821
:1035F000453084F83D30002010BD80F83C30FFF7A6
:103600006BFEDBE7012070477047704738B5044612
:103610000268136923F44053C1680B431361836844
:103620000269134342691343C2691A430168CB68B4
:1036300023F4164323F00C031343CB600268536951
:1036400023F4407381690B4353610368314A934209
:1036500006D002F58062934202D0FFF791FB01E0B1
:10366000FFF79EFBE369B3F5004F29D00021031853
:1036700049411B1841F10001C90041EA5371DB00C7
:10368000181863684FEA83024FEA937341F100010F
:10369000FCF7EEFD204DA5FB00325109642303FB2E
:1036A00011031B013233A5FB03235B0903F0F00276
:1036B00002EB011203F00F03216813448B6038BD45
:1036C0000023021843EB0301121841F10001C90065
:1036D00041EA5271D200101841F10001626892185B
:1036E0005B41FCF7C5FD0C4DA5FB0032510964237D
:1036F00003FB1103DB003233A5FB03235B095A00F4
:1037000002F4F87202EB011203F00703216813447C
:103710008B60D4E7001001401F85EB512DE9F84381
:1037200005460F4616469946DDF820802C68246829
:1037300037EA04030CBF4FF0010C4FF0000CB44506
:103740002DD1B8F1FF3FF1D0B8F1000F05D0FFF750
:10375000CBFCA0EB09004045E8D92A6802F10C0334
:1037600053E8003F23F4D0730C3242E800310029C3
:10377000F3D12A6802F1140353E8003F23F0010358
:10378000143242E800310029F3D1202385F83D307E
:1037900085F83E30002385F83C30032000E000200F
:1037A000BDE8F88358B310B5044690F83D300BB32C
:1037B000242384F83D302268D36823F40053D36077
:1037C0002046FFF723FF2268136923F49043136117
:1037D0002268536923F02A0353612268D36843F4B3
:1037E0000053D36000202064202384F83D3084F807
:1037F0003E3010BD80F83C30FDF70AF8D8E70120D4
:1038000070472DE9F04182B01E4690F83D30DBB2A2
:10381000202B54D104460D469046002953D0002A4F
:1038200053D090F83C30012B51D0012380F83C302C
:1038300000230364212380F83D30FFF755FC074641
:10384000A4F82480A4F82680A368B3F5805F05D08F
:103850004FF00008002384F83C3012E0236913B1D4
:103860004FF00008F6E7A8460025F3E738F8023BDA
:103870002268C3F308035360E28C92B2013A92B219
:10388000E284E38C9BB273B100963B460022802118
:103890002046FFF743FFE0B9002DE7D015F8012BD4
:1038A00023685A60E8E700963B4600224021204604
:1038B000FFF734FF78B9202384F83D3000E0022080
:1038C00002B0BDE8F0810120FAE70120F8E702200C
:1038D000F6E70320F4E70320F2E70000034AD2F8FA
:1038E000883043F47003C2F88830704700ED00E080
:1038F00050B308B58446002315E003F1AE0E002056
:103900004CF82E0003F1B60E0CEB8E0ECEF8040030
:10391000C3EBC30E0CEBCE0ECEF80803CCF8FC02C2
:10392000CCF8F8020133032BE7D90023CCF8F432AA
:1039300009B1CCF8B41201238CF89C328CF8002029
:103940006046FDF7CFF808BD0320704730B583B05F
:1039500004460020ADF80600D4F8F80203281CD86D
:10396000D4F8FC52032D18D809B300F1AE0C44F87A
:103970002C10C0EBC00004EBC000C0F824330023BF
:10398000204602F097FFD4F8F8320133C4F8F83239
:10399000D4F8FC320133C4F8FC32064B9B6A0DF1BB
:1039A00006009847C4F8F402002003B030BD03209D
:1039B000FBE700BFB000002008B50022C0F8F822E5
:1039C000FDF7F5F808BDF8B505460E460024274674
:1039D00000E00134032C17D8C4EBC40305EBC30388
:1039E000D3F80833012BF4D104F1AE0355F823309A
:1039F000002BEED0C5F8F8421B68314628469847A0
:103A00000028E6D00327E4E73846F8BDF8B50546B8
:103A10000E460024274600E00134032C17D8C4EBDF
:103A2000C40305EBC303D3F80833012BF4D104F12D
:103A3000AE0355F82330002BEED0C5F8F8425B6892
:103A40003146284698470028E6D00327E4E7384661
:103A5000F8BD38B5044600F2AA25284600F092FACF
:103A60000123C4F89432B4F8B032C4F8983294F810
:103A7000AA1201F01F03012B0DD0022B10D02BB185
:103A800001F080012046FDF7B5F803E02946204605
:103A900000F08CFC38BD2946204600F0C2FCF9E756
:103AA0002946204600F000FDF4E7F8B5054601235D
:103AB00080F89C320026C0F894624660C0F8A46288
:103AC00080F8A062344600E00134032C19D8C4EB1E
:103AD000C40305EBC303D3F80833012BF4D104F17D
:103AE000AE0355F82330002BEED0C5F8F8425B68E2
:103AF000002BE9D02979284698470028E4D00326EE
:103B0000E2E74023002211462846FDF758F8012736
:103B1000A5F864714024C5F8604123460022802145
:103B20002846FDF74CF8AF842C623046F8BD01748E
:103B30000020704790F89C32DBB280F89D3204235D
:103B400080F89C320020704790F89C32DBB2042B46
:103B500001D00020704790F89D32DBB280F89C3293
:103B6000F7E738B590F89C32DBB2032B1BD000206E
:103B700038BD0134032CFAD8C4EBC40305EBC303EE
:103B8000D3F80833012BF4D104F1AE0355F82330F8
:103B9000002BEED0DA69002AEBD0C5F8F842DB69D9
:103BA00028469847E5E705460024E3E708B5D0F83E
:103BB000F832AE3350F823205AB190F89C32DBB281
:103BC000032B01D0002008BD136A23B198470020C1
:103BD000F9E70320F7E70020F5E708B5D0F8F83259
:103BE000AE3350F823205AB190F89C32DBB2032B4D
:103BF00001D0002008BD536A23B198470020F9E79F
:103C00000320F7E70020F5E70020704770B5054670
:103C1000012380F89C320024264600E00134032C66
:103C200017D8C4EBC40305EBC303D3F80833012B47
:103C3000F4D104F1AE0355F82330002BEED0C5F8D3
:103C4000F8425B682979284698470028E6D0032681
:103C5000E4E7304670BD00231CE00CF1010CC3EB1F
:103C6000C30200EBC202D2F82823624511D9C3EB8C
:103C7000C30200EBC202624492F82C238A42ECD1C8
:103C800003F1AE0250F822209268002AE5D0D8B2A3
:103C900070470133032B0AD8C3EBC30200EBC20207
:103CA000D2F80823012AF4D14FF0000CD7E7FF2007
:103CB000704700231CE00CF1010CC3EBC30200EBC6
:103CC000C202D2F80C23624511D9C3EBC3020CEB3C
:103CD0004202C43210F822208A42ECD103F1AE0233
:103CE00050F822209268002AE5D0D8B270470133FC
:103CF000032B0AD8C3EBC30200EBC202D2F808239D
:103D0000012AF4D14FF0000CD7E7FF20704738B5F7
:103D100004460D46002943D11346D0F89422032AC5
:103D200001D0084638BDD0F85C11D0F8602191422E
:103D300012D890F8AA3203F01F03012B17D0022BE0
:103D40001CD0284694F89C32DBB2032B1BD02046B3
:103D500000F009FD2846E5E7891AC0F85C118A429F
:103D600028BF0A46194600F0F6FC2846DAE790F824
:103D7000AE12FFF770FF0328E9D8E3E790F8AE1220
:103D8000FFF797FFF7E700F1AE0354F823301A6905
:103D9000002ADCD0C4F8F8021B6920469847D6E711
:103DA00001F07F01FFF785FF032813D894F89C32B8
:103DB000DBB2032B01D00020B4E700F1AE0354F8CE
:103DC00023309A6942B1C4F8F8029B69294620461B
:103DD0009847A7E70020A5E70020A3E738B50446E9
:103DE0000D4600294BD11346D0F89422022A07D061
:103DF00094F8A00218B1002384F8A032284638BDF8
:103E0000C269016A8A420ED88A4218D094F89C325C
:103E1000DBB2032B27D080212046FCF7EBFE2046A7
:103E200000F0ACFCE4E7521AC261194600F07CFCD9
:103E300000231A4619462046FCF7FCFED8E78369A2
:103E40009942E3D8D0F898229342DFD2002211465B
:103E500000F06AFC0021C4F898120B460A4620467E
:103E6000FCF7E8FEC4E7D4F8B832DA68002AD2D00A
:103E70000022C4F8F822DB6820469847CBE741F0DF
:103E80008001FFF716FF032813D894F89C32DBB2A9
:103E9000032B01D00020B2E700F1AE0354F8233029
:103EA0005A6942B1C4F8F8025B692946204698472E
:103EB000A5E70020A3E70020A1E730B58646002350
:103EC00001E00133DBB2DEF8F842C4EBC40C0EEBC8
:103ED000CC0CDCF80C03834222D2C4EBC40C03EB01
:103EE0004C0C0CF1C40C1EF82C0000F0800C8C451E
:103EF000E7D1C4EBC40C03EB4C0C0CF1C40C0EEB7F
:103F00008C0C9CF801C09445DBD1C4EBC40403EBDA
:103F10004405C4350EEB8505EC78002CD1D000E0CB
:103F2000FF2030BD03780A8813440B8003781844BF
:103F30007047428803789A4218D930B583B0044656
:103F40000D46ADF806306288BDF806309A420AD9AF
:103F50000DF10601FFF7E6FF4378052BF3D18378D7
:103F6000AB42F0D100E0002003B030BD002070472C
:103F70000346002002E00130C0B201331A78002A63
:103F8000F9D170470B7803704B7843708B78CA78FF
:103F900043EA022343800B794A7943EA0223838070
:103FA0008B79CA7943EA0223C380704710B504466F
:103FB0008021FCF71FFE00212046FCF71BFE10BDF0
:103FC00070B582B004460D460023ADF806304A882D
:103FD000130A013B062B00F2E880DFE813F007002C
:103FE00022004800E600E600B800CE00D0F8B43267
:103FF0001B680DF10601007C9847EA88002A00F052
:10400000DD80BDF80630002B00F0D3809A4228BF37
:104010001A46ADF806200146204600F078FB02B0B3
:1040200070BD037C8BB990F8FC323BB1654B9B6A49
:104030000DF10600984702234370DEE7D0F8B8324E
:104040009B6A0DF106009847F5E790F8FC323BB10A
:104050005C4BDB6A0DF10600984702234370CCE706
:10406000D0F8B832DB6A0DF106009847F5E7D2B216
:10407000052A69D8DFE802F003101D2A3744D0F87A
:10408000B4325B6823B10DF10601007C9847B4E7B8
:104090002946FFF78BFFC2E7D0F8B4329B6823B103
:1040A0000DF10601007C9847A7E72946FFF77EFF40
:1040B000B5E7D0F8B432DB6823B10DF10601007C1E
:1040C00098479AE72946FFF771FFA8E7D0F8B4327E
:1040D0001B6923B10DF10601007C98478DE7294645
:1040E000FFF764FF9BE7D0F8B4325B6923B10DF1B1
:1040F0000601007C984780E72946FFF757FF8EE7C7
:10410000D0F8B4329B6923B10DF10601007C9847C9
:1041100073E72946FFF74AFF81E706F1AE0354F83B
:1041200023309A6B52B1C4F8F8629B6B0DF1060212
:10413000A9782046984700287FF45FAF0136D4F86D
:10414000FC32B342E9D858E700263046F7E7037C53
:104150007BB990F8FC322BB11A4B5B6B0DF106006A
:1041600098474AE7D0F8B8325B6B0DF106009847E4
:1041700043E72946FFF71AFF51E7037C8BB990F814
:10418000FC323BB10F4B1B6B0DF106009847072328
:10419000437032E7D0F8B8321B6B0DF10600984738
:1041A000F5E72946FFF702FF39E72946FFF7FEFE4C
:1041B00035E729462046FFF7F9FE30E7204600F0B4
:1041C000D2FA2CE7B000002038B504468B88FBB942
:1041D000CB88EBB94B887F2B1AD803F07F0590F87A
:1041E0009C32DBB2032B0CD080F89E522946FCF7A0
:1041F00011FD204600F0B7FA35B1022384F89C3255
:1042000009E0FFF7D3FE06E0012384F89C3202E0C8
:104210002046FFF7CBFE38BD70B504460E468D78BC
:104220002F4B1D70012D10D890F89C32DBB2022B61
:104230000FD0032B26D0FFF7B9FE294B1978204663
:10424000FFF7E4FB0325284670BDFFF7AFFE03250B
:10425000F9E7A5B145602946FFF7B5FB054638B13A
:1042600031462046FFF7A2FE022384F89C32EAE79B
:10427000204600F078FA032384F89C32E3E700F04C
:1042800072FAE0E7CDB141688D4225D0C9B2FFF79F
:10429000BDFB134B197861602046FFF794FB054680
:1042A000B0B131462046FFF781FE21792046FFF765
:1042B000ADFB022384F89C32C5E7022380F89C32D0
:1042C00045602946FFF7A2FB204600F04CFABAE70A
:1042D000204600F048FAB6E700F045FA0025B2E7BC
:1042E000580C002008B5CB88012B0BD190F89C32DC
:1042F000DBB2022B09D9032B09D10122011D00F0E9
:1043000006FA01E0FFF752FE08BD5BB213B9FFF7F2
:104310004DFEF9E70146002341F8083F012200F075
:10432000F6F9F1E708B590F89C32013B022B12D860
:10433000CB88022B0CD10123C360D0F8A4320BB17F
:104340000323C360022200F10C0100F0E0F908BD74
:10435000FFF72CFEFBE7FFF729FEF8E708B54B88CF
:10436000012B04D0022B07D0FFF720FE08BDC0F8B8
:10437000A43200F0F8F9F9E78B881B0A80F8A03224
:1043800000F0F1F9F2E708B590F89C32013B022BFE
:1043900009D84B88012B00D008BD0023C0F8A432F7
:1043A00000F0E1F9F8E7FFF701FEF5E738B50C7822
:1043B00004F06004202C06D0402C04D06CB1FFF730
:1043C000F5FD002407E0D0F8F832AE3350F8233082
:1043D0009B6898470446204638BD4D78092D1DD866
:1043E000DFE805F012191C161C08051C0F0BFFF75F
:1043F000E7FDF0E7FFF7E8FEEDE7FFF70DFF044606
:10440000E9E7FFF76FFFE6E7FFF78CFF2C46E2E7EF
:10441000FFF7A4FFDFE7FFF7B6FFDCE7FFF7C6FD16
:10442000D9E770B505460C460B7803F06003202BE6
:1044300007D0402B05D023B1FFF7B8FD002630464A
:1044400070BD95F89C32013B022B27D821790329B6
:104450001ED82846FFF7FFFB03280DD800F1AE0356
:1044600055F823309A688AB1C5F8F8029B6821464E
:1044700028469847064600E00326E388002BDED155
:10448000002EDCD1284600F06EF9D8E70326F4E7C9
:1044900021462846FFF78AFD0026D0E72146284618
:1044A000FFF784FD0026CAE72DE9F04106460D46D8
:1044B0008B88DFB20C7804F06004202C08D0402CEC
:1044C00006D0D4B1FFF772FD00242046BDE8F0818C
:1044D00039463046FFF7EDFB032800F2F780C6F8B7
:1044E000F802AE3056F820309B68002B00F0F080C8
:1044F0002946304698470446E7E791F80180B8F12D
:10450000010F31D0B8F1030F05D0B8F1000F66D01C
:10451000FFF74CFDD9E790F89C32DBB2022B04D0B8
:10452000032B12D0FFF742FDCFE70FB1802F04D14C
:1045300029463046FFF73AFDC7E73946FCF75AFBF4
:1045400080213046FCF756FBBFE74B8823B91FB1EB
:10455000802F01D0CB881BB1304600F004F9B4E7BE
:104560003946FCF747FBF7E790F89C32DBB2022BA9
:1045700004D0032B12D0FFF719FDA6E70FB1802F4F
:1045800004D129463046FFF711FD9EE73946FCF776
:1045900031FB80213046FCF72DFB96E74B88002B42
:1045A00093D117F07F0F16D1304600F0DCF8394672
:1045B0003046FFF77EFB032887D8C6F8F802AE30F6
:1045C00056F820309B68002B3FF47FAF29463046D9
:1045D0009847044679E73946FCF714FBE4E790F87E
:1045E0009C22D2B2022A05D0032A27D0FFF7DEFC94
:1045F00044466AE70FB1802F13D113F0800F14D116
:1046000007F07F0707EB8707B90001F5A871314470
:10461000043100230B600222304600F078F8444653
:1046200053E7FFF7C3FC44464FE707F07F0707EB6C
:104630008707B900103131440431EAE75BB2002B3F
:104640001FDB07F00F0202EB820200EB8202B2F8DE
:1046500064211AB3002B25DB07F07F0303EB8303F0
:104660009C0004F5A874344404340FB1802F22D187
:104670000023236002222146304600F048F84446D9
:1046800023E707F00F0202EB820200EB8202928C1A
:10469000002ADFD1FFF78AFC444616E7FFF786FCC5
:1046A000444612E707F07F0303EB83039C001034BA
:1046B00034440434D9E739463046FCF751FA10B196
:1046C00001232360D6E700232360D3E70024FCE620
:1046D0000024FAE6D0B170B50D4616460446FFF741
:1046E00047FC431C5B009BB233802B7003236B7031
:1046F000022307E0EA5401345A1CD2B20021A95423
:104700000233DBB22278002AF4D170BD704708B5BD
:1047100013460222C0F894228361C3610A46002135
:10472000FCF780FA002008BD08B513460A460021B0
:10473000FCF778FA002008BD08B513460322C0F83C
:104740009422C0F85831C0F85C310A460021FCF7C9
:1047500071FA002008BD08B513460A460021FCF78F
:1047600069FA002008BD08B50422C0F8942200238D
:104770001A461946FCF756FA002008BD08B505226E
:10478000C0F8942200231A461946FCF753FA002079
:1047900008BD000070B5044641F2740002F028FC28
:1047A00000283ED0D4F8F832B23304EB83035860CB
:1047B000C4F8C802022280212046FFF77EFB2D4B61
:1047C0001870022200212046FFF777FB01462A4B92
:1047D0001870237C73BB4FF4007302222046FCF751
:1047E000EEF9254B1B7803F00F0303EB830304EB77
:1047F00083030125A3F864511E4E4FF40073022277
:1048000031782046FCF7DBF9337803F00F0303EB34
:10481000830304EB83039D84204600F0CDF9002040
:1048200070BDD4F8F832B23304EB83040023636024
:104830000220F5E7402302222046FCF7C0F90E4B88
:104840001B7803F00F0303EB830304EB83030125C1
:10485000A3F86451074E4023022231782046FCF72A
:10486000AEF9337803F00F0303EB830304EB830308
:104870009D84D1E72C0000202D00002070B5044657
:1048800002228021FFF719FB1F4D28700222002110
:104890002046FFF712FB01461C4E30702046FCF705
:1048A00099F9337803F00F0303EB830304EB8303DD
:1048B0000026A3F8646129782046FCF78BF92B7851
:1048C00003F00F0303EB830304EB83039E84D4F80C
:1048D000F832B23304EB83035B6893B1204600F0F7
:1048E000DDF9D4F8F832B23304EB8303586802F0F0
:1048F00087FBD4F8F832B23304EB83035E60C4F86C
:10490000C862002070BD00BF2C0000202D000020D8
:104910002DE9F04182B004460D46D0F8F832B233AA
:1049200000EB83035F680026ADF806600222802159
:10493000FFF7C3FA564B1870022231462046FFF7A4
:10494000BCFA544B1870002F00F0A0802B7813F0A5
:1049500060063DD0202E40F090806A78FE2A07D075
:10496000FF2A23D029462046FFF720FB032689E0B3
:104970006A8812B9EA88012A05D029462046FFF73D
:1049800015FB03267EE013F0800FF6D0D4F8F83242
:10499000B63304EB83035B689B6998473860012258
:1049A00039462046FFF7B3FE00266BE06A884AB915
:1049B000EA883AB913F0800F04D1204600F03CF9A0
:1049C00000265FE029462046FFF7F0FA032659E06B
:1049D00095F80180B8F10B0F49D8DFE808F00638E8
:1049E0004848484848484848192A94F89C32DBB25D
:1049F000032B05D029462046FFF7D8FA032641E0CD
:104A000002220DF106012046FFF781FE464639E0FD
:104A100094F89C32DBB2032B05D029462046FFF7E1
:104A2000C5FA03262EE00122391D2046FFF76FFE4E
:104A300028E094F89C32DBB2032B02D1AB787B6088
:104A400020E029462046FFF7B1FA03261AE094F841
:104A50009C32DBB2032B15D16B889BB92979204698
:104A6000FCF7C0F82979204600F00AFA0AE0294646
:104A70002046FFF79BFA032604E029462046FFF76D
:104A800095FA0326304602B0BDE8F0810326F9E727
:104A90002C0000202D00002008B500F041F9002076
:104AA00008BD08B500F0CCF9002008BD81B110B4F4
:104AB000D0F8F8325A1EC0F8F82203F1B50200EB24
:104AC00082025160C0F8F83200205DF8044B704754
:104AD00003207047F8B504460E461546D0F8F83264
:104AE00003F1B20C00EB8C0CDCF804700222802184
:104AF000FFF7E3F90F4B1870022200212046FFF761
:104B0000DCF90D4B18709FB107F580529369916BDA
:104B1000491B9163002182F83C1004223A72AB4297
:104B200028BF2B463246034909782046FCF77AF81D
:104B3000F8BD00BF2C0000202D00002038B5044631
:104B4000D0F8F832B23300EB83035D680222802193
:104B5000FFF7B3F9164B1870022200212046FFF729
:104B6000ACF9144B18708DB105F580531B7F2BB930
:104B700005F580539B690BB16B7A43B10C4B1978E7
:104B80002046FCF737F86B7A022B05D038BD01467A
:104B90002046FCF72FF8F1E7054B19782046FCF783
:104BA00029F8044B19782046FCF724F8EEE700BFFB
:104BB0002C0000202D00002070B50446D0F8F832FB
:104BC000B23300EB83035D6802228021FFF775F9A1
:104BD000174B1870022200212046FFF76EF9154B83
:104BE000187025B300202872687205F5805383F889
:104BF000610083F8600083F86200D4F8F832B633BD
:104C000004EB83035B681B6898470A4E31782046A3
:104C1000FBF7E8FF064B19782046FBF7E3FF1F235D
:104C200005F58052103231782046FCF703F870BD4C
:104C30002C0000202D00002070B50446D0F8F8327A
:104C4000B23300EB83035D6802228021FFF735F960
:104C5000104B1870022200212046FFF72EF90E4B50
:104C60001870ADB100232B7201236B72094B1978B8
:104C70002046FBF7C7FF084E31782046FBF7C2FFFE
:104C80001F2305F58052103231782046FBF7D2FF02
:104C900070BD00BF2C0000202D000020D0F8F8329D
:104CA000B23300EB830043680BB100221A727047E5
:104CB00070B504460E46D0F8F832B23300EB8303E9
:104CC0005D6802228021FFF7F8F8124B187002226B
:104CD00000212046FFF7F1F80F4B1870CDB105F514
:104CE00080530E4A1A6383F83C6000232B720D2315
:104CF00005F581521032074909782046FBF792FFEB
:104D00001F2305F580521032034909782046FBF72E
:104D100091FF70BD2C0000202D0000205553425300
:104D2000D0F8F832B23300EB83035A68DAB110B529
:104D30000446137A022B08D006D3033BDBB2012BC7
:104D400002D80021FFF7B4FF10BD02F580531A46C8
:104D50001F32597F00F0CEFE0028F5DA01212046EF
:104D6000FFF7A6FFF0E7704738B50446D0F8F832F1
:104D7000B23300EB83035D6802228021FFF79DF8C8
:104D80002C4B1870022200212046FFF796F82A4B80
:104D90001870F5B1014605F580535A695A639A694E
:104DA0009A632046FBF7F3FE1F2805D105F58053D3
:104DB0001A69224B9A420DD005F580512023052215
:104DC000497F204600F0ECF802236B722046FFF783
:104DD000B5FE38BD05F58053597F0129ECD89B7F7E
:104DE000002BE9D0102BE7D805F580521F32204662
:104DF00000F080FE00280CDB2B7A013BDBB2022B9B
:104E0000E7D9EA688AB105F110012046FFF762FE92
:104E1000DFE72B7A052B03D02046FFF78FFED8E77C
:104E200001212046FFF744FFD3E700212046FFF78A
:104E30003FFFCEE72C0000202D00002055534243B9
:104E4000D0F8F832B23300EB83035A68BAB110B528
:104E50000446137A13B1012B03D010BDFFF784FF72
:104E6000FBE702F580531A461F32597F00F042FEDD
:104E70000028F2DA01212046FFF71AFFEDE770471C
:104E800070B504460D46D0F8F832B23300EB830318
:104E90005E6802228021FFF710F8114B1870022281
:104EA00000212046FFF709F80E4B18705EB1737AA7
:104EB000022B09D015F0800F05D0012B03D0012162
:104EC0002046FFF7F5FE70BD054B19782046FBF72D
:104ED00091FE044B19782046FBF78CFEF3E700BFE8
:104EE0002C0000202D000020D0F8F832B23300EB67
:104EF000830043687BB112793AB903F580520021EF
:104F000082F862100020D860704703F580520121BA
:104F100082F86210F6E74FF0FF307047844658B1D0
:104F2000C26005E0013A92B2885C0CEB020318748F
:104F3000002AF7D1002070474FF0FF307047000083
:104F400008B5D0F8F832B23300EB8300406848B1BE
:104F500013799AB2172B00D917220449FFF7DEFF05
:104F6000002008BD4FF0FF30FBE700BF88000020A5
:104F700008B5D0F8F832B23300EB8300406848B18E
:104F8000137A9AB21B2B00D91B220449FFF7C6FFE4
:104F9000002008BD4FF0FF30FBE700BF6C00002091
:104FA000D0F8F812B23100EB81004068C8B100B50A
:104FB00000F5805E9EF8611001F5027C00F83C204F
:104FC00000EBCC021371002353714B1CDBB28EF843
:104FD0006130042B01D05DF804FB00238EF86130B2
:104FE000F9E7704770B5D0F8F83203F1B20200EB80
:104FF000820255689DB304460E4605F580529269BB
:1050000082B905F5805292F86220022A14D0B63394
:1050100000EB83035B689B6808469847A0B90023B0
:10502000EB6070BD05F5805520230522697FFFF7F1
:10503000B7FF4FF0FF30F4E73A23FFF7B1FF052346
:105040002B724FF0FF30ECE73A2302223146204624
:10505000FFF7A6FF05232B724FF0FF30E1E74FF07B
:10506000FF30DEE710B5D0F8F832B23300EB83033F
:105070005C68002C42D004F580539B690BB100237F
:105080000EE004F5805420230522617FFFF788FF9E
:105090004FF0FF302CE0E118002008740133DBB240
:1050A000112BF8D9702323740C23E37504F5805178
:1050B00091F8603091F861108B4212D003F50271C3
:1050C00014F83100A07404EBC10108792077497904
:1050D00061770133DBB204F5805181F86030042B35
:1050E00007D01223E3601379122B0AD8E360002063
:1050F00010BD0B46002183F86010F2E74FF0FF303F
:10510000F6E70020F4E7000010B58446D0F8F84236
:1051100004F1B20300EB83035868002841D000F586
:1051200080539B696BB1537813F0010F25D09378AE
:1051300093B1802B16D108221B49FFF7EFFE002008
:105140002EE000F5805020230522417F6046FFF7C6
:1051500027FF4FF0FF3023E006221449FFF7DEFE61
:1051600000201DE000F5805024230522417F604689
:10517000FFF716FF4FF0FF3012E0B6340CEB840C53
:10518000DCF80430DB6901EBC10103EB81010B7931
:10519000053312799A4200D91A46FFF7BFFE002064
:1051A00010BD4FF0FF30FBE7A8000020A00000205A
:1051B00010B5D0F8F832B23300EB83035C6874B3F7
:1051C00004F5805393F86230012B0ED0137903F06D
:1051D0000303012B15D0022B1BD0032B16D104F592
:1051E0008053002283F8622010E0137903F0030358
:1051F000022BEBD124230522FFF7D2FE4FF0FF3024
:1052000006E004F58053002283F862200020E0606D
:1052100010BD04F58053022283F86220F6E74FF0B8
:10522000FF30F5E770B582B0D0F8F83203F1B20282
:1052300000EB82025468002C3FD005460E46B63380
:1052400000EB83035B685B680DF10602694630463C
:10525000984738B904F5805393F86230022B01D097
:1052600000230DE03A23022231462846FFF798FE3C
:105270004FF0FF301FE0E2180021117401339BB2A0
:105280000B2BF8D90823E374009A531E190E2175CD
:10529000C3F307416175C3F30723A375013AE275B0
:1052A00002232376BDF80630002262761A0AA2761F
:1052B000E3760C23E36002B070BD4FF0FF30FAE7F5
:1052C00070B5D0F8F83203F1B20200EB82025468F4
:1052D000BCB305460E46B63300EB83035B685B68E0
:1052E00004F58352043204F583510831304698475F
:1052F000F0B904F5805393F86230022B18D004F50E
:1053000080518A6E531E1D0E2574C3F307456574C4
:10531000C3F30723A374013AE274B1F864300022A6
:10532000227562751A0AA275E3750823E36070BDE1
:105330003A23022231462846FFF732FE4FF0FF3073
:10534000F5E74FF0FF30F2E7F8B51546D0F8F83240
:1053500003F1B20200EB82025468002C58D00646DA
:105360000F46B63300EB83035B685B6804F583523A
:10537000043204F58351083138469847864690B97F
:1053800004F5805393F86230022B0CD0AB7AE97AA3
:10539000090441EA03612B7B41EA03216B7B19433A
:1053A000E16000230FE03A23022239463046FFF73E
:1053B000F7FD4FF0FF3E29E0E2184FF0000C82F8B5
:1053C00010C00133DBB29942F6D804F580518A6EE1
:1053D000531E180E2075C3F307406075C3F30723EF
:1053E000A375013AE275B1F8643000222276627644
:1053F0001A0AA276E376AA7AEB7A1B0443EA0263DE
:105400002A7B43EA02236A7B1343E3607046F8BDBC
:105410004FF0FF3EFAE710B5D0F8F84204F1B20CB5
:1054200000EB8C0CDCF8044074B11A4404F5805491
:10543000A36E9A4201D8002010BD21230522FFF758
:10544000AFFD4FF0FF30F7E74FF0FF30F4E700001B
:105450002DE9F047D0F8F832B23300EB83035F68F0
:10546000002F4FD004460E4607F58058D8F87050EC
:10547000B8F8643003FB05F502228021FEF71DFD1C
:10548000234B1870B5F5805F28BF4FF48055D4F8D2
:10549000F832B63304EB83035B68D3F810A007F14E
:1054A0001009B8F86430B5FBF3F39BB2D8F86C2060
:1054B00049463046D04700281BDB2B464A46144954
:1054C00009782046FBF7AEFB07F58053B3F864205C
:1054D000B5FBF2F1DA6E0A44DA661A6F521A1A67ED
:1054E000996B491B996382B903233B720020BDE885
:1054F000F0871123042231462046FFF751FD4FF07B
:10550000FF30F4E74FF0FF30F1E70020EFE700BF96
:105510002C000020F8B51646D0F8F83203F1B2029C
:1055200000EB82025568002D69D004460F462A7AA6
:10553000002A38D105F5805292F91C20002A3ADA67
:1055400005F5805292F86220022A3ED0B63300EB75
:1055500083035B689B680846984700283BD1B27874
:10556000F3781B0443EA0263327943EA0223727937
:105570001A4305F58051CA66F079337A43EA00236D
:105580000B6739462046FFF746FF00283ADB05F552
:1055900080529169136FB2F8642002FB03F39942C1
:1055A00022D102232B724FF48053EB603946204600
:1055B000FFF74EFFF8BD05F5805520230522697FD2
:1055C000FFF7EEFC4FF0FF30F4E73A23FFF7E8FC7B
:1055D0004FF0FF30EEE73A23022239462046FFF72C
:1055E000DFFC4FF0FF30E5E705F58055202305226D
:1055F000697F2046FFF7D4FC4FF0FF30DAE74FF029
:10560000FF30D7E74FF0FF30D4E7F8B51446D0F8B5
:10561000F83203F1B20200EB82025668002E6FD01E
:1056200005460F46327A002A3ED106F5805292F99D
:105630001C20002A40DA06F5805292F86220022AE5
:1056400044D0B63300EB83035B689B6808469847F9
:10565000002841D1A378E278120442EA0362237958
:1056600042EA032263791A4306F58051CA66A0799B
:10567000E3791B0443EA0063207A43EA0023607A5B
:1056800003430B6739462846FFF7C5FE00283ADB7F
:1056900006F580529169136FB2F8642002FB03F3A0
:1056A000994222D1022333724FF48053F36039467A
:1056B0002846FFF7CDFEF8BD06F5805620230522CB
:1056C000717FFFF76DFC4FF0FF30F4E73A23FFF7EF
:1056D00067FC4FF0FF30EEE73A23022239462846B6
:1056E000FFF75EFC4FF0FF30E5E706F5805620231C
:1056F0000522717F2846FFF753FC4FF0FF30DAE7B1
:105700004FF0FF30D7E74FF0FF30D4E72DE9F047F7
:10571000D0F8F832B23300EB83035C68002C59D028
:1057200005460F4604F58058D8F87060B8F8643024
:1057300003FB06F602220021FEF7BFFB274B187081
:10574000B6F5805F28BF4FF48056D5F8F832B633EF
:1057500005EB83035B68D3F814A004F11009B8F8D3
:105760006430B6FBF3F39BB2D8F86C204946384658
:10577000D047002816DB04F58052B2F86400B6FB6F
:10578000F0F4D16E2144D166136F1B1B1367916B2C
:10579000891B91637BB900212846FFF789FA002015
:1057A000BDE8F0870323042239462846FFF7F8FBBB
:1057B0004FF0FF30F4E700FB03F3B3F5805F28BF41
:1057C0004FF480534A46054909782846FBF732FAD8
:1057D0000020E5E74FF0FF30E2E700BF2D0000209A
:1057E0002DE9F041D0F8F832B23300EB83035D6865
:1057F000002D00F09B8004460F4616460222002131
:10580000FEF75BFB4C4B18702B7A002B40F0888026
:1058100005F580539B69002B4FD005F5805393F914
:105820001C30002B54DBD4F8F832B63304EB83037E
:105830005B689B6838469847002854D1D4F8F83202
:10584000B63304EB83035B68DB68384698478046D1
:10585000002851D1B278F3781B0443EA026332790D
:1058600043EA022372791A4305F58051CA66F0793A
:10587000337A43EA00230B6739462046FFF7CBFD16
:10588000002856DB05F58052136FB2F8641001FB57
:1058900003F392699A4238D101222A72B3F5805FEC
:1058A00028BF4FF4805305F11002234909782046A0
:1058B000FBF7C0F94046BDE8F08105F5805520238F
:1058C0000522697F2046FFF76BFB4FF0FF38F1E7B9
:1058D00005F5805520230522697F2046FFF760FBF0
:1058E0004FF0FF38E6E73A23022239462046FFF719
:1058F00057FB4FF0FF38DDE72723022239462046C9
:10590000FFF74EFB4FF0FF38D4E705F58055202315
:105910000522697F2046FFF743FB4FF0FF38C9E7B8
:1059200039462046FFF7F2FE8046C3E74FF0FF38C6
:10593000C0E74FF0FF38BDE72D0000202DE9F04112
:10594000D0F8F832B23300EB83035E68002E00F02B
:10595000A58004460F46154602220021FEF7ADFA47
:10596000514B1870337A002B40F0928006F580532B
:105970009B69002B55D006F5805393F91C30002B02
:105980005ADBD4F8F832B63304EB83035B689B68C8
:105990003846984700285AD1D4F8F832B63304EB89
:1059A00083035B68DB68384698478046002859D1F6
:1059B000AB78EA78120442EA03622B7942EA0322C6
:1059C0006B791A4306F58051CA66A879EB791B04F6
:1059D00043EA0063287A43EA0023687A03430B67AB
:1059E00039462046FFF717FD00285ADB06F580529E
:1059F000136FB2F8641001FB03F392699A423CD131
:105A000001223272B3F5805F28BF4FF4805306F154
:105A10001002254909782046FBF70CF94046BDE8FD
:105A2000F08106F5805620230522717F2046FFF77E
:105A3000B7FA4FF0FF38F1E706F58056202305222C
:105A4000717F2046FFF7ACFA4FF0FF38E6E73A23C4
:105A5000022239462046FFF7A3FA052333724FF09E
:105A6000FF38DBE72723022239462046FFF798FA62
:105A7000052333724FF0FF38D0E706F58056202318
:105A80000522717F2046FFF78BFA4FF0FF38C5E7FC
:105A900039462046FFF73AFE8046BFE74FF0FF3811
:105AA000BCE74FF0FF38B9E72D00002010B5D0F863
:105AB000F832B23300EB83035C68ACB1537813F077
:105AC000020F0AD104F58052136FD26EFFF7A3FCC8
:105AD00000280CDB0020E06010BD24230522FFF726
