:020000040800F2
:100000000000022009A60008811D0008831D0008C9
:10001000851D0008871D0008891D000800000000DC
:10002000000000000000000000000000218C00081B
:100030008B1D000800000000C18C000831910008F1
:1000400059A6000859A6000859A6000859A6000894
:1000500059A6000859A6000859A6000859A6000884
:1000600059A6000859A6000859A6000859A6000874
:1000700059A6000859A6000859A6000859A6000864
:1000800059A6000859A6000859A6000859A6000854
:1000900059A6000859A6000859A6000859A6000844
:1000A00059A6000859A6000859A6000859A6000834
:1000B00059A6000859A6000859A6000859A6000824
:1000C00059A6000859A6000859A600088D1D000869
:1000D00059A600089D1D000859A6000859A6000849
:1000E00059A6000859A6000859A6000859A60008F4
:1000F00059A60008AD1D000859A6000859A6000819
:1001000059A6000859A6000859A6000859A60008D3
:1001100059A6000859A6000859A6000859A60008C3
:1001200059A6000859A60008BD1D0008CD1D0008ED
:1001300059A60008000000000000000059A60008B1
:1001400059A6000859A6000859A6000859A6000893
:1001500059A6000859A60008DD1D000859A6000888
:1001600059A6000859A60008ED1D0008FD1D00084D
:1001700059A600080D1E0008000000000000000045
:0801800059A6000859A6000869
:1001900010B5054C237833B9044B13B10448AFF3C1
:1001A00000800123237010BDE80100200000000042
:1001B0004CB9000808B5034B1BB103490348AFF322
:1001C000008008BD00000000EC0100204CB90008D0
:1001D00001F0FF01102A2BDB10F0070F08D010F8F8
:1001E000013B013A8B422DD010F0070F42B3F6D1FC
:1001F000F0B441EA012141EA014122F007047FF015
:1002000000070023F0E80256083C85EA010586EA6B
:10021000010685FA47F5A3FA87F586FA47F6A5FAA7
:1002200087F68EB9EED1F0BC01F0FF0102F00702B3
:1002300032B110F8013B013A83EA010313B1F8D15E
:100240000020704701387047002D06BF354603383F
:10025000073815F0010F07D1013015F4807F02BF78
:10026000013015F4C03F0130F0BC0138704700BFC9
:1002700081F0004102E000BF83F0004330B54FEA57
:1002800041044FEA430594EA050F08BF90EA020FC4
:100290001FBF54EA000C55EA020C7FEA645C7FEA57
:1002A000655C00F0E2804FEA5454D4EB5555B8BF7A
:1002B0006D420CDD2C4480EA020281EA030382EAEB
:1002C000000083EA010180EA020281EA0303362D7D
:1002D00088BF30BD11F0004F4FEA01314FF4801C50
:1002E0004CEA113102D0404261EB410113F0004F62
:1002F0004FEA03334CEA133302D0524263EB430319
:1003000094EA050F00F0A780A4F10104D5F1200EB6
:100310000DDB02FA0EFC22FA05F2801841F1000111
:1003200003FA0EF2801843FA05F359410EE0A5F1E5
:1003300020050EF1200E012A03FA0EFC28BF4CF016
:10034000020C43FA05F3C01851EBE37101F00045CC
:1003500007D54FF0000EDCF1000C7EEB00006EEBD9
:100360000101B1F5801F1BD3B1F5001F0CD3490863
:100370005FEA30004FEA3C0C04F101044FEA4452BA
:1003800012F5800F80F09A80BCF1004F08BF5FEA41
:10039000500C50F1000041EB045141EA050130BD21
:1003A0005FEA4C0C404141EB0101013C28BFB1F533
:1003B000801FE9D291F0000F04BF01460020B1FA7E
:1003C00081F308BF2033A3F10B03B3F120020CDA51
:1003D0000C3208DD02F1140CC2F10C0201FA0CF02F
:1003E00021FA02F10CE002F11402D8BFC2F1200C94
:1003F00001FA02F120FA0CFCDCBF41EA0C0190404A
:10040000E41AA2BF01EB0451294330BD6FEA040492
:100410001F3C1CDA0C340EDC04F11404C4F120027D
:1004200020FA04F001FA02F340EA030021FA04F38F
:1004300045EA030130BDC4F10C04C4F1200220FAE6
:1004400002F001FA04F340EA0300294630BD21FA24
:1004500004F0294630BD94F0000F83F4801306BFEA
:1004600081F480110134013D4EE77FEA645C18BFDE
:100470007FEA655C29D094EA050F08BF90EA020F75
:1004800005D054EA000C04BF1946104630BD91EA6D
:10049000030F1EBF0021002030BD5FEA545C05D170
:1004A0004000494128BF41F0004130BD14F58004AF
:1004B0003CBF01F5801130BD01F0004545F0FE4123
:1004C00041F470014FF0000030BD7FEA645C1ABF58
:1004D000194610467FEA655C1CBF0B46024650EA8F
:1004E000013406BF52EA033591EA030F41F40021BB
:1004F00030BD00BF90F0000F04BF0021704730B541
:100500004FF4806404F132044FF000054FF0000115
:1005100050E700BF90F0000F04BF0021704730B5D6
:100520004FF4806404F1320410F0004548BF4042AB
:100530004FF000013EE700BF42004FEAE2014FEA00
:1005400031014FEA02701FBF12F07F4393F07F4FDB
:1005500081F06051704732F07F4208BF704793F0DE
:100560007F4F04BF41F40021704730B54FF46074F1
:1005700001F0004521F000411CE700BF50EA0102F4
:1005800008BF704730B54FF000050AE050EA01029D
:1005900008BF704730B511F0004502D5404261EB0D
:1005A00041014FF4806404F132045FEA915C3FF44E
:1005B000D8AE4FF003025FEADC0C18BF03325FEAEB
:1005C000DC0C18BF033202EBDC02C2F1200300FA9C
:1005D00003FC20FA02F001FA03FE40EA0E0021FAC1
:1005E00002F11444BDE600BF53B94AB9002908BF5F
:1005F00000281CBF4FF0FF314FF0FF3001F0DEB894
:10060000ADF1080C6DE904CE00F006F8DDF804E069
:10061000DDE9022304B070472DE9F047089D044648
:100620008E46002B4DD18A42944669D9B2FA82F2A5
:1006300052B101FA02F3C2F1200120FA01F10CFAE1
:1006400002FC41EA030E94404FEA1C48210CBEFB19
:10065000F8F61FFA8CF708FB16E341EA034306FBA2
:1006600007F199420AD91CEB030306F1FF3080F031
:100670001F81994240F21C81023E63445B1AA4B27E
:10068000B3FBF8F008FB103344EA034400FB07F720
:10069000A7420AD91CEB040400F1FF3380F00A8161
:1006A000A74240F207816444023840EA0640E41B56
:1006B00000261DB1D4400023C5E900433146BDE802
:1006C000F0878B4209D9002D00F0EF800026C5E9A4
:1006D000000130463146BDE8F087B3FA83F6002EBC
:1006E0004AD18B4202D3824200F2F980841A61EB34
:1006F000030301209E46002DE0D0C5E9004EDDE752
:1007000002B9FFDEB2FA82F2002A40F09280A1EB39
:100710000C014FEA1C471FFA8CFE0126200CB1FB8E
:10072000F7F307FB131140EA01410EFB03F0884287
:1007300008D91CEB010103F1FF3802D2884200F214
:10074000CB804346091AA4B2B1FBF7F007FB1011A6
:1007500044EA01440EFB00FEA64508D91CEB040444
:1007600000F1FF3102D2A64500F2BB800846A4EB9F
:100770000E0440EA03409CE7C6F12007B34022FA8A
:1007800007FC4CEA030C20FA07F401FA06F31C43B9
:10079000F9404FEA1C4900FA06F3B1FBF9F8200CC6
:1007A0001FFA8CFE09FB181140EA014108FB0EF00C
:1007B000884202FA06F20BD91CEB010108F1FF3A5C
:1007C00080F08880884240F28580A8F10208614468
:1007D000091AA4B2B1FBF9F009FB101144EA014176
:1007E00000FB0EFE8E4508D91CEB010100F1FF3421
:1007F0006CD28E456AD90238614440EA0840A0FBB9
:100800000294A1EB0E01A142C846A64656D353D08E
:100810005DB1B3EB080261EB0E0101FA07F722FAB2
:1008200006F3F1401F43C5E9007100263146BDE8DB
:10083000F087C2F12003D8400CFA02FC21FA03F33E
:10084000914001434FEA1C471FFA8CFEB3FBF7F0BF
:1008500007FB10360B0C43EA064300FB0EF69E42E4
:1008600004FA02F408D91CEB030300F1FF382FD27D
:100870009E422DD9023863449B1B89B2B3FBF7F625
:1008800007FB163341EA034106FB0EF38B4208D9FE
:100890001CEB010106F1FF3816D28B4214D9023E3F
:1008A0006144C91A46EA004638E72E46284605E75D
:1008B0000646E3E61846F8E64B45A9D2B9EB02082E
:1008C00064EB0C0E0138A3E74646EAE7204694E7BE
:1008D0004046D1E7D0467BE7023B614432E73046F1
:1008E00009E76444023842E703685A004CBF43F00A
:1008F000004323F000431844704700BF2DE9F8433C
:1009000029B34F1E044615463E464FF0000808EB3B
:10091000060101EBD171491004EBC1094846FFF70C
:10092000E3FF0346C80008308F42204409D0AB42A1
:1009300009D8FFF7D9FF0138A8420AD201F101080E
:10094000E5E7AB4205D9884501D04E1EDFE74FF001
:1009500000094846BDE8F883012807D0022807D0DF
:10096000044B00280CBF184600207047024870470F
:10097000024870473110000835100008391000088F
:1009800030B5234B83B004468D1E3BB301A92846E6
:10099000AFF30080E8B101992A46FFF7AFFF0146A7
:1009A000B8B1FFF7A1FF4B68A064012B2CD0002B3E
:1009B00001F1040024DBFFF797FF0023C4E91303D0
:1009C0000368002B11DBFFF78FFF2061002003B0CD
:1009D00030BD00230920236103B030BD0D4B0E490B
:1009E000C91AC91018460191D6E7C3F30360FFF78F
:1009F000B3FF0028206114BF0020092003B030BDE0
:100A00000123C4E91303DBE7002323610520DEE7AC
:100A100000000000D0BB000830BD00080368DA0702
:100A200010B5044606D49B0700F1480009D500F034
:100A30005BFC2368590709D51A070ED5DB0613D5C9
:100A400010BD00F049FC23685907F5D404F1D0002B
:100A500000F052FC23681A07F0D404F5A87000F0E7
:100A600053FC2368DB06EBD404F5E870BDE81040C6
:100A700000F08EBC092070470346006800B118449E
:100A8000704700BF704700BF70B504460E46316C1A
:100A90002046FFF775FF054688B9326C626123690D
:100AA00032462146012098470828F0D0072806D171
:100AB0002846316CFFF7E6FF301D00F001FC0AF01C
:100AC000F9FE00BF2DE9F0470D1DD0F80C80D0F8DD
:100AD0001890074614460FCDADF5727D0DF10C0C44
:100AE000ACE80F000FCDACE80F000FCDACE80F0065
:100AF00095E80F0002AE4FF0000E8CE80F00C6F82C
:100B000000E020E0336C7B614FF4F07231467AA84C
:100B100009F0CEFD3B697AAA394650469847889B32
:100B200073642146CDE9006905463B463A460120FB
:100B3000C0470446E0B94FF4F0727AA9304609F094
:100B4000B7FD082D1AD1316C3846FFF719FF09346B
:100B50005FFA84FA05460028D4D0B36B73643A4632
:100B6000CDE900693B464AF010010120C04700B1C1
:100B7000092528460DF5727DBDE8F087072DF7D1D0
:100B80002046316CFFF77EFF03A800F099FB00BF01
:100B9000406C7047F0B5CB6B0B6401F1040C0E4652
:100BA0000546BCE80F00F9B001AC0FC4BCE80F006B
:100BB0000FC4BCE80F000FC49CE80F004FF0FF37D4
:100BC00084E80F00009706E02B696A46294698479B
:100BD0000828044608D110992846FFF7D1FE0028BE
:100BE000F2D0092079B0F0BD6846FFF717FF062C58
:100BF000F7D131462846FFF747FF00BFC160D96BE8
:100C000082611964002219465CE700BF70B5C668AE
:100C100043690B64AEB903690A4604460D460146B2
:100C200002209847072805D008280FD129462046DA
:100C3000FFF72AFF3046296CFFF724FF281D00F03C
:100C40003FFB0122FFF73EFF0AF034FE0AF032FEBE
:100C5000C2681AB1CA6B0A64002233E79AE700BF80
:100C6000704700BF836801460BB1012018477047E9
:100C7000012912D009D873B90F2A0CD800EB8202CF
:100C800018465368009A136070470339012994BFCE
:100C9000012002207047022070470846704700BFBD
:100CA00000B585B00A46002303A900911946FFF755
:100CB000DFFF039805B05DF804FB00BF012912D0E7
:100CC00009D873B90F2A0CD800EB8200009A126879
:100CD0004260184670470339012994BF0120022061
:100CE0007047022070470846704700BF10B584B0B7
:100CF000002303AC039200940A461946FFF7DEFF77
:100D000004B010BD70B5D36B136402F1040C05463A
:100D10000C46BCE80F00ADF50E7D0DF15C0EAEE8A3
:100D20000F00BCE80F00AEE80F00BCE80F00AEE813
:100D30000F009CE80F004FF0FF368EE80F0016966C
:100D400010E0FFF7D3FF214616A8A847034616AACE
:100D50006946082083B9049B9847052806460CD0AD
:100D6000092809D026996846FFF70AFE03466A4615
:100D70000C2116A8002BE4D0092616A8FFF74EFE7A
:100D800030460DF50E7D70BD2DE9F04FCC6C89B06D
:100D90001E4654F8043B06940D46174600F003081F
:100DA000002E79D01A0C1B0405938DF81D20022308
:100DB000D2B204EB82048DF81C302B6DB8F1020F17
:100DC00008BFAC6B13F001030CD005A9384600F046
:100DD00079FB18B9082009B0BDE8F08F092009B0E7
:100DE000BDE8F08FD4F800A0BAF1000FEDD0019368
:100DF00000F008030293022E4AD0B4F800A0B4F821
:100E000002900434AB6C29F0010B0F2138469B444F
:100E1000FFF746FF834539D82AF001039B448345F9
:100E200094BF002001204FEA490303F002030AF0B7
:100E3000010A43EA0A03012B49D0022B32D0002BCE
:100E4000CCD1B8F1000F02D0002840F0CD8004349E
:100E5000D4F800A0BAF1000FCDD105A9384600F0B2
:100E600031FB0028BAD1019B002BB3D00F213846AB
:100E7000FFF716FF0E2102463846FFF737FF3846C8
:100E80006A4A0F21FFF732FF0720A8E70020CAE7D0
:100E9000D4F804900834B5E71B0205930323ADF89A
:100EA0001C308AE7236823F0004BB8F1000F45D1CE
:100EB00028B1029A002A5CD0BBF1000F74D0002B3D
:100EC00000DA04340BF1010B04EB8B04C0E7B8F13A
:100ED000000F19D1B0B163682268991C4FEAD27231
:100EE0003FF47CAF05F158010133049100F090808C
:100EF000201DFFF7C1FD04AB01462846AFF300807B
:100F000000285BD10834A3E70D213846D5F820909E
:100F1000FFF7C6FE8145F5D1AB6A9C42F2D120466F
:100F2000FFF7E2FC0F2102463846FFF7DFFE3846A6
:100F30002A460021FFF7DAFE072050E70D21384648
:100F4000D5F82090FFF7ACFE814501D02368B6E7C5
:100F5000AB6A9C42FAD104230022C5E90B23E318B3
:100F6000C5F828B06B632368002B59DB012301937C
:100F7000A8E705F15803CDF80C8004F1040AB04647
:100F800091461E460EE050460496FFF775FD00227E
:100F9000014604AB284609F101090AF1040AAFF33E
:100FA0000080E0B9D945EED10D213846FFF778FE33
:100FB000049BAC62C5E90803062010E781460D21B9
:100FC0003846FFF76DFEB9F1020F286225D12B4696
:100FD000049A43F82C2F6B62AC620620FFE646466B
:100FE0002368DDF80C806AE72046FFF77DFC0434B7
:100FF0000246AC6328461446AFF3008000283FF455
:10100000EDAE384622460F21FFF770FE0720E6E6D8
:101010000D213846FFF744FE2862049B6B62DBE734
:101020000BF1010004EB80007AE700BF0000000034
:101030000023A9E60123A7E60223A5E62DE9F04354
:101040000646C3B015461C46042900F2BF80DFE8FF
:1010500001F09E57BD2D0300002C40F0B780102AF0
:1010600000F2B4800368D80600F1F98020AF38465A
:1010700000F098F9B46B394600234FF0010C0CFADC
:1010800003F22A42204603F1010303D050F8042B57
:101090000A600446042B01F10401F0D13846B46320
:1010A00000F076F9002043B0BDE8F083032C40F057
:1010B0008D8094B204EB1243102B4FEA124500F2DC
:1010C000858003681F0700F1D28020AF384600F00A
:1010D0003DF9B26B07EBC50154B10B46D01A01EBD9
:1010E000C401E4001D5843F8045B8B42FAD122444A
:1010F0003846B26300F008F9002043B0BDE8F08341
:10110000012C4FEA124895B25CD0052C5ED108EB59
:101110000509B9F1200F59D8B8F10F0F79D9A946AF
:10112000002D40F08A80B36B6DB320AF4FF0000903
:1011300007EBC807043F03EBC50553F8041B47F84A
:10114000041FAB42F9D1B9F1000F0FD06F464146F1
:10115000102938BF102107EBC101843903EBC90501
:1011600053F8040B41F8040FAB42F9D1012C00F005
:101170008680B8F10F0FB56347D9B9F1000F02D0DF
:10118000684600F0B9F8002043B0BDE8F083ECB940
:10119000806B23461FFA82FC0124371D04FA03F2F8
:1011A00012EA0C0F014604D051F8042B47F8232013
:1011B00008460133102BF1D115F40055E3D1B0638B
:1011C000284604E008EB0503102B03D9022043B0A6
:1011D000BDE8F083B8F10F0FF8D83368DA0706D509
:1011E000304623F0030340F8483B00F079F820AF85
:1011F000384600F075F8B36B002D97D11D460435C5
:10120000B563384600F068F8BDE720A800F06CF838
:10121000B3E7B9F1100F40D9A9F110093368D90724
:1012200008D523F00103304643F0020340F8483B61
:1012300000F05EF8B9F1000F32D033685A0720D4BD
:10124000B8F10F0F25D96F463846C8F1100500F0E8
:1012500057F8002DB36B7FF77AAF20AF68E723F024
:101260001003336006F5E87000F09CF8FEE623F00A
:101270000803036000F5A87000F068F825E720AFC8
:10128000BDE7304623F0040340F8D03B00F038F8C7
:10129000D6E720A800F02CF8D5E74FF00009BDE70D
:1012A000B8F10F0F3FF63FAF20AF384600F020F8FF
:1012B000B36B002D7FF43AAF384600F015F862E7C3
:1012C00000F1340191E838009C46A6464CF8045DD4
:1012D00090E8FF0FE54600BD90EC210B704700BF82
:1012E00080EC210B704700BF90EC200B704700BFD3
:1012F00080EC200B704700BFD0EC200B704700BF84
:10130000C0EC200B704700BFF0EC0201F0EC0211C2
:10131000F0EC0221F0EC0231F0EC0241F0EC025171
:10132000F0EC0261F0EC0271F0EC0281F0EC029161
:10133000F0EC02A1F0EC02B1F0EC02C1F0EC02D151
:10134000F0EC02E1F0EC02F1704700BFE0EC0201CA
:10135000E0EC0211E0EC0221E0EC0231E0EC0241B1
:10136000E0EC0251E0EC0261E0EC0271E0EC0281A1
:10137000E0EC0291E0EC02A1E0EC02B1E0EC02C191
:10138000E0EC02D1E0EC02E1E0EC02F1704700BFDA
:10139000B0FC0181B0FC0191B0FC01A1B0FC01B135
:1013A000704700BFA0FC0181A0FC0191A0FC01A13D
:1013B000A0FC01B1704700BFEC4600B52DE900501C
:1013C0002DE9FF1F4FF000032DE90C0001A9FFF7E5
:1013D000E1FBDDF840E012B0704700BFEC4600B51D
:1013E0002DE900502DE9FF1F4FF000032DE90C00FF
:1013F00001A9FFF70BFCDDF840E012B0704700BF19
:10140000EC4600B52DE900502DE9FF1F4FF0000319
:101410002DE90C0001A9FFF71BFCDDF840E012B03C
:10142000704700BFEC4600B52DE900502DE9FF1FC5
:101430004FF000032DE90C0001ABFFF7DFFBDDF8F7
:1014400040E012B0704700BFEC4600B52DE90050F7
:101450002DE9FF1F4FF000032DE90C0001AAFFF753
:1014600051FCDDF840E012B0704700BF027A03463D
:101470007AB9427AA2B14168013A10B4427208685E
:1014800003220C1D1A7202025C60000E10BC1A606E
:1014900070470068013A1A7202021A60000E704723
:1014A000B020704700B585B0002303AA009219460A
:1014B0000C22FFF7DDFB039805B05DF804FB00BFCD
:1014C000F0E700BF2DE9F043054685B00E464FF02A
:1014D00000083046FFF7CAFFB028044600F0BA8083
:1014E000070620D500F0F003802B4DD0902B36D08E
:1014F000A02B60D0B02B74D0C02B00F08B8000F0FC
:10150000F803D02B0BD100F007020132052342F47F
:10151000002201212846FFF791FD0028D9D009209B
:1015200005B0BDE8F0838300DBB21F1D0DF10C098F
:1015300000231946CDF800900D222846FFF798FBAE
:10154000039BCDF8009060064CBFDF1BFF18002303
:101550000D22194628460397FFF7B0FBB9E700F0C4
:101560000D030D2BDBD003AF002300F00F02194653
:1015700000972846FFF77CFB002300970D221946B1
:101580002846FFF79BFBA4E73046FFF76FFF2402D6
:101590002043B0F5004FC2D004010023A2B2194687
:1015A0002846FFF74BFD0028B9D114F4004F18BFAF
:1015B0004FF001088DE7C24302F007034FF47F624A
:1015C0001A41010702F47F624FF0000348BF42F462
:1015D000804219462846FFF731FD00283FF479AFD5
:1015E0009DE7B1283BD0B22800F09380B32841D0CA
:1015F00000F0FC03B42B92D000F00702013201236B
:1016000042F4002219462846FFF718FD00283FF44F
:1016100060AF84E7C6284AD0C72854D000F0F8034A
:10162000C02B63D0C82868D0C9287FF478AF304673
:10163000FFF71CFF020300F00F0002F470220130DC
:101640000243012105232846FFF7F8FC00283FF458
:1016500040AF64E7B8F1000F18D0002060E73046D3
:10166000FFF704FF024600283FF459AF10F0F003E3
:10167000C8D054E73046FFF7F9FE020300F00F032D
:10168000013302F470221A430123BBE703AC434643
:101690000E22414600942846FFF7EAFA009443469A
:1016A0000F2241462846FFF709FB404638E73046FF
:1016B000FFF7DCFE020300F00F03013302F4702297
:1016C0001A4303239EE73046FFF7D0FE0246002868
:1016D0003FF425AF10F0F0037FF421AF042128463A
:1016E000FFF7ACFC00283FF4F4AE18E700F00F025F
:1016F0000132032342F4202284E73046FFF7B6FE8E
:1017000000F0F00200F00F031032013343EA02321E
:1017100097E700230DF10C090D221946CDF8009032
:101720002846FFF7A5FA3046FFF7A0FE02064FF065
:1017300002040CD5039B00F07F00A04018440390E6
:101740003046FFF793FE030604F10704F2D4039B2F
:10175000CDF8009000F07F02A24003F501731A4417
:101760000023039219460D222846FFF7A7FAB0E698
:1017700010B5C26C536884B04FF0030C08321C02E1
:1017800008461B0E01A9019402928DF80CC08DF839
:101790000D30FFF797FE04B010BD00BF08B5FFF78E
:1017A0008FFE806C08BD00BF08B5FFF789FEC06CD6
:1017B000C379023300EB830008BD00BF704700BF50
:1017C00000B585B00023009301930293039315485D
:1017D000154A02604FF480324260836003610376F1
:1017E00080F82030C362114A8262C3600122C26164
:1017F00080F83030426100F0C9FC60B900230093EA
:101800000122019202936946064800F0EBFC28B9D8
:1018100005B05DF804FB00F091F8EFE700F08EF8FA
:10182000F6E700BF04020020002001400100000F85
:1018300000B589B00023039304930593069307939F
:10184000026803F1804303F590339A4202D009B055
:101850005DF804FB0021019103F58C335A6C42F4CE
:1018600080725A645A6C02F480720192019A029159
:101870001A6B42F001021A631B6B03F0010302931F
:10188000029B072303930323049303A9014801F058
:1018900033F8DCE70000024010B582B00024019468
:1018A000114B1A6B42F480021A631B6B03F4800322
:1018B0000193019B224605213A2000F071FD3A2058
:1018C00000F0A6FD224605213B2000F069FD3B20EB
:1018D00000F09EFD22460521462000F061FD4620D5
:1018E00000F096FD02B010BD0038024008B507F0C8
:1018F00069FD08F025FD024B186806F0E3FB08BD02
:101900004C02002008B5044A0021044807F04AFCB4
:10191000034B186008BD00BF34BA0008ED1800087A
:101920004C02002008B50268034B9A4200D008BD63
:1019300000F06CFBFBE700BF0020004072B6FEE742
:1019400000B595B03022002108A808F0BFFE0023A2
:10195000039304930593069307930193204A116C14
:1019600041F080511164126C02F080520192019A90
:1019700002931C4B1A6842F480421A601B6803F4FD
:1019800080430293029B012308934FF48033099311
:1019900002230E934FF480020F9204221092A82289
:1019A000119212930723139308A802F005FD98B92A
:1019B0000F23039302230493002305934FF4A053B2
:1019C00006934FF480530793052103A802F05AFFB2
:1019D00020B915B05DF804FBFFF7B0FFFFF7AEFFCD
:1019E000003802400070004008B500F0F5FA03F03E
:1019F0003DF8FFF7A5FF00F017F8FFF74DFFFFF7E1
:101A0000DFFE00F0C5F800F041FA00F069F8054883
:101A100008F0EAFE07F098FBFFF774FF07F0A6FB5B
:101A2000FEE700BF58BA0008F0B58BB0002405945B
:101A300006940794089409940194264B1A6B42F07B
:101A400080021A631A6B02F080020192019A0294DA
:101A50001A6B42F004021A631A6B02F0040202923B
:101A6000029A03941A6B42F001021A631A6B02F095
:101A700001020392039A04941A6B42F002021A6361
:101A80001B6B03F002030493049B134F22464FF495
:101A90000061384601F022F8104D2246D021284638
:101AA00001F01CF84FF40063059301260696079495
:101AB000089405A9384600F01FFFD0230593069629
:101AC00007940323089305A9284600F015FF0BB0DF
:101AD000F0BD00BF00380240000002400004024098
:101AE00008B50B480B4B03600B4B4360002383602E
:101AF000C3604FF48042026143618361C36103624A
:101B000001F012FA00B908BDFFF718FFFBE700BFAC
:101B10005002002000540040A086010030B589B07A
:101B20000023039304930593069307930268154BD0
:101B30009A4201D009B030BD00250195124C236BAB
:101B400043F002032363236B03F002030193019B21
:101B50004FF440730393122304930123059303234B
:101B600006930423079303A9084800F0C5FE0295D5
:101B7000236C43F400132364236C03F400130293D7
:101B8000029BD7E7005400400038024000040240A6
:101B900008B50D480D4B03604FF48273436000237A
:101BA0008360C360036143614FF400728261C3616B
:101BB0000362436283620A23C36203F093F800B9AD
:101BC00008BDFFF7BBFEFBE7040300200030014027
:101BD0002DE9F04188B00023039304930593069305
:101BE00007930268314B9A4202D008B0BDE8F081F9
:101BF00004460025009503F584335A6C42F4805264
:101C00005A645A6C02F480520092009A01951A6B41
:101C100042F001021A631A6B02F001020192019A6A
:101C200002951A6B42F002021A631B6B03F0020367
:101C30000293029B802303934FF00208CDF810809B
:101C4000032706970526079603A9194800F054FEB6
:101C500008230393CDF8108005950697079603A9EE
:101C6000144800F049FE1448144B03604FF0C06361
:101C7000436040238360C5604FF480630361456126
:101C80008561C5610562456200F050FC58B90A4B98
:101C9000A3649C6300220521232000F081FB232004
:101CA00000F0B6FBA1E7FFF749FEF0E70030014086
:101CB0000000024000040240A402002058640240D8
:101CC00000B583B0002200920D4B596C41F4804165
:101CD0005964596C01F48041009100990192196C8A
:101CE00041F0805119641B6C03F080530193019BF8
:101CF0000F216FF0010000F053FB03B05DF804FB0F
:101D00000038024010B588B0014600222D2000F0B6
:101D100047FB2D2000F07CFB00240194144B1A6C2F
:101D200042F480721A641B6C03F480730193019B6C
:101D300002A903A802F07CFE02F05AFE43000D48FF
:101D4000A0FB03239B0C013B0B480C4A026040F2B2
:101D5000E732C26043600461846001F05FFD10B14E
:101D6000012008B010BD044801F0EEFBF9E700BF08
:101D70000038024083DE1B435C030020002000404B
:101D8000FEE7FEE7FEE7FEE7FEE7704708B502481C
:101D900003F0A4F908BD00BF0403002008B5024801
:101DA00003F044FD08BD00BF6804002008B50248E8
:101DB00001F012FC08BD00BF5C03002008B502481A
:101DC00000F0ACFC08BD00BFA803002008B5024825
:101DD00000F0A4FC08BD00BFA402002008B5024822
:101DE00000F09CFC08BD00BF0804002008B50248B4
:101DF00001F004FF08BD00BF643E002008B50248A2
:101E000001F0FCFE08BD00BF643E002008B502489A
:101E100001F0F4FE08BD00BF643E002001207047C1
:101E200008B508F01BFC162303604FF0FF3008BD17
:101E300008B54FF0FF31FFF7F3FFFEE708B50346A3
:101E40000B4A126842B10A4A106803446A46934238
:101E500006D8074A136008BD054A06491160F2E733
:101E600008F0FCFB0C2303604FF0FF30F3E700BFEA
:101E7000A4030020A8970120034AD2F8883043F435
:101E80007003C2F88830704700ED00E010B50F48CD
:101E90000F4B03604FF4E133436000238360C36062
:101EA00003610C2242618361C36103F0EBFA48B91C
:101EB000064C204607F056FC80220649204603F0D7
:101EC0009FFE10BDFFF73AFDF2E700BF6804002057
:101ED00000100140AC04002030B589B0002303930A
:101EE0000493059306930793026803F1804303F577
:101EF00088339A4201D009B030BD044600250195CF
:101F000003F594335A6C42F010025A645A6C02F092
:101F100010020192019A02951A6B42F001021A63B3
:101F20001B6B03F001030293029B4FF4C063039306
:101F300002230493032306930723079303A921484D
:101F400000F0DAFC2048214B03604FF0006343604F
:101F50008560C5604FF480630361456185614FF41E
:101F60008073C3610562456200F0E0FA18BB164B4E
:101F7000A3639C631648174B03604FF000634360F4
:101F8000402383600023C3604FF480620261436199
:101F90008361C3610362436200F0C8FA70B90C4BFD
:101FA00063639C6300220521252000F0F9F92520B8
:101FB00000F02EFA9FE7FFF7C1FCD8E7FFF7BEFC61
:101FC000EDE700BF00000240A8030020406402408B
:101FD00008040020B864024008B50B4B1A6842F4AC
:101FE00000721A601A6842F480621A601A6842F439
:101FF00080721A60032000F0C1F90020FFF782FE12
:10200000FFF75EFE002008BD003C0240034A116855
:10201000034B1B780B441360704700BF2C05002056
:1020200004000020014B1868704700BF2C050020F9
:1020300038B50446FFF7F6FF0546B4F1FF3F02D07E
:10204000044B1B781C44FFF7EDFF401BA042FAD362
:1020500038BD00BF040000204A4B5A6822F44032C9
:102060005A605A6841680A435A600268536823F408
:102070008073536002685368016943EA0123536027
:102080000268536823F040735360026853688168A4
:102090000B4353600268936823F400639360026803
:1020A0009368C1680B439360826A374B9A4257D05A
:1020B0000268936823F07063936002689368816A92
:1020C0000B4393600268936823F040539360026867
:1020D0009368C16A0B4393600268936823F002031C
:1020E000936002689368017E43EA4103936090F82D
:1020F0002030002B3FD00268536843F400635360E4
:102100000268536823F46043536001684B68426A75
:10211000013A43EA42334B600268D36A23F4700306
:10212000D3620168CB6AC269013A43EA0253CB62C7
:102130000268936823F4007393600268936890F8D0
:10214000301043EA412393600268936823F480636C
:10215000936002689368416943EA81239360704702
:102160000268936823F0706393600268936823F0B9
:1021700040539360B0E70268536823F400635360F0
:10218000CAE700BF002301400100000F38B310B5BB
:102190000446036C43B1236C13F0100F0BD00120E5
:1021A000002384F83C3010BDFFF742FB002363643A
:1021B00084F83C30EFE7236C23F4885323F00203C8
:1021C00043F0020323642046FFF746FF00206064CB
:1021D000236C23F0030343F001032364E0E70120B1
:1021E0007047000030B482B00023019390F83C3077
:1021F000012B00F0BB80012380F83C300B68092BD9
:1022000041D90468E2689BB203EB43031E3B4FF0E5
:10221000070C0CFA03F322EA0303E3600468E268A4
:102220000B8803EB43031E3B8D6805FA03F313434E
:10223000E3604B68062B3DD80468626B03EB8303B5
:10224000053B4FF01F0C0CFA03F322EA0303636310
:102250000468626B4B6803EB8303053BB1F800C075
:102260000CFA03F3134363630268414B9A4251D063
:1022700002683F4B9A4256D0002380F83C30184603
:1022800002B030BC7047046822699BB203EB430381
:102290004FF0070C0CFA03F322EA030323610468EE
:1022A00022690B8803EB43038D6805FA03F313439C
:1022B0002361BEE70C2B16D805682A6B03EB83035A
:1022C000233B1F2404FA03F322EA03032B6305686C
:1022D0002A6B4B6803EB8303233B0C8804FA03F35C
:1022E00013432B63C0E70568EA6A03EB8303413BB2
:1022F0001F2404FA03F322EA0303EB620568EA6A87
:102300004B6803EB8303413B0C8804FA03F313434C
:10231000EB62A9E70B68122BAAD1164A536843F463
:1023200080035360A4E70B68103B012BA4D8114A2B
:10233000536843F4000353600B68102B9CD10E4B81
:102340001B6802F1467202F52E3202F28332A2FBC2
:1023500003239B0C03EB83035B00019302E0019BCF
:10236000013B0193019B002BF9D185E7022087E710
:10237000002001400023014000000020074AD368EC
:1023800023F4E0631B041B0C000200F4E060034331
:1023900043F0BF6343F40033D360704700ED00E0C7
:1023A00000B5194BDB68C3F30223C3F1070CBCF182
:1023B000040F28BF4FF0040C03F1040EBEF1060F0A
:1023C00018D9033B4FF0FF3E0EFA0CFC21EA0C013A
:1023D00099400EFA03F322EA0303194300280BDBAA
:1023E0000901C9B200F1604000F5614080F80013B6
:1023F0005DF804FB0023E5E700F00F000901C9B216
:10240000024B1954F4E700BF00ED00E014ED00E0CA
:10241000002807DB00F01F02400901239340024A15
:1024200042F82030704700BF00E100E030B405689A
:102430002C6824F480242C60046863608368402B3B
:1024400005D0036899600368DA6030BC70470368A0
:102450009A600368D960F8E710B40368D9B21039FC
:102460000C4AA2FB014212090B4CA25CC2655F2917
:1024700009D923F47F7323F0030304338365806D4C
:102480005DF8044B704723F47F7323F003038365E7
:10249000F5E700BFABAAAAAA90BA0008836A8269CE
:1024A00092B9012B0AD0022B02D00BB10020704749
:1024B000C36A13F0807F28D100207047C36AB3F14C
:1024C000C07F24D000207047B2F5005F09D0022BF6
:1024D00025D9032B25D1C36A13F0807F23D1002097
:1024E0007047032B03D8DFE803F01404140A00201C
:1024F0007047C36A13F0807F0DD100207047C36A14
:10250000B3F1C07F09D0002070470120704701203F
:10251000704701207047012070470120704701205B
:1025200070470020704701207047000070B50446D6
:10253000FFF778FD002C5BD00546022384F8353088
:10254000002384F834302268136823F001031360F9
:1025500023681A6812F0010F0AD0FFF763FD431BCE
:10256000052BF5D920236365032084F8350070BD61
:102570001A68204810406168A2680A43E1680A436B
:1025800021690A4361690A43A1690A43E1690A436F
:10259000216A0A430243616A04291ED01A60266830
:1025A000756925F00705636A1D43042B07D1A36AEB
:1025B0001D43E36A1BB12046FFF770FF90B97561B8
:1025C0002046FFF749FFE26D3F23934083600020E0
:1025D0006065012384F83530C9E7E16A206B014367
:1025E0000A43DBE740236365012084F83500BEE73A
:1025F0000120BCE73F8010F038B50446856D90F8A7
:10260000340001282BD0012084F8340094F83500E0
:10261000C0B2012804D0002384F83430022038BD31
:10262000022084F83500002060652046FFF7FEFE9A
:10263000E26D3F239340AB602268136843F01603BA
:102640001360236C23B12268136843F008031360FE
:102650002268136843F0010313600020DFE70220C3
:10266000DDE770B50446866DFFF7DCFC94F8353085
:10267000DBB2022B06D080236365002384F834305C
:10268000012070BD05462268136823F0160313600D
:102690002268536923F080035361236CE3B12268FD
:1026A000136823F0080313602268136823F0010302
:1026B000136023681B6813F0010F11D0FFF7B2FC01
:1026C000431B052BF5D920236365032084F83500CF
:1026D000002384F83430D4E7A36C002BDFD1E3E788
:1026E000E26D3F239340B360012384F8353000202E
:1026F00084F83400C5E790F83530DBB2022B03D004
:102700008023436501207047052380F83530026837
:10271000136823F00103136000207047F0B583B005
:10272000044600230193724B1D68724BA3FB0535D1
:10273000AD0A876D3E68C26D08239340334210D0C6
:1027400003681A6812F0040F0BD01A6822F0040212
:102750001A60C26D08239340BB60436D43F00103D0
:102760004365E26D01239340334209D022685269E8
:1027700012F0800F04D0BB60636D43F00203636509
:10278000E26D04239340334209D02268126812F0AC
:10279000020F04D0BB60636D43F004036365E26D18
:1027A00010239340334224D02268126812F0080F9D
:1027B0001FD0BB6023681A6812F4802F0DD01B68ED
:1027C00013F4002F04D1236C9BB12046984710E0EE
:1027D000A36C73B1204698470BE01A6812F4807F0F
:1027E00003D11A6822F008021A60236C0BB120464C
:1027F0009847E26D20239340334255D022681268F7
:1028000012F0100F50D0BB6094F83530DBB2052BBE
:102810000ED023681A6812F4802F33D01B6813F48B
:10282000002F2AD1636C002B3ED0204698473BE016
:102830002268136823F0160313602268536923F09B
:1028400080035361236CA3B12268136823F008034B
:102850001360E26D3F239340BB60012384F8353061
:10286000002384F83430236D002B3FD02046984756
:102870003CE0A36C002BE7D1EBE7E36BA3B1204670
:10288000984711E01A6812F4807F09D11A6822F083
:1028900010021A60012384F83530002384F83430A4
:1028A000E36B0BB120469847636DFBB1636D13F08A
:1028B000010F17D0052384F835302268136823F000
:1028C00001031360019B01330193AB4204D82368D9
:1028D0001B6813F0010FF5D1012384F83530002374
:1028E00084F83430E36C0BB12046984703B0F0BD58
:1028F00000000020B5814E1B00230F2B00F2E48066
:1029000070B582B060E085685E000324B44025EABB
:102910000405CC68B4402C438460456825EA020570
:102920004C68C4F300129A402A4342605AE0DC0823
:10293000083450F8246003F0070295000F22AA40E3
:1029400026EA020E0A69AA4042EA0E0240F8242052
:102950005CE0072200E0002202FA0EF22A43023471
:102960005A4D45F824205A4A14686FEA0C0224EAAA
:102970000C054E6816F4803F01D04CEA0405544C17
:102980002560646802EA04054E6816F4003F01D031
:102990004CEA04054E4C6560A46802EA04054E68E2
:1029A00016F4801F01D04CEA0405494CA560E46888
:1029B00022404D6815F4001F01D04CEA0402444C3B
:1029C000E26001330F2B7DD801229A400C6804EAA3
:1029D000020C32EA0404F4D14C6804F00304013C14
:1029E000012C90D94A6802F00302032A09D0C46876
:1029F0005D000322AA4024EA02048A68AA40224316
:102A0000C2604A6802F00302022A90D004684FEACA
:102A1000430E032202FA0EF224EA02044A6802F08C
:102A2000030202FA0EF2224302604A6812F4403FA7
:102A3000C7D000220192274A546C44F48044546465
:102A4000526C02F480420192019A9C08A51C1F4A14
:102A500052F8255003F003024FEA820E0F2202FAC9
:102A60000EF225EA02051C4A90423FF474AF02F5CB
:102A7000806290421AD002F58062904218D002F52E
:102A80008062904216D002F58062904214D002F526
:102A90008062904212D002F58062904210D002F51E
:102AA000806290423FF455AF082255E7012253E778
:102AB000022251E703224FE704224DE705224BE7AC
:102AC000062249E702B070BD704700BF00380140E0
:102AD000003C014000380240000002400AB1816120
:102AE000704709048161704703685A6912F4806F66
:102AF00001D1002070476FF480625A6100230363A4
:102B0000202280F83D2080F83E30026C42F0040222
:102B1000026480F83C30012070472DE9F0410746FF
:102B20000D4690461E4624E0FFF77CFA069BC01A2D
:102B3000B04200D8EEB900233B63202287F83D2045
:102B400087F83E303A6C42F020023A6487F83C3015
:102B500001201EE03B689C6925EA040C1FFA8CFCEE
:102B6000BCFA8CFC4FEA5C1CE04511D1B6F1FF3F8A
:102B7000DAD1C5F30743012BECD13B685B6925EA49
:102B8000030C1FFA8CFCBCFA8CFC4FEA5C1CEBE7D4
:102B90000020BDE8F0812DE9F04105460E461746BC
:102BA00098463DE01A6842F400721A602B686FF490
:102BB00080625A6100232B63202285F83D2085F82E
:102BC0003E302A6C42F004022A6485F83C30012031
:102BD00034E0FFF727FAA0EB0800B84200D8FFB9AD
:102BE00000232B63202285F83D2085F83E302A6C97
:102BF00042F020022A6485F83C3001201EE02B6858
:102C00009C6926EA0404A4B2003C18BF0124A4B1C4
:102C10002B685A6912F4806FC4D1B7F1FF3FD8D145
:102C2000C6F30743012BEAD12B685C6926EA04044A
:102C3000A4B2003C18BF0124E9E70020BDE8F08100
:102C4000F0B583B004460D4616461F46C36A082BEE
:102C50000DD0012B0BD013F5803F08D0036B122B46
:102C60000AD10268136843F48073136004E0226899
:102C7000136843F4807313600097334600224FF0CB
:102C800001112046FFF749FF80B92369B3F5804F52
:102C900016D1236805F0FE051D613B4632461349F7
:102CA0002046FFF778FFF8B903B0F0BD23681B6832
:102CB00013F4807F02D04FF4007323640320F3E702
:102CC000EB11226803F0060343F0F00313613B4667
:102CD000324607492046FFF75EFF18B92368EDB278
:102CE0001D61DAE70120DFE70120DDE702000100D6
:102CF000080001002DE9F04184B004460D46164657
:102D00001F46C26A01680B6843F480630B60082A9F
:102D10000DD0012A0BD012F5803F08D0036B112B88
:102D20000AD10268136843F48073136004E02268D8
:102D3000136843F4807313600097334600224FF00A
:102D400001112046FFF7E9FE98B92369B3F5804FDA
:102D500019D1236845F00105EDB21D613B463246AD
:102D60002A492046FFF717FF00284CD104B0BDE8E0
:102D7000F08123681B6813F4807F02D04FF4007346
:102D800023640320F2E74FEAE51808F006082368F9
:102D900048F0F0021A613B4632461D492046FFF7D3
:102DA000FAFE08B10120E1E72368EDB21D613B4660
:102DB000324616492046FFF7EEFE08B10120D5E75E
:102DC0000022039223685969039199690391039939
:102DD000196841F480711960009733464FF0011172
:102DE0002046FFF79AFE20B9226848F0F1031361EC
:102DF000B4E723681B6813F4807F02D04FF400739C
:102E000023640320B2E70120B0E700BF0200010005
:102E10000800010070B504460D46164623685B693C
:102E200013F0800F1CD12046FFF75EFED0B9B5F13C
:102E3000FF3FF3D0FFF7F6F8801BA84201D8002D22
:102E4000ECD100232363202284F83D2084F83E3017
:102E5000226C42F02002226484F83C30012000E021
:102E6000002070BD0120FCE770B504460D461646F3
:102E700023685B6913F0040F1CD12046FFF734FE72
:102E8000D0B9B5F1FF3FF3D0FFF7CCF8801BA842D3
:102E900001D8002DECD100232363202284F83D20AB
:102EA00084F83E30226C42F02002226484F83C30E8
:102EB000012000E0002070BD0120FCE770B5054650
:102EC0000C4616462B68596911F0400F29D15969F3
:102ED00011F0100F15D1FFF7A5F8801BA04201D803
:102EE000002CEFD100232B63202285F83D2085F8AC
:102EF0003E302A6C42F020022A6485F83C300120E2
:102F000070BD6FF010025A6100232B63202285F8F8
:102F10003D2085F83E302A6C2A6485F83C3001203B
:102F2000EEE70020ECE70000002800F0CC8070B550
:102F3000044690F83D30002B77D0242384F83D30B0
:102F40002268136823F0010313602268136843F4B6
:102F5000004313602268136823F40043136001F0F8
:102F600047FD62685A4B9A4264D85A4B98428CBFCC
:102F700000230123002B40F0A8805749A1FB00311A
:102F80008B0C25686A6822F03F0242EA91426A602F
:102F900021680A6A22F03F0266684D4DAE424FD862
:102FA000013313430B622168CA6922F44F4222F0B5
:102FB000FF026668464B9E424CD8431E7600B3FB28
:102FC000F6F3013340F6FC70034278D0C3F30B03F1
:102FD0001343CB6121680B6823F0C003E269206AC8
:102FE000024313430B6021688B6823F4034323F0EF
:102FF000FF032269E068024313438B602168CB68BA
:1030000023F0FF036269A06902431343CB60226887
:10301000136843F00103136000202064202384F828
:103020003D30206384F83E0070BD80F83C30FEF7F0
:1030300075FD82E7294B98428CBF0023012399E755
:103040004FF4967505FB03F3254DA5FB03539B0930
:103050000133A6E7A368BBB9451E06EB460CB5FBDA
:10306000FCF50135C5F30B05B5FA85F56D0945BBD2
:10307000C3B9013806EB4603B0FBF3F30133C3F3E6
:103080000B0343F40043A3E7451E06EB860C0CEB51
:103090008C0CB5FBFCF50135C5F30B05B5FA85F5D0
:1030A0006D09E4E7013806EB860303EB8303B0FB0D
:1030B000F3F30133C3F30B0343F4404388E70423E2
:1030C00086E7012384E7012070470120ACE700BFB9
:1030D000A08601007F841E0083DE1B43FF083D00A5
:1030E000D34D62102DE9F04385B004460F4691465A
:1030F00098460C9EFEF796FF054694F83D00C0B238
:10310000202804D00227384605B0BDE8F08300959A
:10311000192301224F492046FFF7FFFC002840F009
:10312000928094F83C30012B00F08F80012384F8CA
:103130003C3023681A6812F0010F03D11A6842F07C
:1031400001021A602268136823F4006313602123CC
:1031500084F83D30102384F83E3000232364C4F803
:103160002490A4F82A80638D23853B4BE3622B4691
:10317000324639462046FFF763FD0746002866D1F0
:103180000023039323685A6903929B690393039B6B
:1031900011E0236C042B01D00127B4E722681368E7
:1031A00043F400731360F7E72A4631462046FFF7E1
:1031B0005BFE00282ED1238D002B36D02A463146C7
:1031C0002046FFF727FE0028E3D1626A23681278C1
:1031D0001A61606A431C6362618D89B2013989B2E8
:1031E0006185238D013B9BB223852268516911F0D3
:1031F000040FD9D0002BD7D043781361636A013311
:103200006362638D9BB2013B9BB26385238D013B5F
:103210002385C9E7236C042B01D0012773E72268BB
:10322000136843F400731360F7E72268136843F4EC
:1032300000731360202384F83D30002384F83E306F
:1032400084F83C305FE702275DE702275BE7012750
:1032500059E700BF020010000000FFFF2DE9F04316
:1032600087B004460F46914698460E9EFEF7DAFE5A
:10327000054694F83D00C0B2202804D00227384605
:1032800007B0BDE8F0830095192301228949204643
:10329000FFF743FC002840F0458194F83C30012BB7
:1032A00000F04281012384F83C3023681A6812F050
:1032B000010F03D11A6842F001021A6022681368F4
:1032C00023F400631360222384F83D30102384F834
:1032D0003E3000232364C4F82490A4F82A80638D30
:1032E0002385754BE3622B46324639462046FFF76D
:1032F00001FD0746002840F01981238D5BB9029338
:1033000023685A6902929A690292029A1A6842F4F0
:1033100000721A607AE0012B0FD0022B1FD02268B6
:10332000136843F4806313600023059323685A698C
:1033300005929B690593059B68E02268136823F456
:10334000806313600023039323685A6903929A6988
:103350000392039A1A6842F400721A6056E02268D7
:10336000136823F4806313602268136843F40063D6
:1033700013600023049323685A6904929B690493A1
:10338000049B43E02A4631462046FFF797FD00287C
:1033900040F0CE8023681A69636A1A70636A013349
:1033A0006362238D013B2385638D9BB2013B9BB2FE
:1033B00063852BE000953346002240492046FFF705
:1033C000ACFB002840F0B6802268136843F4007319
:1033D000136023681A69636A1A70626A531C636215
:1033E000238D013B2385638D9BB2013B9BB263859B
:1033F00023681B695370636A01336362238D013B49
:103400002385638D9BB2013B9BB26385218D00298F
:103410007FD0032954D80129B4D00229CAD00095FD
:103420003346002225492046FFF777FB002840F06D
:1034300083802268136823F48063136023681A6909
:10344000636A1A70636A01336362238D013B2385CB
:10345000618D89B2013989B26185009533460022B8
:1034600016492046FFF759FB002867D122681368E8
:1034700043F40073136023681A69636A1A70626AFE
:10348000531C6362238D013B2385638D9BB2013BFB
:103490009BB2638523681B695370636A013363625F
:1034A000238D013B2385638D9BB2013B9BB26385DA
:1034B000ACE700BF020010000000FFFF04000100A5
:1034C0002A4631462046FFF7F9FC002838D1236808
:1034D0001A69636A1A70626A531C6362238D013B26
:1034E0002385638D9BB2013B9BB263852368596939
:1034F00011F0040F8AD01B695370636A0133636251
:10350000238D013B2385638D9BB2013B9BB2638579
:103510007CE7202384F83D30002384F83E3084F893
:103520003C30ACE60227AAE60227A8E60127A6E679
:103530000127A4E60127A2E60127A0E601279EE6CF
:1035400001279CE67047000090F83D30DBB2012B6C
:1035500037D1022380F83D300268D36843F001037D
:10356000D3600368194A934220D0B3F1804F1DD035
:10357000A2F57C42934219D002F58062934215D0A5
:1035800002F58062934211D002F5784293420DD049
:1035900002F57052934209D0A2F59432934205D0BD
:1035A0001A6842F001021A60002070479A6802F01F
:1035B0000702062A07D01A6842F001021A600020AA
:1035C0007047012070470020704700BF0000014095
:1035D000704770477047704710B5044603681A6912
:1035E00012F0020F11D0DA6812F0020F0DD06FF056
:1035F00002021A610123037703689B6913F0030F2A
:1036000070D0FFF7E6FF0023237723681A6912F0D2
:10361000040F12D0DA6812F0040F0ED06FF004021B
:103620001A610223237723689B6913F4407F5FD0DC
:103630002046FFF7CEFF0023237723681A6912F094
:10364000080F12D0DA6812F0080F0ED06FF00802DF
:103650001A61042323772368DB6913F0030F4ED02C
:103660002046FFF7B6FF0023237723681A6912F07C
:10367000100F12D0DA6812F0100F0ED06FF0100297
:103680001A61082323772368DB6913F4407F3DD058
:103690002046FFF79EFF0023237723681A6912F064
:1036A000010F03D0DA6812F0010F36D123681A69CE
:1036B00012F0800F03D0DA6812F0800F34D1236843
:1036C0001A6912F0400F03D0DA6812F0400F32D1BD
:1036D00023681A6912F0200F03D0DA6812F0200F65
:1036E00030D110BDFFF774FF2046FFF773FF8AE764
:1036F0002046FFF76DFF2046FFF76CFF9BE7204653
:10370000FFF766FF2046FFF765FFACE72046FFF7AF
:103710005FFF2046FFF75EFFBDE76FF001021A6111
:103720002046FEF7FFF8C1E76FF080021A612046DD
:1037300000F0A1F8C3E76FF040021A612046FFF7DE
:103740004AFFC5E76FF020021A61204600F092F8A8
:10375000C7E700000368304A904212D0B0F1804FB2
:103760000FD0A2F57C4290420BD002F580629042CD
:1037700007D002F58062904203D002F57842904271
:1037800003D123F070034A681343234A90422AD09E
:10379000B0F1804F27D0A2F57C42904223D002F5B1
:1037A000806290421FD002F5806290421BD002F5E9
:1037B0007842904217D002F57052904213D002F531
:1037C000806290420FD002F5806290420BD0A2F549
:1037D0009832904207D002F58062904203D002F501
:1037E0008062904203D123F44073CA68134323F0EC
:1037F00080034A69134303608B68C3620B6883626A
:10380000054B984203D003F58063984201D10B69C0
:1038100003630123436170470000014040B310B5CA
:10382000044690F83D30F3B1022384F83D30214640
:1038300051F8040BFFF78EFF012384F8463084F81B
:103840003E3084F83F3084F8403084F8413084F8CA
:10385000423084F8433084F8443084F8453084F8AA
:103860003D30002010BD80F83C30FFF76BFEDBE7F9
:1038700001207047704770472DE9F04383B0D0F8BE
:103880000080C1EBC10300EB83035A6D1B6D9A42AC
:1038900054D807460C469B1AC1EBC10200EB8202CA
:1038A000526C9A4200D31A4602F103094FEA990971
:1038B00015E006F103094FEA9909C4EBC40507EBCB
:1038C0008505A96C3B7C0093B3B2E2B2404602F09E
:1038D000FBFCAB6C3344AB646B6D33446B6508EB42
:1038E000441303F510639B699BB24B4512D3C4EBA1
:1038F000C40207EB8202516D136D99420AD24BB19B
:103900005B1AC4EBC40207EB8202566C9E42D0D312
:103910001E46CEE7C4EBC40007EB80073A6D7B6D13
:103920009A420FD804F00F040123A340D8F834487A
:1039300024EA0304C8F83448002000E0012003B062
:10394000BDE8F0830020FAE770B58AB0002800F0E7
:1039500090800546046890F8BD333BB3032385F897
:10396000BD33E36B13F4807F01D100232B61286802
:1039700002F046FA2C4654F8106BEC460FCCACE83B
:103980000F000FCCACE80F0094E803008CE80300B4
:103990002B1D0ECB304602F075F9044658B10223B8
:1039A00085F8BD33012420460AB070BD80F8BC33D1
:1039B00005F032FDD2E70021286802F09FFE234681
:1039C00016E0C3EBC30205EB8202012182F83D1031
:1039D00082F83C30A2F84230002182F83F10516456
:1039E0009164C3EBC30205EB820211650133DBB2C4
:1039F00069688B42E5D316E0C4EBC40305EB83038F
:103A0000002283F8FD2183F8FC4183F8FF21C3F8ED
:103A10000422C3F80822C4EBC40305EB8303C3F8F4
:103A200010220134E4B2A142E6D82C4654F8106BBF
:103A3000EC460FCCACE80F000FCCACE80F0094E8DC
:103A400003008CE803002B1D0ECB304602F014FA65
:103A5000044620B1022385F8BD330124A3E70023E7
:103A600085F83830012385F8BD33286802F003FE5D
:103A700099E7012497E7026890F8BC33012B19D02D
:103A800010B50446012380F8BC33836A012B09D0AA
:103A9000206802F0AFF9206802F0DFFD002084F812
:103AA000BC0310BD8369012BF2D0936B43F48033C8
:103AB0009363EDE70220704770B504460D46006839
:103AC000066C00EB411303F530639A682169012904
:103AD00011D034498E424ED03DB9C5EBC50304EB3D
:103AE0008303D3F81032002B56D0E9B2204605F0FC
:103AF00027FD002070BD12F0080F09D02A498E4220
:103B0000F7D912F4004FF4D04FF400429A60F0E776
:103B100012F0200F02D020229A60EAE712F0280F5C
:103B2000E7D121498E4206D912F4004F03D04FF459
:103B300000429A60DDE7C5EBC50204EB8202D2F8D1
:103B400004121B69C3F31203CB1AC2F81432D2F861
:103B500008320B44C2F8083215B9D2F8103223B13A
:103B6000E9B2204605F0ECFCC3E704F571720121CF
:103B700002F006FEF4E712F4004F03D04FF40042C7
:103B80009A60B6E712F0200F01D020229A60E9B2C5
:103B9000204605F0D5FCACE704F57172002102F077
:103BA000EFFDA2E70A31544F0A30544F38B50446AE
:103BB00003681D6C03EB4113D3F8081B0E4A9542B2
:103BC00007D903F5306311F4004F02D04FF40042DF
:103BD0009A60204605F0ACFC074B9D4202D9236950
:103BE000012B01D0002038BD04F57172012120683D
:103BF00002F0C6FDF6E700BF0A30544F2DE9F84F3A
:103C000004460568284602F075FD08B1BDE8F88F46
:103C10000646206802F03DFD0028F7D0206802F03B
:103C200038FD10F0020F04D02268536903F002033C
:103C30005361206802F02DFD10F0100F13D02268A0
:103C4000936923F0100393612F6A07F00F08C7F3FD
:103C50004343022B68D0062B00F0848022689369CE
:103C600043F010039361206802F013FD10F4002F5D
:103C700040F08A80206802F00CFD10F4802F40F0A4
:103C8000CC80206802F005FD0028C0F23681206853
:103C900002F0FFFC10F4006F0AD0D5F8083813F0DA
:103CA000010F40F044812268536903F400635361BB
:103CB000206802F0EEFC10F4805F40F03C81206848
:103CC00002F0E7FC10F4005F40F09181206802F000
:103CD000E0FC10F0080F40F0A281206802F0D9FC4F
:103CE00010F4801F40F0A481206802F0D2FC10F490
:103CF000001F40F0A781206802F0CBFC10F0804F3D
:103D000040F0AA81206802F0C4FC10F0040F3FF4D8
:103D10007DAF23685D6815F0040F40F0A68122682E
:103D200053682B43536071E747F6F0731F4295D0F9
:103D30004FEA171BC8EBC80904EB8909C7F30A123D
:103D4000D9F80812284602F0F3FBCBF30A02D9F89F
:103D500008321344C9F80832D9F814321A44C9F8A1
:103D600014227BE7082204F57171284602F0E0FB7B
:103D7000C7F30A17C8EBC80204EB8202D2F8143268
:103D80001F44C2F8147269E7206802F086FC0746F7
:103D9000B04616E005EB48130122C3F8082B414654
:103DA0002046FFF789FE1BE005EB48130822C3F805
:103DB000082B41462046FFF7F9FE14E008F1010800
:103DC0007F08002F3FF456AF17F0010FF6D05FFACF
:103DD00088F1206802F071FC814610F0010FD9D102
:103DE00019F0080FE0D119F0100F04D005EB4813BB
:103DF0001022C3F8082B19F0200F04D005EB48134C
:103E00002022C3F8082B19F4005FD7D005EB481324
:103E10004FF40052C3F8082BD0E7206802F045FCAD
:103E20000746B04629E05146204605F095FB19F0BB
:103E3000080F04D005EB48130822C3F8082919F02D
:103E4000100F04D005EB48131022C3F8082919F00D
:103E5000400F04D005EB48134022C3F8082919F09D
:103E6000020F04D005EB48130222C3F8082919F009
:103E7000800F3DD108F101087F08002F3FF401AF0A
:103E800017F0010FF6D05FFA88FA5146206802F069
:103E90001DFC814610F0010FC9D008F00F0301216D
:103EA00001FA03F2D5F8343823EA0203C5F83438AE
:103EB00005EB4813C3F8081923698B42B3D1C8EB4B
:103EC000C80304EB8303596C9A6C0A449A64B8F1F2
:103ED000000FA8D1C8EBC80304EB83031B6D002BB4
:103EE000A1D104F571720121206802F049FC9AE722
:103EF00041462046FFF7C0FCBCE7D5F8043823F064
:103F00000103C5F8043894F8F433012B08D0204697
:103F100005F062FB2268536903F000435361B6E683
:103F2000002184F8F413204600F045FAF2E7204619
:103F300005F03AFBB7E605F500677B6823F001035F
:103F40007B601021206801F061FF20E005EB461343
:103F50004FF67F31C3F80819D3F8002922F4001274
:103F6000C3F80029D3F8002942F00062C3F8002901
:103F7000C3F8081BD3F8002B22F40012C3F8002B5F
:103F8000D3F8002B42F00062C3F8002B01366368BF
:103F9000B342DBD8FB6943F00113FB61236BDBB158
:103FA000D7F8843043F00B03C7F884307B6C43F0C0
:103FB0000B037B64D5F8003823F4FE63C5F80038A2
:103FC00004F57172217C206802F0DAFB22685369E3
:103FD00003F48053536172E67B6943F4005343F06A
:103FE0002B037B613B6943F00B033B61E2E72068F5
:103FF00002F0B5FB206802F007F8E060256800F0E9
:10400000F1FC0146227B284601F082FE204605F0A5
:10401000B4FA2268536903F40053536156E620460C
:1040200005F0A5FA2268536903F00803536154E6CA
:104030000021204605F0DCFA2268536903F480135E
:10404000536151E60021204605F0CCFA22685369FD
:1040500003F4001353614EE6204605F0CFFA2268C0
:10406000536903F0804353614CE6204605F0CCFAD7
:1040700055E690F8BC33012B0DD010B50446012352
:1040800080F8BC3380F83810006802F0D6FA0020BF
:1040900084F8BC0310BD0220704738B505468C4635
:1040A00011F0800F29D101F00F0ECEEBCE04A40049
:1040B00004F5FC740444211DCEEBCE0E00EB8E0EF5
:1040C00000208EF8FD010CF00F0C81F800C08A6012
:1040D000CB704A780AB1A1F806C0022B1DD095F822
:1040E000BC33012B1CD0012385F8BC33286801F0B8
:1040F0009CFF002085F8BC0338BD01F00F00C0EB29
:10410000C0018900383129440431C0EBC00005EBFF
:104110008000012480F83D40D5E700230B71DEE7E5
:104120000220E9E710B504460A4611F0800F20D1BD
:1041300001F00F00C0EBC0039B0003F5FC732344A8
:10414000191DC0EBC00004EB8000002380F8FD3196
:1041500002F00F020A7094F8BC33012B19D001232E
:1041600084F8BC33206801F0AFFF002084F8BC0362
:1041700010BD01F00F00C0EBC0039B003833234497
:10418000191DC0EBC00004EB8000012380F83D3016
:10419000DEE70220ECE710B501F00F04C4EBC40128
:1041A000890001F5FC7101440431C4EBC40C00EB3F
:1041B0008C0CCCF80822CCF810320023CCF8143246
:1041C0008CF8FD318CF8FC410369012B06D064B9F1
:1041D000DAB2006801F0E8FF002010BDC4EBC40CA7
:1041E00000EB8C0CCCF80C22F1E7DAB2006802F09C
:1041F00083F8F1E701F00F01C1EBC10100EB810190
:10420000D1F81402704710B501F00F04C4EBC401DB
:104210008900383101440431C4EBC40C00EB8C0C30
:10422000CCF84820CCF850300023CCF8543001238F
:104230008CF83D308CF83C400369012B06D064B902
:10424000DAB2006801F0B0FF002010BDC4EBC40C6E
:1042500000EB8C0CCCF84C20F1E7DAB2006802F0ED
:104260004BF8F1E738B501F00F054268954239D8AF
:1042700004460B4611F0800F1FD1C1EBC10189002C
:1042800001F5FC7101440431C3EBC30300EB83036C
:10429000002283F8FD2101238B700D7094F8BC334C
:1042A000012B21D0012384F8BC33206802F06AF985
:1042B0008DB1002084F8BC0338BDC5EBC501890071
:1042C000383101440431C5EBC50300EB83030122FF
:1042D00083F83D20DFE704F57172217C206802F04D
:1042E0004FFAE6E70120E7E70220E5E701F00F03D8
:1042F0004268934231D810B5044611F0800F1ED1A8
:10430000C3EBC301890001F5FC7101440431C3EB27
:10431000C30200EB8202002082F8FD0100228A70B5
:104320000B7094F8BC33012B19D0012384F8BC33F3
:10433000206802F054F9002084F8BC0310BDC3EBE0
:10434000C3018900383101440431C3EBC30200EBDF
:104350008202012082F83D00E0E701207047022040
:10436000ECE710B40468606A31B940EA0240A06228
:1043700000205DF8044B70478C46A36A00EB1340A5
:10438000002308E003F1400104EB8101496800EBE0
:1043900011400133DBB20CF1FF318B42F2D340EA22
:1043A00002400CF13F0104EB81014860E0E7036843
:1043B0005962002070477047002800F0E08170B516
:1043C00082B00446036813F0010F3BD09F4B9B68FB
:1043D00003F00C03042B2CD09C4B9B6803F00C03C4
:1043E000082B21D06368B3F5803F4FD0B3F5A02FE1
:1043F00052D0964B1A6822F480321A601A6822F45E
:1044000080221A606368002B50D0FDF70BFE054632
:104410008E4B1B6813F4003F14D1FDF703FE401BC5
:104420006428F5D90320B1E1884B5B6813F4800F51
:10443000D8D0864B1B6813F4003F03D06368002B71
:1044400000F09F81236813F0020F54D07F4B9B68CC
:1044500013F00C0F3ED07D4B9B6803F00C03082B30
:1044600033D0E368002B68D0794B01221A60FDF746
:10447000D9FD0546754B1B6813F0020F54D1FDF7AB
:10448000D1FD401B0228F5D903207FE16F4A136854
:1044900043F480331360B5E76C4B1A6842F4802212
:1044A0001A601A6842F480321A60ABE7FDF7BAFD71
:1044B0000546664B1B6813F4003FC3D0FDF7B2FD01
:1044C000401B6428F5D9032060E1604B5B6813F45E
:1044D000800FC6D15D4B1B6813F0020F03D0E36859
:1044E000012B40F05081594A136823F0F8032169E9
:1044F00043EAC1031360236813F0080F42D06369D5
:104500006BB3534B0122C3F8802EFDF78BFD05469C
:104510004E4B5B6F13F0020F34D1FDF783FD401B50
:104520000228F5D9032031E1484A136823F0F80343
:10453000216943EAC1031360DDE7454B00221A609D
:10454000FDF770FD0546414B1B6813F0020FD2D0FA
:10455000FDF768FD401B0228F5D9032016E13C4B0E
:104560000022C3F8802EFDF75DFD0546374B5B6FDB
:1045700013F0020F06D0FDF755FD401B0228F5D9B8
:10458000032003E1236813F0040F77D02F4B1B6C3B
:1045900013F0805F33D1002301932C4B1A6C42F04F
:1045A00080521A641B6C03F080530193019B012518
:1045B000284B1B6813F4807F23D0A368012B34D0D1
:1045C000052B38D0214B1A6F22F001021A671A6F9F
:1045D00022F004021A67A368002B3DD0FDF722FDEC
:1045E00006461A4B1B6F13F0020F46D1FDF71AFD5A
:1045F000801B41F288339842F3D90320C6E000259E
:10460000D6E7144A136843F480731360FDF70AFD7C
:104610000646104B1B6813F4807FCED1FDF702FDD8
:10462000801B0228F5D90320B0E0084A136F43F03D
:1046300001031367CFE7054B1A6F42F004021A67B4
:104640001A6F42F001021A67C5E700BF0038024046
:104650000000474200700040FDF7E4FC0646524B64
:104660001B6F13F0020F08D0FDF7DCFC801B41F23A
:1046700088339842F3D9032088E0EDB9A369002B71
:1046800000F08380484A926802F00C02082A51D058
:10469000022B17D0454B00221A66FDF7C3FC0446D7
:1046A000414B1B6813F0007F42D0FDF7BBFC001BA1
:1046B0000228F5D9032069E03B4A136C23F08053AC
:1046C0001364DBE7394B00221A66FDF7ABFC0546A5
:1046D000354B1B6813F0007F06D0FDF7A3FC401B91
:1046E0000228F5D9032051E0E369226A1343626A84
:1046F00043EA8213A26A5208013A43EA0243E26A99
:1047000043EA0263284A5360284B01221A66FDF7E8
:1047100089FC0446244B1B6813F0007F06D1FDF78B
:1047200081FC001B0228F5D903202FE000202DE09A
:1047300000202BE0012B2BD01B4B5B6803F4800186
:10474000E269914226D103F03F02216A8A4223D1D5
:10475000616A47F6C0721A40B2EB811F1ED103F4A2
:104760004031A26A5208013AB1EB024F18D103F06E
:104770007063E26AB3EB026F14D1002006E00120FF
:104780007047012002E0012000E0002002B070BD6F
:104790000120FBE70120F9E70120F7E70120F5E719
:1047A0000120F3E70120F1E7003802400000474212
:1047B00008B5314B9B6803F00C03042B57D0082B32
:1047C00057D12D4B5A6802F03F025B6813F4800FFB
:1047D0002AD0294B5968C1F3881C4FEA4C11B1EB20
:1047E0000C006EEB0E0E4FEA8E1343EA90638101CC
:1047F000091A63EB0E03DB0043EA5173C90011EBA6
:104800000C0C43F10003590200234FEA4C2041EA0B
:10481000DC51FBF7E9FE184B5B68C3F3014301333E
:104820005B00B0FBF3F025E0134B5968C1F3881C23
:104830004FEA4C11B1EB0C006EEB0E0E4FEA8E13EB
:1048400043EA90638101091A63EB0E03DB0043EA3C
:104850005173C90011EB0C0C43F1000399020023C2
:104860004FEA8C2041EA9C51FBF7BEFED3E7034898
:1048700000E0034808BD00BF0038024000127A0083
:104880000024F400002800F09B8070B50D4604461B
:104890004F4B1B6803F007038B4208D2CBB24C4A44
:1048A0001370136803F007038B4240F08B8023687A
:1048B00013F0020F17D013F0040F04D0454A936889
:1048C00043F4E0539360236813F0080F04D0414A87
:1048D000936843F4604393603E4A936823F0F00387
:1048E000A1680B439360236813F0010F32D0636813
:1048F000012B21D09A1E012A25D9364A126812F0BE
:10490000020F61D033498A6822F0030213438B609F
:10491000FDF788FB06462F4B9B6803F00C0362688B
:10492000B3EB820F16D0FDF77DFB801B41F288337D
:104930009842F0D9032042E0264A126812F4003F60
:10494000E0D101203BE0234A126812F0007FD9D168
:10495000012034E01E4B1B6803F00703AB4207D96C
:10496000EAB21B4B1A701B6803F00703AB422DD150
:10497000236813F0040F06D0164A936823F4E0531B
:10498000E1680B439360236813F0080F07D0114AC6
:10499000936823F46043216943EAC1039360FFF7FE
:1049A00007FF0C4B9B68C3F303130B4AD35CD8403F
:1049B0000A4B18600A4B1868FDF7A4F9002070BD77
:1049C000012070470120FAE70120F8E70120F6E70F
:1049D000003C02400038024078BA00080000002085
:1049E00008000020014B1868704700BF000000203D
:1049F00008B5FFF7F7FF044B9B68C3F38223034A14
:104A0000D35CD84008BD00BF0038024088BA000817
:104A100008B5FFF7E7FF044B9B68C3F34233034A33
:104A2000D35CD84008BD00BF0038024088BA0008F7
:104A30000F2303600B4B9A6802F0030242609A68EE
:104A400002F0F00282609A6802F4E052C2609B6851
:104A5000DB0803F4E0530361034B1B6803F0070317
:104A60000B60704700380240003C024038B5FDF74B
:104A7000D9FA0446464A136843F001031360444BD5
:104A80001B6813F0020F06D1FDF7CCFA001B0228B9
:104A9000F5D9032038BD3E4D2B6843F080032B60D1
:104AA000FDF7C0FA04460023AB60394B9B6813F056
:104AB0000C0F08D0FDF7B6FA001B41F2883398427C
:104AC000F3D90320E6E7FDF7ADFA0446304A136850
:104AD00023F4502313602E4B1B6813F4003F06D0C1
:104AE000FDF7A0FA001B6428F5D90320D2E7FDF7F3
:104AF00099FA0446264A136823F080731360244B06
:104B00001B6813F0007F06D0FDF78CFA001B02280B
:104B1000F5D90320BEE7FDF785FA04461C4A136861
:104B200023F0806313601A4B1B6813F0006F06D0EC
:104B3000FDF778FA001B0228F5D90320AAE7144BE9
:104B4000144A5A60144AC3F88420DA6822F4F852EE
:104B5000DA60DA6822F40052DA60DA6842F41F029E
:104B6000DA60DA6842F40012DA605A6F22F0010269
:104B70005A675A6F42F080725A67084B084A1A60A7
:104B8000084B1868FDF7BEF8002883D0012081E7A4
:104B900000380240103000040030002000000020E7
:104BA0000024F400080000202DE9F04782B00546FB
:104BB000884617461E46FDF735FA0A9B1B1A03EB7B
:104BC0000609FDF72FFA82462B4B1B68C3F3CB3344
:104BD00009FB03F301932B689C6838EA04030CBFBC
:104BE0004FF0010C4FF0000CBC4540D0B6F1FF3F38
:104BF000F1D0FDF717FAA0EB0A0048450AD2B9F147
:104C0000000F07D0019A02B14A46019B013B019374
:104C10009146E0E72A68536823F0E00353606B682D
:104C2000B3F5827F0BD0AB6AB3F5005F14D00123DC
:104C300085F85130002385F85030032018E0AB6828
:104C4000B3F5004F02D0B3F5806FECD12A6813683A
:104C500023F040031360E6E72A68136823F4005347
:104C600013602A68136843F400531360DFE70020E1
:104C700002B0BDE8F08700BF0000002010B584B08E
:104C80000446164B1868164BA3FB0030400D4FF43A
:104C90007A7303FB00F003906368B3F5827F0BD057
:104CA000039BBBB1039B013B039323689B6813F0F9
:104CB000800FF5D100200EE000920B4600228021EB
:104CC0002046FFF771FF30B1636D43F02003636549
:104CD000032000E0002004B010BD00BF0000002051
:104CE000819F5E1600285AD010B50446436A33B936
:104CF0004368B3F5827F05D00023C36102E000233F
:104D0000036143610023A36294F85130002B40D02B
:104D1000022384F851302268136823F040031360A3
:104D2000636803F48273A26802F404421343E268E6
:104D300002F400621343226902F002021343626923
:104D400002F001021343A26902F400721343E26904
:104D500002F038021343226A02F080021343A26A6F
:104D600002F40052216813430B60638B03F00403C9
:104D7000626A02F01002216813434B602268D36913
:104D800023F40063D36100206065012384F851306F
:104D900010BD84F850302046FCF71AFFB8E7012018
:104DA00070472DE9F04383B01D4690F85030012B39
:104DB00000F0D180044688469146012380F85030A7
:104DC000FDF730F9074694F85160F6B2012E40F035
:104DD000AF80B8F1000F00F0AC80B9F1000F00F027
:104DE000A880032384F8513000236365C4F8308021
:104DF000A4F83490A4F83690A363A387E387636490
:104E00002364A368B3F5004F1ED023681A6812F01C
:104E1000400F03D11A6842F040021A60E368B3F50C
:104E2000006F1CD0636813B1B9F1010F52D1226B2E
:104E3000236812781A73236B01332363E38E9BB2CA
:104E4000013B9BB2E38645E02268136823F04003F0
:104E500013602268136843F480431360D5E76368E6
:104E600013B1B9F1010F16D1226B23681288DA60F1
:104E7000236B02332363E38E9BB2013B9BB2E38639
:104E800009E0FDF7CFF8C01BA84202D3B5F1FF3F00
:104E900059D1002D59D0E38E9BB2002B33D023681B
:104EA0009A6812F0020FECD0226B1288DA60236B42
:104EB00002332363E38E9BB2013B9BB2E386EAE7B6
:104EC000FDF7B0F8C01BA84202D3B5F1FF3F3ED1B9
:104ED000002D3ED0E38E9BB2ABB123689A6812F0EE
:104EE000020FEDD0226B12781A73236B0133236308
:104EF000B4F836C01FFA8CFC0CF1FF3C1FFA8CFC96
:104F0000A4F836C0E6E73A4629462046FFF7B6FE43
:104F100008B120236365A36833B901932368DA6875
:104F200001929B680193019B636D13B9002600E019
:104F30000226012384F85130002384F85030304693
:104F400003B0BDE8F0830326F3E70326F1E7032669
:104F5000EFE70326EDE70226F1E7000038B590F809
:104F60005030012B61D00446012380F8503090F876
:104F70005150EDB29D4252D1002951D0002A4FD05C
:104F8000032380F851300023436501638286C28683
:104F90008363436403648387C3878368B3F5004FE7
:104FA0002AD0A36C224A1A64A36C224ADA63A36C47
:104FB000214ADA64A36C00221A652268E38E9BB250
:104FC0000C32216BA06CFDF717FB0146F8B9236882
:104FD0001A6812F0400F03D11A6842F040021A60BA
:104FE0002268536843F0200353602268536843F0FB
:104FF000020353600D4613E00268136823F0400378
:1050000013600268136843F480431360C9E7636D5B
:1050100043F010036365012384F8513000E002255A
:10502000002384F85030284638BD0225FBE700BF36
:105030003F5000086D5000084B500008704708B5FD
:10504000806BFFF7FBFF08BD704708B5806B0268F7
:10505000536823F003035360436D43F0100343652B
:10506000012380F85130FFF7EFFF08BD30B583B062
:105070000546846BFCF7D6FF2B681B6813F4807F12
:1050800023D1024621684B6823F020034B6021683E
:105090004B6823F002034B6064212046FFF7EEFDCE
:1050A00018B1636D43F020036365A36833B90193BE
:1050B0002368DA6801929B680193019B0023E386D1
:1050C000012384F85130636D23B9204605F01EFAA0
:1050D00003B030BD2046FFF7B7FFF9E730B585B024
:1050E0000446026851689368C3F3801013F0400FC0
:1050F00005D113F0010F02D011F0400F69D113F068
:10510000020F02D011F0800F67D1C3F3401513F0E6
:10511000200F03D110B913F4807F61D011F0200F5C
:105120005ED078B194F85100C0B203285AD0606DB7
:1051300040F00400606500200090D0680090906806
:105140000090009865B1606D40F00100606500203E
:10515000029090680290106820F040001060029A5F
:1051600013F4807F09D0636D43F008036365002367
:10517000039323689B680393039B636D002B2FD0DD
:105180002268536823F0E0035360012384F8513010
:1051900011F0030F2ED02268536823F003035360ED
:1051A000E36C4BB1154A1A65E06CFDF7A4FA18B12F
:1051B000636D43F040036365A36C8BB10F4A1A65BE
:1051C000A06CFDF798FA58B1636D43F04003636536
:1051D00006E0236C2046984702E0636C204698471F
:1051E00005B030BD00230193D36801939368019308
:1051F000019BF5E72046FFF727FFF1E70152000882
:1052000008B5806B0023C387C386FFF71DFF08BD69
:10521000026802F10C0353E8003F23F0C0030C3294
:1052200042E800310029F3D1202380F83D30704757
:10523000026802F10C0353E8003F23F490730C3230
:1052400042E800310029F3D1026802F1140353E867
:10525000003F23F00103143242E800310029F3D16A
:10526000036B012B05D0202380F83E30002303631D
:105270007047026802F10C0353E8003F23F010036B
:105280000C3242E800310029F3D1ECE790F83D30D0
:10529000DBB2212B01D0022070478368B3F5805F19
:1052A00017D0036A5A1C02621A7803685A60C38CCA
:1052B0009BB2013B9BB2C3844BB90268D36823F015
:1052C0008003D3600268D36843F04003D3600020BA
:1052D00070470369002BE4D1036A1B880268C3F39B
:1052E00008035360036A02330362E0E738B50446FB
:1052F0000268136923F44053C1680B431361836848
:105300000269134342691343C2691A430168CB68B7
:1053100023F4164323F00C031343CB600268536954
:1053200023F4407381690B4353610368314A93420C
:1053300006D002F58062934202D0FFF759FB01E0EC
:10534000FFF766FBE369B3F5004F29D0002103188E
:1053500049411B1841F10001C90041EA5371DB00CA
:10536000181863684FEA83024FEA937341F1000112
:10537000FBF73AF9204DA5FB00325109642303FBEA
:1053800011031B013233A5FB03235B0903F0F00279
:1053900002EB011203F00F03216813448B6038BD48
:1053A0000023021843EB0301121841F10001C90068
:1053B00041EA5271D200101841F10001626892185E
:1053C0005B41FBF711F90C4DA5FB00325109642339
:1053D00003FB1103DB003233A5FB03235B095A00F7
:1053E00002F4F87202EB011203F007032168134480
:1053F0008B60D4E7001001401F85EB512DE9F84385
:1054000005460F4616469946DDF820802C6824682C
:1054100037EA04030CBF4FF0010C4FF0000CB44509
:105420002DD1B8F1FF3FF1D0B8F1000F05D0FCF756
:10543000F9FDA0EB09004045E8D92A6802F10C0308
:1054400053E8003F23F4D0730C3242E800310029C6
:10545000F3D12A6802F1140353E8003F23F001035B
:10546000143242E800310029F3D1202385F83D3081
:1054700085F83E30002385F83C30032000E0002012
:10548000BDE8F88358B310B5044690F83D300BB32F
:10549000242384F83D302268D36823F40053D3607A
:1054A0002046FFF723FF2268136923F4904313611A
:1054B0002268536923F02A0353612268D36843F4B6
:1054C0000053D36000202064202384F83D3084F80A
:1054D0003E3010BD80F83C30FCF7FEFCD8E70120E0
:1054E00070472DE9F04182B01E4690F83E30DBB2A5
:1054F000202B5CD104460D46904600295BD0002A43
:105500005BD090F83C30012B59D0012380F83C301F
:1055100000230364222280F83E200363FCF782FD0F
:105520000746A4F82C80A4F82E80A368B3F5805F0A
:1055300005D04FF00008002384F83C3017E02369C1
:1055400013B14FF00008F6E7A8460025F3E72368FB
:105550005B68C3F3080328F8023B03E023685B6839
:105560002B700135E28D92B2013A92B2E285E38D61
:105570009BB2BBB100963B46002220212046FFF79C
:105580003DFFF0B9002DE2D0A368B3F5805FE5D010
:1055900013B92369002BE1D023685B6803F07F0314
:1055A0002B70DEE7202384F83E30002000E002204C
:1055B00002B0BDE8F0810120FAE70120F8E70220FF
:1055C000F6E70320F4E7000038B590F83D30DBB291
:1055D000202B38D10446002937D0002A37D090F844
:1055E0003C30012B35D0012380F83C3001628284AD
:1055F000C28400250564212380F83D30436B1648A2
:10560000D863636B15481864636B1548D864636B83
:105610001D6520681346021D606BFCF7EDFF2368D3
:105620006FF040021A6084F83C50226802F11403C3
:1056300053E8003F43F08003143242E80031002970
:10564000F3D1002000E0022038BD0120FCE701205A
:10565000FAE70220F8E700BF67560008CF560008B7
:10566000DF560008704708B50346806B1B681B684F
:1056700013F4807F1AD10023C384026802F114035B
:1056800053E8003F23F08003143242E80031002940
:10569000F3D1026802F10C0353E8003F43F04003EA
:1056A0000C3242E800310029F3D108BDFFF7DAFFE0
:1056B000FBE708B50168CA6822F04002CA602022F0
:1056C00080F83D20FFF7CEFF002008BD704708B5E9
:1056D000806BFFF7FBFF08BD70477047704710B540
:1056E000846B23685A6994F83D30DBB2212B10D0CB
:1056F00023685A6902F0400294F83E30DBB2222B54
:1057000011D0236C43F0100323642046FFF7E6FF1B
:1057100010BD02F08002002AEAD00023E384204674
:10572000FFF776FDE4E7002AEBD00023E38520466F
:10573000FFF77EFDE5E708B5806B0023C385C384D2
:10574000FFF7CCFF08BD704790F83E30DBB2222B4C
:1057500067D18368B3F5805F4DD0826AB3F5805F0F
:1057600004D0002B54D10369002B51D103685B682E
:105770001370836A01338362C38D9BB2013B9BB27A
:10578000C385002B4FD100B583B00268D36823F0E6
:105790002003D3600268D36823F48073D360026867
:1057A000536923F001035361202380F83E30036BDB
:1057B000012B33D100230363026802F10C0353E889
:1057C000003F23F010030C3242E800310029F3D1EE
:1057D00003681A6812F0100F06D0002201921A68AE
:1057E00001925B680193019B818DFFF7ACFF002064
:1057F00003B05DF804FB0269002AAED1826A036837
:105800005B68C3F308031380836A02338362B3E7E0
:1058100003685B6803F07F031370AAE7FFF75CFF80
:10582000E5E70220704700207047000030B583B0E4
:10583000044602681368D068516913F00F0505D15A
:1058400013F0200F02D010F0200F19D12DB111F05C
:10585000010119D110F4907F16D1216B01297DD05F
:1058600013F0800F03D010F0800F40F0158113F07B
:10587000400F03D010F0400F40F0128103B030BD54
:105880002046FFF761FFF9E713F0010F06D010F48F
:10589000807F03D0226C42F00102226413F0040FD7
:1058A00004D019B1226C42F00202226413F0020FFC
:1058B00004D019B1226C42F00402226413F0080FE4
:1058C00007D010F0200F00D119B1226C42F008026D
:1058D0002264226C002AD1D013F0200F02D010F0E5
:1058E000200F29D123685B6903F04003226C12F07A
:1058F000080F00D163B32046FFF79AFC23685B6969
:1059000013F0400F20D0226802F1140353E8003F47
:1059100023F04003143242E800310029F3D1A36B95
:1059200073B1614A1A65A06BFCF7E5FE0028A5D0AB
:10593000A06B036D9847A1E72046FFF705FFD1E76D
:105940002046FFF7CBFE99E72046FFF7C7FE95E715
:105950002046FFF7C3FE002323648FE713F0100FE8
:105960003FF47EAF10F0100F3FF47AAF00230193A5
:105970001368019353680193019B536913F0400F1F
:1059800050D0A26B13685B689BB2002B3FF476AFDC
:10599000A18D99427FF672AFE385D369B3F5807F1D
:1059A00037D0226802F10C0353E8003F23F48073E0
:1059B0000C3242E800310029F3D1226802F11403CD
:1059C00053E8003F23F00103143242E8003100297C
:1059D000F3D1226802F1140353E8003F23F040039F
:1059E000143242E800310029F3D1202384F83E30FC
:1059F00000232363226802F10C0353E8003F23F0E5
:105A000010030C3242E800310029F3D1A06BFCF7FF
:105A100028FEA18DE38D9BB2C91A89B22046FFF7FB
:105A200092FE2BE7A18DE38D9BB2C91A89B2E38D5B
:105A30009BB2002B3FF422AF00293FF41FAF226836
:105A400002F10C0353E8003F23F490730C3242E858
:105A500000300028F3D1226802F1140353E8003F1C
:105A600023F00103143242E800300028F3D1202350
:105A700084F83E3000232363226802F10C0353E8CC
:105A8000003F23F010030C3242E800300028F3D12D
:105A90002046FFF758FEF1E62046FFF7F7FBEDE65C
:105AA0002046FFF706FEE9E63757000808B5806B89
:105AB000036B012B02D0FFF710FE08BD818D490852
:105AC000FFF741FEF9E708B50346806B1B681B68CA
:105AD00013F4807F2BD10023C385026802F10C03ED
