:020000040800F2
:100000000000022025700008351A0008371A000881
:10001000391A00083B1A00083D1A000800000000C9
:10002000000000000000000000000000316E000829
:100030003F1A000800000000616E0008116E000801
:1000400075700008757000087570000875700008FC
:1000500075700008757000087570000875700008EC
:1000600075700008757000087570000875700008DC
:1000700075700008757000087570000875700008CC
:1000800075700008757000087570000875700008BC
:1000900075700008757000087570000875700008AC
:1000A000757000087570000875700008757000089C
:1000B000757000087570000875700008757000088C
:1000C000757000087570000875700008411A000806
:1000D00075700008511A00087570000875700008E6
:1000E000757000087570000875700008757000085C
:1000F00075700008611A00087570000875700008B6
:10010000757000087570000875700008757000083B
:10011000757000087570000875700008757000082B
:100120007570000875700008711A0008811A0008BF
:1001300075700008000000000000000075700008E5
:1001400075700008757000087570000875700008FB
:100150007570000875700008911A00087570000825
:100160007570000875700008A11A0008B11A00081F
:1001700075700008C11A00080000000000000000AF
:0801800075700008757000089D
:1001900010B5054C237833B9044B13B10448AFF3C1
:1001A00000800123237010BD00010020000000002A
:1001B0006883000808B5034B1BB103490348AFF33C
:1001C000008008BD000000000401002068830008D2
:1001D00001F0FF01102A2BDB10F0070F08D010F8F8
:1001E000013B013A8B422DD010F0070F42B3F6D1FC
:1001F000F0B441EA012141EA014122F007047FF015
:1002000000070023F0E80256083C85EA010586EA6B
:10021000010685FA47F5A3FA87F586FA47F6A5FAA7
:1002200087F68EB9EED1F0BC01F0FF0102F00702B3
:1002300032B110F8013B013A83EA010313B1F8D15E
:100240000020704701387047002D06BF354603383F
:10025000073815F0010F07D1013015F4807F02BF78
:10026000013015F4C03F0130F0BC0138704700BFC9
:1002700053B94AB9002908BF00281CBF4FF0FF310D
:100280004FF0FF3001F0DEB8ADF1080C6DE904CE9F
:1002900000F006F8DDF804E0DDE9022304B0704761
:1002A0002DE9F047089D04468E46002B4DD18A4229
:1002B000944669D9B2FA82F252B101FA02F3C2F15C
:1002C000200120FA01F10CFA02FC41EA030E9440ED
:1002D0004FEA1C48210CBEFBF8F61FFA8CF708FB0E
:1002E00016E341EA034306FB07F199420AD91CEBE6
:1002F000030306F1FF3080F01F81994240F21C8118
:10030000023E63445B1AA4B2B3FBF8F008FB10335F
:1003100044EA034400FB07F7A7420AD91CEB040494
:1003200000F1FF3380F00A81A74240F20781644464
:10033000023840EA0640E41B00261DB1D4400023E9
:10034000C5E900433146BDE8F0878B4209D9002D4D
:1003500000F0EF800026C5E9000130463146BDE8D7
:10036000F087B3FA83F6002E4AD18B4202D3824241
:1003700000F2F980841A61EB030301209E46002DF0
:10038000E0D0C5E9004EDDE702B9FFDEB2FA82F245
:10039000002A40F09280A1EB0C014FEA1C471FFAA3
:1003A0008CFE0126200CB1FBF7F307FB131140EA8A
:1003B00001410EFB03F0884208D91CEB010103F157
:1003C000FF3802D2884200F2CB804346091AA4B219
:1003D000B1FBF7F007FB101144EA01440EFB00FEED
:1003E000A64508D91CEB040400F1FF3102D2A64552
:1003F00000F2BB800846A4EB0E0440EA03409CE7F1
:10040000C6F12007B34022FA07FC4CEA030C20FA9D
:1004100007F401FA06F31C43F9404FEA1C4900FABD
:1004200006F3B1FBF9F8200C1FFA8CFE09FB18113A
:1004300040EA014108FB0EF0884202FA06F20BD9AD
:100440001CEB010108F1FF3A80F08880884240F2FD
:100450008580A8F102086144091AA4B2B1FBF9F041
:1004600009FB101144EA014100FB0EFE8E4508D93C
:100470001CEB010100F1FF346CD28E456AD90238C1
:10048000614440EA0840A0FB0294A1EB0E01A142A6
:10049000C846A64656D353D05DB1B3EB080261EB14
:1004A0000E0101FA07F722FA06F3F1401F43C5E9EE
:1004B000007100263146BDE8F087C2F12003D84024
:1004C0000CFA02FC21FA03F3914001434FEA1C4766
:1004D0001FFA8CFEB3FBF7F007FB10360B0C43EA58
:1004E000064300FB0EF69E4204FA02F408D91CEB08
:1004F000030300F1FF382FD29E422DD90238634406
:100500009B1B89B2B3FBF7F607FB163341EA0341A5
:1005100006FB0EF38B4208D91CEB010106F1FF38F4
:1005200016D28B4214D9023E6144C91A46EA0046EB
:1005300038E72E46284605E70646E3E61846F8E67D
:100540004B45A9D2B9EB020864EB0C0E0138A3E7C6
:100550004646EAE7204694E74046D1E7D0467BE7A7
:10056000023B614432E7304609E76444023842E71F
:1005700003685A004CBF43F0004323F00043184483
:10058000704700BF2DE9F84329B34F1E04461546B6
:100590003E464FF0000808EB060101EBD17149100F
:1005A00004EBC1094846FFF7E3FF0346C8000830E3
:1005B0008F42204409D0AB4209D8FFF7D9FF013858
:1005C000A8420AD201F10108E5E7AB4205D9884506
:1005D00001D04E1EDFE74FF000094846BDE8F88322
:1005E000012807D0022807D0044B00280CBF18466A
:1005F000002070470248704702487047B90C000855
:10060000BD0C0008C10C000830B5234B83B0044674
:100610008D1E3BB301A92846AFF30080E8B10199D4
:100620002A46FFF7AFFF0146B8B1FFF7A1FF4B68BD
:10063000A064012B2CD0002B01F1040024DBFFF778
:1006400097FF0023C4E913030368002B11DBFFF7B6
:100650008FFF2061002003B030BD002309202361FB
:1006600003B030BD0D4B0E49C91AC910184601918F
:10067000D6E7C3F30360FFF7B3FF0028206114BF80
:100680000020092003B030BD0123C4E91303DBE7D8
:10069000002323610520DEE7000000004C850008F0
:1006A000148600080368DA0710B5044606D49B07D1
:1006B00000F1480009D500F05BFC2368590709D513
:1006C0001A070ED5DB0613D510BD00F049FC2368D0
:1006D0005907F5D404F1D00000F052FC23681A0742
:1006E000F0D404F5A87000F053FC2368DB06EBD4CB
:1006F00004F5E870BDE8104000F08EBC092070479A
:100700000346006800B11844704700BF704700BF3F
:1007100070B504460E46316C2046FFF775FF05465E
:1007200088B9326C626123693246214601209847BC
:100730000828F0D0072806D12846316CFFF7E6FFDD
:10074000301D00F001FC07F0C3FD00BF2DE9F047AC
:100750000D1DD0F80C80D0F81890074614460FCD28
:10076000ADF5727D0DF10C0CACE80F000FCDACE8CF
:100770000F000FCDACE80F0095E80F0002AE4FF070
:10078000000E8CE80F00C6F800E020E0336C7B61BF
:100790004FF4F07231467AA806F0A0FC3B697AAAC1
:1007A000394650469847889B73642146CDE90069D5
:1007B00005463B463A460120C0470446E0B94FF49F
:1007C000F0727AA9304606F089FC082D1AD1316CF6
:1007D0003846FFF719FF09345FFA84FA0546002806
:1007E000D4D0B36B73643A46CDE900693B464AF016
:1007F00010010120C04700B1092528460DF5727D82
:10080000BDE8F087072DF7D12046316CFFF77EFF5A
:1008100003A800F099FB00BF406C7047F0B5CB6BAC
:100820000B6401F1040C0E460546BCE80F00F9B05C
:1008300001AC0FC4BCE80F000FC4BCE80F000FC42C
:100840009CE80F004FF0FF3784E80F00009706E0A8
:100850002B696A46294698470828044608D110990A
:100860002846FFF7D1FE0028F2D0092079B0F0BD6C
:100870006846FFF717FF062CF7D131462846FFF7E9
:1008800047FF00BFC160D96B82611964002219461D
:100890005CE700BF70B5C66843690B64AEB9036915
:1008A0000A4604460D46014602209847072805D00F
:1008B00008280FD129462046FFF72AFF3046296C29
:1008C000FFF724FF281D00F03FFB0122FFF73EFF4A
:1008D00007F0FEFC07F0FCFCC2681AB1CA6B0A64A0
:1008E000002233E79AE700BF704700BF83680146E4
:1008F0000BB1012018477047012912D009D873B9EC
:100900000F2A0CD800EB820218465368009A136035
:1009100070470339012994BF01200220704702204B
:1009200070470846704700BF00B585B00A460023EF
:1009300003A900911946FFF7DFFF039805B05DF8A2
:1009400004FB00BF012912D009D873B90F2A0CD8B3
:1009500000EB8200009A1268426018467047033923
:10096000012994BF012002207047022070470846E9
:10097000704700BF10B584B0002303AC039200940D
:100980000A461946FFF7DEFF04B010BD70B5D36B01
:10099000136402F1040C05460C46BCE80F00ADF5EB
:1009A0000E7D0DF15C0EAEE80F00BCE80F00AEE866
:1009B0000F00BCE80F00AEE80F009CE80F004FF0FE
:1009C000FF368EE80F00169610E0FFF7D3FF2146A2
:1009D00016A8A847034616AA6946082083B9049BAF
:1009E0009847052806460CD0092809D0269968465C
:1009F000FFF70AFE03466A460C2116A8002BE4D036
:100A0000092616A8FFF74EFE30460DF50E7D70BD87
:100A10002DE9F04FCC6C89B01E4654F8043B069487
:100A20000D46174600F00308002E79D01A0C1B045F
:100A300005938DF81D200223D2B204EB82048DF8B9
:100A40001C302B6DB8F1020F08BFAC6B13F0010323
:100A50000CD005A9384600F079FB18B9082009B078
:100A6000BDE8F08F092009B0BDE8F08FD4F800A0F0
:100A7000BAF1000FEDD0019300F008030293022EAB
:100A80004AD0B4F800A0B4F802900434AB6C29F05A
:100A9000010B0F2138469B44FFF746FF834539D8A9
:100AA0002AF001039B44834594BF002001204FEAB4
:100AB000490303F002030AF0010A43EA0A03012B87
:100AC00049D0022B32D0002BCCD1B8F1000F02D08C
:100AD000002840F0CD800434D4F800A0BAF1000F13
:100AE000CDD105A9384600F031FB0028BAD1019BD1
:100AF000002BB3D00F213846FFF716FF0E21024618
:100B00003846FFF737FF38466A4A0F21FFF732FFB2
:100B10000720A8E70020CAE7D4F804900834B5E716
:100B20001B0205930323ADF81C308AE7236823F0EA
:100B3000004BB8F1000F45D128B1029A002A5CD0D1
:100B4000BBF1000F74D0002B00DA04340BF1010B61
:100B500004EB8B04C0E7B8F1000F19D1B0B16368A2
:100B60002268991C4FEAD2723FF47CAF05F158011C
:100B70000133049100F09080201DFFF7C1FD04AB0C
:100B800001462846AFF3008000285BD10834A3E774
:100B90000D213846D5F82090FFF7C6FE8145F5D1E6
:100BA000AB6A9C42F2D12046FFF7E2FC0F210246DD
:100BB0003846FFF7DFFE38462A460021FFF7DAFE07
:100BC000072050E70D213846D5F82090FFF7ACFEFE
:100BD000814501D02368B6E7AB6A9C42FAD1042371
:100BE0000022C5E90B23E318C5F828B06B6323681E
:100BF000002B59DB01230193A8E705F15803CDF839
:100C00000C8004F1040AB04691461E460EE05046A0
:100C10000496FFF775FD0022014604AB284609F152
:100C200001090AF1040AAFF30080E0B9D945EED119
:100C30000D213846FFF778FE049BAC62C5E9080336
:100C4000062010E781460D213846FFF76DFEB9F109
:100C5000020F286225D12B46049A43F82C2F6B6291
:100C6000AC620620FFE646462368DDF80C806AE7A2
:100C70002046FFF77DFC04340246AC632846144648
:100C8000AFF3008000283FF4EDAE384622460F2136
:100C9000FFF770FE0720E6E60D213846FFF744FE19
:100CA0002862049B6B62DBE70BF1010004EB800020
:100CB0007AE700BF000000000023A9E60123A7E6B1
:100CC0000223A5E62DE9F0430646C3B015461C46AF
:100CD000042900F2BF80DFE801F09E57BD2D03001C
:100CE000002C40F0B780102A00F2B4800368D806C8
:100CF00000F1F98020AF384600F098F9B46B39461E
:100D000000234FF0010C0CFA03F22A42204603F1B3
:100D1000010303D050F8042B0A600446042B01F1B0
:100D20000401F0D13846B46300F076F9002043B0F6
:100D3000BDE8F083032C40F08D8094B204EB1243A5
:100D4000102B4FEA124500F2858003681F0700F15F
:100D5000D28020AF384600F03DF9B26B07EBC501F9
:100D600054B10B46D01A01EBC401E4001D5843F8FE
:100D7000045B8B42FAD122443846B26300F008F992
:100D8000002043B0BDE8F083012C4FEA124895B231
:100D90005CD0052C5ED108EB0509B9F1200F59D8BC
:100DA000B8F10F0F79D9A946002D40F08A80B36BB6
:100DB0006DB320AF4FF0000907EBC807043F03EB0A
:100DC000C50553F8041B47F8041FAB42F9D1B9F12C
:100DD000000F0FD06F464146102938BF102107EB96
:100DE000C101843903EBC90553F8040B41F8040F22
:100DF000AB42F9D1012C00F08680B8F10F0FB5633A
:100E000047D9B9F1000F02D0684600F0B9F80020C8
:100E100043B0BDE8F083ECB9806B23461FFA82FC37
:100E20000124371D04FA03F212EA0C0F014604D024
:100E300051F8042B47F8232008460133102BF1D139
:100E400015F40055E3D1B063284604E008EB050330
:100E5000102B03D9022043B0BDE8F083B8F10F0F87
:100E6000F8D83368DA0706D5304623F0030340F894
:100E7000483B00F079F820AF384600F075F8B36BC6
:100E8000002D97D11D460435B563384600F068F84B
:100E9000BDE720A800F06CF8B3E7B9F1100F40D916
:100EA000A9F110093368D90708D523F001033046AA
:100EB00043F0020340F8483B00F05EF8B9F1000F40
:100EC00032D033685A0720D4B8F10F0F25D96F46B6
:100ED0003846C8F1100500F057F8002DB36B7FF7C6
:100EE0007AAF20AF68E723F01003336006F5E870AF
:100EF00000F09CF8FEE623F00803036000F5A870FC
:100F000000F068F825E720AFBDE7304623F0040382
:100F100040F8D03B00F038F8D6E720A800F02CF8D5
:100F2000D5E74FF00009BDE7B8F10F0F3FF63FAF2F
:100F300020AF384600F020F8B36B002D7FF43AAFB5
:100F4000384600F015F862E700F1340191E8380006
:100F50009C46A6464CF8045D90E8FF0FE54600BDB0
:100F600090EC210B704700BF80EC210B704700BF55
:100F700090EC200B704700BF80EC200B704700BF47
:100F8000D0EC200B704700BFC0EC200B704700BFB7
:100F9000F0EC0201F0EC0211F0EC0221F0EC023175
:100FA000F0EC0241F0EC0251F0EC0261F0EC027165
:100FB000F0EC0281F0EC0291F0EC02A1F0EC02B155
:100FC000F0EC02C1F0EC02D1F0EC02E1F0EC02F145
:100FD000704700BFE0EC0201E0EC0211E0EC0221FE
:100FE000E0EC0231E0EC0241E0EC0251E0EC0261A5
:100FF000E0EC0271E0EC0281E0EC0291E0EC02A195
:10100000E0EC02B1E0EC02C1E0EC02D1E0EC02E184
:10101000E0EC02F1704700BFB0FC0181B0FC01912F
:10102000B0FC01A1B0FC01B1704700BFA0FC018180
:10103000A0FC0191A0FC01A1A0FC01B1704700BF80
:10104000EC4600B52DE900502DE9FF1F4FF00003DD
:101050002DE90C0001A9FFF7E1FBDDF840E012B03B
:10106000704700BFEC4600B52DE900502DE9FF1F89
:101070004FF000032DE90C0001A9FFF70BFCDDF890
:1010800040E012B0704700BFEC4600B52DE90050BB
:101090002DE9FF1F4FF000032DE90C0001A9FFF718
:1010A0001BFCDDF840E012B0704700BFEC4600B515
:1010B0002DE900502DE9FF1F4FF000032DE90C0032
:1010C00001ABFFF7DFFBDDF840E012B0704700BF77
:1010D000EC4600B52DE900502DE9FF1F4FF000034D
:1010E0002DE90C0001AAFFF751FCDDF840E012B039
:1010F000704700BF027A03467AB9427AA2B14168CA
:10110000013A10B44272086803220C1D1A720202DE
:101110005C60000E10BC1A6070470068013A1A72D9
:1011200002021A60000E7047B020704700B585B00B
:10113000002303AA009219460C22FFF7DDFB039857
:1011400005B05DF804FB00BFF0E700BF2DE9F043F8
:10115000054685B00E464FF000083046FFF7CAFF3F
:10116000B028044600F0BA80070620D500F0F0034E
:10117000802B4DD0902B36D0A02B60D0B02B74D0CC
:10118000C02B00F08B8000F0F803D02B0BD100F0C7
:1011900007020132052342F4002201212846FFF70D
:1011A00091FD0028D9D0092005B0BDE8F083830067
:1011B000DBB21F1D0DF10C0900231946CDF800907C
:1011C0000D222846FFF798FB039BCDF800906006A0
:1011D0004CBFDF1BFF1800230D221946284603973A
:1011E000FFF7B0FBB9E700F00D030D2BDBD003AF29
:1011F000002300F00F02194600972846FFF77CFBFA
:10120000002300970D2219462846FFF79BFBA4E711
:101210003046FFF76FFF24022043B0F5004FC2D0E5
:1012200004010023A2B219462846FFF74BFD00280F
:10123000B9D114F4004F18BF4FF001088DE7C24335
:1012400002F007034FF47F621A41010702F47F6244
:101250004FF0000348BF42F4804219462846FFF78A
:1012600031FD00283FF479AF9DE7B1283BD0B2288B
:1012700000F09380B32841D000F0FC03B42B92D04F
:1012800000F007020132012342F4002219462846E9
:10129000FFF718FD00283FF460AF84E7C6284AD066
:1012A000C72854D000F0F803C02B63D0C82868D0FA
:1012B000C9287FF478AF3046FFF71CFF020300F027
:1012C0000F0002F470220130024301210523284659
:1012D000FFF7F8FC00283FF440AF64E7B8F1000FD7
:1012E00018D0002060E73046FFF704FF02460028D0
:1012F0003FF459AF10F0F003C8D054E73046FFF781
:10130000F9FE020300F00F03013302F470221A43C6
:101310000123BBE703AC43460E2241460094284616
:10132000FFF7EAFA009443460F2241462846FFF7AA
:1013300009FB404638E73046FFF7DCFE020300F0C9
:101340000F03013302F470221A4303239EE7304651
:10135000FFF7D0FE024600283FF425AF10F0F0035F
:101360007FF421AF04212846FFF7ACFC00283FF4AE
:10137000F4AE18E700F00F020132032342F42022FA
:1013800084E73046FFF7B6FE00F0F00200F00F03EE
:101390001032013343EA023297E700230DF10C09C2
:1013A0000D221946CDF800902846FFF7A5FA3046E1
:1013B000FFF7A0FE02064FF002040CD5039B00F0DD
:1013C0007F00A040184403903046FFF793FE0306C9
:1013D00004F10704F2D4039BCDF8009000F07F02E3
:1013E000A24003F501731A440023039219460D220B
:1013F0002846FFF7A7FAB0E610B5C26C536884B070
:101400004FF0030C08321C0208461B0E01A9019480
:1014100002928DF80CC08DF80D30FFF797FE04B0E6
:1014200010BD00BF08B5FFF78FFE806C08BD00BF80
:1014300008B5FFF789FEC06CC379023300EB830067
:1014400008BD00BF704700BF30B583B005460D48EA
:1014500005F03AFFACB23223009305230A4A214635
:101460000A4802F04FFF0028F1D1322300930523F0
:10147000074A2146054803F001F80028F5D103B0DA
:1014800030BD00BF44840008240100202C0100204E
:101490001C01002008B50268034B9A4200D008BD29
:1014A00002F020FCFBE700BF0020004072B6FEE720
:1014B00000B595B03022002108A805F01DFE0023DC
:1014C000039304930593069307930193204A116CA9
:1014D00041F080511164126C02F080520192019A25
:1014E00002931C4B1A6842F480421A601B6803F492
:1014F00080430293029B012308934FF480330993A6
:1015000002220E924FF480030F9304231093A8211C
:1015100011911292139308A801F0BAFC98B90F2305
:10152000039302230493002305934FF4A0530693DF
:101530004FF480530793052103A801F00FFF20B952
:1015400015B05DF804FBFFF7B1FFFFF7AFFF00BF79
:10155000003802400070004010B502F0A9FBFFF710
:10156000A7FF00F035F805F01FFB00F0A9F800F028
:10157000FDF804F08BFE04F07DFE0E4805F02AFF16
:101580000D4B01221A700D4AC3F801200C20FFF701
:101590005BFF0B4805F01EFF002405E0094B195DB9
:1015A000094805F091FE0134042CF7DD074805F0E9
:1015B00011FFFEE74C840008240100200000F041E8
:1015C0006C8400081C0100207484000870840008EA
:1015D000F0B58BB000240594069407940894099400
:1015E0000194344B1A6B42F080021A631A6B02F0BA
:1015F00080020192019A02941A6B42F004021A636B
:101600001A6B02F004020292029A03941A6B42F0DF
:1016100001021A631A6B02F001020392039A049406
:101620001A6B42F002021A631B6B03F0020304936D
:10163000049B214F01221021384602F075F8224602
:101640004FF40061384602F06FF81C4E22465021DC
:10165000304602F069F801228021304602F064F839
:1016600010230593012506950795089405A938468A
:1016700001F068FF4FF40063059306950794089402
:1016800005A9384601F05EFF50230593069507949F
:101690000324089405A9304601F054FF80230593E4
:1016A00006950795089405A9304601F04BFF0BB04D
:1016B000F0BD00BF003802400000024000040240BC
:1016C00008B50B480B4B03600B4B43600023836052
:1016D000C3604FF48042026143618361C36103626E
:1016E00002F032FD00B908BDFFF7E0FEFBE700BFE6
:1016F0002C01002000540040A086010030B589B0C4
:101700000023039304930593069307930268144BF5
:101710009A4201D009B030BD00250195114C236BD0
:1017200043F002032363236B03F002030193019B45
:101730004FF440730393122304930323069304236B
:10174000079303A9084801F0FDFE0295236C43F4BA
:1017500000132364236C03F400130293029BD9E764
:1017600000540040003802400004024010B50F4809
:101770000F4B03604FF4E133436000238360C36089
:1017800003610C2242618361C36103F0BFFA48B96F
:10179000064C204605F09EF980220649204603F0BB
:1017A00065FE10BDFFF782FEF2E700BF4002002099
:1017B000001001408402002030B589B0002303935B
:1017C0000493059306930793026803F1804303F59E
:1017D00088339A4201D009B030BD044600250195F6
:1017E00003F594335A6C42F010025A645A6C02F0BA
:1017F00010020192019A02951A6B42F001021A63DB
:101800001B6B03F001030293029B4FF4C06303932D
:1018100002230493032306930723079303A91D4878
:1018200001F090FE1C481D4B03604FF000634360C5
:101830008560C5604FF480630361456185614FF445
:101840008073C3610562456201F0F4FFD8B9124BA1
:10185000A3639C631248134B03604FF00063436023
:10186000402383600023C3604FF4806202614361C0
:101870008361C3610362436201F0DCFF30B9084B4E
:1018800063639C63A7E7FFF711FEE0E7FFF70EFE37
:10189000F5E700BF000002408001002040640240E4
:1018A000E0010020B864024008B500F2C441D0F85D
:1018B000080503F047FE08BD08B501EBC10300EBC6
:1018C0008303D3F88C22D0F8080503F099FF08BDF4
:1018D00008B501EBC10300EB8303DA6CD0F808050F
:1018E00003F0F5FF08BD08B5D0F8080503F0B2FE17
:1018F00008BD10B50446C3683BB1022B01D10121DC
:1019000004E0FFF7D3FD012100E00021D4F8080531
:1019100003F086FED4F8080503F040FE10BD000079
:1019200010B50446D0F8080503F07DFE2268D2F811
:10193000003E43F00103C2F8003E236A23B1034A8C
:10194000136943F00603136110BD00BF00ED00E012
:1019500008B5D0F8080503F070FE08BD08B5D0F84A
:10196000080503F0B3FE08BD08B5D0F8080503F07C
:1019700096FE08BD08B5D0F8080503F0BEFE08BD08
:1019800008B5D0F8080503F0BAFE08BDD0F8EC326F
:1019900011F0800F08D101F07F0101EBC10103EBD1
:1019A000810191F87E02704701F07F0101EBC101D6
:1019B00003EB810191F83E007047032805D8DFE86A
:1019C00000F005040205012070470320704708B5A8
:1019D00094461A466346D0F8EC0200F013FAFFF77B
:1019E000ECFF08BD08B5D0F8EC0200F0AEFAFFF746
:1019F000E4FF08BD08B5D0F8EC0200F0EAFAFFF702
:101A0000DCFF08BD08B5D0F8EC0200F0E7F9FFF7FD
:101A1000D4FF08BD08B5D0F8EC0200F067FAFFF774
:101A2000CCFF08BD08B5D0F8EC0200F030FAFFF7A3
:101A3000C4FF08BDFEE7FEE7FEE7FEE7FEE77047EE
:101A400008B5024804F004FF08BD00BFC00800202C
:101A500008B5024803F01EFB08BD00BF400200208D
:101A600008B5024802F0C8FE08BD00BF10080020FB
:101A700008B5024801F0D6FF08BD00BF8001002074
:101A800008B5024801F0CEFF08BD00BF6008002085
:101A900008B5024801F0C6FF08BD00BFE001002004
:101AA00008B5024800F0EAFA08BD00BF04030020B0
:101AB00008B5024800F0E2FA08BD00BF04030020A8
:101AC00008B5024800F0DAFA08BD00BF04030020A0
:101AD00000B583B0002200920D4B596C41F4804157
:101AE0005964596C01F48041009100990192196C7C
:101AF00041F0805119641B6C03F080530193019BEA
:101B00000F216FF0010002F08DF803B05DF804FBC7
:101B10000038024030B589B0044600230193214BC0
:101B20001A6C42F480721A641B6C03F48073019384
:101B3000019B02A903A801F0E7FC069BCBB901F0C9
:101B4000C3FC03461848A0FB03239B0C013B17482A
:101B5000174A026040F2E732C2604360002303612B
:101B60008360836102F06AFF054630B1284609B000
:101B700030BD01F0A9FC4300E4E70C4802F0F4FD9D
:101B800005460028F2D12D2002F084F80F2C01D94F
:101B90000125EBE7002221462D2002F043F8054BFA
:101BA0001C60E3E70038024083DE1B43100800207E
:101BB00000200040040000202DE9F04383B0D0F85D
:101BC000008001EBC10300EB8303DA6D5B6D9A4289
:101BD00054D807460C469B1A01EBC10200EB820267
:101BE000926C9A4200D31A4602F103094FEA99090E
:101BF00015E006F103094FEA990904EBC40507EB68
:101C00008505E96C3B7C0093B3B2E2B2404600F03C
:101C100003FFEB6C3344EB64EB6D3344EB6508EB93
:101C2000441303F510639B699BB24B4512D304EB3D
:101C3000C40207EB8202D16D536D99420AD24BB1B7
:101C40005B1A04EBC40207EB8202966C9E42D0D36F
:101C50001E46CEE704EBC40007EB80077A6DFB6DF0
:101C60009A420FD804F00F040123A340D8F8344857
:101C700024EA0304C8F83448002000E0012003B03F
:101C8000BDE8F0830020FAE770B504460D46006811
:101C9000066C00EB411303F530639A682169012952
:101CA00011D038498E4256D03DB905EBC50304EB3F
:101CB0008303D3F89432002B5ED0E9B22046FFF7BD
:101CC000FBFD002070BD12F0080F09D02E498E4296
:101CD000F7D912F4004FF4D04FF400429A60F0E7C5
:101CE00012F0200F02D020229A60EAE712F0280FAB
:101CF000E7D125498E4206D912F4004F03D04FF4A4
:101D000000429A60DDE705EBC50204EB8202D2F8DF
:101D100098121B69C3F31203CB1AC2F89C327DB927
:101D200005EBC50204EB8202D2F894226AB105EBFE
:101D3000C50204EB8202D2F88C120B44C2F88C323A
:101D4000E9B22046FFF7B8FDBBE704F2C442012127
:101D500001F06EF8F4E712F4004F03D04FF40042A4
:101D60009A60AEE712F0200F01D020229A60E9B20B
:101D70002046FFF7A1FDA4E704F2C442002101F0D0
:101D800057F89AE70A31544F0A30544F38B5044691
:101D900003681D6C03EB4113D3F8081B0E4A9542F0
:101DA00007D903F5306311F4004F02D04FF400421D
:101DB0009A602046FFF778FD074B9D4202D92369C0
:101DC000012B01D0002038BD04F2C442012120685B
:101DD00001F02EF8F6E700BF0A30544F90F8BC34FB
:101DE000012B0DD010B50446012380F8BC3480F8D7
:101DF0003810006800F0C7FF002084F8BC0410BD54
:101E00000220704738B505468C4611F0800F29D165
:101E100001F00F0E0EEBCE04A40004F51E74044472
:101E2000211D0EEBCE0E00EB8E0E00208EF87D02F3
:101E30000CF00F0C81F800C0CA600B714A780AB12F
:101E4000A1F808C0022B1DD095F8BC34012B1CD082
:101E5000012385F8BC34286800F09FFC002085F839
:101E6000BC0438BD01F00F0000EBC001890038311F
:101E70002944043100EBC00005EB8000012480F808
:101E80003D40D5E700234B71DEE70220E9E710B5BE
:101E900001F00F0404EBC401890001F51E71014437
:101EA000043104EBC40C00EB8C0CCCF88C22CCF885
:101EB00094320023CCF89C328CF87D328CF87C4232
:101EC0000369012B06D064B9DAB2006800F0B3FCF4
:101ED000002010BD04EBC40C00EB8C0CCCF890225D
:101EE000F1E7DAB2006800F0AFFDF1E710B501F0FC
:101EF0000F0404EBC401890038310144043104EBC0
:101F0000C40C00EB8C0CCCF84C20CCF854300023E3
:101F1000CCF85C3001238CF83D308CF83C400369F0
:101F2000012B06D064B9DAB2006800F084FC00200E
:101F300010BD04EBC40C00EB8C0CCCF85020F1E786
:101F4000DAB2006800F080FDF1E738B501F00F0566
:101F50004268954239D804460B4611F0800F1FD1D4
:101F600001EBC101890001F51E710144043103EB4D
:101F7000C30300EB8303002283F87D2201238B70CF
:101F80000D7094F8BC34012B21D0012384F8BC34AB
:101F9000206800F09DFE8DB1002084F8BC0438BD9F
:101FA00005EBC501890038310144043105EBC50357
:101FB00000EB8303012283F83D20DFE704F2C442F3
:101FC000217C206800F034FFE6E70120E7E70220EB
:101FD000E5E701F00F034268934231D810B504469B
:101FE00011F0800F1ED103EBC301890001F51E71B2
:101FF0000144043103EBC30200EB8202002082F8AB
:102000007D0200228A700B7094F8BC34012B19D029
:10201000012384F8BC34206800F087FE002084F897
:10202000BC0410BD03EBC301890038310144043105
:1020300003EBC30200EB8202012082F83D00E0E7DF
:10204000012070470220ECE708B511F0800F0CD199
:1020500001F00F0101EBC101890001F51E7101447E
:102060000431006800F079FC08BD01F00F0101EBBC
:10207000C1018900383101440431F2E72DE9F04F04
:1020800083B004460568284600F0BEFE10B103B0D8
:10209000BDE8F08F0646206800F085FE0028F6D0E7
:1020A00005F50067BB68C3F30D23C4F8FC34206852
:1020B00000F079FE10F0020F04D02268536903F09B
:1020C00002035361206800F06EFE10F0100F13D071
:1020D0002268936923F010039361D5F8208008F0FB
:1020E0000F09C8F34343022B4BD0062B6FD0226855
:1020F000936943F010039361206800F054FE10F4DC
:10210000002F76D1206800F04EFE10F4802F40F0B2
:10211000E080206800F047FE0028C0F2638120685C
:1021200000F041FE10F4006F09D0BB6813F0010FFE
:1021300040F070812268536903F4006353612068A2
:1021400000F031FE10F4805F40F06881206800F0FC
:102150002AFE10F4005F40F0B581206800F023FEF5
:1021600010F0080F40F0C681206800F01CFE10F04F
:10217000800F00F0D981AB6923F08003AB610126A9
:10218000C2E147F6F07318EA030FB0D04FEA181B0C
:102190004FEAC903019309EBC90A04EB8A0AC8F3A1
:1021A0000A12DAF88C12284600F068FDCBF30A0B0D
:1021B000DAF88C325B44CAF88C32019B4B4404EB56
:1021C0008303D3F89C325B44CAF89C328FE7082221
:1021D00004F2C441284600F051FDC8F30A1809EB87
:1021E000C90204EB8202D2F89C324344C2F89C320A
:1021F0007DE7206800F0DBFD8046B14635E005EB69
:1022000049130122C3F8082B49462046FFF73CFD3D
:102210003CE005EB49130822C3F8082B4946204649
:10222000FFF7B4FD35E009EBC90304EB830393F832
:102230007F32012B41D005EB49130222C3F8082B52
:102240001AF0200F04D005EB49132022C3F8082B05
:102250001AF4005F05D005EB49134FF40052C3F8A0
:10226000082B09F101094FEA5808B8F1000F3FF4B3
:1022700049AF18F0010FF4D05FFA89FB5946206886
:1022800000F0A5FD824610F0010FB8D11AF0080F3A
:10229000BFD11AF0100F04D005EB49131022C3F878
:1022A000082B1AF0020FCBD06B6913F0800FBAD055
:1022B0007B6843F480637B60B5E709EBC90304EBFB
:1022C0008303002283F87F2259462046FFF746FB0E
:1022D000B1E7206800F073FD8046B14625E059461D
:1022E0002046FFF7F5FA1AF0080F04D005EB491362
:1022F0000822C3F808291AF0100F04D005EB49137F
:102300001022C3F808291AF0400F04D005EB491336
:102310004022C3F808291AF0020F40D11AF0800FAA
:102320005BD109F101094FEA5808B8F1000F3FF4F9
:10233000F0AE18F0010FF4D05FFA89FB594620681F
:1023400000F04EFD824610F0010FCCD009F00F03D3
:10235000012101FA03F27B6B23EA02037B6305EBA5
:102360004913C3F8081923698B42B8D109EBC90393
:1023700004EB8303996CDA6C0A44DA64B9F1000F58
:10238000ADD109EBC90304EB83035B6D002BA6D130
:1023900004F2C4420121206800F04AFD9FE749464B
:1023A000284600F0C1F909EBC90304EB830393F855
:1023B0003F30012B05D005EB49130222C3F8082951
:1023C000ACE709EBC90304EB8303002283F83F2049
:1023D00059462046FFF7C8FAEDE749462046FFF781
:1023E000EBFB9EE77B6823F001037B6094F8F434F9
:1023F000012B08D02046FFF7ABFA2268536903F09F
:10240000004353618BE6002184F8F414204600F069
:1024100017F9F2E72046FFF783FA8BE67B6823F093
:1024200001037B601021206800F07EF91AE005EBC3
:1024300046134FF67F31C3F80819D3F8002922F468
:102440000012C3F80029C3F8081BD3F8002B22F4AC
:102450000012C3F8002BD3F8002B42F00062C3F83F
:10246000002B01366368B342E1D8FB6943F00113E6
:10247000FB61236BDBB1D7F8843043F00B03C7F863
:1024800084307B6C43F00B037B64D5F8003823F475
:10249000FE63C5F8003804F2C442217C206800F0D5
:1024A000C7FC2268536903F4805353614EE67B698D
:1024B00043F4005343F02B037B613B6943F00B0370
:1024C0003B61E2E7206800F0A3FC206800F054F9CB
:1024D000E060266800F0F2FF0146227B304600F003
:1024E000B1F82046FFF705FA2268536903F4005358
:1024F000536132E62046FFF7F6F92268536903F08C
:102500000803536130E601366368B3420CD906EB29
:10251000C60304EB830393F87F32012BF3D1F1B2AE
:102520002046FFF791FDEEE7206800F03CFC10F438
:10253000801F27D1206800F036FC10F4001F5BD00C
:10254000012328E001366368B3421DD905EB461329
:10255000D3F8002906EBC60304EB830393F840305D
:10256000012BEFD1002AEDDA06EBC60304EB83035F
:10257000012283F83F2066F07F01C9B22046FFF7B1
:1025800063FDDFE70126DEE72268536903F4801369
:102590005361CFE7013362689A4228D905EB4312B1
:1025A000D2F8001B03EBC30204EB820292F88022F4
:1025B000012AEFD10029EDDA01F48031D4F8FC24AE
:1025C00002F001029142E5D103EBC30204EB820267
:1025D000012182F87F12AA6942F08002AA616A6929
:1025E00012F0800FD6D17B6843F400737B602268C1
:1025F000536903F400135361206800F0D4FB10F01A
:10260000804F10D1206800F0CEFB10F0040F3FF493
:102610003EAD23685D6815F0040F0DD12268536844
:102620002B43536033E52046FFF7A4F92268536932
:1026300003F080435361E5E72046FFF7A1F9EDE79A
:1026400070470000022A0AD00921C26822F47052A1
:10265000C260C36843EA8123C36000207047234BF4
:102660000B44234A93422FD9224B0B44224A9342D4
:102670002CD9A1F57403A3F51053204A934227D90E
:10268000A1F18373A3F5E7431D4A934222D31D4B67
:102690000B441D4A93421FD91C4B0B441C4A9342C6
:1026A0001CD31C4B0B441C4A934219D3A1F1B773A2
:1026B000A3F55853194A934214D3194B0B44194AA2
:1026C000934211D20721C0E70F21BEE70E21BCE7DC
:1026D0000D21BAE70C21B8E70B21B6E70A21B4E7D0
:1026E0000921B2E70821B0E70621AEE7405327FFF2
:1026F000FF340C00401E1BFF3F420F007F4F1200B3
:1027000020D6130060B6E5FE5FE3160000D3CEFED0
:1027100040771B00C05BB3FEC091210020753800DC
:10272000E05459FEE09C410082B000230193019BDC
:1027300001330193019A0F4B9A4215D80369002B7C
:10274000F5DA00230193890141F020010161019B29
:1027500001330193019A074B9A4208D8036913F099
:10276000200FF4D1002000E0032002B070470320C6
:10277000FBE700BF400D0300D0F8083813F0060354
:1027800007D0022B07D0062B01D00F207047022064
:102790007047002070470220704710B591F800C0C4
:1027A0004B78012B23D000F5006ED0F81C380CF0CC
:1027B0000F040122A24043EA0243C0F81C3800EB98
:1027C0004C10D0F8003B13F4004F0ED1D0F8003B72
:1027D000CA68C2F30A02097942EA8142134343F00C
:1027E000805343F40043C0F8003B002010BDD0F8F4
:1027F0001C280CF00F0E03FA0EF39BB21343C0F823
:102800001C3800EB4C10D0F8003913F4004FECD119
:10281000D0F80039CA68C2F30A02097942EA814253
:1028200042EA8C5C43EA0C0343F0805343F40043D8
:10283000C0F80039D9E770B40B784C78012C29D056
:1028400000EB431000F530631C69E40CE4041C61E8
:102850001C6924F0FF5424F4C0141C618C690CB171
:10286000CC688C61CC68CC611C6944F400241C6188
:102870001C69CD69C5F3120C44EA0C041C61012AE1
:1028800066D0D0F8003B43F00443C0F8003B002082
:1028900070BC70478C696CBB00EB4314D4F81059C2
:1028A00025F0FF5525F4C015C4F81059D4F8105977
:1028B00045F40025C4F81059D4F81059ED0CED0476
:1028C000C4F81059012A34D000EB4313D3F800297F
:1028D00042F00442C3F800298B69002BD7D0D0F80E
:1028E00034380A7802F00F0101228A401343C0F8FD
:1028F0003438CCE700EB431404F510642569ED0C83
:10290000ED042561256925F0FF5525F4C0152561E5
:10291000CD688E69AE4200D98D61256945F40025E8
:10292000256125698E69C6F3120C45EA0C052561FF
:10293000C8E74A691AB100EB4311C1F8142900EB4A
:102940004310D0F8002942F00442C0F800299EE765
:102950000A69002A95D05A6193E710B483B0024601
:1029600000230193487801280BD00B7802EB431326
:10297000D3F8000B00282DDB002003B05DF8044BDA
:1029800070470B7802EB4313D3F80049002C01DBAE
:102990000020F2E7D3F8004944F00064C3F800498E
:1029A0000B7802EB4313D3F8004944F08044C3F89A
:1029B0000049019B01330193019C42F210739C4238
:1029C000DBD80B7802EB4313D3F80039002BF0DB94
:1029D0000020D2E7D3F8000B40F00060C3F8000BF2
:1029E0000B7802EB4313D3F8000B40F08040C3F8A0
:1029F000000B019B01330193019842F2107398423E
:102A000008D80B7802EB4313D3F8003B002BF0DB24
:102A10000020B2E70120B0E710B59DF8084084B966
:102A200003334FEA930E4FF0000C08E000EB023343
:102A300003F5805351F8044B1C600CF1010CF44574
:102A4000F4D3002010BD0000F0B583B00B784C78B3
:102A5000012C33D000EB431303F5306CDCF810404D
:102A6000E40CE404CCF81040DCF8104024F0FF54EF
:102A700024F4C014CCF810408C69002C40F0C780BE
:102A8000DCF81040CD68C5F312052C43CCF810409B
:102A9000DCF8104044F40024CCF81040012A00F087
:102AA000D0800A79012A00F0D380D3F8002B42F0BD
:102AB0000442C3F8002B002003B0F0BD8C6984BB36
:102AC00000EB4314D4F8105925F0FF5525F4C01538
:102AD000C4F81059D4F8105945F40025C4F8105919
:102AE000D4F81059ED0CED04C4F81059012A4CD05B
:102AF00000EB4313D3F8004944F00444C3F8004901
:102B00000C79012C6AD08B69002BD4D0D0F83438E2
:102B10000A7802F00F0101228A401343C0F83438CA
:102B2000C9E700EB4314D4F81059ED0CED04C4F8D8
:102B30001059D4F8105925F0FF5525F4C015C4F8E4
:102B40001059D4F810698D69CF683D44013DB5FB3B
:102B5000F7F5494F07EAC5453543C4F81059D4F88D
:102B600010598E69C6F312063543C4F8105904F59E
:102B700010640D79012DB9D1256925F0C045256175
:102B8000256945F000552561B0E74A691AB100EBA7
:102B90004314C4F814290A79012A08D000EB43131E
:102BA000D3F8002942F00442C3F8002983E7D0F8A3
:102BB000082812F4807F08D100EB4311D1F80029D6
:102BC00042F00052C1F80029E8E700EB4311D1F8C8
:102BD000002942F08052C1F80029DFE7D0F8084808
:102BE00014F4807F0CD1D3F8004944F00054C3F8AA
:102BF000004900920B8B0A780969FFF70DFF5AE72D
:102C0000D3F8004944F08054C3F80049F1E7CD6897
:102C10002C44013CB4FBF5F4A4B204FB05F5CD61F2
:102C2000DCF81050144E06EAC4442C43CCF8104093
:102C3000DCF81040CD69C5F312052C43CCF81040E8
:102C40002CE70A69002A3FF42CAFCCF8142028E7BF
:102C5000D0F8082812F4807F06D1D3F8002B42F078
:102C60000052C3F8002B20E7D3F8002B42F080522B
:102C7000C3F8002B19E700BF0000F81F00B583B0B0
:102C8000844608464FEA920E02F00302002305E054
:102C90000CF58051096840F8041B01337345F7D3E4
:102CA0009AB10CF5805CDCF8003001934FF0000C19
:102CB0005FFA8CF3D900019BCB4000F8013B0CF18B
:102CC000010C013A92B2002AF2D103B05DF804FB84
:102CD0000B784A78012A14D000EB4310D0F8002B6F
:102CE000002A06DB2BB1D0F8003B23F08043C0F86C
:102CF000003BD0F8003B43F40013C0F8003B002039
:102D0000704700EB4310D0F80029002A06DB2BB1F6
:102D1000D0F8003923F08043C0F80039D0F80039EA
:102D200043F40013C0F80039E9E70B784A78012A28
:102D30000ED000EB4310D0F8003B23F40013C0F892
:102D4000003B0B79023BDBB2012B15D90020704709
:102D500000EB4310D0F8003923F40013C0F8003919
:102D60000B79023BDBB2012BF0D8D0F8003943F0ED
:102D70008053C0F80039E9E7D0F8003B43F08053B6
:102D8000C0F8003BE2E7D0F8003823F4FE63C0F857
:102D90000038D0F80038090101F4FE611943C0F889
:102DA0000018002070474269806910407047D0F8D1
:102DB000183800F50060C0691840000C7047D0F862
:102DC000183800F50060C069184080B2704700EB09
:102DD0004111D1F8082B00F50060406910407047A0
:102DE00010B4D0F81048D0F8343801F00F02D340B6
:102DF000DB01DBB2234300EB411000F5106080687B
:102E000018405DF8044B7047406900F001007047BE
:102E1000D0F8003923F4FF6323F00703C0F800392A
:102E2000D0F8043843F48073C0F8043800207047A9
:102E300010B4046C154B9C4203D9D0F8003B002B16
:102E400016DB0024C0F8104BD0F8104B44F40024DB
:102E5000C0F8104BD0F8104B44F01804C0F8104BD9
:102E6000D0F8104B44F0C044C0F8104B012903D0F7
:102E700000205DF8044B7047C0F8142BD0F8003BDD
:102E800043F08023C0F8003BF2E700BF0A30544F04
:102E9000002800F0E08170B582B00446036813F0AA
:102EA000010F3BD09F4B9B6803F00C03042B2CD0ED
:102EB0009C4B9B6803F00C03082B21D06368B3F58F
:102EC000803F4FD0B3F5A02F52D0964B1A6822F412
:102ED00080321A601A6822F480221A606368002B1C
:102EE00050D000F00BFF05468E4B1B6813F4003FDB
:102EF00014D100F003FF401B6428F5D90320B1E191
:102F0000884B5B6813F4800FD8D0864B1B6813F492
:102F1000003F03D06368002B00F09F81236813F00B
:102F2000020F54D07F4B9B6813F00C0F3ED07D4BAB
:102F30009B6803F00C03082B33D0E368002B68D0A8
:102F4000794B01221A6000F0D9FE0546754B1B68CB
:102F500013F0020F54D100F0D1FE401B0228F5D926
:102F600003207FE16F4A136843F480331360B5E7B1
:102F70006C4B1A6842F480221A601A6842F480325C
:102F80001A60ABE700F0BAFE0546664B1B6813F407
:102F9000003FC3D000F0B2FE401B6428F5D90320E7
:102FA00060E1604B5B6813F4800FC6D15D4B1B681A
:102FB00013F0020F03D0E368012B40F05081594A0F
:102FC000136823F0F803216943EAC10313602368FF
:102FD00013F0080F42D063696BB3534B0122C3F85F
:102FE000802E00F08BFE05464E4B5B6F13F0020FF8
:102FF00034D100F083FE401B0228F5D9032031E1D3
:10300000484A136823F0F803216943EAC1031360B7
:10301000DDE7454B00221A6000F070FE0546414B8B
:103020001B6813F0020FD2D000F068FE401B02288C
:10303000F5D9032016E13C4B0022C3F8802E00F0A6
:103040005DFE0546374B5B6F13F0020F06D000F0B4
:1030500055FE401B0228F5D9032003E1236813F035
:10306000040F77D02F4B1B6C13F0805F33D10023FC
:1030700001932C4B1A6C42F080521A641B6C03F0C3
:1030800080530193019B0125284B1B6813F4807F1B
:1030900023D0A368012B34D0052B38D0214B1A6FD5
:1030A00022F001021A671A6F22F004021A67A3685D
:1030B000002B3DD000F022FE06461A4B1B6F13F08A
:1030C000020F46D100F01AFE801B41F2883398426D
:1030D000F3D90320C6E00025D6E7144A136843F469
:1030E0008073136000F00AFE0646104B1B6813F451
:1030F000807FCED100F002FE801B0228F5D903208C
:10310000B0E0084A136F43F001031367CFE7054BA4
:103110001A6F42F004021A671A6F42F001021A672E
:10312000C5E700BF00380240000047420070004081
:1031300000F0E4FD0646524B1B6F13F0020F08D05F
:1031400000F0DCFD801B41F288339842F3D9032064
:1031500088E0EDB9A369002B00F08380484A9268AB
:1031600002F00C02082A51D0022B17D0454B002246
:103170001A6600F0C3FD0446414B1B6813F0007F44
:1031800042D000F0BBFD001B0228F5D9032069E006
:103190003B4A136C23F080531364DBE7394B002266
:1031A0001A6600F0ABFD0546354B1B6813F0007F37
:1031B00006D000F0A3FD401B0228F5D9032051E002
:1031C000E369226A1343626A43EA8213A26A5208DD
:1031D000013A43EA0243E26A43EA0263284A53603F
:1031E000284B01221A6600F089FD0446244B1B6817
:1031F00013F0007F06D100F081FD001B0228F5D9F5
:1032000003202FE000202DE000202BE0012B2BD00D
:103210001B4B5B6803F48001E269914226D103F005
:103220003F02216A8A4223D1616A47F6C0721A407E
:10323000B2EB811F1ED103F44031A26A5208013A59
:10324000B1EB024F18D103F07063E26AB3EB026F87
:1032500014D1002006E001207047012002E0012087
:1032600000E0002002B070BD0120FBE70120F9E77B
:103270000120F7E70120F5E70120F3E70120F1E75E
:10328000003802400000474208B5314B9B6803F00C
:103290000C03042B57D0082B57D12D4B5A6802F042
:1032A0003F025B6813F4800F2AD0294B5968C1F3A1
:1032B000881C4FEA4C11B1EB0C006EEB0E0E4FEA7E
:1032C0008E1343EA90638101091A63EB0E03DB005E
:1032D00043EA5173C90011EB0C0C43F1000359028E
:1032E00000234FEA4C2041EADC51FCF7C1FF184BA8
:1032F0005B68C3F3014301335B00B0FBF3F025E0EF
:10330000134B5968C1F3881C4FEA4C11B1EB0C0008
:103310006EEB0E0E4FEA8E1343EA90638101091A99
:1033200063EB0E03DB0043EA5173C90011EB0C0C95
:1033300043F10003990200234FEA8C2041EA9C519B
:10334000FCF796FFD3E7034800E0034808BD00BF41
:103350000038024000127A000024F400002800F037
:103360009B8070B50D4604464F4B1B6803F0070366
:103370008B4208D2CBB24C4A1370136803F0070398
:103380008B4240F08B80236813F0020F17D013F0AC
:10339000040F04D0454A936843F4E05393602368D4
:1033A00013F0080F04D0414A936843F460439360DC
:1033B0003E4A936823F0F003A1680B4393602368AF
:1033C00013F0010F32D06368012B21D09A1E012A1D
:1033D00025D9364A126812F0020F61D033498A6843
:1033E00022F0030213438B6000F088FC06462F4B4B
:1033F0009B6803F00C036268B3EB820F16D000F0F9
:103400007DFC801B41F288339842F0D9032042E0D2
:10341000264A126812F4003FE0D101203BE0234A23
:10342000126812F0007FD9D1012034E01E4B1B68D6
:1034300003F00703AB4207D9EAB21B4B1A701B68B3
:1034400003F00703AB422DD1236813F0040F06D01D
:10345000164A936823F4E053E1680B4393602368B2
:1034600013F0080F07D0114A936823F460432169D1
:1034700043EAC1039360FFF707FF0C4B9B68C3F35C
:1034800003130B4AD35CD8400A4B18600A4B1868E8
:10349000FEF740FB002070BD012070470120FAE7D5
:1034A0000120F8E70120F6E7003C02400038024026
:1034B000848400080800002004000020014B1868E4
:1034C000704700BF0800002008B5FFF7F7FF044B66
:1034D0009B68C3F38223034AD35CD84008BD00BF76
:1034E000003802409484000808B5FFF7E7FF044B5A
:1034F0009B68C3F34233034AD35CD84008BD00BF86
:1035000000380240948400080F2303600B4B9A6834
:1035100002F0030242609A6802F0F00282609A6848
:1035200002F4E052C2609B68DB0803F4E0530361DD
:10353000034B1B6803F007030B6070470038024021
:10354000003C024000230F2B00F2E48070B582B0F3
:1035500060E085685E000324B44025EA0405CC6879
:10356000B4402C438460456825EA02054C68C4F3E6
:1035700000129A402A4342605AE0DC08083450F8AE
:10358000246003F0070295000F22AA4026EA020EEB
:103590000A69AA4042EA0E0240F824205CE00722B1
:1035A00000E0002202FA0EF22A4302345A4D45F896
:1035B00024205A4A94686FEA0C0224EA0C054E68EB
:1035C00016F4801F01D04CEA0405544CA560E46851
:1035D00002EA04054E6816F4001F01D04CEA040507
:1035E0004E4CE560646802EA04054E6816F4003F3C
:1035F00001D04CEA0405494C6560246822404D68BE
:1036000015F4803F01D04CEA0402444C226001339F
:103610000F2B7DD801229A400C6804EA020C32EA92
:103620000404F4D14C6804F00304013C012C90D94B
:103630004A6802F00302032A09D0C4685D0003222D
:10364000AA4024EA02048A68AA402243C2604A6867
:1036500002F00302022A90D004684FEA430E0322CC
:1036600002FA0EF224EA02044A6802F0030202FAA5
:103670000EF2224302604A6812F4403FC7D0002293
:103680000192274A546C44F480445464526C02F40E
:1036900080420192019A9C08A51C1F4A52F82550AD
:1036A00003F003024FEA820E0F2202FA0EF225EA1D
:1036B00002051C4A90423FF474AF02F580629042CA
:1036C0001AD002F58062904218D002F580629042D2
:1036D00016D002F58062904214D002F580629042CA
:1036E00012D002F58062904210D002F580629042C2
:1036F0003FF455AF082255E7012253E7022251E774
:1037000003224FE704224DE705224BE7062249E753
:1037100002B070BD704700BF00380140003C01405E
:1037200000380240000002400AB18161704709047C
:103730008161704730B405682C6824F480242C60C3
:10374000046863608368402B05D003689960036850
:10375000DA6030BC704703689A600368D960F8E7A4
:1037600010B40368D9B210390C4AA2FB0142120905
:103770000B4CA25CC2655F2909D923F47F7323F047
:10378000030304338365806D5DF8044B704723F4B5
:103790007F7323F003038365F5E700BFABAAAAAAF2
:1037A0007C840008836A826992B9012B0AD0022BBB
:1037B00002D00BB100207047C36A13F0807F28D17C
:1037C00000207047C36AB3F1C07F24D00020704747
:1037D000B2F5005F09D0022B25D9032B25D1C36A8E
:1037E00013F0807F23D100207047032B03D8DFE83C
:1037F00003F01404140A00207047C36A13F0807F9A
:103800000DD100207047C36AB3F1C07F09D00020FA
:103810007047012070470120704701207047012048
:103820007047012070470120704700207047012039
:103830007047000070B5044600F060FA002C5BD0C1
:103840000546022384F83530002384F8343022689A
:10385000136823F00103136023681A6812F0010F44
:103860000AD000F04BFA431B052BF5D920236365E2
:10387000032084F8350070BD1A6820481040616844
:10388000A2680A43E1680A4321690A4361690A435D
:10389000A1690A43E1690A43216A0A430243616A52
:1038A00004291ED01A602668756925F00705636A29
:1038B0001D43042B07D1A36A1D43E36A1BB12046B5
:1038C000FFF770FF90B975612046FFF749FFE26D81
:1038D0003F239340836000206065012384F83530E6
:1038E000C9E7E16A206B01430A43DBE740236365D4
:1038F000012084F83500BEE70120BCE73F8010F0CE
:1039000038B50446856D90F8340001282BD001208D
:1039100084F8340094F83500C0B2012804D00023A4
:1039200084F83430022038BD022084F835000020AD
:1039300060652046FFF7FEFEE26D3F239340AB60DB
:103940002268136843F016031360236C23B12268C6
:10395000136843F0080313602268136843F00103FF
:1039600013600020DFE70220DDE770B50446866DB6
:1039700000F0C4F994F83530DBB2022B06D0802376
:103980006365002384F83430012070BD0546226849
:10399000136823F0160313602268536923F0800331
:1039A0005361236CE3B12268136823F008031360AA
:1039B0002268136823F00103136023681B6813F067
:1039C000010F11D000F09AF9431B052BF5D92023E4
:1039D0006365032084F83500002384F83430D4E78D
:1039E000A36C002BDFD1E3E7E26D3F239340B3608C
:1039F000012384F83530002084F83400C5E790F8BE
:103A00003530DBB2022B03D08023436501207047A1
:103A1000052380F835300268136823F00103136032
:103A200000207047F0B583B0044600230193724B29
:103A30001D68724BA3FB0535AD0A876D3E68C26DEC
:103A400008239340334210D003681A6812F0040F21
:103A50000BD01A6822F004021A60C26D082393404A
:103A6000BB60436D43F001034365E26D0123934066
:103A7000334209D02268526912F0800F04D0BB6033
:103A8000636D43F002036365E26D042393403342A8
:103A900009D02268126812F0020F04D0BB60636D77
:103AA00043F004036365E26D10239340334224D056
:103AB0002268126812F0080F1FD0BB6023681A68D2
:103AC00012F4802F0DD01B6813F4002F04D1236C47
:103AD0009BB12046984710E0A36C73B120469847ED
:103AE0000BE01A6812F4807F03D11A6822F00802F2
:103AF0001A60236C0BB120469847E26D2023934057
:103B0000334255D02268126812F0100F50D0BB60BB
:103B100094F83530DBB2052B0ED023681A6812F406
:103B2000802F33D01B6813F4002F2AD1636C002B35
:103B30003ED0204698473BE02268136823F01603E6
:103B400013602268536923F080035361236CA3B18F
:103B50002268136823F008031360E26D3F2393404B
:103B6000BB60012384F83530002384F83430236DA2
:103B7000002B3FD0204698473CE0A36C002BE7D1B8
:103B8000EBE7E36BA3B12046984711E01A6812F403
:103B9000807F09D11A6822F010021A60012384F88C
:103BA0003530002384F83430E36B0BB1204698475E
:103BB000636DFBB1636D13F0010F17D0052384F81B
:103BC00035302268136823F001031360019B013331
:103BD0000193AB4204D823681B6813F0010FF5D1A1
:103BE000012384F83530002384F83430E36C0BB1C2
:103BF0002046984703B0F0BD08000020B5814E1B59
:103C0000074AD36823F4E0631B041B0C000200F492
:103C1000E060034343F0BF6343F40033D360704775
:103C200000ED00E000B5194BDB68C3F30223C3F1DC
:103C3000070CBCF1040F28BF4FF0040C03F1040E75
:103C4000BEF1060F18D9033B4FF0FF3E0EFA0CFCF5
:103C500021EA0C0199400EFA03F322EA0303194307
:103C600000280BDB0901C9B200F1604000F561409A
:103C700080F800135DF804FB0023E5E700F00F0077
:103C80000901C9B2024B1954F4E700BF00ED00E08E
:103C900014ED00E0002807DB00F01F0240090123BB
:103CA0009340024A42F82030704700BF00E100E034
:103CB00008B50B4B1A6842F400721A601A6842F495
:103CC00080621A601A6842F480721A600320FFF75B
:103CD00097FF0F20FDF71EFFFDF7FAFE002008BD3D
:103CE000003C0240034A1168034B1B780B441360ED
:103CF000704700BF5808002000000020014B1868E2
:103D0000704700BF5808002003685A6912F4806F9A
:103D100001D1002070476FF480625A610023036371
:103D2000202280F83D2080F83E30026C42F00402F0
:103D3000026480F83C30012070472DE9F0410746CD
:103D40000D4690461E4624E0FFF7D8FF069BC01A9A
:103D5000B04200D8EEB900233B63202287F83D2013
:103D600087F83E303A6C42F020023A6487F83C30E3
:103D700001201EE03B689C6925EA040C1FFA8CFCBC
:103D8000BCFA8CFC4FEA5C1CE04511D1B6F1FF3F58
:103D9000DAD1C5F30743012BECD13B685B6925EA17
:103DA000030C1FFA8CFCBCFA8CFC4FEA5C1CEBE7A2
:103DB0000020BDE8F0812DE9F04105460E4617468A
:103DC00098463DE01A6842F400721A602B686FF45E
:103DD00080625A6100232B63202285F83D2085F8FC
:103DE0003E302A6C42F004022A6485F83C300120FF
:103DF00034E0FFF783FFA0EB0800B84200D8FFB91A
:103E000000232B63202285F83D2085F83E302A6C64
:103E100042F020022A6485F83C3001201EE02B6825
:103E20009C6926EA0404A4B2003C18BF0124A4B192
:103E30002B685A6912F4806FC4D1B7F1FF3FD8D113
:103E4000C6F30743012BEAD12B685C6926EA040418
:103E5000A4B2003C18BF0124E9E70020BDE8F081CE
:103E6000F0B583B004460D4616461F46C36A082BBC
:103E70000DD0012B0BD013F5803F08D0036B122B14
:103E80000AD10268136843F48073136004E0226867
:103E9000136843F4807313600097334600224FF099
:103EA00001112046FFF749FF80B92369B3F5804F20
:103EB00016D1236805F0FE051D613B4632461349C5
:103EC0002046FFF778FFF8B903B0F0BD23681B6800
:103ED00013F4807F02D04FF4007323640320F3E7D0
:103EE000EB11226803F0060343F0F00313613B4635
:103EF000324607492046FFF75EFF18B92368EDB246
:103F00001D61DAE70120DFE70120DDE702000100A3
:103F1000080001002DE9F04184B004460D46164624
:103F20001F46C26A01680B6843F480630B60082A6D
:103F30000DD0012A0BD012F5803F08D0036B112B56
:103F40000AD10268136843F48073136004E02268A6
:103F5000136843F4807313600097334600224FF0D8
:103F600001112046FFF7E9FE98B92369B3F5804FA8
:103F700019D1236845F00105EDB21D613B4632467B
:103F80002A492046FFF717FF00284CD104B0BDE8AE
:103F9000F08123681B6813F4807F02D04FF4007314
:103FA00023640320F2E74FEAE51808F006082368C7
:103FB00048F0F0021A613B4632461D492046FFF7A1
:103FC000FAFE08B10120E1E72368EDB21D613B462E
:103FD000324616492046FFF7EEFE08B10120D5E72C
:103FE0000022039223685969039199690391039907
:103FF000196841F480711960009733464FF0011140
:104000002046FFF79AFE20B9226848F0F1031361B9
:10401000B4E723681B6813F4807F02D04FF4007369
:1040200023640320B2E70120B0E700BF02000100D3
:104030000800010070B504460D46164623685B690A
:1040400013F0800F1CD12046FFF75EFED0B9B5F10A
:10405000FF3FF3D0FFF752FE801BA84201D8002D8E
:10406000ECD100232363202284F83D2084F83E30E5
:10407000226C42F02002226484F83C30012000E0EF
:10408000002070BD0120FCE770B504460D461646C1
:1040900023685B6913F0040F1CD12046FFF734FE40
:1040A000D0B9B5F1FF3FF3D0FFF728FE801BA8423F
:1040B00001D8002DECD100232363202284F83D2079
:1040C00084F83E30226C42F02002226484F83C30B6
:1040D000012000E0002070BD0120FCE770B505461E
:1040E0000C4616462B68596911F0400F29D15969C1
:1040F00011F0100F15D1FFF701FE801BA04201D86F
:10410000002CEFD100232B63202285F83D2085F879
:104110003E302A6C42F020022A6485F83C300120AF
:1041200070BD6FF010025A6100232B63202285F8C6
:104130003D2085F83E302A6C2A6485F83C30012009
:10414000EEE70020ECE70000002800F0CC8070B51E
:10415000044690F83D30002B77D0242384F83D307E
:104160002268136823F0010313602268136843F484
:10417000004313602268136823F400431360FFF7C1
:10418000A3F962685A4B9A4264D85A4B98428CBF42
:1041900000230123002B40F0A8805749A1FB0031E8
:1041A0008B0C25686A6822F03F0242EA91426A60FD
:1041B00021680A6A22F03F0266684D4DAE424FD830
:1041C000013313430B622168CA6922F44F4222F083
:1041D000FF026668464B9E424CD8431E7600B3FBF6
:1041E000F6F3013340F6FC70034278D0C3F30B03BF
:1041F0001343CB6121680B6823F0C003E269206A96
:10420000024313430B6021688B6823F4034323F0BC
:10421000FF032269E068024313438B602168CB6887
:1042200023F0FF036269A06902431343CB60226855
:10423000136843F00103136000202064202384F8F6
:104240003D30206384F83E0070BD80F83C30FDF7BF
:1042500055FA82E7294B98428CBF0023012399E746
:104260004FF4967505FB03F3254DA5FB03539B09FE
:104270000133A6E7A368BBB9451E06EB460CB5FBA8
:10428000FCF50135C5F30B05B5FA85F56D0945BBA0
:10429000C3B9013806EB4603B0FBF3F30133C3F3B4
:1042A0000B0343F40043A3E7451E06EB860C0CEB1F
:1042B0008C0CB5FBFCF50135C5F30B05B5FA85F59E
:1042C0006D09E4E7013806EB860303EB8303B0FBDB
:1042D000F3F30133C3F30B0343F4404388E70423B0
:1042E00086E7012384E7012070470120ACE700BF87
:1042F000A08601007F841E0083DE1B43FF083D0073
:10430000D34D62102DE9F04385B004460F46914627
:1043100098460C9EFFF7F2FC054694F83D00C0B2AB
:10432000202804D00227384605B0BDE8F083009568
:10433000192301224F492046FFF7FFFC002840F0D7
:10434000928094F83C30012B00F08F80012384F898
:104350003C3023681A6812F0010F03D11A6842F04A
:1043600001021A602268136823F40063136021239A
:1043700084F83D30102384F83E3000232364C4F8D1
:104380002490A4F82A80638D23853B4BE3622B465F
:10439000324639462046FFF763FD0746002866D1BE
:1043A0000023039323685A6903929B690393039B39
:1043B00011E0236C042B01D00127B4E722681368B5
:1043C00043F400731360F7E72A4631462046FFF7AF
:1043D0005BFE00282ED1238D002B36D02A46314695
:1043E0002046FFF727FE0028E3D1626A236812788F
:1043F0001A61606A431C6362618D89B2013989B2B6
:104400006185238D013B9BB223852268516911F0A0
:10441000040FD9D0002BD7D043781361636A0133DE
:104420006362638D9BB2013B9BB26385238D013B2D
:104430002385C9E7236C042B01D0012773E7226889
:10444000136843F400731360F7E72268136843F4BA
:1044500000731360202384F83D30002384F83E303D
:1044600084F83C305FE702275DE702275BE701271E
:1044700059E700BF020010000000FFFF2DE9F043E4
:1044800087B004460F46914698460E9EFFF736FCCD
:10449000054694F83D00C0B2202804D002273846D3
:1044A00007B0BDE8F0830095192301228949204611
:1044B000FFF743FC002840F0458194F83C30012B85
:1044C00000F04281012384F83C3023681A6812F01E
:1044D000010F03D11A6842F001021A6022681368C2
:1044E00023F400631360222384F83D30102384F802
:1044F0003E3000232364C4F82490A4F82A80638DFE
:104500002385754BE3622B46324639462046FFF73A
:1045100001FD0746002840F01981238D5BB9029305
:1045200023685A6902929A690292029A1A6842F4BE
:1045300000721A607AE0012B0FD0022B1FD0226884
:10454000136843F4806313600023059323685A695A
:1045500005929B690593059B68E02268136823F424
:10456000806313600023039323685A6903929A6956
:104570000392039A1A6842F400721A6056E02268A5
:10458000136823F4806313602268136843F40063A4
:1045900013600023049323685A6904929B6904936F
:1045A000049B43E02A4631462046FFF797FD00284A
:1045B00040F0CE8023681A69636A1A70636A013317
:1045C0006362238D013B2385638D9BB2013B9BB2CC
:1045D00063852BE000953346002240492046FFF7D3
:1045E000ACFB002840F0B6802268136843F40073E7
:1045F000136023681A69636A1A70626A531C6362E3
:10460000238D013B2385638D9BB2013B9BB2638568
:1046100023681B695370636A01336362238D013B16
:104620002385638D9BB2013B9BB26385218D00295D
:104630007FD0032954D80129B4D00229CAD00095CB
:104640003346002225492046FFF777FB002840F03B
:1046500083802268136823F48063136023681A69D7
:10466000636A1A70636A01336362238D013B238599
:10467000618D89B2013989B2618500953346002286
:1046800016492046FFF759FB002867D122681368B6
:1046900043F40073136023681A69636A1A70626ACC
:1046A000531C6362238D013B2385638D9BB2013BC9
:1046B0009BB2638523681B695370636A013363622D
:1046C000238D013B2385638D9BB2013B9BB26385A8
:1046D000ACE700BF020010000000FFFF0400010073
:1046E0002A4631462046FFF7F9FC002838D12368D6
:1046F0001A69636A1A70626A531C6362238D013BF4
:104700002385638D9BB2013B9BB263852368596906
:1047100011F0040F8AD01B695370636A013363621E
:10472000238D013B2385638D9BB2013B9BB2638547
:104730007CE7202384F83D30002384F83E3084F861
:104740003C30ACE60227AAE60227A8E60127A6E647
:104750000127A4E60127A2E60127A0E601279EE69D
:1047600001279CE67047000090F83D30DBB2012B3A
:1047700037D1022380F83D300268D36843F001034B
:10478000D3600368194A934220D0B3F1804F1DD003
:10479000A2F57C42934219D002F58062934215D073
:1047A00002F58062934211D002F5784293420DD017
:1047B00002F57052934209D0A2F59432934205D08B
:1047C0001A6842F001021A60002070479A6802F0ED
:1047D0000702062A07D01A6842F001021A60002078
:1047E0007047012070470020704700BF0000014063
:1047F000704770477047704710B5044603681A69E0
:1048000012F0020F11D0DA6812F0020F0DD06FF023
:1048100002021A610123037703689B6913F0030FF7
:1048200070D0FFF7E6FF0023237723681A6912F0A0
:10483000040F12D0DA6812F0040F0ED06FF00402E9
:104840001A610223237723689B6913F4407F5FD0AA
:104850002046FFF7CEFF0023237723681A6912F062
:10486000080F12D0DA6812F0080F0ED06FF00802AD
:104870001A61042323772368DB6913F0030F4ED0FA
:104880002046FFF7B6FF0023237723681A6912F04A
:10489000100F12D0DA6812F0100F0ED06FF0100265
:1048A0001A61082323772368DB6913F4407F3DD026
:1048B0002046FFF79EFF0023237723681A6912F032
:1048C000010F03D0DA6812F0010F36D123681A699C
:1048D00012F0800F03D0DA6812F0800F34D1236811
:1048E0001A6912F0400F03D0DA6812F0400F32D18B
:1048F00023681A6912F0200F03D0DA6812F0200F33
:1049000030D110BDFFF774FF2046FFF773FF8AE731
:104910002046FFF76DFF2046FFF76CFF9BE7204620
:10492000FFF766FF2046FFF765FFACE72046FFF77D
:104930005FFF2046FFF75EFFBDE76FF001021A61DF
:104940002046FCF7A7FDC1E76FF080021A61204600
:1049500000F0A1F8C3E76FF040021A612046FFF7AC
:104960004AFFC5E76FF020021A61204600F092F876
:10497000C7E700000368304A904212D0B0F1804F80
:104980000FD0A2F57C4290420BD002F5806290429B
:1049900007D002F58062904203D002F5784290423F
:1049A00003D123F070034A681343234A90422AD06C
:1049B000B0F1804F27D0A2F57C42904223D002F57F
:1049C000806290421FD002F5806290421BD002F5B7
:1049D0007842904217D002F57052904213D002F5FF
:1049E000806290420FD002F5806290420BD0A2F517
:1049F0009832904207D002F58062904203D002F5CF
:104A00008062904203D123F44073CA68134323F0B9
:104A100080034A69134303608B68C3620B68836237
:104A2000054B984203D003F58063984201D10B698E
:104A300003630123436170470000014040B310B598
:104A4000044690F83D30F3B1022384F83D3021460E
:104A500051F8040BFFF78EFF012384F8463084F8E9
:104A60003E3084F83F3084F8403084F8413084F898
:104A7000423084F8433084F8443084F8453084F878
:104A80003D30002010BD80F83C30FFF76BFEDBE7C7
:104A90000120704770477047026802F10C0353E829
:104AA000003F23F0C0030C3242E800310029F3D16B
:104AB000202380F83D307047026802F10C0353E870
:104AC000003F23F490730C3242E800310029F3D107
:104AD000026802F1140353E8003F23F0010314328B
:104AE00042E800310029F3D1036B012B05D02023CC
:104AF00080F83E30002303637047026802F10C0324
:104B000053E8003F23F010030C3242E80031002943
:104B1000F3D1ECE790F83D30DBB2212B01D002203D
:104B200070478368B3F5805F17D0036A5A1C02622E
:104B30001A7803685A60C38C9BB2013B9BB2C38452
:104B40004BB90268D36823F08003D3600268D3684E
:104B500043F04003D360002070470369002BE4D189
:104B6000036A1B880268C3F308035360036A0233B5
:104B70000362E0E738B504460268136923F4405342
:104B8000C1680B431361836802691343426913438D
:104B9000C2691A430168CB6823F4164323F00C035F
:104BA0001343CB600268536923F4407381690B435C
:104BB00053610368314A934206D002F58062934202
:104BC00002D0FEF781FC01E0FEF78EFCE369B3F54D
:104BD000004F29D00021031849411B1841F1000161
:104BE000C90041EA5371DB00181863684FEA830279
:104BF0004FEA937341F10001FBF73AFB204DA5FB0F
:104C000000325109642303FB11031B013233A5FB5E
:104C100003235B0903F0F00202EB011203F00F0320
:104C2000216813448B6038BD0023021843EB030155
:104C3000121841F10001C90041EA5271D200101866
:104C400041F10001626892185B41FBF711FB0C4DCA
:104C5000A5FB00325109642303FB1103DB0032334F
:104C6000A5FB03235B095A0002F4F87202EB011260
:104C700003F00703216813448B60D4E70010014060
:104C80001F85EB512DE9F84305460F461646994618
:104C9000DDF820802C68246837EA04030CBF4FF04D
:104CA000010C4FF0000CB4452DD1B8F1FF3FF1D00D
:104CB000B8F1000F05D0FFF721F8A0EB090040453F
:104CC000E8D92A6802F10C0353E8003F23F4D073BB
:104CD0000C3242E800310029F3D12A6802F11403B2
:104CE00053E8003F23F00103143242E80031002969
:104CF000F3D1202385F83D3085F83E30002385F838
:104D00003C30032000E00020BDE8F88358B310B524
:104D1000044690F83D300BB3242384F83D302268DC
:104D2000D36823F40053D3602046FFF723FF2268A3
:104D3000136923F4904313612268536923F02A0313
:104D400053612268D36843F40053D3600020206489
:104D5000202384F83D3084F83E3010BD80F83C308C
:104D6000FCF72AFDD8E7012070472DE9F04182B019
:104D70001E4690F83D30DBB2202B54D104460D4640
:104D80009046002953D0002A53D090F83C30012B94
:104D900051D0012380F83C3000230364212380F8A4
:104DA0003D30FEF7ABFF0746A4F82480A4F8268028
:104DB000A368B3F5805F05D04FF00008002384F8A6
:104DC0003C3012E0236913B14FF00008F6E7A84623
:104DD0000025F3E738F8023B2268C3F30803536069
:104DE000E28C92B2013A92B2E284E38C9BB273B14C
:104DF00000963B46002280212046FFF743FFE0B9A2
:104E0000002DE7D015F8012B23685A60E8E70096DB
:104E10003B46002240212046FFF734FF78B920238B
:104E200084F83D3000E0022002B0BDE8F0810120AE
:104E3000FAE70120F8E70220F6E70320F4E7032071
:104E4000F2E72DE9F04182B01E4690F83E30DBB229
:104E5000202B5CD104460D46904600295BD0002AE9
:104E60005BD090F83C30012B59D0012380F83C30C6
:104E700000230364222280F83E200363FEF73EFFF6
:104E80000746A4F82C80A4F82E80A368B3F5805FB1
:104E900005D04FF00008002384F83C3017E0236968
:104EA00013B14FF00008F6E7A8460025F3E72368A2
:104EB0005B68C3F3080328F8023B03E023685B68E0
:104EC0002B700135E28D92B2013A92B2E285E38D08
:104ED0009BB2BBB100963B46002220212046FFF743
:104EE000D1FEF0B9002DE2D0A368B3F5805FE5D024
:104EF00013B92369002BE1D023685B6803F07F03BB
:104F00002B70DEE7202384F83E30002000E00220F2
:104F100002B0BDE8F0810120FAE70120F8E70220A5
:104F2000F6E70320F4E7704708B50168CA6822F085
:104F30004002CA60202280F83D20FFF7F4FF0020E5
:104F400008BD70477047704710B5846B23685A6975
:104F500094F83D30DBB2212B10D023685A6902F05F
:104F6000400294F83E30DBB2222B11D0236C43F088
:104F7000100323642046FFF7E6FF10BD02F0800215
:104F8000002AEAD00023E3842046FFF785FDE4E70A
:104F9000002AEBD00023E3852046FFF78DFDE5E7EF
:104FA00008B5806B0023C385C384FFF7CCFF08BD21
:104FB000704790F83E30DBB2222B67D18368B3F59F
:104FC000805F4DD0826AB3F5805F04D0002B54D14E
:104FD0000369002B51D103685B681370836A013346
:104FE0008362C38D9BB2013B9BB2C385002B4FD123
:104FF00000B583B00268D36823F02003D360026851
:10500000D36823F48073D3600268536923F00103EB
:105010005361202380F83E30036B012B33D10023F2
:105020000363026802F10C0353E8003F23F010030E
:105030000C3242E800310029F3D103681A6812F0FB
:10504000100F06D0002201921A6801925B6801934A
:10505000019B818DFFF7ACFF002003B05DF804FBDE
:105060000269002AAED1826A03685B68C3F3080351
:105070001380836A02338362B3E703685B6803F0DB
:105080007F031370AAE7FFF75CFFE5E70220704794
:105090000020704730B583B0044602681368D068BA
:1050A000516913F00F0505D113F0200F02D010F055
:1050B000200F19D12DB111F0010119D110F4907FF9
:1050C00016D1216B01297DD013F0800F03D010F091
:1050D000800F40F0158113F0400F03D010F0400F07
:1050E00040F0128103B030BD2046FFF762FFF9E7C0
:1050F00013F0010F06D010F4807F03D0226C42F031
:105100000102226413F0040F04D019B1226C42F0A2
:105110000202226413F0020F04D019B1226C42F093
:105120000402226413F0080F07D010F0200F00D102
:1051300019B1226C42F008022264226C002AD1D0FC
:1051400013F0200F02D010F0200F29D123685B69E3
:1051500003F04003226C12F0080F00D163B3204625
:10516000FFF7AAFC23685B6913F0400F20D0226888
:1051700002F1140353E8003F23F04003143242E8E5
:1051800000310029F3D1A36B73B1614A1A65A06B9A
:10519000FEF735FC0028A5D0A06B036D9847A1E76A
:1051A0002046FFF706FFD1E72046FFF7CCFE99E740
:1051B0002046FFF7C8FE95E72046FFF7C4FE002310
:1051C00023648FE713F0100F3FF47EAF10F0100F41
:1051D0003FF47AAF0023019313680193536801935E
:1051E000019B536913F0400F50D0A26B13685B68AA
:1051F0009BB2002B3FF476AFA18D99427FF672AF40
:10520000E385D369B3F5807F37D0226802F10C03C0
:1052100053E8003F23F480730C3242E80031002948
:10522000F3D1226802F1140353E8003F23F0010395
:10523000143242E800310029F3D1226802F114034C
:1052400053E8003F23F04003143242E800310029C4
:10525000F3D1202384F83E3000232363226802F137
:105260000C0353E8003F23F010030C3242E80031F6
:105270000029F3D1A06BFEF778FBA18DE38D9BB2E3
:10528000C91A89B22046FFF793FE2BE7A18DE38D63
:105290009BB2C91A89B2E38D9BB2002B3FF422AFB7
:1052A00000293FF41FAF226802F10C0353E8003FCE
:1052B00023F490730C3242E800300028F3D12268C6
:1052C00002F1140353E8003F23F00103143242E8D3
:1052D00000300028F3D1202384F83E3000232363DC
:1052E000226802F10C0353E8003F23F010030C3254
:1052F00042E800300028F3D12046FFF759FEF1E6DE
:105300002046FFF707FCEDE62046FFF70DFEE9E635
:10531000A14F000808B5806B036B012B02D0FFF78B
:1053200011FE08BD818D4908FFF742FEF9E708B577
:105330000346806B1B681B6813F4807F2BD100230E
:10534000C385026802F10C0353E8003F23F4807325
:105350000C3242E800310029F3D1026802F1140353
:1053600053E8003F23F00103143242E800310029E2
:10537000F3D1026802F1140353E8003F23F0400325
:10538000143242E800310029F3D1202380F83E3066
:10539000036B012B05D0036B012B0FD0FFF7D1FD61
:1053A00008BD026802F10C0353E8003F23F010032C
:1053B0000C3242E800310029F3D1ECE7818DFFF790
:1053C000F7FDEDE730B583B0044613468162828570
:1053D00000250564222280F83E20826B2048D0639D
:1053E000A26B20481064A26B1F48D064A26B1565A5
:1053F00020680A46011DA06BFEF782FA019523681A
:105400001A6801925B680193019B84F83C50236900
:105410005BB1226802F10C0353E8003F43F4807350
:105420000C3242E800310029F3D1226802F1140362
:1054300053E8003F43F00103143242E800310029F1
:10544000F3D1226802F1140353E8003F43F0400314
:10545000143242E800310029F3D1002003B030BDFE
:105460002F53000815530008494F000808B590F85D
:105470003E30DBB2202B0DD171B17AB190F83C30C7
:10548000012B0DD0012380F83C3000230363FFF78C
:1054900099FF00E0022008BD0120FCE70120FAE7A7
:1054A0000220F8E7034AD2F8883043F47003C2F8C8
:1054B0008830704700ED00E0F8B505460E46002440
:1054C000274600E00134032C17D8C4EBC40305EBD6
:1054D000C303D3F80833012BF4D104F1AE0355F81C
:1054E0002330002BEED0C5F8F8421B683146284621
:1054F00098470028E6D00327E4E73846F8BDF8B51A
:1055000005460E460024274600E00134032C17D838
:10551000C4EBC40305EBC303D3F80833012BF4D168
:1055200004F1AE0355F82330002BEED0C5F8F84255
:105530005B683146284698470028E6D00327E4E711
:105540003846F8BD38B5044600F2AA25284600F0D2
:1055500053FA0123C4F89432B4F8B032C4F8983244
:1055600094F8AA1201F01F03012B0DD0022B10D0CA
:105570002BB101F080012046FCF734FA03E0294604
:10558000204600F04DFC38BD2946204600F083FC43
:10559000F9E72946204600F0C1FCF4E7F8B50546D6
:1055A000012380F89C320026C0F894624660C0F85F
:1055B000A46280F8A062344600E00134032C19D8BC
:1055C000C4EBC40305EBC303D3F80833012BF4D1B8
:1055D00004F1AE0355F82330002BEED0C5F8F842A5
:1055E0005B68002BE9D02979284698470028E4D049
:1055F0000326E2E74023002211462846FCF7E7F99C
:105600000127A5F864714024C5F8604123460022B3
:1056100080212846FCF7DBF9AF842C623046F8BDC8
:1056200001740020704790F89C32DBB280F89D3204
:10563000042380F89C320020704790F89C32DBB243
:10564000042B01D00020704790F89D32DBB280F827
:105650009C32F7E738B590F89C32DBB2032B1BD0B5
:10566000002038BD0134032CFAD8C4EBC40305EB89
:10567000C303D3F80833012BF4D104F1AE0355F87A
:105680002330002BEED0DA69002AEBD0C5F8F842BF
:10569000DB6928469847E5E705460024E3E708B5B7
:1056A000D0F8F832AE3350F823205AB190F89C323B
:1056B000DBB2032B01D0002008BD136A23B1984749
:1056C0000020F9E70320F7E70020F5E708B5D0F858
:1056D000F832AE3350F823205AB190F89C32DBB246
:1056E000032B01D0002008BD536A23B19847002046
:1056F000F9E70320F7E70020F5E70020704770B5D1
:105700000546012380F89C320024264600E001343F
:10571000032C17D8C4EBC40305EBC303D3F8083339
:10572000012BF4D104F1AE0355F82330002BEED059
:10573000C5F8F8425B682979284698470028E6D0E2
:105740000326E4E7304670BD00231CE00CF1010C99
:10575000C3EBC30200EBC202D2F82823624511D981
:10576000C3EBC30200EBC202624492F82C238A42CC
:10577000ECD103F1AE0250F822209268002AE5D065
:10578000D8B270470133032B0AD8C3EBC30200EB36
:10579000C202D2F80823012AF4D14FF0000CD7E757
:1057A000FF20704700231CE00CF1010CC3EBC30287
:1057B00000EBC202D2F80C23624511D9C3EBC3023D
:1057C0000CEB4202C43210F822208A42ECD103F1E1
:1057D000AE0250F822209268002AE5D0D8B2704775
:1057E0000133032B0AD8C3EBC30200EBC202D2F889
:1057F0000823012AF4D14FF0000CD7E7FF207047AF
:1058000038B504460D46002943D11346D0F89422FA
:10581000032A01D0084638BDD0F85C11D0F86021C9
:10582000914212D890F8AA3203F01F03012B17D02F
:10583000022B1CD0284694F89C32DBB2032B1BD0E1
:10584000204600F09EFC2846E5E7891AC0F85C1166
:105850008A4228BF0A46194600F08BFC2846DAE740
:1058600090F8AE12FFF770FF0328E9D8E3E790F84D
:10587000AE12FFF797FFF7E700F1AE0354F82330BD
:105880001A69002ADCD0C4F8F8021B692046984740
:10589000D6E701F07F01FFF785FF032813D894F8BE
:1058A0009C32DBB2032B01D00020B4E700F1AE0341
:1058B00054F823309A6942B1C4F8F8029B6929462A
:1058C00020469847A7E70020A5E70020A3E738B5C2
:1058D00004460D4600294BD11346D0F89422022AE3
:1058E00007D094F8A00218B1002384F8A03228460B
:1058F00038BDC269016A8A420ED88A4218D094F82B
:105900009C32DBB2032B27D080212046FCF76AF8BB
:10591000204600F041FCE4E7521AC261194600F04B
:1059200020FC00231A4619462046FCF77BF8D8E7EE
:1059300083699942E3D8D0F898229342DFD20022BB
:10594000114600F00EFC0021C4F898120B460A46DE
:105950002046FCF767F8C4E7D4F8B832DA68002AC2
:10596000D2D00022C4F8F822DB6820469847CBE763
:1059700041F08001FFF716FF032813D894F89C32FA
:10598000DBB2032B01D00020B2E700F1AE0354F8E4
:1059900023305A6942B1C4F8F8025B6929462046AF
:1059A0009847A5E70020A3E70020A1E703780A882D
:1059B00013440B80037818447047428803789A4256
:1059C00018D930B583B004460D46ADF8063062886C
:1059D000BDF806309A420AD90DF10601FFF7E6FF3D
:1059E0004378052BF3D18378AB42F0D100E000205F
:1059F00003B030BD002070470B7803704B784370C4
:105A00008B78CA7843EA022343800B794A7943EAC8
:105A1000022383808B79CA7943EA0223C3807047CB
:105A200010B504468021FBF7DDFF00212046FBF77F
:105A3000D9FF10BD70B582B004460D460023ADF805
:105A400006304A88130A013B062B00F2E880DFE8A3
:105A500013F0070022004800E600E600B800CE0080
:105A6000D0F8B4321B680DF10601007C9847EA8833
:105A7000002A00F0DD80BDF80630002B00F0D38056
:105A80009A4228BF1A46ADF806200146204600F08B
:105A90005BFB02B070BD037C8BB990F8FC323BB16C
:105AA000654B9B6A0DF10600984702234370DEE7C1
:105AB000D0F8B8329B6A0DF106009847F5E790F8E8
:105AC000FC323BB15C4BDB6A0DF1060098470223C8
:105AD0004370CCE7D0F8B832DB6A0DF10600984786
